{
  "abi": [
    {
      "inputs": [
        {
          "components": [
            {
              "components": [
                {
                  "internalType": "bytes",
                  "name": "data",
                  "type": "bytes"
                },
                {
                  "internalType": "bool",
                  "name": "requiresUnsignedCall",
                  "type": "bool"
                }
              ],
              "internalType": "struct Primitive[]",
              "name": "primitives",
              "type": "tuple[]"
            }
          ],
          "internalType": "struct Order",
          "name": "o1",
          "type": "tuple"
        }
      ],
      "name": "orders",
      "outputs": [
        {
          "components": [
            {
              "components": [
                {
                  "internalType": "bytes",
                  "name": "data",
                  "type": "bytes"
                },
                {
                  "internalType": "bool",
                  "name": "requiresUnsignedCall",
                  "type": "bool"
                }
              ],
              "internalType": "struct Primitive[]",
              "name": "primitives",
              "type": "tuple[]"
            }
          ],
          "internalType": "struct Order[]",
          "name": "orders",
          "type": "tuple[]"
        }
      ],
      "stateMutability": "pure",
      "type": "function"
    },
    {
      "inputs": [
        {
          "components": [
            {
              "components": [
                {
                  "internalType": "bytes",
                  "name": "data",
                  "type": "bytes"
                },
                {
                  "internalType": "bool",
                  "name": "requiresUnsignedCall",
                  "type": "bool"
                }
              ],
              "internalType": "struct Primitive[]",
              "name": "primitives",
              "type": "tuple[]"
            }
          ],
          "internalType": "struct Order",
          "name": "o1",
          "type": "tuple"
        },
        {
          "components": [
            {
              "components": [
                {
                  "internalType": "bytes",
                  "name": "data",
                  "type": "bytes"
                },
                {
                  "internalType": "bool",
                  "name": "requiresUnsignedCall",
                  "type": "bool"
                }
              ],
              "internalType": "struct Primitive[]",
              "name": "primitives",
              "type": "tuple[]"
            }
          ],
          "internalType": "struct Order",
          "name": "o2",
          "type": "tuple"
        },
        {
          "components": [
            {
              "components": [
                {
                  "internalType": "bytes",
                  "name": "data",
                  "type": "bytes"
                },
                {
                  "internalType": "bool",
                  "name": "requiresUnsignedCall",
                  "type": "bool"
                }
              ],
              "internalType": "struct Primitive[]",
              "name": "primitives",
              "type": "tuple[]"
            }
          ],
          "internalType": "struct Order",
          "name": "o3",
          "type": "tuple"
        },
        {
          "components": [
            {
              "components": [
                {
                  "internalType": "bytes",
                  "name": "data",
                  "type": "bytes"
                },
                {
                  "internalType": "bool",
                  "name": "requiresUnsignedCall",
                  "type": "bool"
                }
              ],
              "internalType": "struct Primitive[]",
              "name": "primitives",
              "type": "tuple[]"
            }
          ],
          "internalType": "struct Order",
          "name": "o4",
          "type": "tuple"
        },
        {
          "components": [
            {
              "components": [
                {
                  "internalType": "bytes",
                  "name": "data",
                  "type": "bytes"
                },
                {
                  "internalType": "bool",
                  "name": "requiresUnsignedCall",
                  "type": "bool"
                }
              ],
              "internalType": "struct Primitive[]",
              "name": "primitives",
              "type": "tuple[]"
            }
          ],
          "internalType": "struct Order",
          "name": "o5",
          "type": "tuple"
        },
        {
          "components": [
            {
              "components": [
                {
                  "internalType": "bytes",
                  "name": "data",
                  "type": "bytes"
                },
                {
                  "internalType": "bool",
                  "name": "requiresUnsignedCall",
                  "type": "bool"
                }
              ],
              "internalType": "struct Primitive[]",
              "name": "primitives",
              "type": "tuple[]"
            }
          ],
          "internalType": "struct Order",
          "name": "o6",
          "type": "tuple"
        },
        {
          "components": [
            {
              "components": [
                {
                  "internalType": "bytes",
                  "name": "data",
                  "type": "bytes"
                },
                {
                  "internalType": "bool",
                  "name": "requiresUnsignedCall",
                  "type": "bool"
                }
              ],
              "internalType": "struct Primitive[]",
              "name": "primitives",
              "type": "tuple[]"
            }
          ],
          "internalType": "struct Order",
          "name": "o7",
          "type": "tuple"
        },
        {
          "components": [
            {
              "components": [
                {
                  "internalType": "bytes",
                  "name": "data",
                  "type": "bytes"
                },
                {
                  "internalType": "bool",
                  "name": "requiresUnsignedCall",
                  "type": "bool"
                }
              ],
              "internalType": "struct Primitive[]",
              "name": "primitives",
              "type": "tuple[]"
            }
          ],
          "internalType": "struct Order",
          "name": "o8",
          "type": "tuple"
        },
        {
          "components": [
            {
              "components": [
                {
                  "internalType": "bytes",
                  "name": "data",
                  "type": "bytes"
                },
                {
                  "internalType": "bool",
                  "name": "requiresUnsignedCall",
                  "type": "bool"
                }
              ],
              "internalType": "struct Primitive[]",
              "name": "primitives",
              "type": "tuple[]"
            }
          ],
          "internalType": "struct Order",
          "name": "o9",
          "type": "tuple"
        },
        {
          "components": [
            {
              "components": [
                {
                  "internalType": "bytes",
                  "name": "data",
                  "type": "bytes"
                },
                {
                  "internalType": "bool",
                  "name": "requiresUnsignedCall",
                  "type": "bool"
                }
              ],
              "internalType": "struct Primitive[]",
              "name": "primitives",
              "type": "tuple[]"
            }
          ],
          "internalType": "struct Order",
          "name": "o10",
          "type": "tuple"
        },
        {
          "components": [
            {
              "components": [
                {
                  "internalType": "bytes",
                  "name": "data",
                  "type": "bytes"
                },
                {
                  "internalType": "bool",
                  "name": "requiresUnsignedCall",
                  "type": "bool"
                }
              ],
              "internalType": "struct Primitive[]",
              "name": "primitives",
              "type": "tuple[]"
            }
          ],
          "internalType": "struct Order",
          "name": "o11",
          "type": "tuple"
        },
        {
          "components": [
            {
              "components": [
                {
                  "internalType": "bytes",
                  "name": "data",
                  "type": "bytes"
                },
                {
                  "internalType": "bool",
                  "name": "requiresUnsignedCall",
                  "type": "bool"
                }
              ],
              "internalType": "struct Primitive[]",
              "name": "primitives",
              "type": "tuple[]"
            }
          ],
          "internalType": "struct Order",
          "name": "o12",
          "type": "tuple"
        }
      ],
      "name": "orders",
      "outputs": [
        {
          "components": [
            {
              "components": [
                {
                  "internalType": "bytes",
                  "name": "data",
                  "type": "bytes"
                },
                {
                  "internalType": "bool",
                  "name": "requiresUnsignedCall",
                  "type": "bool"
                }
              ],
              "internalType": "struct Primitive[]",
              "name": "primitives",
              "type": "tuple[]"
            }
          ],
          "internalType": "struct Order[]",
          "name": "orders",
          "type": "tuple[]"
        }
      ],
      "stateMutability": "pure",
      "type": "function"
    },
    {
      "inputs": [
        {
          "components": [
            {
              "components": [
                {
                  "internalType": "bytes",
                  "name": "data",
                  "type": "bytes"
                },
                {
                  "internalType": "bool",
                  "name": "requiresUnsignedCall",
                  "type": "bool"
                }
              ],
              "internalType": "struct Primitive[]",
              "name": "primitives",
              "type": "tuple[]"
            }
          ],
          "internalType": "struct Order",
          "name": "o1",
          "type": "tuple"
        },
        {
          "components": [
            {
              "components": [
                {
                  "internalType": "bytes",
                  "name": "data",
                  "type": "bytes"
                },
                {
                  "internalType": "bool",
                  "name": "requiresUnsignedCall",
                  "type": "bool"
                }
              ],
              "internalType": "struct Primitive[]",
              "name": "primitives",
              "type": "tuple[]"
            }
          ],
          "internalType": "struct Order",
          "name": "o2",
          "type": "tuple"
        },
        {
          "components": [
            {
              "components": [
                {
                  "internalType": "bytes",
                  "name": "data",
                  "type": "bytes"
                },
                {
                  "internalType": "bool",
                  "name": "requiresUnsignedCall",
                  "type": "bool"
                }
              ],
              "internalType": "struct Primitive[]",
              "name": "primitives",
              "type": "tuple[]"
            }
          ],
          "internalType": "struct Order",
          "name": "o3",
          "type": "tuple"
        },
        {
          "components": [
            {
              "components": [
                {
                  "internalType": "bytes",
                  "name": "data",
                  "type": "bytes"
                },
                {
                  "internalType": "bool",
                  "name": "requiresUnsignedCall",
                  "type": "bool"
                }
              ],
              "internalType": "struct Primitive[]",
              "name": "primitives",
              "type": "tuple[]"
            }
          ],
          "internalType": "struct Order",
          "name": "o4",
          "type": "tuple"
        },
        {
          "components": [
            {
              "components": [
                {
                  "internalType": "bytes",
                  "name": "data",
                  "type": "bytes"
                },
                {
                  "internalType": "bool",
                  "name": "requiresUnsignedCall",
                  "type": "bool"
                }
              ],
              "internalType": "struct Primitive[]",
              "name": "primitives",
              "type": "tuple[]"
            }
          ],
          "internalType": "struct Order",
          "name": "o5",
          "type": "tuple"
        },
        {
          "components": [
            {
              "components": [
                {
                  "internalType": "bytes",
                  "name": "data",
                  "type": "bytes"
                },
                {
                  "internalType": "bool",
                  "name": "requiresUnsignedCall",
                  "type": "bool"
                }
              ],
              "internalType": "struct Primitive[]",
              "name": "primitives",
              "type": "tuple[]"
            }
          ],
          "internalType": "struct Order",
          "name": "o6",
          "type": "tuple"
        },
        {
          "components": [
            {
              "components": [
                {
                  "internalType": "bytes",
                  "name": "data",
                  "type": "bytes"
                },
                {
                  "internalType": "bool",
                  "name": "requiresUnsignedCall",
                  "type": "bool"
                }
              ],
              "internalType": "struct Primitive[]",
              "name": "primitives",
              "type": "tuple[]"
            }
          ],
          "internalType": "struct Order",
          "name": "o7",
          "type": "tuple"
        },
        {
          "components": [
            {
              "components": [
                {
                  "internalType": "bytes",
                  "name": "data",
                  "type": "bytes"
                },
                {
                  "internalType": "bool",
                  "name": "requiresUnsignedCall",
                  "type": "bool"
                }
              ],
              "internalType": "struct Primitive[]",
              "name": "primitives",
              "type": "tuple[]"
            }
          ],
          "internalType": "struct Order",
          "name": "o8",
          "type": "tuple"
        },
        {
          "components": [
            {
              "components": [
                {
                  "internalType": "bytes",
                  "name": "data",
                  "type": "bytes"
                },
                {
                  "internalType": "bool",
                  "name": "requiresUnsignedCall",
                  "type": "bool"
                }
              ],
              "internalType": "struct Primitive[]",
              "name": "primitives",
              "type": "tuple[]"
            }
          ],
          "internalType": "struct Order",
          "name": "o9",
          "type": "tuple"
        }
      ],
      "name": "orders",
      "outputs": [
        {
          "components": [
            {
              "components": [
                {
                  "internalType": "bytes",
                  "name": "data",
                  "type": "bytes"
                },
                {
                  "internalType": "bool",
                  "name": "requiresUnsignedCall",
                  "type": "bool"
                }
              ],
              "internalType": "struct Primitive[]",
              "name": "primitives",
              "type": "tuple[]"
            }
          ],
          "internalType": "struct Order[]",
          "name": "orders",
          "type": "tuple[]"
        }
      ],
      "stateMutability": "pure",
      "type": "function"
    },
    {
      "inputs": [
        {
          "components": [
            {
              "components": [
                {
                  "internalType": "bytes",
                  "name": "data",
                  "type": "bytes"
                },
                {
                  "internalType": "bool",
                  "name": "requiresUnsignedCall",
                  "type": "bool"
                }
              ],
              "internalType": "struct Primitive[]",
              "name": "primitives",
              "type": "tuple[]"
            }
          ],
          "internalType": "struct Order",
          "name": "o1",
          "type": "tuple"
        },
        {
          "components": [
            {
              "components": [
                {
                  "internalType": "bytes",
                  "name": "data",
                  "type": "bytes"
                },
                {
                  "internalType": "bool",
                  "name": "requiresUnsignedCall",
                  "type": "bool"
                }
              ],
              "internalType": "struct Primitive[]",
              "name": "primitives",
              "type": "tuple[]"
            }
          ],
          "internalType": "struct Order",
          "name": "o2",
          "type": "tuple"
        },
        {
          "components": [
            {
              "components": [
                {
                  "internalType": "bytes",
                  "name": "data",
                  "type": "bytes"
                },
                {
                  "internalType": "bool",
                  "name": "requiresUnsignedCall",
                  "type": "bool"
                }
              ],
              "internalType": "struct Primitive[]",
              "name": "primitives",
              "type": "tuple[]"
            }
          ],
          "internalType": "struct Order",
          "name": "o3",
          "type": "tuple"
        },
        {
          "components": [
            {
              "components": [
                {
                  "internalType": "bytes",
                  "name": "data",
                  "type": "bytes"
                },
                {
                  "internalType": "bool",
                  "name": "requiresUnsignedCall",
                  "type": "bool"
                }
              ],
              "internalType": "struct Primitive[]",
              "name": "primitives",
              "type": "tuple[]"
            }
          ],
          "internalType": "struct Order",
          "name": "o4",
          "type": "tuple"
        },
        {
          "components": [
            {
              "components": [
                {
                  "internalType": "bytes",
                  "name": "data",
                  "type": "bytes"
                },
                {
                  "internalType": "bool",
                  "name": "requiresUnsignedCall",
                  "type": "bool"
                }
              ],
              "internalType": "struct Primitive[]",
              "name": "primitives",
              "type": "tuple[]"
            }
          ],
          "internalType": "struct Order",
          "name": "o5",
          "type": "tuple"
        },
        {
          "components": [
            {
              "components": [
                {
                  "internalType": "bytes",
                  "name": "data",
                  "type": "bytes"
                },
                {
                  "internalType": "bool",
                  "name": "requiresUnsignedCall",
                  "type": "bool"
                }
              ],
              "internalType": "struct Primitive[]",
              "name": "primitives",
              "type": "tuple[]"
            }
          ],
          "internalType": "struct Order",
          "name": "o6",
          "type": "tuple"
        },
        {
          "components": [
            {
              "components": [
                {
                  "internalType": "bytes",
                  "name": "data",
                  "type": "bytes"
                },
                {
                  "internalType": "bool",
                  "name": "requiresUnsignedCall",
                  "type": "bool"
                }
              ],
              "internalType": "struct Primitive[]",
              "name": "primitives",
              "type": "tuple[]"
            }
          ],
          "internalType": "struct Order",
          "name": "o7",
          "type": "tuple"
        },
        {
          "components": [
            {
              "components": [
                {
                  "internalType": "bytes",
                  "name": "data",
                  "type": "bytes"
                },
                {
                  "internalType": "bool",
                  "name": "requiresUnsignedCall",
                  "type": "bool"
                }
              ],
              "internalType": "struct Primitive[]",
              "name": "primitives",
              "type": "tuple[]"
            }
          ],
          "internalType": "struct Order",
          "name": "o8",
          "type": "tuple"
        },
        {
          "components": [
            {
              "components": [
                {
                  "internalType": "bytes",
                  "name": "data",
                  "type": "bytes"
                },
                {
                  "internalType": "bool",
                  "name": "requiresUnsignedCall",
                  "type": "bool"
                }
              ],
              "internalType": "struct Primitive[]",
              "name": "primitives",
              "type": "tuple[]"
            }
          ],
          "internalType": "struct Order",
          "name": "o9",
          "type": "tuple"
        },
        {
          "components": [
            {
              "components": [
                {
                  "internalType": "bytes",
                  "name": "data",
                  "type": "bytes"
                },
                {
                  "internalType": "bool",
                  "name": "requiresUnsignedCall",
                  "type": "bool"
                }
              ],
              "internalType": "struct Primitive[]",
              "name": "primitives",
              "type": "tuple[]"
            }
          ],
          "internalType": "struct Order",
          "name": "o10",
          "type": "tuple"
        }
      ],
      "name": "orders",
      "outputs": [
        {
          "components": [
            {
              "components": [
                {
                  "internalType": "bytes",
                  "name": "data",
                  "type": "bytes"
                },
                {
                  "internalType": "bool",
                  "name": "requiresUnsignedCall",
                  "type": "bool"
                }
              ],
              "internalType": "struct Primitive[]",
              "name": "primitives",
              "type": "tuple[]"
            }
          ],
          "internalType": "struct Order[]",
          "name": "orders",
          "type": "tuple[]"
        }
      ],
      "stateMutability": "pure",
      "type": "function"
    },
    {
      "inputs": [
        {
          "components": [
            {
              "components": [
                {
                  "internalType": "bytes",
                  "name": "data",
                  "type": "bytes"
                },
                {
                  "internalType": "bool",
                  "name": "requiresUnsignedCall",
                  "type": "bool"
                }
              ],
              "internalType": "struct Primitive[]",
              "name": "primitives",
              "type": "tuple[]"
            }
          ],
          "internalType": "struct Order",
          "name": "o1",
          "type": "tuple"
        },
        {
          "components": [
            {
              "components": [
                {
                  "internalType": "bytes",
                  "name": "data",
                  "type": "bytes"
                },
                {
                  "internalType": "bool",
                  "name": "requiresUnsignedCall",
                  "type": "bool"
                }
              ],
              "internalType": "struct Primitive[]",
              "name": "primitives",
              "type": "tuple[]"
            }
          ],
          "internalType": "struct Order",
          "name": "o2",
          "type": "tuple"
        },
        {
          "components": [
            {
              "components": [
                {
                  "internalType": "bytes",
                  "name": "data",
                  "type": "bytes"
                },
                {
                  "internalType": "bool",
                  "name": "requiresUnsignedCall",
                  "type": "bool"
                }
              ],
              "internalType": "struct Primitive[]",
              "name": "primitives",
              "type": "tuple[]"
            }
          ],
          "internalType": "struct Order",
          "name": "o3",
          "type": "tuple"
        },
        {
          "components": [
            {
              "components": [
                {
                  "internalType": "bytes",
                  "name": "data",
                  "type": "bytes"
                },
                {
                  "internalType": "bool",
                  "name": "requiresUnsignedCall",
                  "type": "bool"
                }
              ],
              "internalType": "struct Primitive[]",
              "name": "primitives",
              "type": "tuple[]"
            }
          ],
          "internalType": "struct Order",
          "name": "o4",
          "type": "tuple"
        },
        {
          "components": [
            {
              "components": [
                {
                  "internalType": "bytes",
                  "name": "data",
                  "type": "bytes"
                },
                {
                  "internalType": "bool",
                  "name": "requiresUnsignedCall",
                  "type": "bool"
                }
              ],
              "internalType": "struct Primitive[]",
              "name": "primitives",
              "type": "tuple[]"
            }
          ],
          "internalType": "struct Order",
          "name": "o5",
          "type": "tuple"
        }
      ],
      "name": "orders",
      "outputs": [
        {
          "components": [
            {
              "components": [
                {
                  "internalType": "bytes",
                  "name": "data",
                  "type": "bytes"
                },
                {
                  "internalType": "bool",
                  "name": "requiresUnsignedCall",
                  "type": "bool"
                }
              ],
              "internalType": "struct Primitive[]",
              "name": "primitives",
              "type": "tuple[]"
            }
          ],
          "internalType": "struct Order[]",
          "name": "orders",
          "type": "tuple[]"
        }
      ],
      "stateMutability": "pure",
      "type": "function"
    },
    {
      "inputs": [
        {
          "components": [
            {
              "components": [
                {
                  "internalType": "bytes",
                  "name": "data",
                  "type": "bytes"
                },
                {
                  "internalType": "bool",
                  "name": "requiresUnsignedCall",
                  "type": "bool"
                }
              ],
              "internalType": "struct Primitive[]",
              "name": "primitives",
              "type": "tuple[]"
            }
          ],
          "internalType": "struct Order",
          "name": "o1",
          "type": "tuple"
        },
        {
          "components": [
            {
              "components": [
                {
                  "internalType": "bytes",
                  "name": "data",
                  "type": "bytes"
                },
                {
                  "internalType": "bool",
                  "name": "requiresUnsignedCall",
                  "type": "bool"
                }
              ],
              "internalType": "struct Primitive[]",
              "name": "primitives",
              "type": "tuple[]"
            }
          ],
          "internalType": "struct Order",
          "name": "o2",
          "type": "tuple"
        },
        {
          "components": [
            {
              "components": [
                {
                  "internalType": "bytes",
                  "name": "data",
                  "type": "bytes"
                },
                {
                  "internalType": "bool",
                  "name": "requiresUnsignedCall",
                  "type": "bool"
                }
              ],
              "internalType": "struct Primitive[]",
              "name": "primitives",
              "type": "tuple[]"
            }
          ],
          "internalType": "struct Order",
          "name": "o3",
          "type": "tuple"
        },
        {
          "components": [
            {
              "components": [
                {
                  "internalType": "bytes",
                  "name": "data",
                  "type": "bytes"
                },
                {
                  "internalType": "bool",
                  "name": "requiresUnsignedCall",
                  "type": "bool"
                }
              ],
              "internalType": "struct Primitive[]",
              "name": "primitives",
              "type": "tuple[]"
            }
          ],
          "internalType": "struct Order",
          "name": "o4",
          "type": "tuple"
        },
        {
          "components": [
            {
              "components": [
                {
                  "internalType": "bytes",
                  "name": "data",
                  "type": "bytes"
                },
                {
                  "internalType": "bool",
                  "name": "requiresUnsignedCall",
                  "type": "bool"
                }
              ],
              "internalType": "struct Primitive[]",
              "name": "primitives",
              "type": "tuple[]"
            }
          ],
          "internalType": "struct Order",
          "name": "o5",
          "type": "tuple"
        },
        {
          "components": [
            {
              "components": [
                {
                  "internalType": "bytes",
                  "name": "data",
                  "type": "bytes"
                },
                {
                  "internalType": "bool",
                  "name": "requiresUnsignedCall",
                  "type": "bool"
                }
              ],
              "internalType": "struct Primitive[]",
              "name": "primitives",
              "type": "tuple[]"
            }
          ],
          "internalType": "struct Order",
          "name": "o6",
          "type": "tuple"
        },
        {
          "components": [
            {
              "components": [
                {
                  "internalType": "bytes",
                  "name": "data",
                  "type": "bytes"
                },
                {
                  "internalType": "bool",
                  "name": "requiresUnsignedCall",
                  "type": "bool"
                }
              ],
              "internalType": "struct Primitive[]",
              "name": "primitives",
              "type": "tuple[]"
            }
          ],
          "internalType": "struct Order",
          "name": "o7",
          "type": "tuple"
        }
      ],
      "name": "orders",
      "outputs": [
        {
          "components": [
            {
              "components": [
                {
                  "internalType": "bytes",
                  "name": "data",
                  "type": "bytes"
                },
                {
                  "internalType": "bool",
                  "name": "requiresUnsignedCall",
                  "type": "bool"
                }
              ],
              "internalType": "struct Primitive[]",
              "name": "primitives",
              "type": "tuple[]"
            }
          ],
          "internalType": "struct Order[]",
          "name": "orders",
          "type": "tuple[]"
        }
      ],
      "stateMutability": "pure",
      "type": "function"
    },
    {
      "inputs": [
        {
          "components": [
            {
              "components": [
                {
                  "internalType": "bytes",
                  "name": "data",
                  "type": "bytes"
                },
                {
                  "internalType": "bool",
                  "name": "requiresUnsignedCall",
                  "type": "bool"
                }
              ],
              "internalType": "struct Primitive[]",
              "name": "primitives",
              "type": "tuple[]"
            }
          ],
          "internalType": "struct Order",
          "name": "o1",
          "type": "tuple"
        },
        {
          "components": [
            {
              "components": [
                {
                  "internalType": "bytes",
                  "name": "data",
                  "type": "bytes"
                },
                {
                  "internalType": "bool",
                  "name": "requiresUnsignedCall",
                  "type": "bool"
                }
              ],
              "internalType": "struct Primitive[]",
              "name": "primitives",
              "type": "tuple[]"
            }
          ],
          "internalType": "struct Order",
          "name": "o2",
          "type": "tuple"
        },
        {
          "components": [
            {
              "components": [
                {
                  "internalType": "bytes",
                  "name": "data",
                  "type": "bytes"
                },
                {
                  "internalType": "bool",
                  "name": "requiresUnsignedCall",
                  "type": "bool"
                }
              ],
              "internalType": "struct Primitive[]",
              "name": "primitives",
              "type": "tuple[]"
            }
          ],
          "internalType": "struct Order",
          "name": "o3",
          "type": "tuple"
        },
        {
          "components": [
            {
              "components": [
                {
                  "internalType": "bytes",
                  "name": "data",
                  "type": "bytes"
                },
                {
                  "internalType": "bool",
                  "name": "requiresUnsignedCall",
                  "type": "bool"
                }
              ],
              "internalType": "struct Primitive[]",
              "name": "primitives",
              "type": "tuple[]"
            }
          ],
          "internalType": "struct Order",
          "name": "o4",
          "type": "tuple"
        },
        {
          "components": [
            {
              "components": [
                {
                  "internalType": "bytes",
                  "name": "data",
                  "type": "bytes"
                },
                {
                  "internalType": "bool",
                  "name": "requiresUnsignedCall",
                  "type": "bool"
                }
              ],
              "internalType": "struct Primitive[]",
              "name": "primitives",
              "type": "tuple[]"
            }
          ],
          "internalType": "struct Order",
          "name": "o5",
          "type": "tuple"
        },
        {
          "components": [
            {
              "components": [
                {
                  "internalType": "bytes",
                  "name": "data",
                  "type": "bytes"
                },
                {
                  "internalType": "bool",
                  "name": "requiresUnsignedCall",
                  "type": "bool"
                }
              ],
              "internalType": "struct Primitive[]",
              "name": "primitives",
              "type": "tuple[]"
            }
          ],
          "internalType": "struct Order",
          "name": "o6",
          "type": "tuple"
        },
        {
          "components": [
            {
              "components": [
                {
                  "internalType": "bytes",
                  "name": "data",
                  "type": "bytes"
                },
                {
                  "internalType": "bool",
                  "name": "requiresUnsignedCall",
                  "type": "bool"
                }
              ],
              "internalType": "struct Primitive[]",
              "name": "primitives",
              "type": "tuple[]"
            }
          ],
          "internalType": "struct Order",
          "name": "o7",
          "type": "tuple"
        },
        {
          "components": [
            {
              "components": [
                {
                  "internalType": "bytes",
                  "name": "data",
                  "type": "bytes"
                },
                {
                  "internalType": "bool",
                  "name": "requiresUnsignedCall",
                  "type": "bool"
                }
              ],
              "internalType": "struct Primitive[]",
              "name": "primitives",
              "type": "tuple[]"
            }
          ],
          "internalType": "struct Order",
          "name": "o8",
          "type": "tuple"
        }
      ],
      "name": "orders",
      "outputs": [
        {
          "components": [
            {
              "components": [
                {
                  "internalType": "bytes",
                  "name": "data",
                  "type": "bytes"
                },
                {
                  "internalType": "bool",
                  "name": "requiresUnsignedCall",
                  "type": "bool"
                }
              ],
              "internalType": "struct Primitive[]",
              "name": "primitives",
              "type": "tuple[]"
            }
          ],
          "internalType": "struct Order[]",
          "name": "orders",
          "type": "tuple[]"
        }
      ],
      "stateMutability": "pure",
      "type": "function"
    },
    {
      "inputs": [
        {
          "components": [
            {
              "components": [
                {
                  "internalType": "bytes",
                  "name": "data",
                  "type": "bytes"
                },
                {
                  "internalType": "bool",
                  "name": "requiresUnsignedCall",
                  "type": "bool"
                }
              ],
              "internalType": "struct Primitive[]",
              "name": "primitives",
              "type": "tuple[]"
            }
          ],
          "internalType": "struct Order",
          "name": "o1",
          "type": "tuple"
        },
        {
          "components": [
            {
              "components": [
                {
                  "internalType": "bytes",
                  "name": "data",
                  "type": "bytes"
                },
                {
                  "internalType": "bool",
                  "name": "requiresUnsignedCall",
                  "type": "bool"
                }
              ],
              "internalType": "struct Primitive[]",
              "name": "primitives",
              "type": "tuple[]"
            }
          ],
          "internalType": "struct Order",
          "name": "o2",
          "type": "tuple"
        },
        {
          "components": [
            {
              "components": [
                {
                  "internalType": "bytes",
                  "name": "data",
                  "type": "bytes"
                },
                {
                  "internalType": "bool",
                  "name": "requiresUnsignedCall",
                  "type": "bool"
                }
              ],
              "internalType": "struct Primitive[]",
              "name": "primitives",
              "type": "tuple[]"
            }
          ],
          "internalType": "struct Order",
          "name": "o3",
          "type": "tuple"
        }
      ],
      "name": "orders",
      "outputs": [
        {
          "components": [
            {
              "components": [
                {
                  "internalType": "bytes",
                  "name": "data",
                  "type": "bytes"
                },
                {
                  "internalType": "bool",
                  "name": "requiresUnsignedCall",
                  "type": "bool"
                }
              ],
              "internalType": "struct Primitive[]",
              "name": "primitives",
              "type": "tuple[]"
            }
          ],
          "internalType": "struct Order[]",
          "name": "orders",
          "type": "tuple[]"
        }
      ],
      "stateMutability": "pure",
      "type": "function"
    },
    {
      "inputs": [
        {
          "components": [
            {
              "components": [
                {
                  "internalType": "bytes",
                  "name": "data",
                  "type": "bytes"
                },
                {
                  "internalType": "bool",
                  "name": "requiresUnsignedCall",
                  "type": "bool"
                }
              ],
              "internalType": "struct Primitive[]",
              "name": "primitives",
              "type": "tuple[]"
            }
          ],
          "internalType": "struct Order",
          "name": "o1",
          "type": "tuple"
        },
        {
          "components": [
            {
              "components": [
                {
                  "internalType": "bytes",
                  "name": "data",
                  "type": "bytes"
                },
                {
                  "internalType": "bool",
                  "name": "requiresUnsignedCall",
                  "type": "bool"
                }
              ],
              "internalType": "struct Primitive[]",
              "name": "primitives",
              "type": "tuple[]"
            }
          ],
          "internalType": "struct Order",
          "name": "o2",
          "type": "tuple"
        },
        {
          "components": [
            {
              "components": [
                {
                  "internalType": "bytes",
                  "name": "data",
                  "type": "bytes"
                },
                {
                  "internalType": "bool",
                  "name": "requiresUnsignedCall",
                  "type": "bool"
                }
              ],
              "internalType": "struct Primitive[]",
              "name": "primitives",
              "type": "tuple[]"
            }
          ],
          "internalType": "struct Order",
          "name": "o3",
          "type": "tuple"
        },
        {
          "components": [
            {
              "components": [
                {
                  "internalType": "bytes",
                  "name": "data",
                  "type": "bytes"
                },
                {
                  "internalType": "bool",
                  "name": "requiresUnsignedCall",
                  "type": "bool"
                }
              ],
              "internalType": "struct Primitive[]",
              "name": "primitives",
              "type": "tuple[]"
            }
          ],
          "internalType": "struct Order",
          "name": "o4",
          "type": "tuple"
        }
      ],
      "name": "orders",
      "outputs": [
        {
          "components": [
            {
              "components": [
                {
                  "internalType": "bytes",
                  "name": "data",
                  "type": "bytes"
                },
                {
                  "internalType": "bool",
                  "name": "requiresUnsignedCall",
                  "type": "bool"
                }
              ],
              "internalType": "struct Primitive[]",
              "name": "primitives",
              "type": "tuple[]"
            }
          ],
          "internalType": "struct Order[]",
          "name": "orders",
          "type": "tuple[]"
        }
      ],
      "stateMutability": "pure",
      "type": "function"
    },
    {
      "inputs": [
        {
          "components": [
            {
              "components": [
                {
                  "internalType": "bytes",
                  "name": "data",
                  "type": "bytes"
                },
                {
                  "internalType": "bool",
                  "name": "requiresUnsignedCall",
                  "type": "bool"
                }
              ],
              "internalType": "struct Primitive[]",
              "name": "primitives",
              "type": "tuple[]"
            }
          ],
          "internalType": "struct Order",
          "name": "o1",
          "type": "tuple"
        },
        {
          "components": [
            {
              "components": [
                {
                  "internalType": "bytes",
                  "name": "data",
                  "type": "bytes"
                },
                {
                  "internalType": "bool",
                  "name": "requiresUnsignedCall",
                  "type": "bool"
                }
              ],
              "internalType": "struct Primitive[]",
              "name": "primitives",
              "type": "tuple[]"
            }
          ],
          "internalType": "struct Order",
          "name": "o2",
          "type": "tuple"
        },
        {
          "components": [
            {
              "components": [
                {
                  "internalType": "bytes",
                  "name": "data",
                  "type": "bytes"
                },
                {
                  "internalType": "bool",
                  "name": "requiresUnsignedCall",
                  "type": "bool"
                }
              ],
              "internalType": "struct Primitive[]",
              "name": "primitives",
              "type": "tuple[]"
            }
          ],
          "internalType": "struct Order",
          "name": "o3",
          "type": "tuple"
        },
        {
          "components": [
            {
              "components": [
                {
                  "internalType": "bytes",
                  "name": "data",
                  "type": "bytes"
                },
                {
                  "internalType": "bool",
                  "name": "requiresUnsignedCall",
                  "type": "bool"
                }
              ],
              "internalType": "struct Primitive[]",
              "name": "primitives",
              "type": "tuple[]"
            }
          ],
          "internalType": "struct Order",
          "name": "o4",
          "type": "tuple"
        },
        {
          "components": [
            {
              "components": [
                {
                  "internalType": "bytes",
                  "name": "data",
                  "type": "bytes"
                },
                {
                  "internalType": "bool",
                  "name": "requiresUnsignedCall",
                  "type": "bool"
                }
              ],
              "internalType": "struct Primitive[]",
              "name": "primitives",
              "type": "tuple[]"
            }
          ],
          "internalType": "struct Order",
          "name": "o5",
          "type": "tuple"
        },
        {
          "components": [
            {
              "components": [
                {
                  "internalType": "bytes",
                  "name": "data",
                  "type": "bytes"
                },
                {
                  "internalType": "bool",
                  "name": "requiresUnsignedCall",
                  "type": "bool"
                }
              ],
              "internalType": "struct Primitive[]",
              "name": "primitives",
              "type": "tuple[]"
            }
          ],
          "internalType": "struct Order",
          "name": "o6",
          "type": "tuple"
        }
      ],
      "name": "orders",
      "outputs": [
        {
          "components": [
            {
              "components": [
                {
                  "internalType": "bytes",
                  "name": "data",
                  "type": "bytes"
                },
                {
                  "internalType": "bool",
                  "name": "requiresUnsignedCall",
                  "type": "bool"
                }
              ],
              "internalType": "struct Primitive[]",
              "name": "primitives",
              "type": "tuple[]"
            }
          ],
          "internalType": "struct Order[]",
          "name": "orders",
          "type": "tuple[]"
        }
      ],
      "stateMutability": "pure",
      "type": "function"
    },
    {
      "inputs": [
        {
          "components": [
            {
              "components": [
                {
                  "internalType": "bytes",
                  "name": "data",
                  "type": "bytes"
                },
                {
                  "internalType": "bool",
                  "name": "requiresUnsignedCall",
                  "type": "bool"
                }
              ],
              "internalType": "struct Primitive[]",
              "name": "primitives",
              "type": "tuple[]"
            }
          ],
          "internalType": "struct Order",
          "name": "o1",
          "type": "tuple"
        },
        {
          "components": [
            {
              "components": [
                {
                  "internalType": "bytes",
                  "name": "data",
                  "type": "bytes"
                },
                {
                  "internalType": "bool",
                  "name": "requiresUnsignedCall",
                  "type": "bool"
                }
              ],
              "internalType": "struct Primitive[]",
              "name": "primitives",
              "type": "tuple[]"
            }
          ],
          "internalType": "struct Order",
          "name": "o2",
          "type": "tuple"
        },
        {
          "components": [
            {
              "components": [
                {
                  "internalType": "bytes",
                  "name": "data",
                  "type": "bytes"
                },
                {
                  "internalType": "bool",
                  "name": "requiresUnsignedCall",
                  "type": "bool"
                }
              ],
              "internalType": "struct Primitive[]",
              "name": "primitives",
              "type": "tuple[]"
            }
          ],
          "internalType": "struct Order",
          "name": "o3",
          "type": "tuple"
        },
        {
          "components": [
            {
              "components": [
                {
                  "internalType": "bytes",
                  "name": "data",
                  "type": "bytes"
                },
                {
                  "internalType": "bool",
                  "name": "requiresUnsignedCall",
                  "type": "bool"
                }
              ],
              "internalType": "struct Primitive[]",
              "name": "primitives",
              "type": "tuple[]"
            }
          ],
          "internalType": "struct Order",
          "name": "o4",
          "type": "tuple"
        },
        {
          "components": [
            {
              "components": [
                {
                  "internalType": "bytes",
                  "name": "data",
                  "type": "bytes"
                },
                {
                  "internalType": "bool",
                  "name": "requiresUnsignedCall",
                  "type": "bool"
                }
              ],
              "internalType": "struct Primitive[]",
              "name": "primitives",
              "type": "tuple[]"
            }
          ],
          "internalType": "struct Order",
          "name": "o5",
          "type": "tuple"
        },
        {
          "components": [
            {
              "components": [
                {
                  "internalType": "bytes",
                  "name": "data",
                  "type": "bytes"
                },
                {
                  "internalType": "bool",
                  "name": "requiresUnsignedCall",
                  "type": "bool"
                }
              ],
              "internalType": "struct Primitive[]",
              "name": "primitives",
              "type": "tuple[]"
            }
          ],
          "internalType": "struct Order",
          "name": "o6",
          "type": "tuple"
        },
        {
          "components": [
            {
              "components": [
                {
                  "internalType": "bytes",
                  "name": "data",
                  "type": "bytes"
                },
                {
                  "internalType": "bool",
                  "name": "requiresUnsignedCall",
                  "type": "bool"
                }
              ],
              "internalType": "struct Primitive[]",
              "name": "primitives",
              "type": "tuple[]"
            }
          ],
          "internalType": "struct Order",
          "name": "o7",
          "type": "tuple"
        },
        {
          "components": [
            {
              "components": [
                {
                  "internalType": "bytes",
                  "name": "data",
                  "type": "bytes"
                },
                {
                  "internalType": "bool",
                  "name": "requiresUnsignedCall",
                  "type": "bool"
                }
              ],
              "internalType": "struct Primitive[]",
              "name": "primitives",
              "type": "tuple[]"
            }
          ],
          "internalType": "struct Order",
          "name": "o8",
          "type": "tuple"
        },
        {
          "components": [
            {
              "components": [
                {
                  "internalType": "bytes",
                  "name": "data",
                  "type": "bytes"
                },
                {
                  "internalType": "bool",
                  "name": "requiresUnsignedCall",
                  "type": "bool"
                }
              ],
              "internalType": "struct Primitive[]",
              "name": "primitives",
              "type": "tuple[]"
            }
          ],
          "internalType": "struct Order",
          "name": "o9",
          "type": "tuple"
        },
        {
          "components": [
            {
              "components": [
                {
                  "internalType": "bytes",
                  "name": "data",
                  "type": "bytes"
                },
                {
                  "internalType": "bool",
                  "name": "requiresUnsignedCall",
                  "type": "bool"
                }
              ],
              "internalType": "struct Primitive[]",
              "name": "primitives",
              "type": "tuple[]"
            }
          ],
          "internalType": "struct Order",
          "name": "o10",
          "type": "tuple"
        },
        {
          "components": [
            {
              "components": [
                {
                  "internalType": "bytes",
                  "name": "data",
                  "type": "bytes"
                },
                {
                  "internalType": "bool",
                  "name": "requiresUnsignedCall",
                  "type": "bool"
                }
              ],
              "internalType": "struct Primitive[]",
              "name": "primitives",
              "type": "tuple[]"
            }
          ],
          "internalType": "struct Order",
          "name": "o11",
          "type": "tuple"
        }
      ],
      "name": "orders",
      "outputs": [
        {
          "components": [
            {
              "components": [
                {
                  "internalType": "bytes",
                  "name": "data",
                  "type": "bytes"
                },
                {
                  "internalType": "bool",
                  "name": "requiresUnsignedCall",
                  "type": "bool"
                }
              ],
              "internalType": "struct Primitive[]",
              "name": "primitives",
              "type": "tuple[]"
            }
          ],
          "internalType": "struct Order[]",
          "name": "orders",
          "type": "tuple[]"
        }
      ],
      "stateMutability": "pure",
      "type": "function"
    },
    {
      "inputs": [
        {
          "components": [
            {
              "components": [
                {
                  "internalType": "bytes",
                  "name": "data",
                  "type": "bytes"
                },
                {
                  "internalType": "bool",
                  "name": "requiresUnsignedCall",
                  "type": "bool"
                }
              ],
              "internalType": "struct Primitive[]",
              "name": "primitives",
              "type": "tuple[]"
            }
          ],
          "internalType": "struct Order",
          "name": "o1",
          "type": "tuple"
        },
        {
          "components": [
            {
              "components": [
                {
                  "internalType": "bytes",
                  "name": "data",
                  "type": "bytes"
                },
                {
                  "internalType": "bool",
                  "name": "requiresUnsignedCall",
                  "type": "bool"
                }
              ],
              "internalType": "struct Primitive[]",
              "name": "primitives",
              "type": "tuple[]"
            }
          ],
          "internalType": "struct Order",
          "name": "o2",
          "type": "tuple"
        }
      ],
      "name": "orders",
      "outputs": [
        {
          "components": [
            {
              "components": [
                {
                  "internalType": "bytes",
                  "name": "data",
                  "type": "bytes"
                },
                {
                  "internalType": "bool",
                  "name": "requiresUnsignedCall",
                  "type": "bool"
                }
              ],
              "internalType": "struct Primitive[]",
              "name": "primitives",
              "type": "tuple[]"
            }
          ],
          "internalType": "struct Order[]",
          "name": "orders",
          "type": "tuple[]"
        }
      ],
      "stateMutability": "pure",
      "type": "function"
    }
  ],
  "bytecode": {
    "object": "0x608060405234801561001057600080fd5b50611e8d806100206000396000f3fe608060405234801561001057600080fd5b50600436106100b45760003560e01c8063997414eb11610071578063997414eb14610141578063a53fec3c14610154578063c91151ad14610167578063ca738c161461017a578063d0d7b66a1461018d578063f6ed8248146101a057600080fd5b806308829509146100b9578063275c0480146100e2578063592d9918146100f55780636e8255471461010857806372704d191461011b57806387475ca71461012e575b600080fd5b6100cc6100c7366004611080565b6101b3565b6040516100d991906110bc565b60405180910390f35b6100cc6100f03660046111b6565b610212565b6100cc6101033660046113e3565b6103d3565b6100cc610116366004611547565b610534565b6100cc6101293660046116d1565b6106b5565b6100cc61013c3660046117a2565b610795565b6100cc61014f3660046118bc565b6108b6565b6100cc6101623660046119fb565b6109f7565b6100cc610175366004611a82565b610a97565b6100cc610188366004611b2e565b610b57565b6100cc61019b366004611c22565b610c57565b6100cc6101ae366004611dde565b610df8565b604080516001808252818301909252606091816020015b6040805160208101909152606081528152602001906001900390816101ca579050509050818160008151811061020257610202611e41565b6020026020010181905250919050565b60408051600c8082526101a08201909252606091816020015b60408051602081019091526060815281526020019060019003908161022b5790505090508c8160008151811061026357610263611e41565b60200260200101819052508b8160018151811061028257610282611e41565b60200260200101819052508a816002815181106102a1576102a1611e41565b602002602001018190525089816003815181106102c0576102c0611e41565b602002602001018190525088816004815181106102df576102df611e41565b602002602001018190525087816005815181106102fe576102fe611e41565b6020026020010181905250868160068151811061031d5761031d611e41565b6020026020010181905250858160078151811061033c5761033c611e41565b6020026020010181905250848160088151811061035b5761035b611e41565b6020026020010181905250838160098151811061037a5761037a611e41565b60200260200101819052508281600a8151811061039957610399611e41565b60200260200101819052508181600b815181106103b8576103b8611e41565b60200260200101819052509c9b505050505050505050505050565b6040805160098082526101408201909252606091816020015b6040805160208101909152606081528152602001906001900390816103ec579050509050898160008151811061042457610424611e41565b6020026020010181905250888160018151811061044357610443611e41565b6020026020010181905250878160028151811061046257610462611e41565b6020026020010181905250868160038151811061048157610481611e41565b602002602001018190525085816004815181106104a0576104a0611e41565b602002602001018190525084816005815181106104bf576104bf611e41565b602002602001018190525083816006815181106104de576104de611e41565b602002602001018190525082816007815181106104fd576104fd611e41565b6020026020010181905250818160088151811061051c5761051c611e41565b60200260200101819052509998505050505050505050565b60408051600a8082526101608201909252606091816020015b60408051602081019091526060815281526020019060019003908161054d5790505090508a8160008151811061058557610585611e41565b602002602001018190525089816001815181106105a4576105a4611e41565b602002602001018190525088816002815181106105c3576105c3611e41565b602002602001018190525087816003815181106105e2576105e2611e41565b6020026020010181905250868160048151811061060157610601611e41565b6020026020010181905250858160058151811061062057610620611e41565b6020026020010181905250848160068151811061063f5761063f611e41565b6020026020010181905250838160078151811061065e5761065e611e41565b6020026020010181905250828160088151811061067d5761067d611e41565b6020026020010181905250818160098151811061069c5761069c611e41565b60200260200101819052509a9950505050505050505050565b60408051600580825260c08201909252606091816020015b6040805160208101909152606081528152602001906001900390816106cd579050509050858160008151811061070557610705611e41565b6020026020010181905250848160018151811061072457610724611e41565b6020026020010181905250838160028151811061074357610743611e41565b6020026020010181905250828160038151811061076257610762611e41565b6020026020010181905250818160048151811061078157610781611e41565b602002602001018190525095945050505050565b6040805160078082526101008201909252606091816020015b6040805160208101909152606081528152602001906001900390816107ae57905050905087816000815181106107e6576107e6611e41565b6020026020010181905250868160018151811061080557610805611e41565b6020026020010181905250858160028151811061082457610824611e41565b6020026020010181905250848160038151811061084357610843611e41565b6020026020010181905250838160048151811061086257610862611e41565b6020026020010181905250828160058151811061088157610881611e41565b602002602001018190525081816006815181106108a0576108a0611e41565b6020026020010181905250979650505050505050565b6040805160088082526101208201909252606091816020015b6040805160208101909152606081528152602001906001900390816108cf579050509050888160008151811061090757610907611e41565b6020026020010181905250878160018151811061092657610926611e41565b6020026020010181905250868160028151811061094557610945611e41565b6020026020010181905250858160038151811061096457610964611e41565b6020026020010181905250848160048151811061098357610983611e41565b602002602001018190525083816005815181106109a2576109a2611e41565b602002602001018190525082816006815181106109c1576109c1611e41565b602002602001018190525081816007815181106109e0576109e0611e41565b602002602001018190525098975050505050505050565b60408051600380825260808201909252606091816020015b604080516020810190915260608152815260200190600190039081610a0f5790505090508381600081518110610a4757610a47611e41565b60200260200101819052508281600181518110610a6657610a66611e41565b60200260200101819052508181600281518110610a8557610a85611e41565b60200260200101819052509392505050565b60408051600480825260a08201909252606091816020015b604080516020810190915260608152815260200190600190039081610aaf5790505090508481600081518110610ae757610ae7611e41565b60200260200101819052508381600181518110610b0657610b06611e41565b60200260200101819052508281600281518110610b2557610b25611e41565b60200260200101819052508181600381518110610b4457610b44611e41565b6020026020010181905250949350505050565b60408051600680825260e08201909252606091816020015b604080516020810190915260608152815260200190600190039081610b6f5790505090508681600081518110610ba757610ba7611e41565b60200260200101819052508581600181518110610bc657610bc6611e41565b60200260200101819052508481600281518110610be557610be5611e41565b60200260200101819052508381600381518110610c0457610c04611e41565b60200260200101819052508281600481518110610c2357610c23611e41565b60200260200101819052508181600581518110610c4257610c42611e41565b60200260200101819052509695505050505050565b60408051600b8082526101808201909252606091816020015b604080516020810190915260608152815260200190600190039081610c705790505090508b81600081518110610ca857610ca8611e41565b60200260200101819052508a81600181518110610cc757610cc7611e41565b60200260200101819052508981600281518110610ce657610ce6611e41565b60200260200101819052508881600381518110610d0557610d05611e41565b60200260200101819052508781600481518110610d2457610d24611e41565b60200260200101819052508681600581518110610d4357610d43611e41565b60200260200101819052508581600681518110610d6257610d62611e41565b60200260200101819052508481600781518110610d8157610d81611e41565b60200260200101819052508381600881518110610da057610da0611e41565b60200260200101819052508281600981518110610dbf57610dbf611e41565b60200260200101819052508181600a81518110610dde57610dde611e41565b60200260200101819052509b9a5050505050505050505050565b6040805160028082526060828101909352816020015b604080516020810190915260608152815260200190600190039081610e0e5790505090508281600081518110610e4657610e46611e41565b60200260200101819052508181600181518110610e6557610e65611e41565b602002602001018190525092915050565b634e487b7160e01b600052604160045260246000fd5b604051602081016001600160401b0381118282101715610eae57610eae610e76565b60405290565b604080519081016001600160401b0381118282101715610eae57610eae610e76565b604051601f8201601f191681016001600160401b0381118282101715610efe57610efe610e76565b604052919050565b80358015158114610f1657600080fd5b919050565b60006020808385031215610f2e57600080fd5b610f36610e8c565b915082356001600160401b0380821115610f4f57600080fd5b818501915085601f830112610f6357600080fd5b813581811115610f7557610f75610e76565b8060051b610f84858201610ed6565b9182528381018501918581019089841115610f9e57600080fd5b86860192505b8383101561107157823585811115610fbc5760008081fd5b86016040601f19828d038101821315610fd55760008081fd5b610fdd610eb4565b8a84013589811115610fef5760008081fd5b8401603f81018f136110015760008081fd5b8b8101358a81111561101557611015610e76565b6110258d85601f84011601610ed6565b93508084528f8582840101111561103c5760008081fd5b808583018e86013760009084018d01525081815261105b848401610f06565b818c015285525050509186019190860190610fa4565b87525094979650505050505050565b60006020828403121561109257600080fd5b81356001600160401b038111156110a857600080fd5b6110b484828501610f1b565b949350505050565b6000602080830181845280855180835260408601915060408160051b870101925083870160005b828110156111a957603f19888603810185528251518787528051888801819052908801906040600582901b89018101919089019060005b8181101561119157858b85030183528451805160408652805180604088015260005b8181101561115b578f81840101516060828a0101528f8101905061113c565b506000878201606090810191909152928f015115158f880152968e0196601f01601f1916909501019350918b019160010161111a565b509198505050948701945050908501906001016110e3565b5092979650505050505050565b6000806000806000806000806000806000806101808d8f0312156111d957600080fd5b6001600160401b038d3511156111ee57600080fd5b6111fb8e8e358f01610f1b565b9b506001600160401b0360208e0135111561121557600080fd5b6112258e60208f01358f01610f1b565b9a506001600160401b0360408e0135111561123f57600080fd5b61124f8e60408f01358f01610f1b565b99506001600160401b0360608e0135111561126957600080fd5b6112798e60608f01358f01610f1b565b98506001600160401b0360808e0135111561129357600080fd5b6112a38e60808f01358f01610f1b565b97506001600160401b0360a08e013511156112bd57600080fd5b6112cd8e60a08f01358f01610f1b565b96506001600160401b0360c08e013511156112e757600080fd5b6112f78e60c08f01358f01610f1b565b95506001600160401b0360e08e0135111561131157600080fd5b6113218e60e08f01358f01610f1b565b94506001600160401b036101008e0135111561133c57600080fd5b61134d8e6101008f01358f01610f1b565b93506001600160401b036101208e0135111561136857600080fd5b6113798e6101208f01358f01610f1b565b92506001600160401b036101408e0135111561139457600080fd5b6113a58e6101408f01358f01610f1b565b91506001600160401b036101608e013511156113c057600080fd5b6113d18e6101608f01358f01610f1b565b90509295989b509295989b509295989b565b60008060008060008060008060006101208a8c03121561140257600080fd5b89356001600160401b038082111561141957600080fd5b6114258d838e01610f1b565b9a5060208c013591508082111561143b57600080fd5b6114478d838e01610f1b565b995060408c013591508082111561145d57600080fd5b6114698d838e01610f1b565b985060608c013591508082111561147f57600080fd5b61148b8d838e01610f1b565b975060808c01359150808211156114a157600080fd5b6114ad8d838e01610f1b565b965060a08c01359150808211156114c357600080fd5b6114cf8d838e01610f1b565b955060c08c01359150808211156114e557600080fd5b6114f18d838e01610f1b565b945060e08c013591508082111561150757600080fd5b6115138d838e01610f1b565b93506101008c013591508082111561152a57600080fd5b506115378c828d01610f1b565b9150509295985092959850929598565b6000806000806000806000806000806101408b8d03121561156757600080fd5b8a356001600160401b038082111561157e57600080fd5b61158a8e838f01610f1b565b9b5060208d01359150808211156115a057600080fd5b6115ac8e838f01610f1b565b9a5060408d01359150808211156115c257600080fd5b6115ce8e838f01610f1b565b995060608d01359150808211156115e457600080fd5b6115f08e838f01610f1b565b985060808d013591508082111561160657600080fd5b6116128e838f01610f1b565b975060a08d013591508082111561162857600080fd5b6116348e838f01610f1b565b965060c08d013591508082111561164a57600080fd5b6116568e838f01610f1b565b955060e08d013591508082111561166c57600080fd5b6116788e838f01610f1b565b94506101008d013591508082111561168f57600080fd5b61169b8e838f01610f1b565b93506101208d01359150808211156116b257600080fd5b506116bf8d828e01610f1b565b9150509295989b9194979a5092959850565b600080600080600060a086880312156116e957600080fd5b85356001600160401b038082111561170057600080fd5b61170c89838a01610f1b565b9650602088013591508082111561172257600080fd5b61172e89838a01610f1b565b9550604088013591508082111561174457600080fd5b61175089838a01610f1b565b9450606088013591508082111561176657600080fd5b61177289838a01610f1b565b9350608088013591508082111561178857600080fd5b5061179588828901610f1b565b9150509295509295909350565b600080600080600080600060e0888a0312156117bd57600080fd5b87356001600160401b03808211156117d457600080fd5b6117e08b838c01610f1b565b985060208a01359150808211156117f657600080fd5b6118028b838c01610f1b565b975060408a013591508082111561181857600080fd5b6118248b838c01610f1b565b965060608a013591508082111561183a57600080fd5b6118468b838c01610f1b565b955060808a013591508082111561185c57600080fd5b6118688b838c01610f1b565b945060a08a013591508082111561187e57600080fd5b61188a8b838c01610f1b565b935060c08a01359150808211156118a057600080fd5b506118ad8a828b01610f1b565b91505092959891949750929550565b600080600080600080600080610100898b0312156118d957600080fd5b88356001600160401b03808211156118f057600080fd5b6118fc8c838d01610f1b565b995060208b013591508082111561191257600080fd5b61191e8c838d01610f1b565b985060408b013591508082111561193457600080fd5b6119408c838d01610f1b565b975060608b013591508082111561195657600080fd5b6119628c838d01610f1b565b965060808b013591508082111561197857600080fd5b6119848c838d01610f1b565b955060a08b013591508082111561199a57600080fd5b6119a68c838d01610f1b565b945060c08b01359150808211156119bc57600080fd5b6119c88c838d01610f1b565b935060e08b01359150808211156119de57600080fd5b506119eb8b828c01610f1b565b9150509295985092959890939650565b600080600060608486031215611a1057600080fd5b83356001600160401b0380821115611a2757600080fd5b611a3387838801610f1b565b94506020860135915080821115611a4957600080fd5b611a5587838801610f1b565b93506040860135915080821115611a6b57600080fd5b50611a7886828701610f1b565b9150509250925092565b60008060008060808587031215611a9857600080fd5b84356001600160401b0380821115611aaf57600080fd5b611abb88838901610f1b565b95506020870135915080821115611ad157600080fd5b611add88838901610f1b565b94506040870135915080821115611af357600080fd5b611aff88838901610f1b565b93506060870135915080821115611b1557600080fd5b50611b2287828801610f1b565b91505092959194509250565b60008060008060008060c08789031215611b4757600080fd5b86356001600160401b0380821115611b5e57600080fd5b611b6a8a838b01610f1b565b97506020890135915080821115611b8057600080fd5b611b8c8a838b01610f1b565b96506040890135915080821115611ba257600080fd5b611bae8a838b01610f1b565b95506060890135915080821115611bc457600080fd5b611bd08a838b01610f1b565b94506080890135915080821115611be657600080fd5b611bf28a838b01610f1b565b935060a0890135915080821115611c0857600080fd5b50611c1589828a01610f1b565b9150509295509295509295565b60008060008060008060008060008060006101608c8e031215611c4457600080fd5b6001600160401b03808d351115611c5a57600080fd5b611c678e8e358f01610f1b565b9b508060208e01351115611c7a57600080fd5b611c8a8e60208f01358f01610f1b565b9a508060408e01351115611c9d57600080fd5b611cad8e60408f01358f01610f1b565b99508060608e01351115611cc057600080fd5b611cd08e60608f01358f01610f1b565b98508060808e01351115611ce357600080fd5b611cf38e60808f01358f01610f1b565b97508060a08e01351115611d0657600080fd5b611d168e60a08f01358f01610f1b565b96508060c08e01351115611d2957600080fd5b611d398e60c08f01358f01610f1b565b95508060e08e01351115611d4c57600080fd5b611d5c8e60e08f01358f01610f1b565b9450806101008e01351115611d7057600080fd5b611d818e6101008f01358f01610f1b565b9350806101208e01351115611d9557600080fd5b611da68e6101208f01358f01610f1b565b9250806101408e01351115611dba57600080fd5b50611dcc8d6101408e01358e01610f1b565b90509295989b509295989b9093969950565b60008060408385031215611df157600080fd5b82356001600160401b0380821115611e0857600080fd5b611e1486838701610f1b565b93506020850135915080821115611e2a57600080fd5b50611e3785828601610f1b565b9150509250929050565b634e487b7160e01b600052603260045260246000fdfea2646970667358221220baf56e9d0e21c3827b569acccb66b04381ad46445c7f5edfea9d7e80dc144e7164736f6c63430008110033",
    "linkReferences": {}
  },
  "methodIdentifiers": {
    "orders(((bytes,bool)[]))": "08829509",
    "orders(((bytes,bool)[]),((bytes,bool)[]))": "f6ed8248",
    "orders(((bytes,bool)[]),((bytes,bool)[]),((bytes,bool)[]))": "a53fec3c",
    "orders(((bytes,bool)[]),((bytes,bool)[]),((bytes,bool)[]),((bytes,bool)[]))": "c91151ad",
    "orders(((bytes,bool)[]),((bytes,bool)[]),((bytes,bool)[]),((bytes,bool)[]),((bytes,bool)[]))": "72704d19",
    "orders(((bytes,bool)[]),((bytes,bool)[]),((bytes,bool)[]),((bytes,bool)[]),((bytes,bool)[]),((bytes,bool)[]))": "ca738c16",
    "orders(((bytes,bool)[]),((bytes,bool)[]),((bytes,bool)[]),((bytes,bool)[]),((bytes,bool)[]),((bytes,bool)[]),((bytes,bool)[]))": "87475ca7",
    "orders(((bytes,bool)[]),((bytes,bool)[]),((bytes,bool)[]),((bytes,bool)[]),((bytes,bool)[]),((bytes,bool)[]),((bytes,bool)[]),((bytes,bool)[]))": "997414eb",
    "orders(((bytes,bool)[]),((bytes,bool)[]),((bytes,bool)[]),((bytes,bool)[]),((bytes,bool)[]),((bytes,bool)[]),((bytes,bool)[]),((bytes,bool)[]),((bytes,bool)[]))": "592d9918",
    "orders(((bytes,bool)[]),((bytes,bool)[]),((bytes,bool)[]),((bytes,bool)[]),((bytes,bool)[]),((bytes,bool)[]),((bytes,bool)[]),((bytes,bool)[]),((bytes,bool)[]),((bytes,bool)[]))": "6e825547",
    "orders(((bytes,bool)[]),((bytes,bool)[]),((bytes,bool)[]),((bytes,bool)[]),((bytes,bool)[]),((bytes,bool)[]),((bytes,bool)[]),((bytes,bool)[]),((bytes,bool)[]),((bytes,bool)[]),((bytes,bool)[]))": "d0d7b66a",
    "orders(((bytes,bool)[]),((bytes,bool)[]),((bytes,bool)[]),((bytes,bool)[]),((bytes,bool)[]),((bytes,bool)[]),((bytes,bool)[]),((bytes,bool)[]),((bytes,bool)[]),((bytes,bool)[]),((bytes,bool)[]),((bytes,bool)[]))": "275c0480"
  },
  "id": 62
}