{
  "abi": [
    {
      "inputs": [
        {
          "components": [
            {
              "internalType": "bytes",
              "name": "data",
              "type": "bytes"
            },
            {
              "internalType": "bool",
              "name": "requiresUnsignedCall",
              "type": "bool"
            }
          ],
          "internalType": "struct Primitive",
          "name": "p1",
          "type": "tuple"
        },
        {
          "components": [
            {
              "internalType": "bytes",
              "name": "data",
              "type": "bytes"
            },
            {
              "internalType": "bool",
              "name": "requiresUnsignedCall",
              "type": "bool"
            }
          ],
          "internalType": "struct Primitive",
          "name": "p2",
          "type": "tuple"
        },
        {
          "components": [
            {
              "internalType": "bytes",
              "name": "data",
              "type": "bytes"
            },
            {
              "internalType": "bool",
              "name": "requiresUnsignedCall",
              "type": "bool"
            }
          ],
          "internalType": "struct Primitive",
          "name": "p3",
          "type": "tuple"
        },
        {
          "components": [
            {
              "internalType": "bytes",
              "name": "data",
              "type": "bytes"
            },
            {
              "internalType": "bool",
              "name": "requiresUnsignedCall",
              "type": "bool"
            }
          ],
          "internalType": "struct Primitive",
          "name": "p4",
          "type": "tuple"
        },
        {
          "components": [
            {
              "internalType": "bytes",
              "name": "data",
              "type": "bytes"
            },
            {
              "internalType": "bool",
              "name": "requiresUnsignedCall",
              "type": "bool"
            }
          ],
          "internalType": "struct Primitive",
          "name": "p5",
          "type": "tuple"
        },
        {
          "components": [
            {
              "internalType": "bytes",
              "name": "data",
              "type": "bytes"
            },
            {
              "internalType": "bool",
              "name": "requiresUnsignedCall",
              "type": "bool"
            }
          ],
          "internalType": "struct Primitive",
          "name": "p6",
          "type": "tuple"
        },
        {
          "components": [
            {
              "internalType": "bytes",
              "name": "data",
              "type": "bytes"
            },
            {
              "internalType": "bool",
              "name": "requiresUnsignedCall",
              "type": "bool"
            }
          ],
          "internalType": "struct Primitive",
          "name": "p7",
          "type": "tuple"
        },
        {
          "components": [
            {
              "internalType": "bytes",
              "name": "data",
              "type": "bytes"
            },
            {
              "internalType": "bool",
              "name": "requiresUnsignedCall",
              "type": "bool"
            }
          ],
          "internalType": "struct Primitive",
          "name": "p8",
          "type": "tuple"
        },
        {
          "components": [
            {
              "internalType": "bytes",
              "name": "data",
              "type": "bytes"
            },
            {
              "internalType": "bool",
              "name": "requiresUnsignedCall",
              "type": "bool"
            }
          ],
          "internalType": "struct Primitive",
          "name": "p9",
          "type": "tuple"
        },
        {
          "components": [
            {
              "internalType": "bytes",
              "name": "data",
              "type": "bytes"
            },
            {
              "internalType": "bool",
              "name": "requiresUnsignedCall",
              "type": "bool"
            }
          ],
          "internalType": "struct Primitive",
          "name": "p10",
          "type": "tuple"
        },
        {
          "components": [
            {
              "internalType": "bytes",
              "name": "data",
              "type": "bytes"
            },
            {
              "internalType": "bool",
              "name": "requiresUnsignedCall",
              "type": "bool"
            }
          ],
          "internalType": "struct Primitive",
          "name": "p11",
          "type": "tuple"
        }
      ],
      "name": "order",
      "outputs": [
        {
          "components": [
            {
              "components": [
                {
                  "internalType": "bytes",
                  "name": "data",
                  "type": "bytes"
                },
                {
                  "internalType": "bool",
                  "name": "requiresUnsignedCall",
                  "type": "bool"
                }
              ],
              "internalType": "struct Primitive[]",
              "name": "primitives",
              "type": "tuple[]"
            }
          ],
          "internalType": "struct Order",
          "name": "",
          "type": "tuple"
        }
      ],
      "stateMutability": "pure",
      "type": "function"
    },
    {
      "inputs": [
        {
          "components": [
            {
              "internalType": "bytes",
              "name": "data",
              "type": "bytes"
            },
            {
              "internalType": "bool",
              "name": "requiresUnsignedCall",
              "type": "bool"
            }
          ],
          "internalType": "struct Primitive",
          "name": "p1",
          "type": "tuple"
        },
        {
          "components": [
            {
              "internalType": "bytes",
              "name": "data",
              "type": "bytes"
            },
            {
              "internalType": "bool",
              "name": "requiresUnsignedCall",
              "type": "bool"
            }
          ],
          "internalType": "struct Primitive",
          "name": "p2",
          "type": "tuple"
        },
        {
          "components": [
            {
              "internalType": "bytes",
              "name": "data",
              "type": "bytes"
            },
            {
              "internalType": "bool",
              "name": "requiresUnsignedCall",
              "type": "bool"
            }
          ],
          "internalType": "struct Primitive",
          "name": "p3",
          "type": "tuple"
        },
        {
          "components": [
            {
              "internalType": "bytes",
              "name": "data",
              "type": "bytes"
            },
            {
              "internalType": "bool",
              "name": "requiresUnsignedCall",
              "type": "bool"
            }
          ],
          "internalType": "struct Primitive",
          "name": "p4",
          "type": "tuple"
        },
        {
          "components": [
            {
              "internalType": "bytes",
              "name": "data",
              "type": "bytes"
            },
            {
              "internalType": "bool",
              "name": "requiresUnsignedCall",
              "type": "bool"
            }
          ],
          "internalType": "struct Primitive",
          "name": "p5",
          "type": "tuple"
        },
        {
          "components": [
            {
              "internalType": "bytes",
              "name": "data",
              "type": "bytes"
            },
            {
              "internalType": "bool",
              "name": "requiresUnsignedCall",
              "type": "bool"
            }
          ],
          "internalType": "struct Primitive",
          "name": "p6",
          "type": "tuple"
        },
        {
          "components": [
            {
              "internalType": "bytes",
              "name": "data",
              "type": "bytes"
            },
            {
              "internalType": "bool",
              "name": "requiresUnsignedCall",
              "type": "bool"
            }
          ],
          "internalType": "struct Primitive",
          "name": "p7",
          "type": "tuple"
        },
        {
          "components": [
            {
              "internalType": "bytes",
              "name": "data",
              "type": "bytes"
            },
            {
              "internalType": "bool",
              "name": "requiresUnsignedCall",
              "type": "bool"
            }
          ],
          "internalType": "struct Primitive",
          "name": "p8",
          "type": "tuple"
        }
      ],
      "name": "order",
      "outputs": [
        {
          "components": [
            {
              "components": [
                {
                  "internalType": "bytes",
                  "name": "data",
                  "type": "bytes"
                },
                {
                  "internalType": "bool",
                  "name": "requiresUnsignedCall",
                  "type": "bool"
                }
              ],
              "internalType": "struct Primitive[]",
              "name": "primitives",
              "type": "tuple[]"
            }
          ],
          "internalType": "struct Order",
          "name": "",
          "type": "tuple"
        }
      ],
      "stateMutability": "pure",
      "type": "function"
    },
    {
      "inputs": [
        {
          "components": [
            {
              "internalType": "bytes",
              "name": "data",
              "type": "bytes"
            },
            {
              "internalType": "bool",
              "name": "requiresUnsignedCall",
              "type": "bool"
            }
          ],
          "internalType": "struct Primitive",
          "name": "p1",
          "type": "tuple"
        },
        {
          "components": [
            {
              "internalType": "bytes",
              "name": "data",
              "type": "bytes"
            },
            {
              "internalType": "bool",
              "name": "requiresUnsignedCall",
              "type": "bool"
            }
          ],
          "internalType": "struct Primitive",
          "name": "p2",
          "type": "tuple"
        },
        {
          "components": [
            {
              "internalType": "bytes",
              "name": "data",
              "type": "bytes"
            },
            {
              "internalType": "bool",
              "name": "requiresUnsignedCall",
              "type": "bool"
            }
          ],
          "internalType": "struct Primitive",
          "name": "p3",
          "type": "tuple"
        },
        {
          "components": [
            {
              "internalType": "bytes",
              "name": "data",
              "type": "bytes"
            },
            {
              "internalType": "bool",
              "name": "requiresUnsignedCall",
              "type": "bool"
            }
          ],
          "internalType": "struct Primitive",
          "name": "p4",
          "type": "tuple"
        },
        {
          "components": [
            {
              "internalType": "bytes",
              "name": "data",
              "type": "bytes"
            },
            {
              "internalType": "bool",
              "name": "requiresUnsignedCall",
              "type": "bool"
            }
          ],
          "internalType": "struct Primitive",
          "name": "p5",
          "type": "tuple"
        },
        {
          "components": [
            {
              "internalType": "bytes",
              "name": "data",
              "type": "bytes"
            },
            {
              "internalType": "bool",
              "name": "requiresUnsignedCall",
              "type": "bool"
            }
          ],
          "internalType": "struct Primitive",
          "name": "p6",
          "type": "tuple"
        },
        {
          "components": [
            {
              "internalType": "bytes",
              "name": "data",
              "type": "bytes"
            },
            {
              "internalType": "bool",
              "name": "requiresUnsignedCall",
              "type": "bool"
            }
          ],
          "internalType": "struct Primitive",
          "name": "p7",
          "type": "tuple"
        },
        {
          "components": [
            {
              "internalType": "bytes",
              "name": "data",
              "type": "bytes"
            },
            {
              "internalType": "bool",
              "name": "requiresUnsignedCall",
              "type": "bool"
            }
          ],
          "internalType": "struct Primitive",
          "name": "p8",
          "type": "tuple"
        },
        {
          "components": [
            {
              "internalType": "bytes",
              "name": "data",
              "type": "bytes"
            },
            {
              "internalType": "bool",
              "name": "requiresUnsignedCall",
              "type": "bool"
            }
          ],
          "internalType": "struct Primitive",
          "name": "p9",
          "type": "tuple"
        },
        {
          "components": [
            {
              "internalType": "bytes",
              "name": "data",
              "type": "bytes"
            },
            {
              "internalType": "bool",
              "name": "requiresUnsignedCall",
              "type": "bool"
            }
          ],
          "internalType": "struct Primitive",
          "name": "p10",
          "type": "tuple"
        },
        {
          "components": [
            {
              "internalType": "bytes",
              "name": "data",
              "type": "bytes"
            },
            {
              "internalType": "bool",
              "name": "requiresUnsignedCall",
              "type": "bool"
            }
          ],
          "internalType": "struct Primitive",
          "name": "p11",
          "type": "tuple"
        },
        {
          "components": [
            {
              "internalType": "bytes",
              "name": "data",
              "type": "bytes"
            },
            {
              "internalType": "bool",
              "name": "requiresUnsignedCall",
              "type": "bool"
            }
          ],
          "internalType": "struct Primitive",
          "name": "p12",
          "type": "tuple"
        }
      ],
      "name": "order",
      "outputs": [
        {
          "components": [
            {
              "components": [
                {
                  "internalType": "bytes",
                  "name": "data",
                  "type": "bytes"
                },
                {
                  "internalType": "bool",
                  "name": "requiresUnsignedCall",
                  "type": "bool"
                }
              ],
              "internalType": "struct Primitive[]",
              "name": "primitives",
              "type": "tuple[]"
            }
          ],
          "internalType": "struct Order",
          "name": "",
          "type": "tuple"
        }
      ],
      "stateMutability": "pure",
      "type": "function"
    },
    {
      "inputs": [
        {
          "components": [
            {
              "internalType": "bytes",
              "name": "data",
              "type": "bytes"
            },
            {
              "internalType": "bool",
              "name": "requiresUnsignedCall",
              "type": "bool"
            }
          ],
          "internalType": "struct Primitive",
          "name": "p1",
          "type": "tuple"
        },
        {
          "components": [
            {
              "internalType": "bytes",
              "name": "data",
              "type": "bytes"
            },
            {
              "internalType": "bool",
              "name": "requiresUnsignedCall",
              "type": "bool"
            }
          ],
          "internalType": "struct Primitive",
          "name": "p2",
          "type": "tuple"
        },
        {
          "components": [
            {
              "internalType": "bytes",
              "name": "data",
              "type": "bytes"
            },
            {
              "internalType": "bool",
              "name": "requiresUnsignedCall",
              "type": "bool"
            }
          ],
          "internalType": "struct Primitive",
          "name": "p3",
          "type": "tuple"
        },
        {
          "components": [
            {
              "internalType": "bytes",
              "name": "data",
              "type": "bytes"
            },
            {
              "internalType": "bool",
              "name": "requiresUnsignedCall",
              "type": "bool"
            }
          ],
          "internalType": "struct Primitive",
          "name": "p4",
          "type": "tuple"
        },
        {
          "components": [
            {
              "internalType": "bytes",
              "name": "data",
              "type": "bytes"
            },
            {
              "internalType": "bool",
              "name": "requiresUnsignedCall",
              "type": "bool"
            }
          ],
          "internalType": "struct Primitive",
          "name": "p5",
          "type": "tuple"
        },
        {
          "components": [
            {
              "internalType": "bytes",
              "name": "data",
              "type": "bytes"
            },
            {
              "internalType": "bool",
              "name": "requiresUnsignedCall",
              "type": "bool"
            }
          ],
          "internalType": "struct Primitive",
          "name": "p6",
          "type": "tuple"
        }
      ],
      "name": "order",
      "outputs": [
        {
          "components": [
            {
              "components": [
                {
                  "internalType": "bytes",
                  "name": "data",
                  "type": "bytes"
                },
                {
                  "internalType": "bool",
                  "name": "requiresUnsignedCall",
                  "type": "bool"
                }
              ],
              "internalType": "struct Primitive[]",
              "name": "primitives",
              "type": "tuple[]"
            }
          ],
          "internalType": "struct Order",
          "name": "",
          "type": "tuple"
        }
      ],
      "stateMutability": "pure",
      "type": "function"
    },
    {
      "inputs": [
        {
          "components": [
            {
              "internalType": "bytes",
              "name": "data",
              "type": "bytes"
            },
            {
              "internalType": "bool",
              "name": "requiresUnsignedCall",
              "type": "bool"
            }
          ],
          "internalType": "struct Primitive",
          "name": "p1",
          "type": "tuple"
        },
        {
          "components": [
            {
              "internalType": "bytes",
              "name": "data",
              "type": "bytes"
            },
            {
              "internalType": "bool",
              "name": "requiresUnsignedCall",
              "type": "bool"
            }
          ],
          "internalType": "struct Primitive",
          "name": "p2",
          "type": "tuple"
        },
        {
          "components": [
            {
              "internalType": "bytes",
              "name": "data",
              "type": "bytes"
            },
            {
              "internalType": "bool",
              "name": "requiresUnsignedCall",
              "type": "bool"
            }
          ],
          "internalType": "struct Primitive",
          "name": "p3",
          "type": "tuple"
        },
        {
          "components": [
            {
              "internalType": "bytes",
              "name": "data",
              "type": "bytes"
            },
            {
              "internalType": "bool",
              "name": "requiresUnsignedCall",
              "type": "bool"
            }
          ],
          "internalType": "struct Primitive",
          "name": "p4",
          "type": "tuple"
        },
        {
          "components": [
            {
              "internalType": "bytes",
              "name": "data",
              "type": "bytes"
            },
            {
              "internalType": "bool",
              "name": "requiresUnsignedCall",
              "type": "bool"
            }
          ],
          "internalType": "struct Primitive",
          "name": "p5",
          "type": "tuple"
        },
        {
          "components": [
            {
              "internalType": "bytes",
              "name": "data",
              "type": "bytes"
            },
            {
              "internalType": "bool",
              "name": "requiresUnsignedCall",
              "type": "bool"
            }
          ],
          "internalType": "struct Primitive",
          "name": "p6",
          "type": "tuple"
        },
        {
          "components": [
            {
              "internalType": "bytes",
              "name": "data",
              "type": "bytes"
            },
            {
              "internalType": "bool",
              "name": "requiresUnsignedCall",
              "type": "bool"
            }
          ],
          "internalType": "struct Primitive",
          "name": "p7",
          "type": "tuple"
        },
        {
          "components": [
            {
              "internalType": "bytes",
              "name": "data",
              "type": "bytes"
            },
            {
              "internalType": "bool",
              "name": "requiresUnsignedCall",
              "type": "bool"
            }
          ],
          "internalType": "struct Primitive",
          "name": "p8",
          "type": "tuple"
        },
        {
          "components": [
            {
              "internalType": "bytes",
              "name": "data",
              "type": "bytes"
            },
            {
              "internalType": "bool",
              "name": "requiresUnsignedCall",
              "type": "bool"
            }
          ],
          "internalType": "struct Primitive",
          "name": "p9",
          "type": "tuple"
        }
      ],
      "name": "order",
      "outputs": [
        {
          "components": [
            {
              "components": [
                {
                  "internalType": "bytes",
                  "name": "data",
                  "type": "bytes"
                },
                {
                  "internalType": "bool",
                  "name": "requiresUnsignedCall",
                  "type": "bool"
                }
              ],
              "internalType": "struct Primitive[]",
              "name": "primitives",
              "type": "tuple[]"
            }
          ],
          "internalType": "struct Order",
          "name": "",
          "type": "tuple"
        }
      ],
      "stateMutability": "pure",
      "type": "function"
    },
    {
      "inputs": [
        {
          "components": [
            {
              "internalType": "bytes",
              "name": "data",
              "type": "bytes"
            },
            {
              "internalType": "bool",
              "name": "requiresUnsignedCall",
              "type": "bool"
            }
          ],
          "internalType": "struct Primitive",
          "name": "p1",
          "type": "tuple"
        },
        {
          "components": [
            {
              "internalType": "bytes",
              "name": "data",
              "type": "bytes"
            },
            {
              "internalType": "bool",
              "name": "requiresUnsignedCall",
              "type": "bool"
            }
          ],
          "internalType": "struct Primitive",
          "name": "p2",
          "type": "tuple"
        },
        {
          "components": [
            {
              "internalType": "bytes",
              "name": "data",
              "type": "bytes"
            },
            {
              "internalType": "bool",
              "name": "requiresUnsignedCall",
              "type": "bool"
            }
          ],
          "internalType": "struct Primitive",
          "name": "p3",
          "type": "tuple"
        },
        {
          "components": [
            {
              "internalType": "bytes",
              "name": "data",
              "type": "bytes"
            },
            {
              "internalType": "bool",
              "name": "requiresUnsignedCall",
              "type": "bool"
            }
          ],
          "internalType": "struct Primitive",
          "name": "p4",
          "type": "tuple"
        }
      ],
      "name": "order",
      "outputs": [
        {
          "components": [
            {
              "components": [
                {
                  "internalType": "bytes",
                  "name": "data",
                  "type": "bytes"
                },
                {
                  "internalType": "bool",
                  "name": "requiresUnsignedCall",
                  "type": "bool"
                }
              ],
              "internalType": "struct Primitive[]",
              "name": "primitives",
              "type": "tuple[]"
            }
          ],
          "internalType": "struct Order",
          "name": "",
          "type": "tuple"
        }
      ],
      "stateMutability": "pure",
      "type": "function"
    },
    {
      "inputs": [
        {
          "components": [
            {
              "internalType": "bytes",
              "name": "data",
              "type": "bytes"
            },
            {
              "internalType": "bool",
              "name": "requiresUnsignedCall",
              "type": "bool"
            }
          ],
          "internalType": "struct Primitive",
          "name": "p1",
          "type": "tuple"
        }
      ],
      "name": "order",
      "outputs": [
        {
          "components": [
            {
              "components": [
                {
                  "internalType": "bytes",
                  "name": "data",
                  "type": "bytes"
                },
                {
                  "internalType": "bool",
                  "name": "requiresUnsignedCall",
                  "type": "bool"
                }
              ],
              "internalType": "struct Primitive[]",
              "name": "primitives",
              "type": "tuple[]"
            }
          ],
          "internalType": "struct Order",
          "name": "",
          "type": "tuple"
        }
      ],
      "stateMutability": "pure",
      "type": "function"
    },
    {
      "inputs": [
        {
          "components": [
            {
              "internalType": "bytes",
              "name": "data",
              "type": "bytes"
            },
            {
              "internalType": "bool",
              "name": "requiresUnsignedCall",
              "type": "bool"
            }
          ],
          "internalType": "struct Primitive",
          "name": "p1",
          "type": "tuple"
        },
        {
          "components": [
            {
              "internalType": "bytes",
              "name": "data",
              "type": "bytes"
            },
            {
              "internalType": "bool",
              "name": "requiresUnsignedCall",
              "type": "bool"
            }
          ],
          "internalType": "struct Primitive",
          "name": "p2",
          "type": "tuple"
        },
        {
          "components": [
            {
              "internalType": "bytes",
              "name": "data",
              "type": "bytes"
            },
            {
              "internalType": "bool",
              "name": "requiresUnsignedCall",
              "type": "bool"
            }
          ],
          "internalType": "struct Primitive",
          "name": "p3",
          "type": "tuple"
        },
        {
          "components": [
            {
              "internalType": "bytes",
              "name": "data",
              "type": "bytes"
            },
            {
              "internalType": "bool",
              "name": "requiresUnsignedCall",
              "type": "bool"
            }
          ],
          "internalType": "struct Primitive",
          "name": "p4",
          "type": "tuple"
        },
        {
          "components": [
            {
              "internalType": "bytes",
              "name": "data",
              "type": "bytes"
            },
            {
              "internalType": "bool",
              "name": "requiresUnsignedCall",
              "type": "bool"
            }
          ],
          "internalType": "struct Primitive",
          "name": "p5",
          "type": "tuple"
        },
        {
          "components": [
            {
              "internalType": "bytes",
              "name": "data",
              "type": "bytes"
            },
            {
              "internalType": "bool",
              "name": "requiresUnsignedCall",
              "type": "bool"
            }
          ],
          "internalType": "struct Primitive",
          "name": "p6",
          "type": "tuple"
        },
        {
          "components": [
            {
              "internalType": "bytes",
              "name": "data",
              "type": "bytes"
            },
            {
              "internalType": "bool",
              "name": "requiresUnsignedCall",
              "type": "bool"
            }
          ],
          "internalType": "struct Primitive",
          "name": "p7",
          "type": "tuple"
        },
        {
          "components": [
            {
              "internalType": "bytes",
              "name": "data",
              "type": "bytes"
            },
            {
              "internalType": "bool",
              "name": "requiresUnsignedCall",
              "type": "bool"
            }
          ],
          "internalType": "struct Primitive",
          "name": "p8",
          "type": "tuple"
        },
        {
          "components": [
            {
              "internalType": "bytes",
              "name": "data",
              "type": "bytes"
            },
            {
              "internalType": "bool",
              "name": "requiresUnsignedCall",
              "type": "bool"
            }
          ],
          "internalType": "struct Primitive",
          "name": "p9",
          "type": "tuple"
        },
        {
          "components": [
            {
              "internalType": "bytes",
              "name": "data",
              "type": "bytes"
            },
            {
              "internalType": "bool",
              "name": "requiresUnsignedCall",
              "type": "bool"
            }
          ],
          "internalType": "struct Primitive",
          "name": "p10",
          "type": "tuple"
        }
      ],
      "name": "order",
      "outputs": [
        {
          "components": [
            {
              "components": [
                {
                  "internalType": "bytes",
                  "name": "data",
                  "type": "bytes"
                },
                {
                  "internalType": "bool",
                  "name": "requiresUnsignedCall",
                  "type": "bool"
                }
              ],
              "internalType": "struct Primitive[]",
              "name": "primitives",
              "type": "tuple[]"
            }
          ],
          "internalType": "struct Order",
          "name": "",
          "type": "tuple"
        }
      ],
      "stateMutability": "pure",
      "type": "function"
    },
    {
      "inputs": [
        {
          "components": [
            {
              "internalType": "bytes",
              "name": "data",
              "type": "bytes"
            },
            {
              "internalType": "bool",
              "name": "requiresUnsignedCall",
              "type": "bool"
            }
          ],
          "internalType": "struct Primitive",
          "name": "p1",
          "type": "tuple"
        },
        {
          "components": [
            {
              "internalType": "bytes",
              "name": "data",
              "type": "bytes"
            },
            {
              "internalType": "bool",
              "name": "requiresUnsignedCall",
              "type": "bool"
            }
          ],
          "internalType": "struct Primitive",
          "name": "p2",
          "type": "tuple"
        },
        {
          "components": [
            {
              "internalType": "bytes",
              "name": "data",
              "type": "bytes"
            },
            {
              "internalType": "bool",
              "name": "requiresUnsignedCall",
              "type": "bool"
            }
          ],
          "internalType": "struct Primitive",
          "name": "p3",
          "type": "tuple"
        },
        {
          "components": [
            {
              "internalType": "bytes",
              "name": "data",
              "type": "bytes"
            },
            {
              "internalType": "bool",
              "name": "requiresUnsignedCall",
              "type": "bool"
            }
          ],
          "internalType": "struct Primitive",
          "name": "p4",
          "type": "tuple"
        },
        {
          "components": [
            {
              "internalType": "bytes",
              "name": "data",
              "type": "bytes"
            },
            {
              "internalType": "bool",
              "name": "requiresUnsignedCall",
              "type": "bool"
            }
          ],
          "internalType": "struct Primitive",
          "name": "p5",
          "type": "tuple"
        }
      ],
      "name": "order",
      "outputs": [
        {
          "components": [
            {
              "components": [
                {
                  "internalType": "bytes",
                  "name": "data",
                  "type": "bytes"
                },
                {
                  "internalType": "bool",
                  "name": "requiresUnsignedCall",
                  "type": "bool"
                }
              ],
              "internalType": "struct Primitive[]",
              "name": "primitives",
              "type": "tuple[]"
            }
          ],
          "internalType": "struct Order",
          "name": "",
          "type": "tuple"
        }
      ],
      "stateMutability": "pure",
      "type": "function"
    },
    {
      "inputs": [
        {
          "components": [
            {
              "internalType": "bytes",
              "name": "data",
              "type": "bytes"
            },
            {
              "internalType": "bool",
              "name": "requiresUnsignedCall",
              "type": "bool"
            }
          ],
          "internalType": "struct Primitive",
          "name": "p1",
          "type": "tuple"
        },
        {
          "components": [
            {
              "internalType": "bytes",
              "name": "data",
              "type": "bytes"
            },
            {
              "internalType": "bool",
              "name": "requiresUnsignedCall",
              "type": "bool"
            }
          ],
          "internalType": "struct Primitive",
          "name": "p2",
          "type": "tuple"
        },
        {
          "components": [
            {
              "internalType": "bytes",
              "name": "data",
              "type": "bytes"
            },
            {
              "internalType": "bool",
              "name": "requiresUnsignedCall",
              "type": "bool"
            }
          ],
          "internalType": "struct Primitive",
          "name": "p3",
          "type": "tuple"
        }
      ],
      "name": "order",
      "outputs": [
        {
          "components": [
            {
              "components": [
                {
                  "internalType": "bytes",
                  "name": "data",
                  "type": "bytes"
                },
                {
                  "internalType": "bool",
                  "name": "requiresUnsignedCall",
                  "type": "bool"
                }
              ],
              "internalType": "struct Primitive[]",
              "name": "primitives",
              "type": "tuple[]"
            }
          ],
          "internalType": "struct Order",
          "name": "",
          "type": "tuple"
        }
      ],
      "stateMutability": "pure",
      "type": "function"
    },
    {
      "inputs": [
        {
          "components": [
            {
              "internalType": "bytes",
              "name": "data",
              "type": "bytes"
            },
            {
              "internalType": "bool",
              "name": "requiresUnsignedCall",
              "type": "bool"
            }
          ],
          "internalType": "struct Primitive",
          "name": "p1",
          "type": "tuple"
        },
        {
          "components": [
            {
              "internalType": "bytes",
              "name": "data",
              "type": "bytes"
            },
            {
              "internalType": "bool",
              "name": "requiresUnsignedCall",
              "type": "bool"
            }
          ],
          "internalType": "struct Primitive",
          "name": "p2",
          "type": "tuple"
        },
        {
          "components": [
            {
              "internalType": "bytes",
              "name": "data",
              "type": "bytes"
            },
            {
              "internalType": "bool",
              "name": "requiresUnsignedCall",
              "type": "bool"
            }
          ],
          "internalType": "struct Primitive",
          "name": "p3",
          "type": "tuple"
        },
        {
          "components": [
            {
              "internalType": "bytes",
              "name": "data",
              "type": "bytes"
            },
            {
              "internalType": "bool",
              "name": "requiresUnsignedCall",
              "type": "bool"
            }
          ],
          "internalType": "struct Primitive",
          "name": "p4",
          "type": "tuple"
        },
        {
          "components": [
            {
              "internalType": "bytes",
              "name": "data",
              "type": "bytes"
            },
            {
              "internalType": "bool",
              "name": "requiresUnsignedCall",
              "type": "bool"
            }
          ],
          "internalType": "struct Primitive",
          "name": "p5",
          "type": "tuple"
        },
        {
          "components": [
            {
              "internalType": "bytes",
              "name": "data",
              "type": "bytes"
            },
            {
              "internalType": "bool",
              "name": "requiresUnsignedCall",
              "type": "bool"
            }
          ],
          "internalType": "struct Primitive",
          "name": "p6",
          "type": "tuple"
        },
        {
          "components": [
            {
              "internalType": "bytes",
              "name": "data",
              "type": "bytes"
            },
            {
              "internalType": "bool",
              "name": "requiresUnsignedCall",
              "type": "bool"
            }
          ],
          "internalType": "struct Primitive",
          "name": "p7",
          "type": "tuple"
        }
      ],
      "name": "order",
      "outputs": [
        {
          "components": [
            {
              "components": [
                {
                  "internalType": "bytes",
                  "name": "data",
                  "type": "bytes"
                },
                {
                  "internalType": "bool",
                  "name": "requiresUnsignedCall",
                  "type": "bool"
                }
              ],
              "internalType": "struct Primitive[]",
              "name": "primitives",
              "type": "tuple[]"
            }
          ],
          "internalType": "struct Order",
          "name": "",
          "type": "tuple"
        }
      ],
      "stateMutability": "pure",
      "type": "function"
    },
    {
      "inputs": [
        {
          "components": [
            {
              "internalType": "bytes",
              "name": "data",
              "type": "bytes"
            },
            {
              "internalType": "bool",
              "name": "requiresUnsignedCall",
              "type": "bool"
            }
          ],
          "internalType": "struct Primitive",
          "name": "p1",
          "type": "tuple"
        },
        {
          "components": [
            {
              "internalType": "bytes",
              "name": "data",
              "type": "bytes"
            },
            {
              "internalType": "bool",
              "name": "requiresUnsignedCall",
              "type": "bool"
            }
          ],
          "internalType": "struct Primitive",
          "name": "p2",
          "type": "tuple"
        }
      ],
      "name": "order",
      "outputs": [
        {
          "components": [
            {
              "components": [
                {
                  "internalType": "bytes",
                  "name": "data",
                  "type": "bytes"
                },
                {
                  "internalType": "bool",
                  "name": "requiresUnsignedCall",
                  "type": "bool"
                }
              ],
              "internalType": "struct Primitive[]",
              "name": "primitives",
              "type": "tuple[]"
            }
          ],
          "internalType": "struct Order",
          "name": "",
          "type": "tuple"
        }
      ],
      "stateMutability": "pure",
      "type": "function"
    }
  ],
  "bytecode": {
    "object": "0x608060405234801561001057600080fd5b50611f40806100206000396000f3fe608060405234801561001057600080fd5b50600436106100b45760003560e01c8063c45e639911610071578063c45e639914610141578063d1fffc3514610154578063dca9df9614610167578063ddcd88121461017a578063f183de0f1461018d578063f8da10c4146101a057600080fd5b80631696cfe7146100b95780632ed804f5146100e25780634d5b8ec2146100f5578063624bd6b81461010857806383a9246d1461011b578063a14fcaac1461012e575b600080fd5b6100cc6100c736600461117d565b6101b3565b6040516100d99190611339565b60405180910390f35b6100cc6100f03660046113e9565b61037b565b6100cc610103366004611528565b6104e3565b6100cc610116366004611755565b6106cb565b6100cc610129366004611849565b6107f2565b6100cc61013c3660046119ad565b61097a565b6100cc61014f366004611a59565b610a61565b6100cc610162366004611a95565b610ae7565b6100cc610175366004611c1f565b610c8f565b6100cc610188366004611cf0565b610d96565b6100cc61019b366004611d77565b610e5d565b6100cc6101ae366004611e91565b610fa5565b60408051602081018252606081528151600b8082526101808201909352909160009190816020015b6040805180820190915260608152600060208201528152602001906001900390816101db5790505090508c8160008151811061021957610219611ef4565b60200260200101819052508b8160018151811061023857610238611ef4565b60200260200101819052508a8160028151811061025757610257611ef4565b6020026020010181905250898160038151811061027657610276611ef4565b6020026020010181905250888160048151811061029557610295611ef4565b602002602001018190525087816005815181106102b4576102b4611ef4565b602002602001018190525086816006815181106102d3576102d3611ef4565b602002602001018190525085816007815181106102f2576102f2611ef4565b6020026020010181905250848160088151811061031157610311611ef4565b6020026020010181905250838160098151811061033057610330611ef4565b60200260200101819052508281600a8151811061034f5761034f611ef4565b60200260200101819052506040518060200160405280828152509150509b9a5050505050505050505050565b6040805160208101825260608152815160088082526101208201909352909160009190816020015b6040805180820190915260608152600060208201528152602001906001900390816103a357905050905089816000815181106103e1576103e1611ef4565b6020026020010181905250888160018151811061040057610400611ef4565b6020026020010181905250878160028151811061041f5761041f611ef4565b6020026020010181905250868160038151811061043e5761043e611ef4565b6020026020010181905250858160048151811061045d5761045d611ef4565b6020026020010181905250848160058151811061047c5761047c611ef4565b6020026020010181905250838160068151811061049b5761049b611ef4565b602002602001018190525082816007815181106104ba576104ba611ef4565b602002602001018190525060405180602001604052808281525091505098975050505050505050565b60408051602081018252606081528151600c8082526101a08201909352909160009190816020015b60408051808201909152606081526000602082015281526020019060019003908161050b5790505090508d8160008151811061054957610549611ef4565b60200260200101819052508c8160018151811061056857610568611ef4565b60200260200101819052508b8160028151811061058757610587611ef4565b60200260200101819052508a816003815181106105a6576105a6611ef4565b602002602001018190525089816004815181106105c5576105c5611ef4565b602002602001018190525088816005815181106105e4576105e4611ef4565b6020026020010181905250878160068151811061060357610603611ef4565b6020026020010181905250868160078151811061062257610622611ef4565b6020026020010181905250858160088151811061064157610641611ef4565b6020026020010181905250848160098151811061066057610660611ef4565b60200260200101819052508381600a8151811061067f5761067f611ef4565b60200260200101819052508281600b8151811061069e5761069e611ef4565b60200260200101819052506040518060200160405280828152509150509c9b505050505050505050505050565b60408051602081018252606081528151600680825260e08201909352909160009190816020015b6040805180820190915260608152600060208201528152602001906001900390816106f2579050509050878160008151811061073057610730611ef4565b6020026020010181905250868160018151811061074f5761074f611ef4565b6020026020010181905250858160028151811061076e5761076e611ef4565b6020026020010181905250848160038151811061078d5761078d611ef4565b602002602001018190525083816004815181106107ac576107ac611ef4565b602002602001018190525082816005815181106107cb576107cb611ef4565b60200260200101819052506040518060200160405280828152509150509695505050505050565b6040805160208101825260608152815160098082526101408201909352909160009190816020015b60408051808201909152606081526000602082015281526020019060019003908161081a5790505090508a8160008151811061085857610858611ef4565b6020026020010181905250898160018151811061087757610877611ef4565b6020026020010181905250888160028151811061089657610896611ef4565b602002602001018190525087816003815181106108b5576108b5611ef4565b602002602001018190525086816004815181106108d4576108d4611ef4565b602002602001018190525085816005815181106108f3576108f3611ef4565b6020026020010181905250848160068151811061091257610912611ef4565b6020026020010181905250838160078151811061093157610931611ef4565b6020026020010181905250828160088151811061095057610950611ef4565b60200260200101819052506040518060200160405280828152509150509998505050505050505050565b60408051602081018252606081528151600480825260a08201909352909160009190816020015b6040805180820190915260608152600060208201528152602001906001900390816109a157905050905085816000815181106109df576109df611ef4565b602002602001018190525084816001815181106109fe576109fe611ef4565b60200260200101819052508381600281518110610a1d57610a1d611ef4565b60200260200101819052508281600381518110610a3c57610a3c611ef4565b6020026020010181905250604051806020016040528082815250915050949350505050565b604080516020810182526060815281516001808252818401909352909160009190816020015b604080518082019091526060815260006020820152815260200190600190039081610a875790505090508281600081518110610ac557610ac5611ef4565b6020026020010181905250604051806020016040528082815250915050919050565b60408051602081018252606081528151600a8082526101608201909352909160009190816020015b604080518082019091526060815260006020820152815260200190600190039081610b0f5790505090508b81600081518110610b4d57610b4d611ef4565b60200260200101819052508a81600181518110610b6c57610b6c611ef4565b60200260200101819052508981600281518110610b8b57610b8b611ef4565b60200260200101819052508881600381518110610baa57610baa611ef4565b60200260200101819052508781600481518110610bc957610bc9611ef4565b60200260200101819052508681600581518110610be857610be8611ef4565b60200260200101819052508581600681518110610c0757610c07611ef4565b60200260200101819052508481600781518110610c2657610c26611ef4565b60200260200101819052508381600881518110610c4557610c45611ef4565b60200260200101819052508281600981518110610c6457610c64611ef4565b60200260200101819052506040518060200160405280828152509150509a9950505050505050505050565b60408051602081018252606081528151600580825260c08201909352909160009190816020015b604080518082019091526060815260006020820152815260200190600190039081610cb65790505090508681600081518110610cf457610cf4611ef4565b60200260200101819052508581600181518110610d1357610d13611ef4565b60200260200101819052508481600281518110610d3257610d32611ef4565b60200260200101819052508381600381518110610d5157610d51611ef4565b60200260200101819052508281600481518110610d7057610d70611ef4565b602002602001018190525060405180602001604052808281525091505095945050505050565b60408051602081018252606081528151600380825260808201909352909160009190816020015b604080518082019091526060815260006020820152815260200190600190039081610dbd5790505090508481600081518110610dfb57610dfb611ef4565b60200260200101819052508381600181518110610e1a57610e1a611ef4565b60200260200101819052508281600281518110610e3957610e39611ef4565b60200260200101819052506040518060200160405280828152509150509392505050565b6040805160208101825260608152815160078082526101008201909352909160009190816020015b604080518082019091526060815260006020820152815260200190600190039081610e855790505090508881600081518110610ec357610ec3611ef4565b60200260200101819052508781600181518110610ee257610ee2611ef4565b60200260200101819052508681600281518110610f0157610f01611ef4565b60200260200101819052508581600381518110610f2057610f20611ef4565b60200260200101819052508481600481518110610f3f57610f3f611ef4565b60200260200101819052508381600581518110610f5e57610f5e611ef4565b60200260200101819052508281600681518110610f7d57610f7d611ef4565b6020026020010181905250604051806020016040528082815250915050979650505050505050565b604080516020810182526060808252825160028082529181019093529091600091816020015b604080518082019091526060815260006020820152815260200190600190039081610fcb579050509050838160008151811061100957611009611ef4565b6020026020010181905250828160018151811061102857611028611ef4565b602002602001018190525060405180602001604052808281525091505092915050565b634e487b7160e01b600052604160045260246000fd5b604080519081016001600160401b03811182821017156110835761108361104b565b60405290565b604051601f8201601f191681016001600160401b03811182821017156110b1576110b161104b565b604052919050565b803580151581146110c957600080fd5b919050565b6000604082840312156110e057600080fd5b6110e8611061565b905081356001600160401b038082111561110157600080fd5b818401915084601f83011261111557600080fd5b81356020828211156111295761112961104b565b61113b601f8301601f19168201611089565b9250818352868183860101111561115157600080fd5b8181850182850137600081838501015282855261116f8187016110b9565b818601525050505092915050565b60008060008060008060008060008060006101608c8e03121561119f57600080fd5b6001600160401b03808d3511156111b557600080fd5b6111c28e8e358f016110ce565b9b508060208e013511156111d557600080fd5b6111e58e60208f01358f016110ce565b9a508060408e013511156111f857600080fd5b6112088e60408f01358f016110ce565b99508060608e0135111561121b57600080fd5b61122b8e60608f01358f016110ce565b98508060808e0135111561123e57600080fd5b61124e8e60808f01358f016110ce565b97508060a08e0135111561126157600080fd5b6112718e60a08f01358f016110ce565b96508060c08e0135111561128457600080fd5b6112948e60c08f01358f016110ce565b95508060e08e013511156112a757600080fd5b6112b78e60e08f01358f016110ce565b9450806101008e013511156112cb57600080fd5b6112dc8e6101008f01358f016110ce565b9350806101208e013511156112f057600080fd5b6113018e6101208f01358f016110ce565b9250806101408e0135111561131557600080fd5b506113278d6101408e01358e016110ce565b90509295989b509295989b9093969950565b60006020808352604080840185518384870152818151808452606093508388019150838160051b89010186840193506000805b838110156113d957605f198b8403018552855180518985528051808b870152845b818110156113a8578281018d01518782018c01528c0161138d565b508581018a01859052918b015115158b860152509589019594890194601f01601f191690920186019160010161136c565b50909a9950505050505050505050565b600080600080600080600080610100898b03121561140657600080fd5b88356001600160401b038082111561141d57600080fd5b6114298c838d016110ce565b995060208b013591508082111561143f57600080fd5b61144b8c838d016110ce565b985060408b013591508082111561146157600080fd5b61146d8c838d016110ce565b975060608b013591508082111561148357600080fd5b61148f8c838d016110ce565b965060808b01359150808211156114a557600080fd5b6114b18c838d016110ce565b955060a08b01359150808211156114c757600080fd5b6114d38c838d016110ce565b945060c08b01359150808211156114e957600080fd5b6114f58c838d016110ce565b935060e08b013591508082111561150b57600080fd5b506115188b828c016110ce565b9150509295985092959890939650565b6000806000806000806000806000806000806101808d8f03121561154b57600080fd5b6001600160401b038d35111561156057600080fd5b61156d8e8e358f016110ce565b9b506001600160401b0360208e0135111561158757600080fd5b6115978e60208f01358f016110ce565b9a506001600160401b0360408e013511156115b157600080fd5b6115c18e60408f01358f016110ce565b99506001600160401b0360608e013511156115db57600080fd5b6115eb8e60608f01358f016110ce565b98506001600160401b0360808e0135111561160557600080fd5b6116158e60808f01358f016110ce565b97506001600160401b0360a08e0135111561162f57600080fd5b61163f8e60a08f01358f016110ce565b96506001600160401b0360c08e0135111561165957600080fd5b6116698e60c08f01358f016110ce565b95506001600160401b0360e08e0135111561168357600080fd5b6116938e60e08f01358f016110ce565b94506001600160401b036101008e013511156116ae57600080fd5b6116bf8e6101008f01358f016110ce565b93506001600160401b036101208e013511156116da57600080fd5b6116eb8e6101208f01358f016110ce565b92506001600160401b036101408e0135111561170657600080fd5b6117178e6101408f01358f016110ce565b91506001600160401b036101608e0135111561173257600080fd5b6117438e6101608f01358f016110ce565b90509295989b509295989b509295989b565b60008060008060008060c0878903121561176e57600080fd5b86356001600160401b038082111561178557600080fd5b6117918a838b016110ce565b975060208901359150808211156117a757600080fd5b6117b38a838b016110ce565b965060408901359150808211156117c957600080fd5b6117d58a838b016110ce565b955060608901359150808211156117eb57600080fd5b6117f78a838b016110ce565b9450608089013591508082111561180d57600080fd5b6118198a838b016110ce565b935060a089013591508082111561182f57600080fd5b5061183c89828a016110ce565b9150509295509295509295565b60008060008060008060008060006101208a8c03121561186857600080fd5b89356001600160401b038082111561187f57600080fd5b61188b8d838e016110ce565b9a5060208c01359150808211156118a157600080fd5b6118ad8d838e016110ce565b995060408c01359150808211156118c357600080fd5b6118cf8d838e016110ce565b985060608c01359150808211156118e557600080fd5b6118f18d838e016110ce565b975060808c013591508082111561190757600080fd5b6119138d838e016110ce565b965060a08c013591508082111561192957600080fd5b6119358d838e016110ce565b955060c08c013591508082111561194b57600080fd5b6119578d838e016110ce565b945060e08c013591508082111561196d57600080fd5b6119798d838e016110ce565b93506101008c013591508082111561199057600080fd5b5061199d8c828d016110ce565b9150509295985092959850929598565b600080600080608085870312156119c357600080fd5b84356001600160401b03808211156119da57600080fd5b6119e6888389016110ce565b955060208701359150808211156119fc57600080fd5b611a08888389016110ce565b94506040870135915080821115611a1e57600080fd5b611a2a888389016110ce565b93506060870135915080821115611a4057600080fd5b50611a4d878288016110ce565b91505092959194509250565b600060208284031215611a6b57600080fd5b81356001600160401b03811115611a8157600080fd5b611a8d848285016110ce565b949350505050565b6000806000806000806000806000806101408b8d031215611ab557600080fd5b8a356001600160401b0380821115611acc57600080fd5b611ad88e838f016110ce565b9b5060208d0135915080821115611aee57600080fd5b611afa8e838f016110ce565b9a5060408d0135915080821115611b1057600080fd5b611b1c8e838f016110ce565b995060608d0135915080821115611b3257600080fd5b611b3e8e838f016110ce565b985060808d0135915080821115611b5457600080fd5b611b608e838f016110ce565b975060a08d0135915080821115611b7657600080fd5b611b828e838f016110ce565b965060c08d0135915080821115611b9857600080fd5b611ba48e838f016110ce565b955060e08d0135915080821115611bba57600080fd5b611bc68e838f016110ce565b94506101008d0135915080821115611bdd57600080fd5b611be98e838f016110ce565b93506101208d0135915080821115611c0057600080fd5b50611c0d8d828e016110ce565b9150509295989b9194979a5092959850565b600080600080600060a08688031215611c3757600080fd5b85356001600160401b0380821115611c4e57600080fd5b611c5a89838a016110ce565b96506020880135915080821115611c7057600080fd5b611c7c89838a016110ce565b95506040880135915080821115611c9257600080fd5b611c9e89838a016110ce565b94506060880135915080821115611cb457600080fd5b611cc089838a016110ce565b93506080880135915080821115611cd657600080fd5b50611ce3888289016110ce565b9150509295509295909350565b600080600060608486031215611d0557600080fd5b83356001600160401b0380821115611d1c57600080fd5b611d28878388016110ce565b94506020860135915080821115611d3e57600080fd5b611d4a878388016110ce565b93506040860135915080821115611d6057600080fd5b50611d6d868287016110ce565b9150509250925092565b600080600080600080600060e0888a031215611d9257600080fd5b87356001600160401b0380821115611da957600080fd5b611db58b838c016110ce565b985060208a0135915080821115611dcb57600080fd5b611dd78b838c016110ce565b975060408a0135915080821115611ded57600080fd5b611df98b838c016110ce565b965060608a0135915080821115611e0f57600080fd5b611e1b8b838c016110ce565b955060808a0135915080821115611e3157600080fd5b611e3d8b838c016110ce565b945060a08a0135915080821115611e5357600080fd5b611e5f8b838c016110ce565b935060c08a0135915080821115611e7557600080fd5b50611e828a828b016110ce565b91505092959891949750929550565b60008060408385031215611ea457600080fd5b82356001600160401b0380821115611ebb57600080fd5b611ec7868387016110ce565b93506020850135915080821115611edd57600080fd5b50611eea858286016110ce565b9150509250929050565b634e487b7160e01b600052603260045260246000fdfea26469706673582212203f274f295dea65f3aae49b01a9804b9f6db4ff7575bcdf39a335626b422438c164736f6c63430008110033",
    "linkReferences": {}
  },
  "methodIdentifiers": {
    "order((bytes,bool))": "c45e6399",
    "order((bytes,bool),(bytes,bool))": "f8da10c4",
    "order((bytes,bool),(bytes,bool),(bytes,bool))": "ddcd8812",
    "order((bytes,bool),(bytes,bool),(bytes,bool),(bytes,bool))": "a14fcaac",
    "order((bytes,bool),(bytes,bool),(bytes,bool),(bytes,bool),(bytes,bool))": "dca9df96",
    "order((bytes,bool),(bytes,bool),(bytes,bool),(bytes,bool),(bytes,bool),(bytes,bool))": "624bd6b8",
    "order((bytes,bool),(bytes,bool),(bytes,bool),(bytes,bool),(bytes,bool),(bytes,bool),(bytes,bool))": "f183de0f",
    "order((bytes,bool),(bytes,bool),(bytes,bool),(bytes,bool),(bytes,bool),(bytes,bool),(bytes,bool),(bytes,bool))": "2ed804f5",
    "order((bytes,bool),(bytes,bool),(bytes,bool),(bytes,bool),(bytes,bool),(bytes,bool),(bytes,bool),(bytes,bool),(bytes,bool))": "83a9246d",
    "order((bytes,bool),(bytes,bool),(bytes,bool),(bytes,bool),(bytes,bool),(bytes,bool),(bytes,bool),(bytes,bool),(bytes,bool),(bytes,bool))": "d1fffc35",
    "order((bytes,bool),(bytes,bool),(bytes,bool),(bytes,bool),(bytes,bool),(bytes,bool),(bytes,bool),(bytes,bool),(bytes,bool),(bytes,bool),(bytes,bool))": "1696cfe7",
    "order((bytes,bool),(bytes,bool),(bytes,bool),(bytes,bool),(bytes,bool),(bytes,bool),(bytes,bool),(bytes,bool),(bytes,bool),(bytes,bool),(bytes,bool),(bytes,bool))": "4d5b8ec2"
  },
  "id": 61
}