{
  "abi": [
    {
      "inputs": [
        {
          "internalType": "contract IUint256Oracle",
          "name": "priceOracle",
          "type": "address"
        },
        {
          "internalType": "bytes",
          "name": "priceOracleParams",
          "type": "bytes"
        },
        {
          "internalType": "address",
          "name": "owner",
          "type": "address"
        },
        {
          "components": [
            {
              "internalType": "enum TokenStandard",
              "name": "standard",
              "type": "uint8"
            },
            {
              "internalType": "address",
              "name": "addr",
              "type": "address"
            },
            {
              "internalType": "bytes32",
              "name": "idsMerkleRoot",
              "type": "bytes32"
            },
            {
              "internalType": "uint256",
              "name": "id",
              "type": "uint256"
            },
            {
              "internalType": "bool",
              "name": "disallowFlagged",
              "type": "bool"
            }
          ],
          "internalType": "struct Token",
          "name": "tokenIn",
          "type": "tuple"
        },
        {
          "components": [
            {
              "internalType": "enum TokenStandard",
              "name": "standard",
              "type": "uint8"
            },
            {
              "internalType": "address",
              "name": "addr",
              "type": "address"
            },
            {
              "internalType": "bytes32",
              "name": "idsMerkleRoot",
              "type": "bytes32"
            },
            {
              "internalType": "uint256",
              "name": "id",
              "type": "uint256"
            },
            {
              "internalType": "bool",
              "name": "disallowFlagged",
              "type": "bool"
            }
          ],
          "internalType": "struct Token",
          "name": "tokenOut",
          "type": "tuple"
        },
        {
          "internalType": "uint256",
          "name": "tokenInAmount",
          "type": "uint256"
        },
        {
          "internalType": "uint24",
          "name": "feePercent",
          "type": "uint24"
        },
        {
          "internalType": "uint256",
          "name": "feeMinTokenOut",
          "type": "uint256"
        }
      ],
      "name": "marketSwapExactInput",
      "outputs": [
        {
          "components": [
            {
              "internalType": "bytes",
              "name": "data",
              "type": "bytes"
            },
            {
              "internalType": "bool",
              "name": "requiresUnsignedCall",
              "type": "bool"
            }
          ],
          "internalType": "struct Primitive",
          "name": "",
          "type": "tuple"
        }
      ],
      "stateMutability": "pure",
      "type": "function"
    },
    {
      "inputs": [
        {
          "internalType": "uint256",
          "name": "bitmapIndex",
          "type": "uint256"
        },
        {
          "internalType": "uint256",
          "name": "bit",
          "type": "uint256"
        }
      ],
      "name": "useBit",
      "outputs": [
        {
          "components": [
            {
              "internalType": "bytes",
              "name": "data",
              "type": "bytes"
            },
            {
              "internalType": "bool",
              "name": "requiresUnsignedCall",
              "type": "bool"
            }
          ],
          "internalType": "struct Primitive",
          "name": "",
          "type": "tuple"
        }
      ],
      "stateMutability": "pure",
      "type": "function"
    }
  ],
  "bytecode": {
    "object": "0x608060405234801561001057600080fd5b50610532806100206000396000f3fe608060405234801561001057600080fd5b50600436106100365760003560e01c8063a9aa5f7e1461003b578063bfadb4e6146100c2575b600080fd5b6100ac610049366004610167565b60408051808201825260608152600060209182018190528251808401845260648101959095526084808601949094528251808603909401845260a4850190925282810180516001600160e01b03166354d52fbf60e11b1790529183529082015290565b6040516100b991906101cf565b60405180910390f35b6100ac6100d036600461031a565b604080518082018252606080825260006020830181905283518085019182529182019093529091819063093b344360e31b9061011f908d908d908d908d908d908d908d908d9060848c01610474565b60408051601f19818403018152919052602080820180516001600160e01b03166001600160e01b03199094169390931790925282526001910152905098975050505050505050565b6000806040838503121561017a57600080fd5b50508035926020909101359150565b6000815180845260005b818110156101af57602081850181015186830182015201610193565b506000602082860101526020601f19601f83011685010191505092915050565b6020815260008251604060208401526101eb6060840182610189565b90506020840151151560408401528091505092915050565b6001600160a01b038116811461021857600080fd5b50565b634e487b7160e01b600052604160045260246000fd5b604051601f8201601f1916810167ffffffffffffffff8111828210171561025a5761025a61021b565b604052919050565b803561026d81610203565b919050565b600060a0828403121561028457600080fd5b60405160a0810181811067ffffffffffffffff821117156102a7576102a761021b565b6040529050808235600481106102bc57600080fd5b815260208301356102cc81610203565b806020830152506040830135604082015260608301356060820152608083013580151581146102fa57600080fd5b6080919091015292915050565b803562ffffff8116811461026d57600080fd5b600080600080600080600080610200898b03121561033757600080fd5b883561034281610203565b975060208981013567ffffffffffffffff8082111561036057600080fd5b818c0191508c601f83011261037457600080fd5b8135818111156103865761038661021b565b610398601f8201601f19168501610231565b91508082528d848285010111156103ae57600080fd5b80848401858401376000848284010152508099505050506103d160408a01610262565b95506103e08a60608b01610272565b94506103f08a6101008b01610272565b93506101a089013592506104076101c08a01610307565b91506101e089013590509295985092959890939650565b80516004811061043e57634e487b7160e01b600052602160045260246000fd5b82526020818101516001600160a01b03169083015260408082015190830152606080820151908301526080908101511515910152565b6001600160a01b038a811682526102206020830181905260009161049a8483018d610189565b908b16604085015290506104b1606084018a61041e565b6104bf61010084018961041e565b866101a084015262ffffff86166101c0840152846101e08401528281036102008401526104ec8185610189565b9c9b50505050505050505050505056fea2646970667358221220c18fe859b6dab2942d7a1e9986ccafce71df65909eb96f8adf4dce8f561d353364736f6c63430008110033",
    "linkReferences": {}
  },
  "methodIdentifiers": {
    "marketSwapExactInput(address,bytes,address,(uint8,address,bytes32,uint256,bool),(uint8,address,bytes32,uint256,bool),uint256,uint24,uint256)": "bfadb4e6",
    "useBit(uint256,uint256)": "a9aa5f7e"
  },
  "id": 62
}