{
  "abi": [
    {
      "inputs": [
        {
          "internalType": "contract IUint256Oracle",
          "name": "priceOracle",
          "type": "address"
        },
        {
          "internalType": "bytes",
          "name": "priceOracleParams",
          "type": "bytes"
        },
        {
          "internalType": "address",
          "name": "owner",
          "type": "address"
        },
        {
          "components": [
            {
              "internalType": "enum TokenStandard",
              "name": "standard",
              "type": "uint8"
            },
            {
              "internalType": "address",
              "name": "addr",
              "type": "address"
            },
            {
              "internalType": "bytes32",
              "name": "idsMerkleRoot",
              "type": "bytes32"
            },
            {
              "internalType": "uint256",
              "name": "id",
              "type": "uint256"
            },
            {
              "internalType": "bool",
              "name": "disallowFlagged",
              "type": "bool"
            }
          ],
          "internalType": "struct Token",
          "name": "tokenIn",
          "type": "tuple"
        },
        {
          "components": [
            {
              "internalType": "enum TokenStandard",
              "name": "standard",
              "type": "uint8"
            },
            {
              "internalType": "address",
              "name": "addr",
              "type": "address"
            },
            {
              "internalType": "bytes32",
              "name": "idsMerkleRoot",
              "type": "bytes32"
            },
            {
              "internalType": "uint256",
              "name": "id",
              "type": "uint256"
            },
            {
              "internalType": "bool",
              "name": "disallowFlagged",
              "type": "bool"
            }
          ],
          "internalType": "struct Token",
          "name": "tokenOut",
          "type": "tuple"
        },
        {
          "internalType": "uint256",
          "name": "tokenInAmount",
          "type": "uint256"
        },
        {
          "internalType": "uint24",
          "name": "feePercent",
          "type": "uint24"
        },
        {
          "internalType": "uint256",
          "name": "feeMinTokenOut",
          "type": "uint256"
        }
      ],
      "name": "marketSwapExactInput",
      "outputs": [
        {
          "internalType": "bytes",
          "name": "",
          "type": "bytes"
        }
      ],
      "stateMutability": "pure",
      "type": "function"
    },
    {
      "inputs": [
        {
          "internalType": "uint256",
          "name": "bitmapIndex",
          "type": "uint256"
        },
        {
          "internalType": "uint256",
          "name": "bit",
          "type": "uint256"
        }
      ],
      "name": "useBit",
      "outputs": [
        {
          "internalType": "bytes",
          "name": "",
          "type": "bytes"
        }
      ],
      "stateMutability": "pure",
      "type": "function"
    }
  ],
  "bytecode": {
    "object": "0x608060405234801561001057600080fd5b50610591806100206000396000f3fe608060405234801561001057600080fd5b50600436106100365760003560e01c8063a9aa5f7e1461003b578063bfadb4e614610064575b600080fd5b61004e6100493660046101ac565b610077565b60405161005b9190610214565b60405180910390f35b61004e610072366004610345565b610107565b60408051808201909152606090806354d52fbf60e11b6100a4868660648501918252602082015260400190565b60408051601f19818403018152918152602080830180516001600160e01b03166001600160e01b03199095169490941790935290835260009282019290925290516100f0929101610449565b604051602081830303815290604052905092915050565b6040805160008183019081526060808301909352819063093b344360e31b90610143908d908d908d908d908d908d908d908d9060848c016104d3565b60408051601f19818403018152918152602080830180516001600160e01b03166001600160e01b031990951694909417909352908352600192820192909252905161018f929101610449565b604051602081830303815290604052905098975050505050505050565b600080604083850312156101bf57600080fd5b50508035926020909101359150565b6000815180845260005b818110156101f4576020818501810151868301820152016101d8565b506000602082860101526020601f19601f83011685010191505092915050565b60208152600061022760208301846101ce565b9392505050565b6001600160a01b038116811461024357600080fd5b50565b634e487b7160e01b600052604160045260246000fd5b604051601f8201601f1916810167ffffffffffffffff8111828210171561028557610285610246565b604052919050565b80356102988161022e565b919050565b600060a082840312156102af57600080fd5b60405160a0810181811067ffffffffffffffff821117156102d2576102d2610246565b6040529050808235600481106102e757600080fd5b815260208301356102f78161022e565b8060208301525060408301356040820152606083013560608201526080830135801515811461032557600080fd5b6080919091015292915050565b803562ffffff8116811461029857600080fd5b600080600080600080600080610200898b03121561036257600080fd5b883561036d8161022e565b975060208981013567ffffffffffffffff8082111561038b57600080fd5b818c0191508c601f83011261039f57600080fd5b8135818111156103b1576103b1610246565b6103c3601f8201601f1916850161025c565b91508082528d848285010111156103d957600080fd5b80848401858401376000848284010152508099505050506103fc60408a0161028d565b955061040b8a60608b0161029d565b945061041b8a6101008b0161029d565b93506101a089013592506104326101c08a01610332565b91506101e089013590509295985092959890939650565b60208152600082516040602084015261046560608401826101ce565b90506020840151151560408401528091505092915050565b80516004811061049d57634e487b7160e01b600052602160045260246000fd5b82526020818101516001600160a01b03169083015260408082015190830152606080820151908301526080908101511515910152565b6001600160a01b038a81168252610220602083018190526000916104f98483018d6101ce565b908b1660408501529050610510606084018a61047d565b61051e61010084018961047d565b866101a084015262ffffff86166101c0840152846101e084015282810361020084015261054b81856101ce565b9c9b50505050505050505050505056fea2646970667358221220d167f6f859dd7c4e31cca3235f48851905e44295671b49f35877d366b3a3aa7364736f6c63430008110033",
    "linkReferences": {}
  },
  "methodIdentifiers": {
    "marketSwapExactInput(address,bytes,address,(uint8,address,bytes32,uint256,bool),(uint8,address,bytes32,uint256,bool),uint256,uint24,uint256)": "bfadb4e6",
    "useBit(uint256,uint256)": "a9aa5f7e"
  },
  "id": 67
}