{
  "abi": [
    {
      "inputs": [
        {
          "internalType": "address",
          "name": "_strategyTarget",
          "type": "address"
        },
        {
          "internalType": "address",
          "name": "_primitives",
          "type": "address"
        }
      ],
      "stateMutability": "nonpayable",
      "type": "constructor"
    },
    {
      "inputs": [],
      "name": "InvalidSignatureType",
      "type": "error"
    },
    {
      "inputs": [
        {
          "internalType": "enum SignatureType",
          "name": "signatureType",
          "type": "uint8"
        },
        {
          "internalType": "bytes",
          "name": "data",
          "type": "bytes"
        },
        {
          "internalType": "address",
          "name": "account",
          "type": "address"
        },
        {
          "internalType": "uint256",
          "name": "chainId",
          "type": "uint256"
        }
      ],
      "name": "getMessageHash",
      "outputs": [
        {
          "internalType": "bytes32",
          "name": "messageHash",
          "type": "bytes32"
        }
      ],
      "stateMutability": "view",
      "type": "function"
    },
    {
      "inputs": [
        {
          "internalType": "bytes",
          "name": "data",
          "type": "bytes"
        },
        {
          "internalType": "address",
          "name": "account",
          "type": "address"
        },
        {
          "internalType": "uint256",
          "name": "chainId",
          "type": "uint256"
        }
      ],
      "name": "getMessageHashEIP1271",
      "outputs": [
        {
          "internalType": "bytes32",
          "name": "messageHash",
          "type": "bytes32"
        }
      ],
      "stateMutability": "view",
      "type": "function"
    },
    {
      "inputs": [
        {
          "internalType": "bytes",
          "name": "data",
          "type": "bytes"
        },
        {
          "internalType": "address",
          "name": "account",
          "type": "address"
        },
        {
          "internalType": "uint256",
          "name": "chainId",
          "type": "uint256"
        }
      ],
      "name": "getMessageHashEIP712",
      "outputs": [
        {
          "internalType": "bytes32",
          "name": "messageHash",
          "type": "bytes32"
        }
      ],
      "stateMutability": "view",
      "type": "function"
    },
    {
      "inputs": [],
      "name": "primitives",
      "outputs": [
        {
          "internalType": "address",
          "name": "",
          "type": "address"
        }
      ],
      "stateMutability": "view",
      "type": "function"
    },
    {
      "inputs": [
        {
          "internalType": "address",
          "name": "account",
          "type": "address"
        },
        {
          "internalType": "uint256",
          "name": "chainId",
          "type": "uint256"
        },
        {
          "internalType": "enum SignatureType",
          "name": "signatureType",
          "type": "uint8"
        },
        {
          "internalType": "bytes[][]",
          "name": "orders",
          "type": "bytes[][]"
        }
      ],
      "name": "strategy",
      "outputs": [
        {
          "internalType": "bytes",
          "name": "data",
          "type": "bytes"
        },
        {
          "internalType": "bytes32",
          "name": "messageHash",
          "type": "bytes32"
        }
      ],
      "stateMutability": "view",
      "type": "function"
    },
    {
      "inputs": [
        {
          "internalType": "address",
          "name": "account",
          "type": "address"
        },
        {
          "internalType": "uint256",
          "name": "chainId",
          "type": "uint256"
        },
        {
          "internalType": "enum SignatureType",
          "name": "signatureType",
          "type": "uint8"
        },
        {
          "internalType": "bytes[][]",
          "name": "orders",
          "type": "bytes[][]"
        },
        {
          "components": [
            {
              "internalType": "address",
              "name": "targetContract",
              "type": "address"
            },
            {
              "internalType": "bytes",
              "name": "data",
              "type": "bytes"
            }
          ],
          "internalType": "struct Call[]",
          "name": "beforeCalls",
          "type": "tuple[]"
        },
        {
          "components": [
            {
              "internalType": "address",
              "name": "targetContract",
              "type": "address"
            },
            {
              "internalType": "bytes",
              "name": "data",
              "type": "bytes"
            }
          ],
          "internalType": "struct Call[]",
          "name": "afterCalls",
          "type": "tuple[]"
        }
      ],
      "name": "strategy",
      "outputs": [
        {
          "internalType": "bytes",
          "name": "data",
          "type": "bytes"
        },
        {
          "internalType": "bytes32",
          "name": "messageHash",
          "type": "bytes32"
        }
      ],
      "stateMutability": "view",
      "type": "function"
    },
    {
      "inputs": [
        {
          "internalType": "bytes[][]",
          "name": "orders",
          "type": "bytes[][]"
        }
      ],
      "name": "strategyData",
      "outputs": [
        {
          "internalType": "bytes",
          "name": "data",
          "type": "bytes"
        }
      ],
      "stateMutability": "view",
      "type": "function"
    },
    {
      "inputs": [
        {
          "internalType": "bytes[][]",
          "name": "orders",
          "type": "bytes[][]"
        },
        {
          "components": [
            {
              "internalType": "address",
              "name": "targetContract",
              "type": "address"
            },
            {
              "internalType": "bytes",
              "name": "data",
              "type": "bytes"
            }
          ],
          "internalType": "struct Call[]",
          "name": "beforeCalls",
          "type": "tuple[]"
        },
        {
          "components": [
            {
              "internalType": "address",
              "name": "targetContract",
              "type": "address"
            },
            {
              "internalType": "bytes",
              "name": "data",
              "type": "bytes"
            }
          ],
          "internalType": "struct Call[]",
          "name": "afterCalls",
          "type": "tuple[]"
        }
      ],
      "name": "strategyData",
      "outputs": [
        {
          "internalType": "bytes",
          "name": "data",
          "type": "bytes"
        }
      ],
      "stateMutability": "view",
      "type": "function"
    },
    {
      "inputs": [],
      "name": "strategyTarget",
      "outputs": [
        {
          "internalType": "address",
          "name": "",
          "type": "address"
        }
      ],
      "stateMutability": "view",
      "type": "function"
    }
  ],
  "bytecode": {
    "object": "0x60c060405234801561001057600080fd5b5060405161113c38038061113c83398101604081905261002f91610062565b6001600160a01b039182166080521660a052610095565b80516001600160a01b038116811461005d57600080fd5b919050565b6000806040838503121561007557600080fd5b61007e83610046565b915061008c60208401610046565b90509250929050565b60805160a0516110746100c86000396000818161014d015261064201526000818161010e015261028901526110746000f3fe608060405234801561001057600080fd5b50600436106100935760003560e01c8063a68ee51611610066578063a68ee51614610109578063b3b28ded14610148578063bcd3e1781461016f578063c45da18f1461018f578063d934ac2a146101a257600080fd5b806329e97944146100985780634837b3b8146100c25780635f4eaca8146100d557806388056460146100f6575b600080fd5b6100ab6100a636600461097e565b6101b5565b6040516100b9929190610a35565b60405180910390f35b6100ab6100d0366004610b1f565b6101db565b6100e86100e3366004610bd0565b610205565b6040519081526020016100b9565b6100e8610104366004610bd0565b610263565b6101307f000000000000000000000000000000000000000000000000000000000000000081565b6040516001600160a01b0390911681526020016100b9565b6101307f000000000000000000000000000000000000000000000000000000000000000081565b61018261017d366004610c26565b6103cf565b6040516100b99190610c5a565b61018261019d366004610c74565b610460565b6100e86101b0366004610cfb565b6106d7565b606060006101c2836103cf565b91506101d0848388886106d7565b905094509492505050565b606060006101ea858585610460565b91506101f886838a8a6106d7565b9050965096945050505050565b60405162461bcd60e51b815260206004820152602660248201527f6765744d65737361676548617368454950313237313a204e4f5420494d504c4560448201526513515395115160d21b606482015260009060840160405180910390fd5b6000807f023ce5d01636bb12b4ffde3c4f5a66fb1044aa0dbc251394e60f0a26f15910437f000000000000000000000000000000000000000000000000000000000000000086805190602001206040516020016102dc939291909283526001600160a01b03919091166020830152604082015260600190565b60408051808303601f1901815282825280516020918201207f8b73c3c69bb8fe3d512ecc4cf759cc79239f7b179b0ffacaa9a75d522b39400f828501527f977bbc96a0db0d97b4b08241f0db5937a7503966a121e611507f9a616f95651f848401527fc89efdaa54c0f20c7adf612882df0950f5a951637e0307cdcb4c672f298b8bc6606085015260808401969096526001600160a01b039690961660a0808401919091528151808403909101815260c08301825280519087012061190160f01b60e084015260e28301526101028083019590955280518083039095018552610122909101905250508051910120919050565b6040805160008082526020820190925260609161045a918491610415565b6040805180820190915260008152606060208201528152602001906001900390816103ed5790505b506040805160008082526020820190925290610454565b60408051808201909152600081526060602082015281526020019060019003908161042c5790505b50610460565b92915050565b6060600084516001600160401b0381111561047d5761047d610773565b6040519080825280602002602001820160405280156104bd57816020015b60408051602081019091526060815281526020019060019003908161049b5790505b50905060005b85518160ff16101561063d576000868260ff16815181106104e6576104e6610d60565b6020026020010151516001600160401b0381111561050657610506610773565b60405190808252806020026020018201604052801561054c57816020015b6040805180820190915260608152600060208201528152602001906001900390816105245790505b50905060005b878360ff168151811061056757610567610d60565b6020026020010151518160ff1610156105f957878360ff168151811061058f5761058f610d60565b60200260200101518160ff16815181106105ab576105ab610d60565b60200260200101518060200190518101906105c69190610d76565b828260ff16815181106105db576105db610d60565b602002602001018190525080806105f190610e4a565b915050610552565b50604051806020016040528082815250838360ff168151811061061e5761061e610d60565b602002602001018190525050808061063590610e4a565b9150506104c3565b5060007f00000000000000000000000000000000000000000000000000000000000000008286866040516020016106779493929190610edb565b60408051601f1981840301815291815281519192509060009061069a9083610fd8565b6040519091506106bb906327c4cfd960e11b90849084908790602001610feb565b6040516020818303038152906040529450505050509392505050565b6000808560018111156106ec576106ec611028565b03610703576106fc848484610263565b9050610740565b600185600181111561071757610717611028565b03610727576106fc848484610205565b6040516360cd402d60e01b815260040160405180910390fd5b949350505050565b80356001600160a01b038116811461075f57600080fd5b919050565b80356002811061075f57600080fd5b634e487b7160e01b600052604160045260246000fd5b604080519081016001600160401b03811182821017156107ab576107ab610773565b60405290565b604051601f8201601f191681016001600160401b03811182821017156107d9576107d9610773565b604052919050565b60006001600160401b038211156107fa576107fa610773565b5060051b60200190565b60006001600160401b0382111561081d5761081d610773565b50601f01601f191660200190565b600082601f83011261083c57600080fd5b813561084f61084a82610804565b6107b1565b81815284602083860101111561086457600080fd5b816020850160208301376000918101602001919091529392505050565b600082601f83011261089257600080fd5b813560206108a261084a836107e1565b82815260059290921b840181019181810190868411156108c157600080fd5b8286015b848110156109735780356001600160401b03808211156108e457600080fd5b818901915089603f8301126108f857600080fd5b8582013561090861084a826107e1565b81815260059190911b830160400190878101908c83111561092857600080fd5b604085015b838110156109615780358581111561094457600080fd5b6109538f6040838a010161082b565b84525091890191890161092d565b508752505050928401925083016108c5565b509695505050505050565b6000806000806080858703121561099457600080fd5b61099d85610748565b9350602085013592506109b260408601610764565b915060608501356001600160401b038111156109cd57600080fd5b6109d987828801610881565b91505092959194509250565b60005b83811015610a005781810151838201526020016109e8565b50506000910152565b60008151808452610a218160208601602086016109e5565b601f01601f19169290920160200192915050565b604081526000610a486040830185610a09565b90508260208301529392505050565b600082601f830112610a6857600080fd5b81356020610a7861084a836107e1565b82815260059290921b84018101918181019086841115610a9757600080fd5b8286015b848110156109735780356001600160401b0380821115610abb5760008081fd5b908801906040828b03601f1901811315610ad55760008081fd5b610add610789565b610ae8888501610748565b8152908301359082821115610afd5760008081fd5b610b0b8c898487010161082b565b818901528652505050918301918301610a9b565b60008060008060008060c08789031215610b3857600080fd5b610b4187610748565b955060208701359450610b5660408801610764565b935060608701356001600160401b0380821115610b7257600080fd5b610b7e8a838b01610881565b94506080890135915080821115610b9457600080fd5b610ba08a838b01610a57565b935060a0890135915080821115610bb657600080fd5b50610bc389828a01610a57565b9150509295509295509295565b600080600060608486031215610be557600080fd5b83356001600160401b03811115610bfb57600080fd5b610c078682870161082b565b935050610c1660208501610748565b9150604084013590509250925092565b600060208284031215610c3857600080fd5b81356001600160401b03811115610c4e57600080fd5b61074084828501610881565b602081526000610c6d6020830184610a09565b9392505050565b600080600060608486031215610c8957600080fd5b83356001600160401b0380821115610ca057600080fd5b610cac87838801610881565b94506020860135915080821115610cc257600080fd5b610cce87838801610a57565b93506040860135915080821115610ce457600080fd5b50610cf186828701610a57565b9150509250925092565b60008060008060808587031215610d1157600080fd5b610d1a85610764565b935060208501356001600160401b03811115610d3557600080fd5b610d418782880161082b565b935050610d5060408601610748565b9396929550929360600135925050565b634e487b7160e01b600052603260045260246000fd5b60006020808385031215610d8957600080fd5b82516001600160401b0380821115610da057600080fd5b9084019060408287031215610db457600080fd5b610dbc610789565b825182811115610dcb57600080fd5b83019150601f82018713610dde57600080fd5b8151610dec61084a82610804565b8181528886838601011115610e0057600080fd5b610e0f828783018887016109e5565b82525091830151918215158314610e2557600080fd5b92830191909152509392505050565b634e487b7160e01b600052601160045260246000fd5b600060ff821660ff8103610e6057610e60610e34565b60010192915050565b600081518084526020808501808196508360051b8101915082860160005b85811015610ece578284038952815180516001600160a01b031685528501516040868601819052610eba81870183610a09565b9a87019a9550505090840190600101610e87565b5091979650505050505050565b6001600160a01b03851681526080602080830182905285519183018290526000916005919060a0808601919081851b87010189840186805b84811015610fa057898403609f1901865282515187855280518886018190529088019060409081870190808c1b88018301865b82811015610f8957898203603f1901845285518051868452610f6a87850182610a09565b918f01511515938f0193909352958d0195938d01939150600101610f46565b50998b019997505050938801935050600101610f13565b5050508681036040880152610fb5818a610e69565b9450505050508281036060840152610fcd8185610e69565b979650505050505050565b8082018082111561045a5761045a610e34565b63ffffffff60e01b85168152836004820152826024820152600082516110188160448501602087016109e5565b9190910160440195945050505050565b634e487b7160e01b600052602160045260246000fdfea2646970667358221220deb22f6bcbd99e0a751fcd9ab428259d22664f48b31a50a5d110af5e68abe97764736f6c63430008110033",
    "linkReferences": {}
  },
  "methodIdentifiers": {
    "getMessageHash(uint8,bytes,address,uint256)": "d934ac2a",
    "getMessageHashEIP1271(bytes,address,uint256)": "5f4eaca8",
    "getMessageHashEIP712(bytes,address,uint256)": "88056460",
    "primitives()": "b3b28ded",
    "strategy(address,uint256,uint8,bytes[][])": "29e97944",
    "strategy(address,uint256,uint8,bytes[][],(address,bytes)[],(address,bytes)[])": "4837b3b8",
    "strategyData(bytes[][])": "bcd3e178",
    "strategyData(bytes[][],(address,bytes)[],(address,bytes)[])": "c45da18f",
    "strategyTarget()": "a68ee516"
  },
  "id": 68
}