{
  "abi": [
    {
      "inputs": [
        {
          "internalType": "address",
          "name": "_strategyTarget",
          "type": "address"
        },
        {
          "internalType": "address",
          "name": "_primitives",
          "type": "address"
        }
      ],
      "stateMutability": "nonpayable",
      "type": "constructor"
    },
    {
      "inputs": [],
      "name": "InvalidSignatureType",
      "type": "error"
    },
    {
      "inputs": [
        {
          "internalType": "enum SignatureType",
          "name": "signatureType",
          "type": "uint8"
        },
        {
          "internalType": "bytes",
          "name": "data",
          "type": "bytes"
        },
        {
          "internalType": "address",
          "name": "account",
          "type": "address"
        },
        {
          "internalType": "uint256",
          "name": "chainId",
          "type": "uint256"
        }
      ],
      "name": "getMessageHash",
      "outputs": [
        {
          "internalType": "bytes32",
          "name": "messageHash",
          "type": "bytes32"
        }
      ],
      "stateMutability": "view",
      "type": "function"
    },
    {
      "inputs": [
        {
          "internalType": "bytes",
          "name": "data",
          "type": "bytes"
        },
        {
          "internalType": "address",
          "name": "account",
          "type": "address"
        },
        {
          "internalType": "uint256",
          "name": "chainId",
          "type": "uint256"
        }
      ],
      "name": "getMessageHashEIP1271",
      "outputs": [
        {
          "internalType": "bytes32",
          "name": "messageHash",
          "type": "bytes32"
        }
      ],
      "stateMutability": "view",
      "type": "function"
    },
    {
      "inputs": [
        {
          "internalType": "bytes",
          "name": "data",
          "type": "bytes"
        },
        {
          "internalType": "address",
          "name": "account",
          "type": "address"
        },
        {
          "internalType": "uint256",
          "name": "chainId",
          "type": "uint256"
        }
      ],
      "name": "getMessageHashEIP712",
      "outputs": [
        {
          "internalType": "bytes32",
          "name": "messageHash",
          "type": "bytes32"
        }
      ],
      "stateMutability": "view",
      "type": "function"
    },
    {
      "inputs": [],
      "name": "primitives",
      "outputs": [
        {
          "internalType": "address",
          "name": "",
          "type": "address"
        }
      ],
      "stateMutability": "view",
      "type": "function"
    },
    {
      "inputs": [
        {
          "internalType": "address",
          "name": "account",
          "type": "address"
        },
        {
          "internalType": "uint256",
          "name": "chainId",
          "type": "uint256"
        },
        {
          "internalType": "enum SignatureType",
          "name": "signatureType",
          "type": "uint8"
        },
        {
          "components": [
            {
              "components": [
                {
                  "internalType": "bytes",
                  "name": "data",
                  "type": "bytes"
                },
                {
                  "internalType": "bool",
                  "name": "requiresUnsignedCall",
                  "type": "bool"
                }
              ],
              "internalType": "struct Primitive[]",
              "name": "primitives",
              "type": "tuple[]"
            }
          ],
          "internalType": "struct Order[]",
          "name": "orders",
          "type": "tuple[]"
        },
        {
          "components": [
            {
              "internalType": "address",
              "name": "targetContract",
              "type": "address"
            },
            {
              "internalType": "bytes",
              "name": "data",
              "type": "bytes"
            }
          ],
          "internalType": "struct Call[]",
          "name": "beforeCalls",
          "type": "tuple[]"
        },
        {
          "components": [
            {
              "internalType": "address",
              "name": "targetContract",
              "type": "address"
            },
            {
              "internalType": "bytes",
              "name": "data",
              "type": "bytes"
            }
          ],
          "internalType": "struct Call[]",
          "name": "afterCalls",
          "type": "tuple[]"
        }
      ],
      "name": "strategy",
      "outputs": [
        {
          "internalType": "bytes",
          "name": "data",
          "type": "bytes"
        },
        {
          "internalType": "bytes32",
          "name": "messageHash",
          "type": "bytes32"
        }
      ],
      "stateMutability": "view",
      "type": "function"
    },
    {
      "inputs": [
        {
          "internalType": "address",
          "name": "account",
          "type": "address"
        },
        {
          "internalType": "uint256",
          "name": "chainId",
          "type": "uint256"
        },
        {
          "internalType": "enum SignatureType",
          "name": "signatureType",
          "type": "uint8"
        },
        {
          "components": [
            {
              "components": [
                {
                  "internalType": "bytes",
                  "name": "data",
                  "type": "bytes"
                },
                {
                  "internalType": "bool",
                  "name": "requiresUnsignedCall",
                  "type": "bool"
                }
              ],
              "internalType": "struct Primitive[]",
              "name": "primitives",
              "type": "tuple[]"
            }
          ],
          "internalType": "struct Order[]",
          "name": "orders",
          "type": "tuple[]"
        }
      ],
      "name": "strategy",
      "outputs": [
        {
          "internalType": "bytes",
          "name": "data",
          "type": "bytes"
        },
        {
          "internalType": "bytes32",
          "name": "messageHash",
          "type": "bytes32"
        }
      ],
      "stateMutability": "view",
      "type": "function"
    },
    {
      "inputs": [
        {
          "components": [
            {
              "components": [
                {
                  "internalType": "bytes",
                  "name": "data",
                  "type": "bytes"
                },
                {
                  "internalType": "bool",
                  "name": "requiresUnsignedCall",
                  "type": "bool"
                }
              ],
              "internalType": "struct Primitive[]",
              "name": "primitives",
              "type": "tuple[]"
            }
          ],
          "internalType": "struct Order[]",
          "name": "orders",
          "type": "tuple[]"
        }
      ],
      "name": "strategyData",
      "outputs": [
        {
          "internalType": "bytes",
          "name": "data",
          "type": "bytes"
        }
      ],
      "stateMutability": "view",
      "type": "function"
    },
    {
      "inputs": [
        {
          "components": [
            {
              "components": [
                {
                  "internalType": "bytes",
                  "name": "data",
                  "type": "bytes"
                },
                {
                  "internalType": "bool",
                  "name": "requiresUnsignedCall",
                  "type": "bool"
                }
              ],
              "internalType": "struct Primitive[]",
              "name": "primitives",
              "type": "tuple[]"
            }
          ],
          "internalType": "struct Order[]",
          "name": "orders",
          "type": "tuple[]"
        },
        {
          "components": [
            {
              "internalType": "address",
              "name": "targetContract",
              "type": "address"
            },
            {
              "internalType": "bytes",
              "name": "data",
              "type": "bytes"
            }
          ],
          "internalType": "struct Call[]",
          "name": "beforeCalls",
          "type": "tuple[]"
        },
        {
          "components": [
            {
              "internalType": "address",
              "name": "targetContract",
              "type": "address"
            },
            {
              "internalType": "bytes",
              "name": "data",
              "type": "bytes"
            }
          ],
          "internalType": "struct Call[]",
          "name": "afterCalls",
          "type": "tuple[]"
        }
      ],
      "name": "strategyData",
      "outputs": [
        {
          "internalType": "bytes",
          "name": "data",
          "type": "bytes"
        }
      ],
      "stateMutability": "view",
      "type": "function"
    },
    {
      "inputs": [],
      "name": "strategyTarget",
      "outputs": [
        {
          "internalType": "address",
          "name": "",
          "type": "address"
        }
      ],
      "stateMutability": "view",
      "type": "function"
    }
  ],
  "bytecode": {
    "object": "0x60c060405234801561001057600080fd5b50604051610f29380380610f2983398101604081905261002f91610062565b6001600160a01b039182166080521660a052610095565b80516001600160a01b038116811461005d57600080fd5b919050565b6000806040838503121561007557600080fd5b61007e83610046565b915061008c60208401610046565b90509250929050565b60805160a051610e616100c860003960008181610180015261029c01526000818161014101526103b40152610e616000f3fe608060405234801561001057600080fd5b50600436106100935760003560e01c80635f4eaca8116100665780635f4eaca8146101085780638805646014610129578063a68ee5161461013c578063b3b28ded1461017b578063d934ac2a146101a257600080fd5b8063122fb580146100985780631eb83280146100c25780632165cc2a146100d55780635a793a3d146100f5575b600080fd5b6100ab6100a636600461092e565b6101b5565b6040516100b9929190610a2f565b60405180910390f35b6100ab6100d0366004610a51565b6101df565b6100e86100e3366004610ab8565b610205565b6040516100b99190610aec565b6100e8610103366004610b06565b610296565b61011b610116366004610b8d565b610330565b6040519081526020016100b9565b61011b610137366004610b8d565b61038e565b6101637f000000000000000000000000000000000000000000000000000000000000000081565b6040516001600160a01b0390911681526020016100b9565b6101637f000000000000000000000000000000000000000000000000000000000000000081565b61011b6101b0366004610be3565b6104fa565b606060006101c4858585610296565b91506101d286838a8a6104fa565b9050965096945050505050565b606060006101ec83610205565b91506101fa848388886104fa565b905094509492505050565b6040805160008082526020820190925260609161029091849161024b565b6040805180820190915260008152606060208201528152602001906001900390816102235790505b50604080516000808252602082019092529061028a565b6040805180820190915260008152606060208201528152602001906001900390816102625790505b50610296565b92915050565b606060007f00000000000000000000000000000000000000000000000000000000000000008585856040516020016102d19493929190610cba565b60408051601f198184030181529181528151919250906000906102f49083610db7565b604051909150610315906327c4cfd960e11b90849084908790602001610dd8565b60405160208183030381529060405293505050509392505050565b60405162461bcd60e51b815260206004820152602660248201527f6765744d65737361676548617368454950313237313a204e4f5420494d504c4560448201526513515395115160d21b606482015260009060840160405180910390fd5b6000807f023ce5d01636bb12b4ffde3c4f5a66fb1044aa0dbc251394e60f0a26f15910437f00000000000000000000000000000000000000000000000000000000000000008680519060200120604051602001610407939291909283526001600160a01b03919091166020830152604082015260600190565b60408051808303601f1901815282825280516020918201207f8b73c3c69bb8fe3d512ecc4cf759cc79239f7b179b0ffacaa9a75d522b39400f828501527f977bbc96a0db0d97b4b08241f0db5937a7503966a121e611507f9a616f95651f848401527fc89efdaa54c0f20c7adf612882df0950f5a951637e0307cdcb4c672f298b8bc6606085015260808401969096526001600160a01b039690961660a0808401919091528151808403909101815260c08301825280519087012061190160f01b60e084015260e28301526101028083019590955280518083039095018552610122909101905250508051910120919050565b60008085600181111561050f5761050f610e15565b036105265761051f84848461038e565b9050610563565b600185600181111561053a5761053a610e15565b0361054a5761051f848484610330565b6040516360cd402d60e01b815260040160405180910390fd5b949350505050565b80356001600160a01b038116811461058257600080fd5b919050565b80356002811061058257600080fd5b634e487b7160e01b600052604160045260246000fd5b604051602081016001600160401b03811182821017156105ce576105ce610596565b60405290565b604080519081016001600160401b03811182821017156105ce576105ce610596565b604051601f8201601f191681016001600160401b038111828210171561061e5761061e610596565b604052919050565b60006001600160401b0382111561063f5761063f610596565b5060051b60200190565b600082601f83011261065a57600080fd5b81356001600160401b0381111561067357610673610596565b610686601f8201601f19166020016105f6565b81815284602083860101111561069b57600080fd5b816020850160208301376000918101602001919091529392505050565b600082601f8301126106c957600080fd5b6106db6106d68335610626565b6105f6565b82358082526020808301929160051b8501018510156106f957600080fd5b602084015b6020853560051b860101811015610852576001600160401b03808235111561072557600080fd5b6020823587018803601f1901121561073c57600080fd5b6107446105ac565b816020843589010135111561075857600080fd5b82358701602081013501603f8101891361077157600080fd5b6107816106d66020830135610626565b602082810135808352908201919060051b83016040018b10156107a357600080fd5b604083015b6040602085013560051b85010181101561083e5785813511156107ca57600080fd5b803584016040818e03603f190112156107e257600080fd5b6107ea6105d4565b87604083013511156107fb57600080fd5b61080d8e604080850135850101610649565b815260608201358015151461082157600080fd5b6060919091013560208281019190915290845292830192016107a8565b5083525050845250602092830192016106fe565b50949350505050565b600082601f83011261086c57600080fd5b8135602061087c6106d683610626565b82815260059290921b8401810191818101908684111561089b57600080fd5b8286015b848110156109235780356001600160401b03808211156108bf5760008081fd5b908801906040828b03601f19018113156108d95760008081fd5b6108e16105d4565b6108ec88850161056b565b81529083013590828211156109015760008081fd5b61090f8c8984870101610649565b81890152865250505091830191830161089f565b509695505050505050565b60008060008060008060c0878903121561094757600080fd5b6109508761056b565b95506020870135945061096560408801610587565b935060608701356001600160401b038082111561098157600080fd5b61098d8a838b016106b8565b945060808901359150808211156109a357600080fd5b6109af8a838b0161085b565b935060a08901359150808211156109c557600080fd5b506109d289828a0161085b565b9150509295509295509295565b60005b838110156109fa5781810151838201526020016109e2565b50506000910152565b60008151808452610a1b8160208601602086016109df565b601f01601f19169290920160200192915050565b604081526000610a426040830185610a03565b90508260208301529392505050565b60008060008060808587031215610a6757600080fd5b610a708561056b565b935060208501359250610a8560408601610587565b915060608501356001600160401b03811115610aa057600080fd5b610aac878288016106b8565b91505092959194509250565b600060208284031215610aca57600080fd5b81356001600160401b03811115610ae057600080fd5b610563848285016106b8565b602081526000610aff6020830184610a03565b9392505050565b600080600060608486031215610b1b57600080fd5b83356001600160401b0380821115610b3257600080fd5b610b3e878388016106b8565b94506020860135915080821115610b5457600080fd5b610b608783880161085b565b93506040860135915080821115610b7657600080fd5b50610b838682870161085b565b9150509250925092565b600080600060608486031215610ba257600080fd5b83356001600160401b03811115610bb857600080fd5b610bc486828701610649565b935050610bd36020850161056b565b9150604084013590509250925092565b60008060008060808587031215610bf957600080fd5b610c0285610587565b935060208501356001600160401b03811115610c1d57600080fd5b610c2987828801610649565b935050610c386040860161056b565b9396929550929360600135925050565b600081518084526020808501808196508360051b8101915082860160005b85811015610cad578284038952815180516001600160a01b031685528501516040868601819052610c9981870183610a03565b9a87019a9550505090840190600101610c66565b5091979650505050505050565b6001600160a01b03851681526080602080830182905285519183018290526000916005919060a0808601919081851b87010189840186805b84811015610d7f57898403609f1901865282515187855280518886018190529088019060409081870190808c1b88018301865b82811015610d6857898203603f1901845285518051868452610d4987850182610a03565b918f01511515938f0193909352958d0195938d01939150600101610d25565b50998b019997505050938801935050600101610cf2565b5050508681036040880152610d94818a610c48565b9450505050508281036060840152610dac8185610c48565b979650505050505050565b8082018082111561029057634e487b7160e01b600052601160045260246000fd5b63ffffffff60e01b8516815283600482015282602482015260008251610e058160448501602087016109df565b9190910160440195945050505050565b634e487b7160e01b600052602160045260246000fdfea264697066735822122006506d873ce802f69ec0feaebb3a9196685fac69f26db535234832cde0fe433864736f6c63430008110033",
    "linkReferences": {}
  },
  "methodIdentifiers": {
    "getMessageHash(uint8,bytes,address,uint256)": "d934ac2a",
    "getMessageHashEIP1271(bytes,address,uint256)": "5f4eaca8",
    "getMessageHashEIP712(bytes,address,uint256)": "88056460",
    "primitives()": "b3b28ded",
    "strategy(address,uint256,uint8,((bytes,bool)[])[])": "1eb83280",
    "strategy(address,uint256,uint8,((bytes,bool)[])[],(address,bytes)[],(address,bytes)[])": "122fb580",
    "strategyData(((bytes,bool)[])[])": "2165cc2a",
    "strategyData(((bytes,bool)[])[],(address,bytes)[],(address,bytes)[])": "5a793a3d",
    "strategyTarget()": "a68ee516"
  },
  "id": 64
}