{
  "abi": [
    {
      "inputs": [
        {
          "internalType": "address",
          "name": "_strategyTarget",
          "type": "address"
        },
        {
          "internalType": "address",
          "name": "_primitives",
          "type": "address"
        }
      ],
      "stateMutability": "nonpayable",
      "type": "constructor"
    },
    {
      "inputs": [],
      "name": "InvalidSignatureType",
      "type": "error"
    },
    {
      "inputs": [
        {
          "internalType": "bytes",
          "name": "data",
          "type": "bytes"
        },
        {
          "internalType": "address",
          "name": "account",
          "type": "address"
        },
        {
          "internalType": "uint256",
          "name": "chainId",
          "type": "uint256"
        }
      ],
      "name": "messageHashEIP1271",
      "outputs": [
        {
          "internalType": "bytes32",
          "name": "messageHash",
          "type": "bytes32"
        }
      ],
      "stateMutability": "view",
      "type": "function"
    },
    {
      "inputs": [
        {
          "internalType": "bytes",
          "name": "data",
          "type": "bytes"
        },
        {
          "internalType": "address",
          "name": "account",
          "type": "address"
        },
        {
          "internalType": "uint256",
          "name": "chainId",
          "type": "uint256"
        }
      ],
      "name": "messageHashEIP712",
      "outputs": [
        {
          "internalType": "bytes32",
          "name": "messageHash",
          "type": "bytes32"
        }
      ],
      "stateMutability": "view",
      "type": "function"
    },
    {
      "inputs": [],
      "name": "primitives",
      "outputs": [
        {
          "internalType": "address",
          "name": "",
          "type": "address"
        }
      ],
      "stateMutability": "view",
      "type": "function"
    },
    {
      "inputs": [
        {
          "internalType": "address",
          "name": "account",
          "type": "address"
        },
        {
          "internalType": "uint256",
          "name": "chainId",
          "type": "uint256"
        },
        {
          "internalType": "enum SignatureType",
          "name": "signatureType",
          "type": "uint8"
        },
        {
          "components": [
            {
              "components": [
                {
                  "internalType": "bytes",
                  "name": "data",
                  "type": "bytes"
                },
                {
                  "internalType": "bool",
                  "name": "requiresUnsignedCall",
                  "type": "bool"
                }
              ],
              "internalType": "struct Primitive[]",
              "name": "primitives",
              "type": "tuple[]"
            }
          ],
          "internalType": "struct Order[]",
          "name": "orders",
          "type": "tuple[]"
        },
        {
          "components": [
            {
              "internalType": "address",
              "name": "targetContract",
              "type": "address"
            },
            {
              "internalType": "bytes",
              "name": "data",
              "type": "bytes"
            }
          ],
          "internalType": "struct Call[]",
          "name": "beforeCalls",
          "type": "tuple[]"
        },
        {
          "components": [
            {
              "internalType": "address",
              "name": "targetContract",
              "type": "address"
            },
            {
              "internalType": "bytes",
              "name": "data",
              "type": "bytes"
            }
          ],
          "internalType": "struct Call[]",
          "name": "afterCalls",
          "type": "tuple[]"
        }
      ],
      "name": "strategy",
      "outputs": [
        {
          "internalType": "bytes",
          "name": "data",
          "type": "bytes"
        },
        {
          "internalType": "bytes32",
          "name": "messageHash",
          "type": "bytes32"
        }
      ],
      "stateMutability": "view",
      "type": "function"
    },
    {
      "inputs": [
        {
          "internalType": "address",
          "name": "account",
          "type": "address"
        },
        {
          "internalType": "uint256",
          "name": "chainId",
          "type": "uint256"
        },
        {
          "internalType": "enum SignatureType",
          "name": "signatureType",
          "type": "uint8"
        },
        {
          "components": [
            {
              "components": [
                {
                  "internalType": "bytes",
                  "name": "data",
                  "type": "bytes"
                },
                {
                  "internalType": "bool",
                  "name": "requiresUnsignedCall",
                  "type": "bool"
                }
              ],
              "internalType": "struct Primitive[]",
              "name": "primitives",
              "type": "tuple[]"
            }
          ],
          "internalType": "struct Order[]",
          "name": "orders",
          "type": "tuple[]"
        }
      ],
      "name": "strategy",
      "outputs": [
        {
          "internalType": "bytes",
          "name": "data",
          "type": "bytes"
        },
        {
          "internalType": "bytes32",
          "name": "messageHash",
          "type": "bytes32"
        }
      ],
      "stateMutability": "view",
      "type": "function"
    },
    {
      "inputs": [
        {
          "components": [
            {
              "components": [
                {
                  "internalType": "bytes",
                  "name": "data",
                  "type": "bytes"
                },
                {
                  "internalType": "bool",
                  "name": "requiresUnsignedCall",
                  "type": "bool"
                }
              ],
              "internalType": "struct Primitive[]",
              "name": "primitives",
              "type": "tuple[]"
            }
          ],
          "internalType": "struct Order[]",
          "name": "orders",
          "type": "tuple[]"
        }
      ],
      "name": "strategyData",
      "outputs": [
        {
          "internalType": "bytes",
          "name": "data",
          "type": "bytes"
        }
      ],
      "stateMutability": "view",
      "type": "function"
    },
    {
      "inputs": [
        {
          "components": [
            {
              "components": [
                {
                  "internalType": "bytes",
                  "name": "data",
                  "type": "bytes"
                },
                {
                  "internalType": "bool",
                  "name": "requiresUnsignedCall",
                  "type": "bool"
                }
              ],
              "internalType": "struct Primitive[]",
              "name": "primitives",
              "type": "tuple[]"
            }
          ],
          "internalType": "struct Order[]",
          "name": "orders",
          "type": "tuple[]"
        },
        {
          "components": [
            {
              "internalType": "address",
              "name": "targetContract",
              "type": "address"
            },
            {
              "internalType": "bytes",
              "name": "data",
              "type": "bytes"
            }
          ],
          "internalType": "struct Call[]",
          "name": "beforeCalls",
          "type": "tuple[]"
        },
        {
          "components": [
            {
              "internalType": "address",
              "name": "targetContract",
              "type": "address"
            },
            {
              "internalType": "bytes",
              "name": "data",
              "type": "bytes"
            }
          ],
          "internalType": "struct Call[]",
          "name": "afterCalls",
          "type": "tuple[]"
        }
      ],
      "name": "strategyData",
      "outputs": [
        {
          "internalType": "bytes",
          "name": "data",
          "type": "bytes"
        }
      ],
      "stateMutability": "view",
      "type": "function"
    },
    {
      "inputs": [],
      "name": "strategyTarget",
      "outputs": [
        {
          "internalType": "address",
          "name": "",
          "type": "address"
        }
      ],
      "stateMutability": "view",
      "type": "function"
    }
  ],
  "bytecode": {
    "object": "0x60c060405234801561001057600080fd5b50604051610eaf380380610eaf83398101604081905261002f91610062565b6001600160a01b039182166080521660a052610095565b80516001600160a01b038116811461005d57600080fd5b919050565b6000806040838503121561007557600080fd5b61007e83610046565b915061008c60208401610046565b90509250929050565b60805160a051610de76100c860003960008181610141015261027e01526000818161010201526103380152610de76000f3fe608060405234801561001057600080fd5b50600436106100885760003560e01c8063a68ee5161161005b578063a68ee516146100fd578063b3b28ded1461013c578063ba1c90a814610163578063fd4a73631461018457600080fd5b8063122fb5801461008d5780631eb83280146100b75780632165cc2a146100ca5780635a793a3d146100ea575b600080fd5b6100a061009b366004610914565b610197565b6040516100ae929190610a16565b60405180910390f35b6100a06100c5366004610a38565b6101c1565b6100dd6100d8366004610aa0565b6101e7565b6040516100ae9190610ad5565b6100dd6100f8366004610aef565b610278565b6101247f000000000000000000000000000000000000000000000000000000000000000081565b6040516001600160a01b0390911681526020016100ae565b6101247f000000000000000000000000000000000000000000000000000000000000000081565b610176610171366004610b77565b610312565b6040519081526020016100ae565b610176610192366004610b77565b61047e565b606060006101a6858585610278565b91506101b486838a8a6104d9565b9050965096945050505050565b606060006101ce836101e7565b91506101dc848388886104d9565b905094509492505050565b6040805160008082526020820190925260609161027291849161022d565b6040805180820190915260008152606060208201528152602001906001900390816102055790505b50604080516000808252602082019092529061026c565b6040805180820190915260008152606060208201528152602001906001900390816102445790505b50610278565b92915050565b606060007f00000000000000000000000000000000000000000000000000000000000000008585856040516020016102b39493929190610c40565b60408051601f198184030181529181528151919250906000906102d69083610d3d565b6040519091506102f7906327c4cfd960e11b90849084908790602001610d5e565b60405160208183030381529060405293505050509392505050565b6000807f023ce5d01636bb12b4ffde3c4f5a66fb1044aa0dbc251394e60f0a26f15910437f0000000000000000000000000000000000000000000000000000000000000000868051906020012060405160200161038b939291909283526001600160a01b03919091166020830152604082015260600190565b60408051808303601f1901815282825280516020918201207f8b73c3c69bb8fe3d512ecc4cf759cc79239f7b179b0ffacaa9a75d522b39400f828501527f977bbc96a0db0d97b4b08241f0db5937a7503966a121e611507f9a616f95651f848401527fc89efdaa54c0f20c7adf612882df0950f5a951637e0307cdcb4c672f298b8bc6606085015260808401969096526001600160a01b039690961660a0808401919091528151808403909101815260c08301825280519087012061190160f01b60e084015260e28301526101028083019590955280518083039095018552610122909101905250508051910120919050565b60405162461bcd60e51b815260206004820152602360248201527f6d65737361676548617368454950313237313a204e4f5420494d504c454d454e60448201526215115160ea1b606482015260009060840160405180910390fd5b6000808560018111156104ee576104ee610d9b565b03610505576104fe848484610312565b9050610542565b600185600181111561051957610519610d9b565b03610529576104fe84848461047e565b6040516360cd402d60e01b815260040160405180910390fd5b949350505050565b80356001600160a01b038116811461056157600080fd5b919050565b80356002811061056157600080fd5b634e487b7160e01b600052604160045260246000fd5b6040516020810167ffffffffffffffff811182821017156105ae576105ae610575565b60405290565b6040805190810167ffffffffffffffff811182821017156105ae576105ae610575565b604051601f8201601f1916810167ffffffffffffffff8111828210171561060057610600610575565b604052919050565b600067ffffffffffffffff82111561062257610622610575565b5060051b60200190565b600082601f83011261063d57600080fd5b813567ffffffffffffffff81111561065757610657610575565b61066a601f8201601f19166020016105d7565b81815284602083860101111561067f57600080fd5b816020850160208301376000918101602001919091529392505050565b600082601f8301126106ad57600080fd5b6106bf6106ba8335610608565b6105d7565b82358082526020808301929160051b8501018510156106dd57600080fd5b602084015b6020853560051b8601018110156108375767ffffffffffffffff808235111561070a57600080fd5b6020823587018803601f1901121561072157600080fd5b61072961058b565b816020843589010135111561073d57600080fd5b82358701602081013501603f8101891361075657600080fd5b6107666106ba6020830135610608565b602082810135808352908201919060051b83016040018b101561078857600080fd5b604083015b6040602085013560051b8501018110156108235785813511156107af57600080fd5b803584016040818e03603f190112156107c757600080fd5b6107cf6105b4565b87604083013511156107e057600080fd5b6107f28e60408085013585010161062c565b815260608201358015151461080657600080fd5b60609190910135602082810191909152908452928301920161078d565b5083525050845250602092830192016106e2565b50949350505050565b600082601f83011261085157600080fd5b813560206108616106ba83610608565b82815260059290921b8401810191818101908684111561088057600080fd5b8286015b8481101561090957803567ffffffffffffffff808211156108a55760008081fd5b908801906040828b03601f19018113156108bf5760008081fd5b6108c76105b4565b6108d288850161054a565b81529083013590828211156108e75760008081fd5b6108f58c898487010161062c565b818901528652505050918301918301610884565b509695505050505050565b60008060008060008060c0878903121561092d57600080fd5b6109368761054a565b95506020870135945061094b60408801610566565b9350606087013567ffffffffffffffff8082111561096857600080fd5b6109748a838b0161069c565b9450608089013591508082111561098a57600080fd5b6109968a838b01610840565b935060a08901359150808211156109ac57600080fd5b506109b989828a01610840565b9150509295509295509295565b60005b838110156109e15781810151838201526020016109c9565b50506000910152565b60008151808452610a028160208601602086016109c6565b601f01601f19169290920160200192915050565b604081526000610a2960408301856109ea565b90508260208301529392505050565b60008060008060808587031215610a4e57600080fd5b610a578561054a565b935060208501359250610a6c60408601610566565b9150606085013567ffffffffffffffff811115610a8857600080fd5b610a948782880161069c565b91505092959194509250565b600060208284031215610ab257600080fd5b813567ffffffffffffffff811115610ac957600080fd5b6105428482850161069c565b602081526000610ae860208301846109ea565b9392505050565b600080600060608486031215610b0457600080fd5b833567ffffffffffffffff80821115610b1c57600080fd5b610b288783880161069c565b94506020860135915080821115610b3e57600080fd5b610b4a87838801610840565b93506040860135915080821115610b6057600080fd5b50610b6d86828701610840565b9150509250925092565b600080600060608486031215610b8c57600080fd5b833567ffffffffffffffff811115610ba357600080fd5b610baf8682870161062c565b935050610bbe6020850161054a565b9150604084013590509250925092565b600081518084526020808501808196508360051b8101915082860160005b85811015610c33578284038952815180516001600160a01b031685528501516040868601819052610c1f818701836109ea565b9a87019a9550505090840190600101610bec565b5091979650505050505050565b6001600160a01b03851681526080602080830182905285519183018290526000916005919060a0808601919081851b87010189840186805b84811015610d0557898403609f1901865282515187855280518886018190529088019060409081870190808c1b88018301865b82811015610cee57898203603f1901845285518051868452610ccf878501826109ea565b918f01511515938f0193909352958d0195938d01939150600101610cab565b50998b019997505050938801935050600101610c78565b5050508681036040880152610d1a818a610bce565b9450505050508281036060840152610d328185610bce565b979650505050505050565b8082018082111561027257634e487b7160e01b600052601160045260246000fd5b63ffffffff60e01b8516815283600482015282602482015260008251610d8b8160448501602087016109c6565b9190910160440195945050505050565b634e487b7160e01b600052602160045260246000fdfea2646970667358221220f2c5ceebe57f864c05117974109a25d20f685a50b7e0d5db165d1c0eb1e2fdd064736f6c63430008110033",
    "linkReferences": {}
  },
  "methodIdentifiers": {
    "messageHashEIP1271(bytes,address,uint256)": "fd4a7363",
    "messageHashEIP712(bytes,address,uint256)": "ba1c90a8",
    "primitives()": "b3b28ded",
    "strategy(address,uint256,uint8,((bytes,bool)[])[])": "1eb83280",
    "strategy(address,uint256,uint8,((bytes,bool)[])[],(address,bytes)[],(address,bytes)[])": "122fb580",
    "strategyData(((bytes,bool)[])[])": "2165cc2a",
    "strategyData(((bytes,bool)[])[],(address,bytes)[],(address,bytes)[])": "5a793a3d",
    "strategyTarget()": "a68ee516"
  },
  "id": 63
}