{
  "abi": [
    {
      "inputs": [
        {
          "internalType": "uint256",
          "name": "amount",
          "type": "uint256"
        },
        {
          "internalType": "uint24",
          "name": "feePercent",
          "type": "uint24"
        },
        {
          "internalType": "uint256",
          "name": "feeMin",
          "type": "uint256"
        }
      ],
      "name": "calcFee",
      "outputs": [
        {
          "internalType": "uint256",
          "name": "fee",
          "type": "uint256"
        }
      ],
      "stateMutability": "pure",
      "type": "function"
    },
    {
      "inputs": [
        {
          "internalType": "uint256",
          "name": "priceX96",
          "type": "uint256"
        },
        {
          "internalType": "uint256",
          "name": "amount0",
          "type": "uint256"
        }
      ],
      "name": "calcSwapAmount",
      "outputs": [
        {
          "internalType": "uint256",
          "name": "amount1",
          "type": "uint256"
        }
      ],
      "stateMutability": "pure",
      "type": "function"
    },
    {
      "inputs": [
        {
          "components": [
            {
              "internalType": "uint64",
              "name": "id",
              "type": "uint64"
            },
            {
              "internalType": "uint128",
              "name": "startX96",
              "type": "uint128"
            },
            {
              "internalType": "bool",
              "name": "sign",
              "type": "bool"
            }
          ],
          "internalType": "struct FillStateParams",
          "name": "fillStateParams",
          "type": "tuple"
        },
        {
          "internalType": "int256",
          "name": "fillStateX96",
          "type": "int256"
        },
        {
          "internalType": "uint256",
          "name": "totalAmount",
          "type": "uint256"
        }
      ],
      "name": "getFilledAmount",
      "outputs": [
        {
          "internalType": "uint256",
          "name": "filledAmount",
          "type": "uint256"
        }
      ],
      "stateMutability": "view",
      "type": "function"
    },
    {
      "inputs": [
        {
          "components": [
            {
              "internalType": "uint64",
              "name": "id",
              "type": "uint64"
            },
            {
              "internalType": "uint128",
              "name": "startX96",
              "type": "uint128"
            },
            {
              "internalType": "bool",
              "name": "sign",
              "type": "bool"
            }
          ],
          "internalType": "struct FillStateParams",
          "name": "fillStateParams",
          "type": "tuple"
        },
        {
          "internalType": "int256",
          "name": "fillStateX96",
          "type": "int256"
        }
      ],
      "name": "getFilledPercentX96",
      "outputs": [
        {
          "internalType": "uint256",
          "name": "filledPercentX96",
          "type": "uint256"
        }
      ],
      "stateMutability": "view",
      "type": "function"
    },
    {
      "inputs": [
        {
          "components": [
            {
              "internalType": "uint64",
              "name": "id",
              "type": "uint64"
            },
            {
              "internalType": "uint128",
              "name": "startX96",
              "type": "uint128"
            },
            {
              "internalType": "bool",
              "name": "sign",
              "type": "bool"
            }
          ],
          "internalType": "struct FillStateParams",
          "name": "fillStateParams",
          "type": "tuple"
        },
        {
          "internalType": "int256",
          "name": "fillStateX96",
          "type": "int256"
        },
        {
          "internalType": "uint256",
          "name": "totalAmount",
          "type": "uint256"
        }
      ],
      "name": "getUnfilledAmount",
      "outputs": [
        {
          "internalType": "uint256",
          "name": "unfilledAmount",
          "type": "uint256"
        }
      ],
      "stateMutability": "view",
      "type": "function"
    },
    {
      "inputs": [],
      "name": "limitSwapExactInput_getInput",
      "outputs": [
        {
          "internalType": "uint256",
          "name": "input",
          "type": "uint256"
        }
      ],
      "stateMutability": "pure",
      "type": "function"
    },
    {
      "inputs": [
        {
          "internalType": "uint256",
          "name": "input",
          "type": "uint256"
        },
        {
          "internalType": "uint256",
          "name": "filledInput",
          "type": "uint256"
        },
        {
          "internalType": "uint256",
          "name": "tokenInAmount",
          "type": "uint256"
        },
        {
          "internalType": "contract IPriceCurve",
          "name": "priceCurve",
          "type": "address"
        },
        {
          "internalType": "bytes",
          "name": "priceCurveParams",
          "type": "bytes"
        }
      ],
      "name": "limitSwapExactInput_getOutput",
      "outputs": [
        {
          "internalType": "uint256",
          "name": "output",
          "type": "uint256"
        }
      ],
      "stateMutability": "view",
      "type": "function"
    },
    {
      "inputs": [
        {
          "internalType": "uint256",
          "name": "output",
          "type": "uint256"
        },
        {
          "internalType": "uint256",
          "name": "filledOutput",
          "type": "uint256"
        },
        {
          "internalType": "uint256",
          "name": "tokenOutAmount",
          "type": "uint256"
        },
        {
          "internalType": "contract IPriceCurve",
          "name": "priceCurve",
          "type": "address"
        },
        {
          "internalType": "bytes",
          "name": "priceCurveParams",
          "type": "bytes"
        }
      ],
      "name": "limitSwapExactOutput_getInput",
      "outputs": [
        {
          "internalType": "uint256",
          "name": "input",
          "type": "uint256"
        }
      ],
      "stateMutability": "pure",
      "type": "function"
    },
    {
      "inputs": [],
      "name": "limitSwapExactOutput_getOutput",
      "outputs": [
        {
          "internalType": "uint256",
          "name": "output",
          "type": "uint256"
        }
      ],
      "stateMutability": "pure",
      "type": "function"
    },
    {
      "inputs": [
        {
          "internalType": "uint256",
          "name": "input",
          "type": "uint256"
        },
        {
          "internalType": "uint256",
          "name": "priceX96",
          "type": "uint256"
        },
        {
          "internalType": "uint24",
          "name": "feePercent",
          "type": "uint24"
        },
        {
          "internalType": "uint256",
          "name": "feeMin",
          "type": "uint256"
        }
      ],
      "name": "marketSwapExactInput_getOutput",
      "outputs": [
        {
          "internalType": "uint256",
          "name": "output",
          "type": "uint256"
        },
        {
          "internalType": "uint256",
          "name": "fee",
          "type": "uint256"
        },
        {
          "internalType": "uint256",
          "name": "outputWithFee",
          "type": "uint256"
        }
      ],
      "stateMutability": "pure",
      "type": "function"
    },
    {
      "inputs": [
        {
          "internalType": "uint256",
          "name": "output",
          "type": "uint256"
        },
        {
          "internalType": "uint256",
          "name": "priceX96",
          "type": "uint256"
        },
        {
          "internalType": "uint24",
          "name": "feePercent",
          "type": "uint24"
        },
        {
          "internalType": "uint256",
          "name": "feeMin",
          "type": "uint256"
        }
      ],
      "name": "marketSwapExactOutput_getInput",
      "outputs": [
        {
          "internalType": "uint256",
          "name": "input",
          "type": "uint256"
        },
        {
          "internalType": "uint256",
          "name": "fee",
          "type": "uint256"
        },
        {
          "internalType": "uint256",
          "name": "inputWithFee",
          "type": "uint256"
        }
      ],
      "stateMutability": "pure",
      "type": "function"
    }
  ],
  "bytecode": {
    "object": "0x608060405234801561001057600080fd5b5061088f806100206000396000f3fe608060405234801561001057600080fd5b50600436106100a95760003560e01c8063b1afa99311610071578063b1afa99314610130578063d290b42214610143578063df93d194146100dc578063f1350531146100ae578063f99ef3da14610156578063fae528541461016957600080fd5b80630b4b20d8146100ae5780635dd8480a146100c95780637e40bd9c146100dc57806394636812146100ef5780639dd9cc9914610102575b600080fd5b6100b661017c565b6040519081526020015b60405180910390f35b6100b66100d736600461044e565b6101bd565b6100b66100ea3660046104ca565b6101e6565b6100b66100fd36600461059b565b610276565b6101156101103660046105bd565b610291565b604080519384526020840192909252908201526060016100c0565b61011561013e3660046105bd565b6102c5565b6100b6610151366004610694565b6102ed565b6100b6610164366004610694565b61030c565b6100b66101773660046106c8565b610328565b60405162461bcd60e51b815260206004820152600f60248201526e1393d5081253541311535153951151608a1b604482015260009060640160405180910390fd5b60006101d28462ffffff8516620f4240610387565b9050818110156101df5750805b9392505050565b60008385106101f75750600061026d565b60405163193f63c160e01b81526001600160a01b0384169063193f63c19061022990879089908b9088906004016106f3565b602060405180830381865afa158015610246573d6000803e3d6000fd5b505050506040513d601f19601f8201168201806040525081019061026a9190610757565b90505b95945050505050565b6000600160601b6102878385610786565b6101df91906107b9565b60008060006102a08688610276565b92506102ad8386866101bd565b91506102b982846107db565b90509450945094915050565b60008060006102d48688610276565b92506102e18386866101bd565b91506102b982846107ee565b60006102fa84848461030c565b61030490836107db565b949350505050565b600061030482600160601b6103218787610328565b9190610387565b600080836040015161033c5760001961033f565b60015b90506000846040015161035657600160601b610359565b60005b9050808260000b8660200151600f0b866103739190610801565b61037d9190610829565b61026d9190610801565b60008080600019858709858702925082811083820303915050806000036103c1578382816103b7576103b76107a3565b04925050506101df565b8084116103cd57600080fd5b60008486880960026001871981018816978890046003810283188082028403028082028403028082028403028082028403028082028403029081029092039091026000889003889004909101858311909403939093029303949094049190911702949350505050565b803562ffffff8116811461044957600080fd5b919050565b60008060006060848603121561046357600080fd5b8335925061047360208501610436565b9150604084013590509250925092565b634e487b7160e01b600052604160045260246000fd5b604051601f8201601f1916810167ffffffffffffffff811182821017156104c2576104c2610483565b604052919050565b600080600080600060a086880312156104e257600080fd5b8535945060208087013594506040870135935060608701356001600160a01b038116811461050f57600080fd5b9250608087013567ffffffffffffffff8082111561052c57600080fd5b818901915089601f83011261054057600080fd5b81358181111561055257610552610483565b610564601f8201601f19168501610499565b91508082528a8482850101111561057a57600080fd5b80848401858401376000848284010152508093505050509295509295909350565b600080604083850312156105ae57600080fd5b50508035926020909101359150565b600080600080608085870312156105d357600080fd5b84359350602085013592506105ea60408601610436565b9396929550929360600135925050565b60006060828403121561060c57600080fd5b6040516060810167ffffffffffffffff828210818311171561063057610630610483565b8160405282935084359150808216821461064957600080fd5b50815260208301356fffffffffffffffffffffffffffffffff8116811461066f57600080fd5b60208201526040830135801515811461068757600080fd5b6040919091015292915050565b600080600060a084860312156106a957600080fd5b6106b385856105fa565b95606085013595506080909401359392505050565b600080608083850312156106db57600080fd5b6106e584846105fa565b946060939093013593505050565b84815260006020858184015284604084015260806060840152835180608085015260005b818110156107335785810183015185820160a001528201610717565b50600060a0828601015260a0601f19601f8301168501019250505095945050505050565b60006020828403121561076957600080fd5b5051919050565b634e487b7160e01b600052601160045260246000fd5b808202811582820484141761079d5761079d610770565b92915050565b634e487b7160e01b600052601260045260246000fd5b6000826107d657634e487b7160e01b600052601260045260246000fd5b500490565b8181038181111561079d5761079d610770565b8082018082111561079d5761079d610770565b808201828112600083128015821682158216171561082157610821610770565b505092915050565b80820260008212600160ff1b8414161561084557610845610770565b818105831482151761079d5761079d61077056fea264697066735822122074f728a97d1291cde75ccd256380d00370029a12481fa04812cb70e7d5cdb8cd64736f6c63430008110033",
    "linkReferences": {}
  },
  "methodIdentifiers": {
    "calcFee(uint256,uint24,uint256)": "5dd8480a",
    "calcSwapAmount(uint256,uint256)": "94636812",
    "getFilledAmount((uint64,uint128,bool),int256,uint256)": "f99ef3da",
    "getFilledPercentX96((uint64,uint128,bool),int256)": "fae52854",
    "getUnfilledAmount((uint64,uint128,bool),int256,uint256)": "d290b422",
    "limitSwapExactInput_getInput()": "0b4b20d8",
    "limitSwapExactInput_getOutput(uint256,uint256,uint256,address,bytes)": "df93d194",
    "limitSwapExactOutput_getInput(uint256,uint256,uint256,address,bytes)": "7e40bd9c",
    "limitSwapExactOutput_getOutput()": "f1350531",
    "marketSwapExactInput_getOutput(uint256,uint256,uint24,uint256)": "9dd9cc99",
    "marketSwapExactOutput_getInput(uint256,uint256,uint24,uint256)": "b1afa993"
  },
  "id": 62
}