{
  "abi": [
    {
      "inputs": [
        {
          "internalType": "uint8",
          "name": "orderIndex",
          "type": "uint8"
        },
        {
          "internalType": "bytes",
          "name": "unsignedCall1",
          "type": "bytes"
        },
        {
          "internalType": "bytes",
          "name": "unsignedCall2",
          "type": "bytes"
        },
        {
          "internalType": "bytes",
          "name": "unsignedCall3",
          "type": "bytes"
        },
        {
          "internalType": "bytes",
          "name": "unsignedCall4",
          "type": "bytes"
        },
        {
          "internalType": "bytes",
          "name": "unsignedCall5",
          "type": "bytes"
        },
        {
          "internalType": "bytes",
          "name": "unsignedCall6",
          "type": "bytes"
        },
        {
          "internalType": "bytes",
          "name": "unsignedCall7",
          "type": "bytes"
        }
      ],
      "name": "unsignedData",
      "outputs": [
        {
          "internalType": "bytes",
          "name": "",
          "type": "bytes"
        }
      ],
      "stateMutability": "pure",
      "type": "function"
    },
    {
      "inputs": [
        {
          "internalType": "uint8",
          "name": "orderIndex",
          "type": "uint8"
        },
        {
          "internalType": "bytes",
          "name": "unsignedCall1",
          "type": "bytes"
        },
        {
          "internalType": "bytes",
          "name": "unsignedCall2",
          "type": "bytes"
        },
        {
          "internalType": "bytes",
          "name": "unsignedCall3",
          "type": "bytes"
        },
        {
          "internalType": "bytes",
          "name": "unsignedCall4",
          "type": "bytes"
        },
        {
          "internalType": "bytes",
          "name": "unsignedCall5",
          "type": "bytes"
        },
        {
          "internalType": "bytes",
          "name": "unsignedCall6",
          "type": "bytes"
        }
      ],
      "name": "unsignedData",
      "outputs": [
        {
          "internalType": "bytes",
          "name": "",
          "type": "bytes"
        }
      ],
      "stateMutability": "pure",
      "type": "function"
    },
    {
      "inputs": [
        {
          "internalType": "uint8",
          "name": "orderIndex",
          "type": "uint8"
        },
        {
          "internalType": "bytes",
          "name": "unsignedCall1",
          "type": "bytes"
        },
        {
          "internalType": "bytes",
          "name": "unsignedCall2",
          "type": "bytes"
        },
        {
          "internalType": "bytes",
          "name": "unsignedCall3",
          "type": "bytes"
        },
        {
          "internalType": "bytes",
          "name": "unsignedCall4",
          "type": "bytes"
        },
        {
          "internalType": "bytes",
          "name": "unsignedCall5",
          "type": "bytes"
        },
        {
          "internalType": "bytes",
          "name": "unsignedCall6",
          "type": "bytes"
        },
        {
          "internalType": "bytes",
          "name": "unsignedCall7",
          "type": "bytes"
        },
        {
          "internalType": "bytes",
          "name": "unsignedCall8",
          "type": "bytes"
        }
      ],
      "name": "unsignedData",
      "outputs": [
        {
          "internalType": "bytes",
          "name": "",
          "type": "bytes"
        }
      ],
      "stateMutability": "pure",
      "type": "function"
    },
    {
      "inputs": [
        {
          "internalType": "uint8",
          "name": "orderIndex",
          "type": "uint8"
        },
        {
          "internalType": "bytes",
          "name": "unsignedCall1",
          "type": "bytes"
        },
        {
          "internalType": "bytes",
          "name": "unsignedCall2",
          "type": "bytes"
        },
        {
          "internalType": "bytes",
          "name": "unsignedCall3",
          "type": "bytes"
        },
        {
          "internalType": "bytes",
          "name": "unsignedCall4",
          "type": "bytes"
        },
        {
          "internalType": "bytes",
          "name": "unsignedCall5",
          "type": "bytes"
        }
      ],
      "name": "unsignedData",
      "outputs": [
        {
          "internalType": "bytes",
          "name": "",
          "type": "bytes"
        }
      ],
      "stateMutability": "pure",
      "type": "function"
    },
    {
      "inputs": [
        {
          "internalType": "uint8",
          "name": "orderIndex",
          "type": "uint8"
        },
        {
          "internalType": "bytes",
          "name": "unsignedCall1",
          "type": "bytes"
        },
        {
          "internalType": "bytes",
          "name": "unsignedCall2",
          "type": "bytes"
        },
        {
          "internalType": "bytes",
          "name": "unsignedCall3",
          "type": "bytes"
        },
        {
          "internalType": "bytes",
          "name": "unsignedCall4",
          "type": "bytes"
        }
      ],
      "name": "unsignedData",
      "outputs": [
        {
          "internalType": "bytes",
          "name": "",
          "type": "bytes"
        }
      ],
      "stateMutability": "pure",
      "type": "function"
    },
    {
      "inputs": [
        {
          "internalType": "uint8",
          "name": "orderIndex",
          "type": "uint8"
        },
        {
          "internalType": "bytes",
          "name": "unsignedCall1",
          "type": "bytes"
        }
      ],
      "name": "unsignedData",
      "outputs": [
        {
          "internalType": "bytes",
          "name": "",
          "type": "bytes"
        }
      ],
      "stateMutability": "pure",
      "type": "function"
    },
    {
      "inputs": [
        {
          "internalType": "uint8",
          "name": "orderIndex",
          "type": "uint8"
        },
        {
          "internalType": "bytes",
          "name": "unsignedCall1",
          "type": "bytes"
        },
        {
          "internalType": "bytes",
          "name": "unsignedCall2",
          "type": "bytes"
        }
      ],
      "name": "unsignedData",
      "outputs": [
        {
          "internalType": "bytes",
          "name": "",
          "type": "bytes"
        }
      ],
      "stateMutability": "pure",
      "type": "function"
    },
    {
      "inputs": [
        {
          "internalType": "uint8",
          "name": "orderIndex",
          "type": "uint8"
        },
        {
          "internalType": "bytes",
          "name": "unsignedCall1",
          "type": "bytes"
        },
        {
          "internalType": "bytes",
          "name": "unsignedCall2",
          "type": "bytes"
        },
        {
          "internalType": "bytes",
          "name": "unsignedCall3",
          "type": "bytes"
        }
      ],
      "name": "unsignedData",
      "outputs": [
        {
          "internalType": "bytes",
          "name": "",
          "type": "bytes"
        }
      ],
      "stateMutability": "pure",
      "type": "function"
    },
    {
      "inputs": [
        {
          "internalType": "uint8",
          "name": "orderIndex",
          "type": "uint8"
        },
        {
          "internalType": "bytes",
          "name": "unsignedCall1",
          "type": "bytes"
        },
        {
          "internalType": "bytes",
          "name": "unsignedCall2",
          "type": "bytes"
        },
        {
          "internalType": "bytes",
          "name": "unsignedCall3",
          "type": "bytes"
        },
        {
          "internalType": "bytes",
          "name": "unsignedCall4",
          "type": "bytes"
        },
        {
          "internalType": "bytes",
          "name": "unsignedCall5",
          "type": "bytes"
        },
        {
          "internalType": "bytes",
          "name": "unsignedCall6",
          "type": "bytes"
        },
        {
          "internalType": "bytes",
          "name": "unsignedCall7",
          "type": "bytes"
        },
        {
          "internalType": "bytes",
          "name": "unsignedCall8",
          "type": "bytes"
        },
        {
          "internalType": "bytes",
          "name": "unsignedCall9",
          "type": "bytes"
        }
      ],
      "name": "unsignedData",
      "outputs": [
        {
          "internalType": "bytes",
          "name": "",
          "type": "bytes"
        }
      ],
      "stateMutability": "pure",
      "type": "function"
    },
    {
      "inputs": [
        {
          "internalType": "uint8",
          "name": "orderIndex",
          "type": "uint8"
        },
        {
          "internalType": "bytes",
          "name": "unsignedCall1",
          "type": "bytes"
        },
        {
          "internalType": "bytes",
          "name": "unsignedCall2",
          "type": "bytes"
        },
        {
          "internalType": "bytes",
          "name": "unsignedCall3",
          "type": "bytes"
        },
        {
          "internalType": "bytes",
          "name": "unsignedCall4",
          "type": "bytes"
        },
        {
          "internalType": "bytes",
          "name": "unsignedCall5",
          "type": "bytes"
        },
        {
          "internalType": "bytes",
          "name": "unsignedCall6",
          "type": "bytes"
        },
        {
          "internalType": "bytes",
          "name": "unsignedCall7",
          "type": "bytes"
        },
        {
          "internalType": "bytes",
          "name": "unsignedCall8",
          "type": "bytes"
        },
        {
          "internalType": "bytes",
          "name": "unsignedCall9",
          "type": "bytes"
        },
        {
          "internalType": "bytes",
          "name": "unsignedCall10",
          "type": "bytes"
        }
      ],
      "name": "unsignedData",
      "outputs": [
        {
          "internalType": "bytes",
          "name": "",
          "type": "bytes"
        }
      ],
      "stateMutability": "pure",
      "type": "function"
    },
    {
      "inputs": [
        {
          "internalType": "address",
          "name": "recipient",
          "type": "address"
        },
        {
          "components": [
            {
              "internalType": "uint256[]",
              "name": "ids",
              "type": "uint256[]"
            },
            {
              "internalType": "bytes32[]",
              "name": "merkleProof_hashes",
              "type": "bytes32[]"
            },
            {
              "internalType": "bool[]",
              "name": "merkleProof_flags",
              "type": "bool[]"
            },
            {
              "internalType": "uint256[]",
              "name": "statusProof_lastTransferTimes",
              "type": "uint256[]"
            },
            {
              "internalType": "uint256[]",
              "name": "statusProof_timestamps",
              "type": "uint256[]"
            },
            {
              "internalType": "bytes[]",
              "name": "statusProof_signatures",
              "type": "bytes[]"
            }
          ],
          "internalType": "struct IdsProof",
          "name": "tokenInIdsProof",
          "type": "tuple"
        },
        {
          "components": [
            {
              "internalType": "uint256[]",
              "name": "ids",
              "type": "uint256[]"
            },
            {
              "internalType": "bytes32[]",
              "name": "merkleProof_hashes",
              "type": "bytes32[]"
            },
            {
              "internalType": "bool[]",
              "name": "merkleProof_flags",
              "type": "bool[]"
            },
            {
              "internalType": "uint256[]",
              "name": "statusProof_lastTransferTimes",
              "type": "uint256[]"
            },
            {
              "internalType": "uint256[]",
              "name": "statusProof_timestamps",
              "type": "uint256[]"
            },
            {
              "internalType": "bytes[]",
              "name": "statusProof_signatures",
              "type": "bytes[]"
            }
          ],
          "internalType": "struct IdsProof",
          "name": "tokenOutIdsProof",
          "type": "tuple"
        },
        {
          "components": [
            {
              "internalType": "address",
              "name": "targetContract",
              "type": "address"
            },
            {
              "internalType": "bytes",
              "name": "data",
              "type": "bytes"
            }
          ],
          "internalType": "struct Call",
          "name": "fillCall",
          "type": "tuple"
        }
      ],
      "name": "unsignedMarketSwapData",
      "outputs": [
        {
          "internalType": "bytes",
          "name": "",
          "type": "bytes"
        }
      ],
      "stateMutability": "pure",
      "type": "function"
    }
  ],
  "bytecode": {
    "object": "0x608060405234801561001057600080fd5b50611d22806100206000396000f3fe608060405234801561001057600080fd5b50600436106100a95760003560e01c80635c1c43e0116100715780635c1c43e0146101235780638c98998a146101365780639ea252ea14610149578063bb5de5151461015c578063c35222501461016f578063eb8b8cd91461018257600080fd5b806304fa493e146100ae57806313650d12146100d757806323131745146100ea578063281bffdd146100fd5780634146272514610110575b600080fd5b6100c16100bc366004610d5f565b610195565b6040516100ce9190610ed0565b60405180910390f35b6100c16100e5366004610eea565b6102d3565b6100c16100f8366004610ff0565b6103f0565b6100c161010b366004611140565b61054e565b6100c161011e366004611220565b61064b565b6100c16101313660046112dd565b610728565b6100c16101443660046115ba565b6107a4565b6100c1610157366004611691565b6107d6565b6100c161016a366004611704565b610871565b6100c161017d36600461179c565b61092e565b6100c1610190366004611912565b610aac565b604080516007808252610100820190925260609160009190816020015b60608152602001906001900390816101b257905050905088816000815181106101dd576101dd611abc565b602002602001018190525087816001815181106101fc576101fc611abc565b6020026020010181905250868160028151811061021b5761021b611abc565b6020026020010181905250858160038151811061023a5761023a611abc565b6020026020010181905250848160048151811061025957610259611abc565b6020026020010181905250838160058151811061027857610278611abc565b6020026020010181905250828160068151811061029757610297611abc565b602002602001018190525089816040516020016102b5929190611b27565b60405160208183030381529060405291505098975050505050505050565b60408051600680825260e0820190925260609160009190816020015b60608152602001906001900390816102ef579050509050878160008151811061031a5761031a611abc565b6020026020010181905250868160018151811061033957610339611abc565b6020026020010181905250858160028151811061035857610358611abc565b6020026020010181905250848160038151811061037757610377611abc565b6020026020010181905250838160048151811061039657610396611abc565b602002602001018190525082816005815181106103b5576103b5611abc565b602002602001018190525088816040516020016103d3929190611b27565b604051602081830303815290604052915050979650505050505050565b604080516008808252610120820190925260609160009190816020015b606081526020019060019003908161040d579050509050898160008151811061043857610438611abc565b6020026020010181905250888160018151811061045757610457611abc565b6020026020010181905250878160028151811061047657610476611abc565b6020026020010181905250868160038151811061049557610495611abc565b602002602001018190525085816004815181106104b4576104b4611abc565b602002602001018190525084816005815181106104d3576104d3611abc565b602002602001018190525083816006815181106104f2576104f2611abc565b6020026020010181905250828160078151811061051157610511611abc565b60200260200101819052508a8160405160200161052f929190611b27565b6040516020818303038152906040529150509998505050505050505050565b60408051600580825260c0820190925260609160009190816020015b606081526020019060019003908161056a579050509050868160008151811061059557610595611abc565b602002602001018190525085816001815181106105b4576105b4611abc565b602002602001018190525084816002815181106105d3576105d3611abc565b602002602001018190525083816003815181106105f2576105f2611abc565b6020026020010181905250828160048151811061061157610611611abc565b6020026020010181905250878160405160200161062f929190611b27565b6040516020818303038152906040529150509695505050505050565b60408051600480825260a0820190925260609160009190816020015b6060815260200190600190039081610667579050509050858160008151811061069257610692611abc565b602002602001018190525084816001815181106106b1576106b1611abc565b602002602001018190525083816002815181106106d0576106d0611abc565b602002602001018190525082816003815181106106ef576106ef611abc565b6020026020010181905250868160405160200161070d929190611b27565b60405160208183030381529060405291505095945050505050565b60408051600180825281830190925260609160009190816020015b6060815260200190600190039081610743579050509050828160008151811061076e5761076e611abc565b6020026020010181905250838160405160200161078c929190611b27565b60405160208183030381529060405291505092915050565b6060848484846040516020016107bd9493929190611c81565b6040516020818303038152906040529050949350505050565b604080516002808252606082810190935260009190816020015b60608152602001906001900390816107f0579050509050838160008151811061081b5761081b611abc565b6020026020010181905250828160018151811061083a5761083a611abc565b60200260200101819052508481604051602001610858929190611b27565b6040516020818303038152906040529150509392505050565b6040805160038082526080820190925260609160009190816020015b606081526020019060019003908161088d57905050905084816000815181106108b8576108b8611abc565b602002602001018190525083816001815181106108d7576108d7611abc565b602002602001018190525082816002815181106108f6576108f6611abc565b60200260200101819052508581604051602001610914929190611b27565b604051602081830303815290604052915050949350505050565b604080516009808252610140820190925260609160009190816020015b606081526020019060019003908161094b5790505090508a8160008151811061097657610976611abc565b6020026020010181905250898160018151811061099557610995611abc565b602002602001018190525088816002815181106109b4576109b4611abc565b602002602001018190525087816003815181106109d3576109d3611abc565b602002602001018190525086816004815181106109f2576109f2611abc565b60200260200101819052508581600581518110610a1157610a11611abc565b60200260200101819052508481600681518110610a3057610a30611abc565b60200260200101819052508381600781518110610a4f57610a4f611abc565b60200260200101819052508281600881518110610a6e57610a6e611abc565b60200260200101819052508b81604051602001610a8c929190611b27565b6040516020818303038152906040529150509a9950505050505050505050565b60408051600a808252610160820190925260609160009190816020015b6060815260200190600190039081610ac95790505090508b81600081518110610af457610af4611abc565b60200260200101819052508a81600181518110610b1357610b13611abc565b60200260200101819052508981600281518110610b3257610b32611abc565b60200260200101819052508881600381518110610b5157610b51611abc565b60200260200101819052508781600481518110610b7057610b70611abc565b60200260200101819052508681600581518110610b8f57610b8f611abc565b60200260200101819052508581600681518110610bae57610bae611abc565b60200260200101819052508481600781518110610bcd57610bcd611abc565b60200260200101819052508381600881518110610bec57610bec611abc565b60200260200101819052508281600981518110610c0b57610c0b611abc565b60200260200101819052508c81604051602001610c29929190611b27565b6040516020818303038152906040529150509b9a5050505050505050505050565b803560ff81168114610c5b57600080fd5b919050565b634e487b7160e01b600052604160045260246000fd5b60405160c081016001600160401b0381118282101715610c9857610c98610c60565b60405290565b604080519081016001600160401b0381118282101715610c9857610c98610c60565b604051601f8201601f191681016001600160401b0381118282101715610ce857610ce8610c60565b604052919050565b600082601f830112610d0157600080fd5b81356001600160401b03811115610d1a57610d1a610c60565b610d2d601f8201601f1916602001610cc0565b818152846020838601011115610d4257600080fd5b816020850160208301376000918101602001919091529392505050565b600080600080600080600080610100898b031215610d7c57600080fd5b610d8589610c4a565b975060208901356001600160401b0380821115610da157600080fd5b610dad8c838d01610cf0565b985060408b0135915080821115610dc357600080fd5b610dcf8c838d01610cf0565b975060608b0135915080821115610de557600080fd5b610df18c838d01610cf0565b965060808b0135915080821115610e0757600080fd5b610e138c838d01610cf0565b955060a08b0135915080821115610e2957600080fd5b610e358c838d01610cf0565b945060c08b0135915080821115610e4b57600080fd5b610e578c838d01610cf0565b935060e08b0135915080821115610e6d57600080fd5b50610e7a8b828c01610cf0565b9150509295985092959890939650565b6000815180845260005b81811015610eb057602081850181015186830182015201610e94565b506000602082860101526020601f19601f83011685010191505092915050565b602081526000610ee36020830184610e8a565b9392505050565b600080600080600080600060e0888a031215610f0557600080fd5b610f0e88610c4a565b965060208801356001600160401b0380821115610f2a57600080fd5b610f368b838c01610cf0565b975060408a0135915080821115610f4c57600080fd5b610f588b838c01610cf0565b965060608a0135915080821115610f6e57600080fd5b610f7a8b838c01610cf0565b955060808a0135915080821115610f9057600080fd5b610f9c8b838c01610cf0565b945060a08a0135915080821115610fb257600080fd5b610fbe8b838c01610cf0565b935060c08a0135915080821115610fd457600080fd5b50610fe18a828b01610cf0565b91505092959891949750929550565b60008060008060008060008060006101208a8c03121561100f57600080fd5b6110188a610c4a565b985060208a01356001600160401b038082111561103457600080fd5b6110408d838e01610cf0565b995060408c013591508082111561105657600080fd5b6110628d838e01610cf0565b985060608c013591508082111561107857600080fd5b6110848d838e01610cf0565b975060808c013591508082111561109a57600080fd5b6110a68d838e01610cf0565b965060a08c01359150808211156110bc57600080fd5b6110c88d838e01610cf0565b955060c08c01359150808211156110de57600080fd5b6110ea8d838e01610cf0565b945060e08c013591508082111561110057600080fd5b61110c8d838e01610cf0565b93506101008c013591508082111561112357600080fd5b506111308c828d01610cf0565b9150509295985092959850929598565b60008060008060008060c0878903121561115957600080fd5b61116287610c4a565b955060208701356001600160401b038082111561117e57600080fd5b61118a8a838b01610cf0565b965060408901359150808211156111a057600080fd5b6111ac8a838b01610cf0565b955060608901359150808211156111c257600080fd5b6111ce8a838b01610cf0565b945060808901359150808211156111e457600080fd5b6111f08a838b01610cf0565b935060a089013591508082111561120657600080fd5b5061121389828a01610cf0565b9150509295509295509295565b600080600080600060a0868803121561123857600080fd5b61124186610c4a565b945060208601356001600160401b038082111561125d57600080fd5b61126989838a01610cf0565b9550604088013591508082111561127f57600080fd5b61128b89838a01610cf0565b945060608801359150808211156112a157600080fd5b6112ad89838a01610cf0565b935060808801359150808211156112c357600080fd5b506112d088828901610cf0565b9150509295509295909350565b600080604083850312156112f057600080fd5b6112f983610c4a565b915060208301356001600160401b0381111561131457600080fd5b61132085828601610cf0565b9150509250929050565b80356001600160a01b0381168114610c5b57600080fd5b60006001600160401b0382111561135a5761135a610c60565b5060051b60200190565b600082601f83011261137557600080fd5b8135602061138a61138583611341565b610cc0565b82815260059290921b840181019181810190868411156113a957600080fd5b8286015b848110156113c457803583529183019183016113ad565b509695505050505050565b600082601f8301126113e057600080fd5b813560206113f061138583611341565b82815260059290921b8401810191818101908684111561140f57600080fd5b8286015b848110156113c4578035801515811461142c5760008081fd5b8352918301918301611413565b600082601f83011261144a57600080fd5b8135602061145a61138583611341565b82815260059290921b8401810191818101908684111561147957600080fd5b8286015b848110156113c45780356001600160401b0381111561149c5760008081fd5b6114aa8986838b0101610cf0565b84525091830191830161147d565b600060c082840312156114ca57600080fd5b6114d2610c76565b905081356001600160401b03808211156114eb57600080fd5b6114f785838601611364565b8352602084013591508082111561150d57600080fd5b61151985838601611364565b6020840152604084013591508082111561153257600080fd5b61153e858386016113cf565b6040840152606084013591508082111561155757600080fd5b61156385838601611364565b6060840152608084013591508082111561157c57600080fd5b61158885838601611364565b608084015260a08401359150808211156115a157600080fd5b506115ae84828501611439565b60a08301525092915050565b600080600080608085870312156115d057600080fd5b6115d98561132a565b935060208501356001600160401b03808211156115f557600080fd5b611601888389016114b8565b9450604087013591508082111561161757600080fd5b611623888389016114b8565b9350606087013591508082111561163957600080fd5b908601906040828903121561164d57600080fd5b611655610c9e565b61165e8361132a565b815260208301358281111561167257600080fd5b61167e8a828601610cf0565b6020830152509598949750929550505050565b6000806000606084860312156116a657600080fd5b6116af84610c4a565b925060208401356001600160401b03808211156116cb57600080fd5b6116d787838801610cf0565b935060408601359150808211156116ed57600080fd5b506116fa86828701610cf0565b9150509250925092565b6000806000806080858703121561171a57600080fd5b61172385610c4a565b935060208501356001600160401b038082111561173f57600080fd5b61174b88838901610cf0565b9450604087013591508082111561176157600080fd5b61176d88838901610cf0565b9350606087013591508082111561178357600080fd5b5061179087828801610cf0565b91505092959194509250565b6000806000806000806000806000806101408b8d0312156117bc57600080fd5b6117c58b610c4a565b995060208b01356001600160401b03808211156117e157600080fd5b6117ed8e838f01610cf0565b9a5060408d013591508082111561180357600080fd5b61180f8e838f01610cf0565b995060608d013591508082111561182557600080fd5b6118318e838f01610cf0565b985060808d013591508082111561184757600080fd5b6118538e838f01610cf0565b975060a08d013591508082111561186957600080fd5b6118758e838f01610cf0565b965060c08d013591508082111561188b57600080fd5b6118978e838f01610cf0565b955060e08d01359150808211156118ad57600080fd5b6118b98e838f01610cf0565b94506101008d01359150808211156118d057600080fd5b6118dc8e838f01610cf0565b93506101208d01359150808211156118f357600080fd5b506119008d828e01610cf0565b9150509295989b9194979a5092959850565b60008060008060008060008060008060006101608c8e03121561193457600080fd5b61193d8c610c4a565b9a506001600160401b038060208e0135111561195857600080fd5b6119688e60208f01358f01610cf0565b9a508060408e0135111561197b57600080fd5b61198b8e60408f01358f01610cf0565b99508060608e0135111561199e57600080fd5b6119ae8e60608f01358f01610cf0565b98508060808e013511156119c157600080fd5b6119d18e60808f01358f01610cf0565b97508060a08e013511156119e457600080fd5b6119f48e60a08f01358f01610cf0565b96508060c08e01351115611a0757600080fd5b611a178e60c08f01358f01610cf0565b95508060e08e01351115611a2a57600080fd5b611a3a8e60e08f01358f01610cf0565b9450806101008e01351115611a4e57600080fd5b611a5f8e6101008f01358f01610cf0565b9350806101208e01351115611a7357600080fd5b611a848e6101208f01358f01610cf0565b9250806101408e01351115611a9857600080fd5b50611aaa8d6101408e01358e01610cf0565b90509295989b509295989b9093969950565b634e487b7160e01b600052603260045260246000fd5b600081518084526020808501808196508360051b8101915082860160005b85811015611b1a578284038952611b08848351610e8a565b98850198935090840190600101611af0565b5091979650505050505050565b60ff83168152604060208201526000611b436040830184611ad2565b949350505050565b600081518084526020808501945080840160005b83811015611b7b57815187529582019590820190600101611b5f565b509495945050505050565b600081518084526020808501945080840160005b83811015611b7b578151151587529582019590820190600101611b9a565b6000815160c08452611bcd60c0850182611b4b565b60208481015186830387830152805180845290820193509091600091908301905b80831015611c0e5784518252938301936001929092019190830190611bee565b50604086015193508681036040880152611c288185611b86565b935050505060608301518482036060860152611c448282611b4b565b91505060808301518482036080860152611c5e8282611b4b565b91505060a083015184820360a0860152611c788282611ad2565b95945050505050565b600060018060a01b03808716835260806020840152611ca36080840187611bb8565b8381036040850152611cb58187611bb8565b905083810360608501528185511681526020850151915060406020820152611ce06040820183610e8a565b9897505050505050505056fea2646970667358221220ce8fbc5111fa3b0eb0e891d20af8e559752d38c97f3475290088af0537350f5464736f6c63430008110033",
    "linkReferences": {}
  },
  "methodIdentifiers": {
    "unsignedData(uint8,bytes)": "5c1c43e0",
    "unsignedData(uint8,bytes,bytes)": "9ea252ea",
    "unsignedData(uint8,bytes,bytes,bytes)": "bb5de515",
    "unsignedData(uint8,bytes,bytes,bytes,bytes)": "41462725",
    "unsignedData(uint8,bytes,bytes,bytes,bytes,bytes)": "281bffdd",
    "unsignedData(uint8,bytes,bytes,bytes,bytes,bytes,bytes)": "13650d12",
    "unsignedData(uint8,bytes,bytes,bytes,bytes,bytes,bytes,bytes)": "04fa493e",
    "unsignedData(uint8,bytes,bytes,bytes,bytes,bytes,bytes,bytes,bytes)": "23131745",
    "unsignedData(uint8,bytes,bytes,bytes,bytes,bytes,bytes,bytes,bytes,bytes)": "c3522250",
    "unsignedData(uint8,bytes,bytes,bytes,bytes,bytes,bytes,bytes,bytes,bytes,bytes)": "eb8b8cd9",
    "unsignedMarketSwapData(address,(uint256[],bytes32[],bool[],uint256[],uint256[],bytes[]),(uint256[],bytes32[],bool[],uint256[],uint256[],bytes[]),(address,bytes))": "8c98998a"
  },
  "id": 64
}