{
  "abi": [
    {
      "inputs": [],
      "name": "Q96",
      "outputs": [
        {
          "internalType": "uint256",
          "name": "",
          "type": "uint256"
        }
      ],
      "stateMutability": "view",
      "type": "function"
    },
    {
      "inputs": [
        {
          "internalType": "bytes",
          "name": "params",
          "type": "bytes"
        }
      ],
      "name": "getAmount",
      "outputs": [
        {
          "internalType": "uint256",
          "name": "amount",
          "type": "uint256"
        }
      ],
      "stateMutability": "view",
      "type": "function"
    },
    {
      "inputs": [
        {
          "internalType": "uint128",
          "name": "blockNumber",
          "type": "uint128"
        },
        {
          "internalType": "uint128",
          "name": "previousAuctionFilledBlock",
          "type": "uint128"
        },
        {
          "internalType": "uint256",
          "name": "oppositeTokenAmount",
          "type": "uint256"
        },
        {
          "internalType": "uint128",
          "name": "firstAuctionStartBlock",
          "type": "uint128"
        },
        {
          "internalType": "uint128",
          "name": "auctionDelayBlocks",
          "type": "uint128"
        },
        {
          "internalType": "uint128",
          "name": "auctionDurationBlocks",
          "type": "uint128"
        },
        {
          "internalType": "int24",
          "name": "startPercentE6",
          "type": "int24"
        },
        {
          "internalType": "int24",
          "name": "endPercentE6",
          "type": "int24"
        },
        {
          "internalType": "uint256",
          "name": "priceX96",
          "type": "uint256"
        }
      ],
      "name": "getAuctionAmount",
      "outputs": [
        {
          "internalType": "uint256",
          "name": "amount",
          "type": "uint256"
        }
      ],
      "stateMutability": "pure",
      "type": "function"
    },
    {
      "inputs": [
        {
          "internalType": "uint64",
          "name": "id",
          "type": "uint64"
        }
      ],
      "name": "getBlockIntervalState",
      "outputs": [
        {
          "internalType": "uint128",
          "name": "start",
          "type": "uint128"
        },
        {
          "internalType": "uint16",
          "name": "counter",
          "type": "uint16"
        }
      ],
      "stateMutability": "view",
      "type": "function"
    }
  ],
  "bytecode": {
    "object": "0x608060405234801561001057600080fd5b50610936806100206000396000f3fe608060405234801561001057600080fd5b506004361061004c5760003560e01c806340792465146100515780634ce18d6b1461006f5780638c78357f14610082578063b59ed02d1461011b575b600080fd5b61005c600160601b81565b6040519081526020015b60405180910390f35b61005c61007d366004610483565b61012e565b6100f961009036600461051c565b6040805167ffffffffffffffff8316602082015280820191909152600d60608201526c189b1bd8dad25b9d195c9d985b609a1b60808201526000908190819060a00160408051601f1981840301815291905280516020909101205494608086901c945092505050565b604080516001600160801b03909316835261ffff909116602083015201610066565b61005c610129366004610564565b610274565b6000806000806000806000806000808a806020019051810190610151919061067f565b98509850985098509850985098509850985060006101d2896040805167ffffffffffffffff8316602082015280820191909152600d60608201526c189b1bd8dad25b9d195c9d985b609a1b60808201526000908190819060a00160408051601f1981840301815291905280516020909101205494608086901c945092505050565b50905060008373ffffffffffffffffffffffffffffffffffffffff1662c7c693846040518263ffffffff1660e01b815260040161020f9190610769565b602060405180830381865afa15801561022c573d6000803e3d6000fd5b505050506040513d601f19601f82011682018060405250810190610250919061079c565b905061026343838d8c8c8c8c8c89610274565b9d9c50505050505050505050505050565b60008060008a6001600160801b031660000361029157508761029e565b61029b888c6107cb565b90505b60006102aa88836107cb565b9050816001600160801b03168d6001600160801b0316116102cd5786925061031c565b816001600160801b03168d6001600160801b03161180156102ff5750806001600160801b03168d6001600160801b0316105b156103185761031182828f8a8a610383565b925061031c565b8592505b5060009050600160601b610330858c6107f2565b61033a9190610825565b90506000620f4240610350600285900b84610839565b61035a9190610869565b6103649083610897565b90506000811215610373575060005b9c9b505050505050505050505050565b60008061039087876108bf565b9050600061039e88876108bf565b905060006103ac86866108df565b90506000836001600160801b0316600160601b846001600160801b03166103d39190610839565b6103dd9190610869565b9050600160601b6103f282600285900b610839565b6103fc9190610869565b6104069088610904565b9a9950505050505050505050565b634e487b7160e01b600052604160045260246000fd5b604051601f8201601f1916810167ffffffffffffffff8111828210171561045357610453610414565b604052919050565b600067ffffffffffffffff82111561047557610475610414565b50601f01601f191660200190565b60006020828403121561049557600080fd5b813567ffffffffffffffff8111156104ac57600080fd5b8201601f810184136104bd57600080fd5b80356104d06104cb8261045b565b61042a565b8181528560208385010111156104e557600080fd5b81602084016020830137600091810160200191909152949350505050565b67ffffffffffffffff8116811461051957600080fd5b50565b60006020828403121561052e57600080fd5b813561053981610503565b9392505050565b6001600160801b038116811461051957600080fd5b8060020b811461051957600080fd5b60008060008060008060008060006101208a8c03121561058357600080fd5b893561058e81610540565b985060208a013561059e81610540565b975060408a0135965060608a01356105b581610540565b955060808a01356105c581610540565b945060a08a01356105d581610540565b935060c08a01356105e581610555565b925060e08a01356105f581610555565b809250506101008a013590509295985092959850929598565b60005b83811015610629578181015183820152602001610611565b50506000910152565b600082601f83011261064357600080fd5b81516106516104cb8261045b565b81815284602083860101111561066657600080fd5b61067782602083016020870161060e565b949350505050565b60008060008060008060008060006101208a8c03121561069e57600080fd5b8951985060208a01516106b081610503565b60408b01519098506106c181610540565b60608b01519097506106d281610540565b60808b01519096506106e381610540565b60a08b01519095506106f481610555565b60c08b015190945061070581610555565b60e08b015190935073ffffffffffffffffffffffffffffffffffffffff8116811461072f57600080fd5b6101008b015190925067ffffffffffffffff81111561074d57600080fd5b6107598c828d01610632565b9150509295985092959850929598565b602081526000825180602084015261078881604085016020870161060e565b601f01601f19169190910160400192915050565b6000602082840312156107ae57600080fd5b5051919050565b634e487b7160e01b600052601160045260246000fd5b6001600160801b038181168382160190808211156107eb576107eb6107b5565b5092915050565b8082028115828204841417610809576108096107b5565b92915050565b634e487b7160e01b600052601260045260246000fd5b6000826108345761083461080f565b500490565b80820260008212600160ff1b84141615610855576108556107b5565b8181058314821517610809576108096107b5565b6000826108785761087861080f565b600160ff1b821460001984141615610892576108926107b5565b500590565b80820182811260008312801582168215821617156108b7576108b76107b5565b505092915050565b6001600160801b038281168282160390808211156107eb576107eb6107b5565b600282810b9082900b03627fffff198112627fffff82131715610809576108096107b5565b600281810b9083900b01627fffff8113627fffff1982121715610809576108096107b556fea164736f6c6343000811000a",
    "linkReferences": {}
  },
  "methodIdentifiers": {
    "Q96()": "40792465",
    "getAmount(bytes)": "4ce18d6b",
    "getAuctionAmount(uint128,uint128,uint256,uint128,uint128,uint128,int24,int24,uint256)": "b59ed02d",
    "getBlockIntervalState(uint64)": "8c78357f"
  },
  "id": 68
}