{
  "abi": [
    {
      "inputs": [
        {
          "internalType": "uint256",
          "name": "remainingInput",
          "type": "uint256"
        }
      ],
      "name": "MaxInputExceeded",
      "type": "error"
    },
    {
      "inputs": [],
      "name": "Q96",
      "outputs": [
        {
          "internalType": "uint256",
          "name": "",
          "type": "uint256"
        }
      ],
      "stateMutability": "view",
      "type": "function"
    },
    {
      "inputs": [
        {
          "internalType": "bytes",
          "name": "curvePriceData",
          "type": "bytes"
        }
      ],
      "name": "calcCurveParams",
      "outputs": [
        {
          "internalType": "bytes",
          "name": "curveParams",
          "type": "bytes"
        }
      ],
      "stateMutability": "pure",
      "type": "function"
    },
    {
      "inputs": [
        {
          "internalType": "uint256",
          "name": "input",
          "type": "uint256"
        },
        {
          "internalType": "bytes",
          "name": "curveParams",
          "type": "bytes"
        }
      ],
      "name": "calcOutput",
      "outputs": [
        {
          "internalType": "uint256",
          "name": "output",
          "type": "uint256"
        }
      ],
      "stateMutability": "pure",
      "type": "function"
    },
    {
      "inputs": [
        {
          "internalType": "uint256",
          "name": "totalInput",
          "type": "uint256"
        },
        {
          "internalType": "uint256",
          "name": "filledInput",
          "type": "uint256"
        },
        {
          "internalType": "uint256",
          "name": "input",
          "type": "uint256"
        },
        {
          "internalType": "bytes",
          "name": "curveParams",
          "type": "bytes"
        }
      ],
      "name": "getOutput",
      "outputs": [
        {
          "internalType": "uint256",
          "name": "output",
          "type": "uint256"
        }
      ],
      "stateMutability": "pure",
      "type": "function"
    }
  ],
  "bytecode": {
    "object": "0x608060405234801561001057600080fd5b506103ea806100206000396000f3fe608060405234801561001057600080fd5b506004361061004c5760003560e01c8063193f63c11461005157806340792465146100775780635d76bcc61461008b578063e4e82682146100a9575b600080fd5b61006461005f366004610225565b6100bc565b6040519081526020015b60405180910390f35b6100646c0100000000000000000000000081565b61009c61009936600461027f565b90565b60405161006e91906102b4565b6100646100b7366004610302565b610103565b60006100c9858585610146565b60006100d58584610103565b905060006100ec6100e6868861035f565b85610103565b90506100f88282610378565b979650505050505050565b6000808280602001905181019061011a919061038b565b90506c0100000000000000000000000061013482866103a4565b61013e91906103bb565b949350505050565b60006101528385610378565b90508082111561017c5760405163375d4aab60e11b81526004810182905260240160405180910390fd5b50505050565b634e487b7160e01b600052604160045260246000fd5b600082601f8301126101a957600080fd5b813567ffffffffffffffff808211156101c4576101c4610182565b604051601f8301601f19908116603f011681019082821181831017156101ec576101ec610182565b8160405283815286602085880101111561020557600080fd5b836020870160208301376000602085830101528094505050505092915050565b6000806000806080858703121561023b57600080fd5b843593506020850135925060408501359150606085013567ffffffffffffffff81111561026757600080fd5b61027387828801610198565b91505092959194509250565b60006020828403121561029157600080fd5b813567ffffffffffffffff8111156102a857600080fd5b61013e84828501610198565b600060208083528351808285015260005b818110156102e1578581018301518582016040015282016102c5565b506000604082860101526040601f19601f8301168501019250505092915050565b6000806040838503121561031557600080fd5b82359150602083013567ffffffffffffffff81111561033357600080fd5b61033f85828601610198565b9150509250929050565b634e487b7160e01b600052601160045260246000fd5b8082018082111561037257610372610349565b92915050565b8181038181111561037257610372610349565b60006020828403121561039d57600080fd5b5051919050565b808202811582820484141761037257610372610349565b6000826103d857634e487b7160e01b600052601260045260246000fd5b50049056fea164736f6c6343000811000a",
    "linkReferences": {}
  },
  "methodIdentifiers": {
    "Q96()": "40792465",
    "calcCurveParams(bytes)": "5d76bcc6",
    "calcOutput(uint256,bytes)": "e4e82682",
    "getOutput(uint256,uint256,uint256,bytes)": "193f63c1"
  },
  "id": 46
}