{
  "abi": [
    {
      "inputs": [],
      "name": "InvalidSignatureType",
      "type": "error"
    },
    {
      "inputs": [
        {
          "internalType": "address",
          "name": "account",
          "type": "address"
        },
        {
          "internalType": "uint256",
          "name": "chainId",
          "type": "uint256"
        },
        {
          "internalType": "enum SignatureType",
          "name": "signatureType",
          "type": "uint8"
        },
        {
          "internalType": "bytes[][]",
          "name": "intents",
          "type": "bytes[][]"
        },
        {
          "internalType": "address",
          "name": "segmentsContract",
          "type": "address"
        },
        {
          "internalType": "address",
          "name": "intentTarget",
          "type": "address"
        },
        {
          "components": [
            {
              "internalType": "address",
              "name": "targetContract",
              "type": "address"
            },
            {
              "internalType": "bytes",
              "name": "data",
              "type": "bytes"
            }
          ],
          "internalType": "struct Call[]",
          "name": "beforeCalls",
          "type": "tuple[]"
        },
        {
          "components": [
            {
              "internalType": "address",
              "name": "targetContract",
              "type": "address"
            },
            {
              "internalType": "bytes",
              "name": "data",
              "type": "bytes"
            }
          ],
          "internalType": "struct Call[]",
          "name": "afterCalls",
          "type": "tuple[]"
        }
      ],
      "name": "declaration",
      "outputs": [
        {
          "internalType": "bytes",
          "name": "data",
          "type": "bytes"
        },
        {
          "internalType": "bytes32",
          "name": "messageHash",
          "type": "bytes32"
        }
      ],
      "stateMutability": "view",
      "type": "function"
    },
    {
      "inputs": [
        {
          "internalType": "address",
          "name": "account",
          "type": "address"
        },
        {
          "internalType": "uint256",
          "name": "chainId",
          "type": "uint256"
        },
        {
          "internalType": "enum SignatureType",
          "name": "signatureType",
          "type": "uint8"
        },
        {
          "internalType": "bytes[][]",
          "name": "intents",
          "type": "bytes[][]"
        },
        {
          "internalType": "address",
          "name": "segmentsContract",
          "type": "address"
        },
        {
          "internalType": "address",
          "name": "intentTarget",
          "type": "address"
        }
      ],
      "name": "declaration",
      "outputs": [
        {
          "internalType": "bytes",
          "name": "data",
          "type": "bytes"
        },
        {
          "internalType": "bytes32",
          "name": "messageHash",
          "type": "bytes32"
        }
      ],
      "stateMutability": "view",
      "type": "function"
    },
    {
      "inputs": [
        {
          "internalType": "bytes[][]",
          "name": "intents",
          "type": "bytes[][]"
        },
        {
          "internalType": "address",
          "name": "segmentsContract",
          "type": "address"
        }
      ],
      "name": "declarationData",
      "outputs": [
        {
          "internalType": "bytes",
          "name": "data",
          "type": "bytes"
        }
      ],
      "stateMutability": "view",
      "type": "function"
    },
    {
      "inputs": [
        {
          "internalType": "bytes[][]",
          "name": "intents",
          "type": "bytes[][]"
        },
        {
          "internalType": "address",
          "name": "segmentsContract",
          "type": "address"
        },
        {
          "components": [
            {
              "internalType": "address",
              "name": "targetContract",
              "type": "address"
            },
            {
              "internalType": "bytes",
              "name": "data",
              "type": "bytes"
            }
          ],
          "internalType": "struct Call[]",
          "name": "beforeCalls",
          "type": "tuple[]"
        },
        {
          "components": [
            {
              "internalType": "address",
              "name": "targetContract",
              "type": "address"
            },
            {
              "internalType": "bytes",
              "name": "data",
              "type": "bytes"
            }
          ],
          "internalType": "struct Call[]",
          "name": "afterCalls",
          "type": "tuple[]"
        }
      ],
      "name": "declarationData",
      "outputs": [
        {
          "internalType": "bytes",
          "name": "data",
          "type": "bytes"
        }
      ],
      "stateMutability": "view",
      "type": "function"
    },
    {
      "inputs": [
        {
          "internalType": "enum SignatureType",
          "name": "signatureType",
          "type": "uint8"
        },
        {
          "internalType": "bytes",
          "name": "data",
          "type": "bytes"
        },
        {
          "internalType": "address",
          "name": "account",
          "type": "address"
        },
        {
          "internalType": "uint256",
          "name": "chainId",
          "type": "uint256"
        },
        {
          "internalType": "address",
          "name": "intentTarget",
          "type": "address"
        }
      ],
      "name": "getMessageHash",
      "outputs": [
        {
          "internalType": "bytes32",
          "name": "messageHash",
          "type": "bytes32"
        }
      ],
      "stateMutability": "view",
      "type": "function"
    },
    {
      "inputs": [
        {
          "internalType": "bytes",
          "name": "data",
          "type": "bytes"
        },
        {
          "internalType": "address",
          "name": "account",
          "type": "address"
        },
        {
          "internalType": "uint256",
          "name": "chainId",
          "type": "uint256"
        },
        {
          "internalType": "address",
          "name": "intentTarget",
          "type": "address"
        }
      ],
      "name": "getMessageHashEIP1271",
      "outputs": [
        {
          "internalType": "bytes32",
          "name": "messageHash",
          "type": "bytes32"
        }
      ],
      "stateMutability": "view",
      "type": "function"
    },
    {
      "inputs": [
        {
          "internalType": "bytes",
          "name": "data",
          "type": "bytes"
        },
        {
          "internalType": "address",
          "name": "account",
          "type": "address"
        },
        {
          "internalType": "uint256",
          "name": "chainId",
          "type": "uint256"
        },
        {
          "internalType": "address",
          "name": "intentTarget",
          "type": "address"
        }
      ],
      "name": "getMessageHashEIP712",
      "outputs": [
        {
          "internalType": "bytes32",
          "name": "messageHash",
          "type": "bytes32"
        }
      ],
      "stateMutability": "view",
      "type": "function"
    }
  ],
  "bytecode": {
    "object": "0x608060405234801561001057600080fd5b5061105b806100206000396000f3fe608060405234801561001057600080fd5b506004361061007d5760003560e01c80635f01a75a1161005b5780635f01a75a146100e95780636441c269146100fc5780637be49ee31461010f578063f557887a1461012257600080fd5b80632d6ddaa7146100825780633b1ee151146100a8578063499839c9146100c8575b600080fd5b6100956100903660046107c4565b610135565b6040519081526020015b60405180910390f35b6100bb6100b636600461094e565b610284565b60405161009f91906109ec565b6100db6100d6366004610ad7565b61031f565b60405161009f929190610bac565b6100956100f7366004610bce565b61034d565b6100bb61010a366004610c47565b6103c1565b6100db61011d366004610ce0565b61061b565b6100956101303660046107c4565b610645565b6000807f023ce5d01636bb12b4ffde3c4f5a66fb1044aa0dbc251394e60f0a26f159104383878051906020012060405160200161018e939291909283526001600160a01b03919091166020830152604082015260600190565b60408051808303601f1901815282825280516020918201207f8b73c3c69bb8fe3d512ecc4cf759cc79239f7b179b0ffacaa9a75d522b39400f828501527f977bbc96a0db0d97b4b08241f0db5937a7503966a121e611507f9a616f95651f848401527fc89efdaa54c0f20c7adf612882df0950f5a951637e0307cdcb4c672f298b8bc6606085015260808401979097526001600160a01b039790971660a0808401919091528151808403909101815260c08301825280519088012061190160f01b60e084015260e28301526101028083019690965280518083039096018652610122909101905250508151919092012092915050565b6060610318838360006040519080825280602002602001820160405280156102d357816020015b6040805180820190915260008152606060208201528152602001906001900390816102ab5790505b506040805160008082526020820190925290610312565b6040805180820190915260008152606060208201528152602001906001900390816102ea5790505b506103c1565b9392505050565b6060600061032f878786866103c1565b915061033e88838c8c8961034d565b90509850989650505050505050565b60008086600181111561036257610362610d68565b0361037a5761037385858585610135565b90506103b8565b600186600181111561038e5761038e610d68565b0361039f5761037385858585610645565b6040516360cd402d60e01b815260040160405180910390fd5b95945050505050565b60606000855167ffffffffffffffff8111156103df576103df6106ba565b60405190808252806020026020018201604052801561041f57816020015b6040805160208101909152606081528152602001906001900390816103fd5790505b50905060005b86518160ff1610156105a0576000878260ff168151811061044857610448610d7e565b60200260200101515167ffffffffffffffff811115610469576104696106ba565b6040519080825280602002602001820160405280156104af57816020015b6040805180820190915260608152600060208201528152602001906001900390816104875790505b50905060005b888360ff16815181106104ca576104ca610d7e565b6020026020010151518160ff16101561055c57888360ff16815181106104f2576104f2610d7e565b60200260200101518160ff168151811061050e5761050e610d7e565b60200260200101518060200190518101906105299190610d94565b828260ff168151811061053e5761053e610d7e565b6020026020010181905250808061055490610e69565b9150506104b5565b50604051806020016040528082815250838360ff168151811061058157610581610d7e565b602002602001018190525050808061059890610e69565b915050610425565b506000858286866040516020016105ba9493929190610efa565b60408051601f198184030181529181528151919250906000906105dd9083610ff8565b6040519091506105fe906327c4cfd960e11b90849084908790602001611011565b604051602081830303815290604052945050505050949350505050565b606060006106298585610284565b915061063886838a8a8761034d565b9050965096945050505050565b60405162461bcd60e51b815260206004820152602660248201527f6765744d65737361676548617368454950313237313a204e4f5420494d504c4560448201527f4d454e5445440000000000000000000000000000000000000000000000000000606482015260009060840160405180910390fd5b634e487b7160e01b600052604160045260246000fd5b6040805190810167ffffffffffffffff811182821017156106f3576106f36106ba565b60405290565b604051601f8201601f1916810167ffffffffffffffff81118282101715610722576107226106ba565b604052919050565b600067ffffffffffffffff821115610744576107446106ba565b50601f01601f191660200190565b600082601f83011261076357600080fd5b81356107766107718261072a565b6106f9565b81815284602083860101111561078b57600080fd5b816020850160208301376000918101602001919091529392505050565b80356001600160a01b03811681146107bf57600080fd5b919050565b600080600080608085870312156107da57600080fd5b843567ffffffffffffffff8111156107f157600080fd5b6107fd87828801610752565b94505061080c602086016107a8565b925060408501359150610821606086016107a8565b905092959194509250565b600067ffffffffffffffff821115610846576108466106ba565b5060051b60200190565b600082601f83011261086157600080fd5b813560206108716107718361082c565b82815260059290921b8401810191818101908684111561089057600080fd5b8286015b8481101561094357803567ffffffffffffffff808211156108b457600080fd5b818901915089603f8301126108c857600080fd5b858201356108d86107718261082c565b81815260059190911b830160400190878101908c8311156108f857600080fd5b604085015b838110156109315780358581111561091457600080fd5b6109238f6040838a0101610752565b8452509189019189016108fd565b50875250505092840192508301610894565b509695505050505050565b6000806040838503121561096157600080fd5b823567ffffffffffffffff81111561097857600080fd5b61098485828601610850565b925050610993602084016107a8565b90509250929050565b60005b838110156109b757818101518382015260200161099f565b50506000910152565b600081518084526109d881602086016020860161099c565b601f01601f19169290920160200192915050565b60208152600061031860208301846109c0565b8035600281106107bf57600080fd5b600082601f830112610a1f57600080fd5b81356020610a2f6107718361082c565b82815260059290921b84018101918181019086841115610a4e57600080fd5b8286015b8481101561094357803567ffffffffffffffff80821115610a735760008081fd5b908801906040828b03601f1901811315610a8d5760008081fd5b610a956106d0565b610aa08885016107a8565b8152908301359082821115610ab55760008081fd5b610ac38c8984870101610752565b818901528652505050918301918301610a52565b600080600080600080600080610100898b031215610af457600080fd5b610afd896107a8565b975060208901359650610b1260408a016109ff565b9550606089013567ffffffffffffffff80821115610b2f57600080fd5b610b3b8c838d01610850565b9650610b4960808c016107a8565b9550610b5760a08c016107a8565b945060c08b0135915080821115610b6d57600080fd5b610b798c838d01610a0e565b935060e08b0135915080821115610b8f57600080fd5b50610b9c8b828c01610a0e565b9150509295985092959890939650565b604081526000610bbf60408301856109c0565b90508260208301529392505050565b600080600080600060a08688031215610be657600080fd5b610bef866109ff565b9450602086013567ffffffffffffffff811115610c0b57600080fd5b610c1788828901610752565b945050610c26604087016107a8565b925060608601359150610c3b608087016107a8565b90509295509295909350565b60008060008060808587031215610c5d57600080fd5b843567ffffffffffffffff80821115610c7557600080fd5b610c8188838901610850565b9550610c8f602088016107a8565b94506040870135915080821115610ca557600080fd5b610cb188838901610a0e565b93506060870135915080821115610cc757600080fd5b50610cd487828801610a0e565b91505092959194509250565b60008060008060008060c08789031215610cf957600080fd5b610d02876107a8565b955060208701359450610d17604088016109ff565b9350606087013567ffffffffffffffff811115610d3357600080fd5b610d3f89828a01610850565b935050610d4e608088016107a8565b9150610d5c60a088016107a8565b90509295509295509295565b634e487b7160e01b600052602160045260246000fd5b634e487b7160e01b600052603260045260246000fd5b60006020808385031215610da757600080fd5b825167ffffffffffffffff80821115610dbf57600080fd5b9084019060408287031215610dd357600080fd5b610ddb6106d0565b825182811115610dea57600080fd5b83019150601f82018713610dfd57600080fd5b8151610e0b6107718261072a565b8181528886838601011115610e1f57600080fd5b610e2e8287830188870161099c565b82525091830151918215158314610e4457600080fd5b92830191909152509392505050565b634e487b7160e01b600052601160045260246000fd5b600060ff821660ff8103610e7f57610e7f610e53565b60010192915050565b600081518084526020808501808196508360051b8101915082860160005b85811015610eed578284038952815180516001600160a01b031685528501516040868601819052610ed9818701836109c0565b9a87019a9550505090840190600101610ea6565b5091979650505050505050565b6000608082016001600160a01b0387168352602060808185015281875180845260a0860191506005935060a081851b870101838a016000805b84811015610fc057898403609f1901865282515187855280518886018190529088019060409081870190808c1b88018301865b82811015610fa957898203603f1901845285518051868452610f8a878501826109c0565b918f01511515938f0193909352958d0195938d01939150600101610f66565b50998b019997505050938801935050600101610f33565b5050508681036040880152610fd5818a610e88565b9450505050508281036060840152610fed8185610e88565b979650505050505050565b8082018082111561100b5761100b610e53565b92915050565b63ffffffff60e01b851681528360048201528260248201526000825161103e81604485016020870161099c565b919091016044019594505050505056fea164736f6c6343000811000a",
    "linkReferences": {}
  },
  "methodIdentifiers": {
    "declaration(address,uint256,uint8,bytes[][],address,address)": "7be49ee3",
    "declaration(address,uint256,uint8,bytes[][],address,address,(address,bytes)[],(address,bytes)[])": "499839c9",
    "declarationData(bytes[][],address)": "3b1ee151",
    "declarationData(bytes[][],address,(address,bytes)[],(address,bytes)[])": "6441c269",
    "getMessageHash(uint8,bytes,address,uint256,address)": "5f01a75a",
    "getMessageHashEIP1271(bytes,address,uint256,address)": "f557887a",
    "getMessageHashEIP712(bytes,address,uint256,address)": "2d6ddaa7"
  },
  "id": 43
}