{
  "abi": [
    {
      "inputs": [
        {
          "internalType": "uint256",
          "name": "remainingInput",
          "type": "uint256"
        }
      ],
      "name": "MaxInputExceeded",
      "type": "error"
    },
    {
      "inputs": [],
      "name": "Q96",
      "outputs": [
        {
          "internalType": "uint256",
          "name": "",
          "type": "uint256"
        }
      ],
      "stateMutability": "view",
      "type": "function"
    },
    {
      "inputs": [
        {
          "internalType": "bytes",
          "name": "curvePriceData",
          "type": "bytes"
        }
      ],
      "name": "calcCurveParams",
      "outputs": [
        {
          "internalType": "bytes",
          "name": "curveParams",
          "type": "bytes"
        }
      ],
      "stateMutability": "pure",
      "type": "function"
    },
    {
      "inputs": [
        {
          "internalType": "int256",
          "name": "numerator",
          "type": "int256"
        },
        {
          "internalType": "int256",
          "name": "denominator",
          "type": "int256"
        }
      ],
      "name": "calcMultiplier",
      "outputs": [
        {
          "internalType": "uint256",
          "name": "multiplier",
          "type": "uint256"
        }
      ],
      "stateMutability": "pure",
      "type": "function"
    },
    {
      "inputs": [
        {
          "internalType": "uint256",
          "name": "input",
          "type": "uint256"
        },
        {
          "internalType": "bytes",
          "name": "curveParams",
          "type": "bytes"
        }
      ],
      "name": "calcOutput",
      "outputs": [
        {
          "internalType": "uint256",
          "name": "output",
          "type": "uint256"
        }
      ],
      "stateMutability": "pure",
      "type": "function"
    },
    {
      "inputs": [
        {
          "internalType": "uint256",
          "name": "totalInput",
          "type": "uint256"
        },
        {
          "internalType": "uint256",
          "name": "filledInput",
          "type": "uint256"
        },
        {
          "internalType": "uint256",
          "name": "input",
          "type": "uint256"
        },
        {
          "internalType": "bytes",
          "name": "curveParams",
          "type": "bytes"
        }
      ],
      "name": "getOutput",
      "outputs": [
        {
          "internalType": "uint256",
          "name": "output",
          "type": "uint256"
        }
      ],
      "stateMutability": "pure",
      "type": "function"
    },
    {
      "inputs": [
        {
          "internalType": "uint256",
          "name": "x",
          "type": "uint256"
        }
      ],
      "name": "magnitude",
      "outputs": [
        {
          "internalType": "uint256",
          "name": "",
          "type": "uint256"
        }
      ],
      "stateMutability": "pure",
      "type": "function"
    },
    {
      "inputs": [
        {
          "internalType": "uint8",
          "name": "a",
          "type": "uint8"
        },
        {
          "internalType": "uint8",
          "name": "b",
          "type": "uint8"
        }
      ],
      "name": "minUint8",
      "outputs": [
        {
          "internalType": "uint8",
          "name": "",
          "type": "uint8"
        }
      ],
      "stateMutability": "pure",
      "type": "function"
    },
    {
      "inputs": [
        {
          "internalType": "uint256",
          "name": "x",
          "type": "uint256"
        }
      ],
      "name": "pow10",
      "outputs": [
        {
          "internalType": "uint256",
          "name": "",
          "type": "uint256"
        }
      ],
      "stateMutability": "pure",
      "type": "function"
    }
  ],
  "bytecode": {
    "object": "0x608060405234801561001057600080fd5b5061095f806100206000396000f3fe608060405234801561001057600080fd5b50600436106100885760003560e01c80632ba96f631161005b5780632ba96f63146100fe57806340792465146101115780635d76bcc614610125578063e4e826821461014557600080fd5b80630ab78a8d1461008d578063193f63c1146100b75780631b3249a2146100d85780632959a5b2146100eb575b600080fd5b6100a061009b366004610483565b610158565b60405160ff90911681526020015b60405180910390f35b6100ca6100c5366004610559565b610178565b6040519081526020016100ae565b6100ca6100e63660046105b3565b6101bf565b6100ca6100f93660046105cc565b61021b565b6100ca61010c3660046105b3565b61028c565b6100ca6c0100000000000000000000000081565b6101386101333660046105ee565b6102ef565b6040516100ae919061062b565b6100ca610153366004610679565b6103b3565b60008160ff168360ff161061016d578161016f565b825b90505b92915050565b600061018585858561041a565b600061019185846103b3565b905060006101a86101a286886106d6565b856103b3565b90506101b482826106e9565b979650505050505050565b60006001600a5b8315610214576101d7600285610712565b6001036101fc576101e88183610726565b91506101f56001856106e9565b93506101c6565b6102068180610726565b9050600184901c93506101c6565b5092915050565b6001600061022b61010c85610456565b9050600061023b61010c85610456565b90506000610249828461073d565b905060128160000b121561028357600061027261026783601261073d565b61009b86604b61075e565b905061027f81600a61085b565b9450505b50505092915050565b600080821161029a57600080fd5b6000604d5b8181111561021457600060016102b583856106d6565b6102c09060016106d6565b901c90506102cd816101bf565b85106102db578092506102e9565b6102e66001826106e9565b91505b5061029f565b606060008060008480602001905181019061030a919061086a565b91945092509050600061031d8383610898565b90506000600261032d86826108b8565b6103379190610898565b90506000610345838361021b565b905060008261035483866108b8565b61035e91906108e8565b905060008161036d84896108b8565b6103779190610898565b60408051602081018590529081018290526060810185905290915060800160405160208183030381529060405298505050505050505050919050565b600080600080848060200190518101906103cd919061086a565b91945092509050600081836103e289876108b8565b6103ec9190610916565b6103f6919061093e565b90506c010000000000000000000000006104108289610726565b61027f919061093e565b600061042683856106e9565b9050808211156104505760405163375d4aab60e11b81526004810182905260240160405180910390fd5b50505050565b6000808212156104695781600003610172565b5090565b803560ff8116811461047e57600080fd5b919050565b6000806040838503121561049657600080fd5b61049f8361046d565b91506104ad6020840161046d565b90509250929050565b634e487b7160e01b600052604160045260246000fd5b600082601f8301126104dd57600080fd5b813567ffffffffffffffff808211156104f8576104f86104b6565b604051601f8301601f19908116603f01168101908282118183101715610520576105206104b6565b8160405283815286602085880101111561053957600080fd5b836020870160208301376000602085830101528094505050505092915050565b6000806000806080858703121561056f57600080fd5b843593506020850135925060408501359150606085013567ffffffffffffffff81111561059b57600080fd5b6105a7878288016104cc565b91505092959194509250565b6000602082840312156105c557600080fd5b5035919050565b600080604083850312156105df57600080fd5b50508035926020909101359150565b60006020828403121561060057600080fd5b813567ffffffffffffffff81111561061757600080fd5b610623848285016104cc565b949350505050565b600060208083528351808285015260005b818110156106585785810183015185820160400152820161063c565b506000604082860101526040601f19601f8301168501019250505092915050565b6000806040838503121561068c57600080fd5b82359150602083013567ffffffffffffffff8111156106aa57600080fd5b6106b6858286016104cc565b9150509250929050565b634e487b7160e01b600052601160045260246000fd5b80820180821115610172576101726106c0565b81810381811115610172576101726106c0565b634e487b7160e01b600052601260045260246000fd5b600082610721576107216106fc565b500690565b8082028115828204841417610172576101726106c0565b600082810b9082900b03607f198112607f82131715610172576101726106c0565b60ff8281168282160390811115610172576101726106c0565b600181815b808511156107b2578160001904821115610798576107986106c0565b808516156107a557918102915b93841c939080029061077c565b509250929050565b6000826107c957506001610172565b816107d657506000610172565b81600181146107ec57600281146107f657610812565b6001915050610172565b60ff841115610807576108076106c0565b50506001821b610172565b5060208310610133831016604e8410600b8410161715610835575081810a610172565b61083f8383610777565b8060001904821115610853576108536106c0565b029392505050565b600061016f60ff8416836107ba565b60008060006060848603121561087f57600080fd5b8351925060208401519150604084015190509250925092565b8181036000831280158383131683831282161715610214576102146106c0565b80820260008212600160ff1b841416156108d4576108d46106c0565b8181058314821517610172576101726106c0565b6000826108f7576108f76106fc565b600160ff1b821460001984141615610911576109116106c0565b500590565b8082018281126000831280158216821582161715610936576109366106c0565b505092915050565b60008261094d5761094d6106fc565b50049056fea164736f6c6343000811000a",
    "linkReferences": {}
  },
  "methodIdentifiers": {
    "Q96()": "40792465",
    "calcCurveParams(bytes)": "5d76bcc6",
    "calcMultiplier(int256,int256)": "2959a5b2",
    "calcOutput(uint256,bytes)": "e4e82682",
    "getOutput(uint256,uint256,uint256,bytes)": "193f63c1",
    "magnitude(uint256)": "2ba96f63",
    "minUint8(uint8,uint8)": "0ab78a8d",
    "pow10(uint256)": "1b3249a2"
  },
  "id": 47
}