{
  "abi": [
    {
      "inputs": [
        {
          "internalType": "address",
          "name": "owner",
          "type": "address"
        },
        {
          "components": [
            {
              "internalType": "enum TokenStandard",
              "name": "standard",
              "type": "uint8"
            },
            {
              "internalType": "address",
              "name": "addr",
              "type": "address"
            },
            {
              "internalType": "bytes32",
              "name": "idsMerkleRoot",
              "type": "bytes32"
            },
            {
              "internalType": "uint256",
              "name": "id",
              "type": "uint256"
            },
            {
              "internalType": "bool",
              "name": "disallowFlagged",
              "type": "bool"
            }
          ],
          "internalType": "struct Token",
          "name": "tokenIn",
          "type": "tuple"
        },
        {
          "components": [
            {
              "internalType": "enum TokenStandard",
              "name": "standard",
              "type": "uint8"
            },
            {
              "internalType": "address",
              "name": "addr",
              "type": "address"
            },
            {
              "internalType": "bytes32",
              "name": "idsMerkleRoot",
              "type": "bytes32"
            },
            {
              "internalType": "uint256",
              "name": "id",
              "type": "uint256"
            },
            {
              "internalType": "bool",
              "name": "disallowFlagged",
              "type": "bool"
            }
          ],
          "internalType": "struct Token",
          "name": "tokenOut",
          "type": "tuple"
        },
        {
          "internalType": "uint256",
          "name": "tokenInAmount",
          "type": "uint256"
        },
        {
          "internalType": "contract IPriceCurve",
          "name": "priceCurve",
          "type": "address"
        },
        {
          "internalType": "bytes",
          "name": "priceCurveParams",
          "type": "bytes"
        },
        {
          "components": [
            {
              "internalType": "uint64",
              "name": "id",
              "type": "uint64"
            },
            {
              "internalType": "uint128",
              "name": "startX96",
              "type": "uint128"
            },
            {
              "internalType": "bool",
              "name": "sign",
              "type": "bool"
            }
          ],
          "internalType": "struct FillStateParams",
          "name": "fillStateParams",
          "type": "tuple"
        }
      ],
      "name": "limitSwapExactInput",
      "outputs": [
        {
          "internalType": "bytes",
          "name": "",
          "type": "bytes"
        }
      ],
      "stateMutability": "pure",
      "type": "function"
    },
    {
      "inputs": [
        {
          "internalType": "contract IUint256Oracle",
          "name": "priceOracle",
          "type": "address"
        },
        {
          "internalType": "bytes",
          "name": "priceOracleParams",
          "type": "bytes"
        },
        {
          "internalType": "address",
          "name": "owner",
          "type": "address"
        },
        {
          "components": [
            {
              "internalType": "enum TokenStandard",
              "name": "standard",
              "type": "uint8"
            },
            {
              "internalType": "address",
              "name": "addr",
              "type": "address"
            },
            {
              "internalType": "bytes32",
              "name": "idsMerkleRoot",
              "type": "bytes32"
            },
            {
              "internalType": "uint256",
              "name": "id",
              "type": "uint256"
            },
            {
              "internalType": "bool",
              "name": "disallowFlagged",
              "type": "bool"
            }
          ],
          "internalType": "struct Token",
          "name": "tokenIn",
          "type": "tuple"
        },
        {
          "components": [
            {
              "internalType": "enum TokenStandard",
              "name": "standard",
              "type": "uint8"
            },
            {
              "internalType": "address",
              "name": "addr",
              "type": "address"
            },
            {
              "internalType": "bytes32",
              "name": "idsMerkleRoot",
              "type": "bytes32"
            },
            {
              "internalType": "uint256",
              "name": "id",
              "type": "uint256"
            },
            {
              "internalType": "bool",
              "name": "disallowFlagged",
              "type": "bool"
            }
          ],
          "internalType": "struct Token",
          "name": "tokenOut",
          "type": "tuple"
        },
        {
          "internalType": "uint256",
          "name": "tokenInAmount",
          "type": "uint256"
        },
        {
          "internalType": "uint24",
          "name": "feePercent",
          "type": "uint24"
        },
        {
          "internalType": "uint256",
          "name": "feeMinTokenOut",
          "type": "uint256"
        }
      ],
      "name": "marketSwapExactInput",
      "outputs": [
        {
          "internalType": "bytes",
          "name": "",
          "type": "bytes"
        }
      ],
      "stateMutability": "pure",
      "type": "function"
    },
    {
      "inputs": [
        {
          "internalType": "uint256",
          "name": "bitmapIndex",
          "type": "uint256"
        },
        {
          "internalType": "uint256",
          "name": "bit",
          "type": "uint256"
        }
      ],
      "name": "requireBitNotUsed",
      "outputs": [
        {
          "internalType": "bytes",
          "name": "",
          "type": "bytes"
        }
      ],
      "stateMutability": "pure",
      "type": "function"
    },
    {
      "inputs": [
        {
          "internalType": "uint256",
          "name": "bitmapIndex",
          "type": "uint256"
        },
        {
          "internalType": "uint256",
          "name": "bit",
          "type": "uint256"
        }
      ],
      "name": "requireBitUsed",
      "outputs": [
        {
          "internalType": "bytes",
          "name": "",
          "type": "bytes"
        }
      ],
      "stateMutability": "pure",
      "type": "function"
    },
    {
      "inputs": [
        {
          "internalType": "uint256",
          "name": "blockNumber",
          "type": "uint256"
        }
      ],
      "name": "requireBlockMined",
      "outputs": [
        {
          "internalType": "bytes",
          "name": "",
          "type": "bytes"
        }
      ],
      "stateMutability": "pure",
      "type": "function"
    },
    {
      "inputs": [
        {
          "internalType": "uint256",
          "name": "blockNumber",
          "type": "uint256"
        }
      ],
      "name": "requireBlockNotMined",
      "outputs": [
        {
          "internalType": "bytes",
          "name": "",
          "type": "bytes"
        }
      ],
      "stateMutability": "pure",
      "type": "function"
    },
    {
      "inputs": [
        {
          "internalType": "contract IUint256Oracle",
          "name": "uint256Oracle",
          "type": "address"
        },
        {
          "internalType": "bytes",
          "name": "params",
          "type": "bytes"
        },
        {
          "internalType": "uint256",
          "name": "lowerBound",
          "type": "uint256"
        }
      ],
      "name": "requireUint256LowerBound",
      "outputs": [
        {
          "internalType": "bytes",
          "name": "",
          "type": "bytes"
        }
      ],
      "stateMutability": "pure",
      "type": "function"
    },
    {
      "inputs": [
        {
          "internalType": "contract IUint256Oracle",
          "name": "uint256Oracle",
          "type": "address"
        },
        {
          "internalType": "bytes",
          "name": "params",
          "type": "bytes"
        },
        {
          "internalType": "uint256",
          "name": "upperBound",
          "type": "uint256"
        }
      ],
      "name": "requireUint256UpperBound",
      "outputs": [
        {
          "internalType": "bytes",
          "name": "",
          "type": "bytes"
        }
      ],
      "stateMutability": "pure",
      "type": "function"
    },
    {
      "inputs": [
        {
          "internalType": "uint256",
          "name": "bitmapIndex",
          "type": "uint256"
        },
        {
          "internalType": "uint256",
          "name": "bit",
          "type": "uint256"
        }
      ],
      "name": "useBit",
      "outputs": [
        {
          "internalType": "bytes",
          "name": "",
          "type": "bytes"
        }
      ],
      "stateMutability": "pure",
      "type": "function"
    }
  ],
  "bytecode": {
    "object": "0x608060405234801561001057600080fd5b50610b31806100206000396000f3fe608060405234801561001057600080fd5b50600436106100a35760003560e01c806337698a4911610076578063502929ff1161005b578063502929ff14610130578063a9aa5f7e14610143578063bfadb4e61461015657600080fd5b806337698a491461010a57806347244b0d1461011d57600080fd5b806302908ed3146100a85780631041d4ff146100d1578063181233ee146100e45780632b2fc43a146100f7575b600080fd5b6100bb6100b63660046104f2565b610169565b6040516100c89190610551565b60405180910390f35b6100bb6100df36600461064f565b6101ed565b6100bb6100f23660046106a8565b610276565b6100bb61010536600461064f565b610306565b6100bb61011836600461076c565b61032b565b6100bb61012b3660046106a8565b6103cd565b6100bb61013e3660046104f2565b6103fa565b6100bb6101513660046106a8565b610420565b6100bb610164366004610878565b61044d565b6040805180820190915260648101829052606090806302908ed360e01b608482015b60408051601f19818403018152918152602080830180516001600160e01b03166001600160e01b03199095169490941790935290835260009282019290925290516101d7929101610932565b6040516020818303038152906040529050919050565b6040805180820190915260609080631041d4ff60e01b61021287878760648601610966565b60408051601f19818403018152918152602080830180516001600160e01b03166001600160e01b031990951694909417909352908352600092820192909252905161025e929101610932565b60405160208183030381529060405290509392505050565b6040805180820190915260609080630c0919f760e11b6102a3868660648501918252602082015260400190565b60408051601f19818403018152918152602080830180516001600160e01b03166001600160e01b03199095169490941790935290835260009282019290925290516102ef929101610932565b604051602081830303815290604052905092915050565b6040805180820190915260609080631597e21d60e11b61021287878760648601610966565b6040805160008183019081526060808301909352819063085d1eb960e31b90610365908c908c908c908c908c908c908c9060848b016109ee565b60408051601f19818403018152918152602080830180516001600160e01b03166001600160e01b03199095169490941790935290835260019282019290925290516103b1929101610932565b6040516020818303038152906040529050979650505050505050565b60408051808201909152606090806347244b0d60e01b6102a3868660648501918252602082015260400190565b60408051808201909152606481018290526060908063502929ff60e01b6084820161018b565b60408051808201909152606090806354d52fbf60e11b6102a3868660648501918252602082015260400190565b6040805160008183019081526060808301909352819063093b344360e31b90610489908d908d908d908d908d908d908d908d9060848c01610a9e565b60408051601f19818403018152918152602080830180516001600160e01b03166001600160e01b03199095169490941790935290835260019282019290925290516104d5929101610932565b604051602081830303815290604052905098975050505050505050565b60006020828403121561050457600080fd5b5035919050565b6000815180845260005b8181101561053157602081850181015186830182015201610515565b506000602082860101526020601f19601f83011685010191505092915050565b602081526000610564602083018461050b565b9392505050565b6001600160a01b038116811461058057600080fd5b50565b634e487b7160e01b600052604160045260246000fd5b6040516060810167ffffffffffffffff811182821017156105bc576105bc610583565b60405290565b600082601f8301126105d357600080fd5b813567ffffffffffffffff808211156105ee576105ee610583565b604051601f8301601f19908116603f0116810190828211818310171561061657610616610583565b8160405283815286602085880101111561062f57600080fd5b836020870160208301376000602085830101528094505050505092915050565b60008060006060848603121561066457600080fd5b833561066f8161056b565b9250602084013567ffffffffffffffff81111561068b57600080fd5b610697868287016105c2565b925050604084013590509250925092565b600080604083850312156106bb57600080fd5b50508035926020909101359150565b803580151581146106da57600080fd5b919050565b600060a082840312156106f157600080fd5b60405160a0810181811067ffffffffffffffff8211171561071457610714610583565b60405290508082356004811061072957600080fd5b815260208301356107398161056b565b806020830152506040830135604082015260608301356060820152610760608084016106ca565b60808201525092915050565b600080600080600080600087890361022081121561078957600080fd5b88356107948161056b565b97506107a38a60208b016106df565b96506107b28a60c08b016106df565b955061016089013594506101808901356107cb8161056b565b93506101a089013567ffffffffffffffff808211156107e957600080fd5b6107f58c838d016105c2565b945060606101bf198401121561080a57600080fd5b610812610599565b92506101c08b01359150808216821461082a57600080fd5b5081526101e08901356fffffffffffffffffffffffffffffffff8116811461085157600080fd5b60208201526108636102008a016106ca565b60408201528091505092959891949750929550565b600080600080600080600080610200898b03121561089557600080fd5b88356108a08161056b565b9750602089013567ffffffffffffffff8111156108bc57600080fd5b6108c88b828c016105c2565b97505060408901356108d98161056b565b95506108e88a60608b016106df565b94506108f88a6101008b016106df565b93506101a089013592506101c089013562ffffff8116811461091957600080fd5b809250506101e089013590509295985092959890939650565b60208152600082516040602084015261094e606084018261050b565b90506020840151151560408401528091505092915050565b6001600160a01b0384168152606060208201526000610988606083018561050b565b9050826040830152949350505050565b8051600481106109b857634e487b7160e01b600052602160045260246000fd5b82526020818101516001600160a01b03169083015260408082015190830152606080820151908301526080908101511515910152565b60006102406001600160a01b03808c168452610a0d602085018c610998565b610a1a60c085018b610998565b8861016085015280881661018085015250806101a0840152610a3e8184018761050b565b905067ffffffffffffffff8551166101c08401526fffffffffffffffffffffffffffffffff6020860151166101e084015260408501511515610200840152828103610220840152610a8f818561050b565b9b9a5050505050505050505050565b60006102206001600160a01b03808d168452816020850152610ac28285018d61050b565b908b1660408501529050610ad9606084018a610998565b610ae7610100840189610998565b866101a084015262ffffff86166101c0840152846101e0840152828103610200840152610b14818561050b565b9c9b50505050505050505050505056fea164736f6c6343000811000a",
    "linkReferences": {}
  },
  "methodIdentifiers": {
    "limitSwapExactInput(address,(uint8,address,bytes32,uint256,bool),(uint8,address,bytes32,uint256,bool),uint256,address,bytes,(uint64,uint128,bool))": "37698a49",
    "marketSwapExactInput(address,bytes,address,(uint8,address,bytes32,uint256,bool),(uint8,address,bytes32,uint256,bool),uint256,uint24,uint256)": "bfadb4e6",
    "requireBitNotUsed(uint256,uint256)": "181233ee",
    "requireBitUsed(uint256,uint256)": "47244b0d",
    "requireBlockMined(uint256)": "02908ed3",
    "requireBlockNotMined(uint256)": "502929ff",
    "requireUint256LowerBound(address,bytes,uint256)": "2b2fc43a",
    "requireUint256UpperBound(address,bytes,uint256)": "1041d4ff",
    "useBit(uint256,uint256)": "a9aa5f7e"
  },
  "id": 52
}