{
  "abi": [
    {
      "inputs": [
        {
          "internalType": "contract IUint256Oracle",
          "name": "priceOracle",
          "type": "address"
        },
        {
          "internalType": "bytes",
          "name": "priceOracleParams",
          "type": "bytes"
        },
        {
          "internalType": "address",
          "name": "owner",
          "type": "address"
        },
        {
          "components": [
            {
              "internalType": "enum TokenStandard",
              "name": "standard",
              "type": "uint8"
            },
            {
              "internalType": "address",
              "name": "addr",
              "type": "address"
            },
            {
              "internalType": "bytes32",
              "name": "idsMerkleRoot",
              "type": "bytes32"
            },
            {
              "internalType": "uint256",
              "name": "id",
              "type": "uint256"
            },
            {
              "internalType": "bool",
              "name": "disallowFlagged",
              "type": "bool"
            }
          ],
          "internalType": "struct Token",
          "name": "tokenIn",
          "type": "tuple"
        },
        {
          "components": [
            {
              "internalType": "enum TokenStandard",
              "name": "standard",
              "type": "uint8"
            },
            {
              "internalType": "address",
              "name": "addr",
              "type": "address"
            },
            {
              "internalType": "bytes32",
              "name": "idsMerkleRoot",
              "type": "bytes32"
            },
            {
              "internalType": "uint256",
              "name": "id",
              "type": "uint256"
            },
            {
              "internalType": "bool",
              "name": "disallowFlagged",
              "type": "bool"
            }
          ],
          "internalType": "struct Token",
          "name": "tokenOut",
          "type": "tuple"
        },
        {
          "internalType": "uint256",
          "name": "tokenInAmount",
          "type": "uint256"
        },
        {
          "internalType": "uint24",
          "name": "feePercent",
          "type": "uint24"
        },
        {
          "internalType": "uint256",
          "name": "feeMinTokenOut",
          "type": "uint256"
        }
      ],
      "name": "marketSwapExactInput",
      "outputs": [
        {
          "internalType": "bytes",
          "name": "",
          "type": "bytes"
        }
      ],
      "stateMutability": "pure",
      "type": "function"
    },
    {
      "inputs": [
        {
          "internalType": "uint256",
          "name": "blockNumber",
          "type": "uint256"
        }
      ],
      "name": "requireBlockNotMined",
      "outputs": [
        {
          "internalType": "bytes",
          "name": "",
          "type": "bytes"
        }
      ],
      "stateMutability": "pure",
      "type": "function"
    },
    {
      "inputs": [
        {
          "internalType": "contract IUint256Oracle",
          "name": "uint256Oracle",
          "type": "address"
        },
        {
          "internalType": "bytes",
          "name": "params",
          "type": "bytes"
        },
        {
          "internalType": "uint256",
          "name": "lowerBound",
          "type": "uint256"
        }
      ],
      "name": "requireUint256LowerBound",
      "outputs": [
        {
          "internalType": "bytes",
          "name": "",
          "type": "bytes"
        }
      ],
      "stateMutability": "pure",
      "type": "function"
    },
    {
      "inputs": [
        {
          "internalType": "uint256",
          "name": "bitmapIndex",
          "type": "uint256"
        },
        {
          "internalType": "uint256",
          "name": "bit",
          "type": "uint256"
        }
      ],
      "name": "useBit",
      "outputs": [
        {
          "internalType": "bytes",
          "name": "",
          "type": "bytes"
        }
      ],
      "stateMutability": "pure",
      "type": "function"
    }
  ],
  "bytecode": {
    "object": "0x608060405234801561001057600080fd5b50610756806100206000396000f3fe608060405234801561001057600080fd5b506004361061004c5760003560e01c80632b2fc43a14610051578063502929ff1461007a578063a9aa5f7e1461008d578063bfadb4e6146100a0575b600080fd5b61006461005f366004610397565b6100b3565b6040516100719190610436565b60405180910390f35b610064610088366004610450565b61013c565b61006461009b366004610469565b6101a7565b6100646100ae366004610520565b610237565b6040805180820190915260609080631597e21d60e11b6100d8878787606486016105da565b60408051601f19818403018152918152602080830180516001600160e01b03166001600160e01b031990951694909417909352908352600092820192909252905161012492910161060e565b60405160208183030381529060405290509392505050565b604080518082018252606480820184905282518083039091018152608482018352602080820180516001600160e01b031663502929ff60e01b179052908252600081830152915160609261019192910161060e565b6040516020818303038152906040529050919050565b60408051808201909152606090806354d52fbf60e11b6101d4868660648501918252602082015260400190565b60408051601f19818403018152918152602080830180516001600160e01b03166001600160e01b031990951694909417909352908352600092820192909252905161022092910161060e565b604051602081830303815290604052905092915050565b6040805160008183019081526060808301909352819063093b344360e31b90610273908d908d908d908d908d908d908d908d9060848c01610698565b60408051601f19818403018152918152602080830180516001600160e01b03166001600160e01b03199095169490941790935290835260019282019290925290516102bf92910161060e565b604051602081830303815290604052905098975050505050505050565b6001600160a01b03811681146102f157600080fd5b50565b634e487b7160e01b600052604160045260246000fd5b600082601f83011261031b57600080fd5b813567ffffffffffffffff80821115610336576103366102f4565b604051601f8301601f19908116603f0116810190828211818310171561035e5761035e6102f4565b8160405283815286602085880101111561037757600080fd5b836020870160208301376000602085830101528094505050505092915050565b6000806000606084860312156103ac57600080fd5b83356103b7816102dc565b9250602084013567ffffffffffffffff8111156103d357600080fd5b6103df8682870161030a565b925050604084013590509250925092565b6000815180845260005b81811015610416576020818501810151868301820152016103fa565b506000602082860101526020601f19601f83011685010191505092915050565b60208152600061044960208301846103f0565b9392505050565b60006020828403121561046257600080fd5b5035919050565b6000806040838503121561047c57600080fd5b50508035926020909101359150565b600060a0828403121561049d57600080fd5b60405160a0810181811067ffffffffffffffff821117156104c0576104c06102f4565b6040529050808235600481106104d557600080fd5b815260208301356104e5816102dc565b8060208301525060408301356040820152606083013560608201526080830135801515811461051357600080fd5b6080919091015292915050565b600080600080600080600080610200898b03121561053d57600080fd5b8835610548816102dc565b9750602089013567ffffffffffffffff81111561056457600080fd5b6105708b828c0161030a565b9750506040890135610581816102dc565b95506105908a60608b0161048b565b94506105a08a6101008b0161048b565b93506101a089013592506101c089013562ffffff811681146105c157600080fd5b809250506101e089013590509295985092959890939650565b6001600160a01b03841681526060602082018190526000906105fe908301856103f0565b9050826040830152949350505050565b60208152600082516040602084015261062a60608401826103f0565b90506020840151151560408401528091505092915050565b80516004811061066257634e487b7160e01b600052602160045260246000fd5b82526020818101516001600160a01b03169083015260408082015190830152606080820151908301526080908101511515910152565b6001600160a01b038a81168252610220602083018190526000916106be8483018d6103f0565b908b16604085015290506106d5606084018a610642565b6106e3610100840189610642565b866101a084015262ffffff86166101c0840152846101e084015282810361020084015261071081856103f0565b9c9b50505050505050505050505056fea26469706673582212207e57cff7b09e141894e8bcc7c6debf3af6ceadf50cb8f6d8d809e9159e336a6d64736f6c63430008110033",
    "linkReferences": {}
  },
  "methodIdentifiers": {
    "marketSwapExactInput(address,bytes,address,(uint8,address,bytes32,uint256,bool),(uint8,address,bytes32,uint256,bool),uint256,uint24,uint256)": "bfadb4e6",
    "requireBlockNotMined(uint256)": "502929ff",
    "requireUint256LowerBound(address,bytes,uint256)": "2b2fc43a",
    "useBit(uint256,uint256)": "a9aa5f7e"
  },
  "id": 57
}