{
  "abi": [
    {
      "inputs": [
        {
          "internalType": "uint64",
          "name": "id",
          "type": "uint64"
        },
        {
          "internalType": "uint128",
          "name": "initialStart",
          "type": "uint128"
        },
        {
          "internalType": "uint128",
          "name": "intervalMinSize",
          "type": "uint128"
        },
        {
          "internalType": "uint16",
          "name": "maxIntervals",
          "type": "uint16"
        }
      ],
      "name": "blockInterval",
      "outputs": [
        {
          "internalType": "bytes",
          "name": "",
          "type": "bytes"
        }
      ],
      "stateMutability": "pure",
      "type": "function"
    },
    {
      "inputs": [
        {
          "internalType": "address",
          "name": "owner",
          "type": "address"
        },
        {
          "components": [
            {
              "internalType": "enum TokenStandard",
              "name": "standard",
              "type": "uint8"
            },
            {
              "internalType": "address",
              "name": "addr",
              "type": "address"
            },
            {
              "internalType": "bytes32",
              "name": "idsMerkleRoot",
              "type": "bytes32"
            },
            {
              "internalType": "uint256",
              "name": "id",
              "type": "uint256"
            },
            {
              "internalType": "bool",
              "name": "disallowFlagged",
              "type": "bool"
            }
          ],
          "internalType": "struct Token",
          "name": "tokenIn",
          "type": "tuple"
        },
        {
          "components": [
            {
              "internalType": "enum TokenStandard",
              "name": "standard",
              "type": "uint8"
            },
            {
              "internalType": "address",
              "name": "addr",
              "type": "address"
            },
            {
              "internalType": "bytes32",
              "name": "idsMerkleRoot",
              "type": "bytes32"
            },
            {
              "internalType": "uint256",
              "name": "id",
              "type": "uint256"
            },
            {
              "internalType": "bool",
              "name": "disallowFlagged",
              "type": "bool"
            }
          ],
          "internalType": "struct Token",
          "name": "tokenOut",
          "type": "tuple"
        },
        {
          "internalType": "uint256",
          "name": "tokenInAmount",
          "type": "uint256"
        },
        {
          "internalType": "contract IPriceCurve",
          "name": "priceCurve",
          "type": "address"
        },
        {
          "internalType": "bytes",
          "name": "priceCurveParams",
          "type": "bytes"
        },
        {
          "components": [
            {
              "internalType": "uint64",
              "name": "id",
              "type": "uint64"
            },
            {
              "internalType": "uint128",
              "name": "startX96",
              "type": "uint128"
            },
            {
              "internalType": "bool",
              "name": "sign",
              "type": "bool"
            }
          ],
          "internalType": "struct FillStateParams",
          "name": "fillStateParams",
          "type": "tuple"
        }
      ],
      "name": "limitSwapExactInput",
      "outputs": [
        {
          "internalType": "bytes",
          "name": "",
          "type": "bytes"
        }
      ],
      "stateMutability": "pure",
      "type": "function"
    },
    {
      "inputs": [
        {
          "internalType": "contract IUint256Oracle",
          "name": "priceOracle",
          "type": "address"
        },
        {
          "internalType": "bytes",
          "name": "priceOracleParams",
          "type": "bytes"
        },
        {
          "internalType": "address",
          "name": "owner",
          "type": "address"
        },
        {
          "components": [
            {
              "internalType": "enum TokenStandard",
              "name": "standard",
              "type": "uint8"
            },
            {
              "internalType": "address",
              "name": "addr",
              "type": "address"
            },
            {
              "internalType": "bytes32",
              "name": "idsMerkleRoot",
              "type": "bytes32"
            },
            {
              "internalType": "uint256",
              "name": "id",
              "type": "uint256"
            },
            {
              "internalType": "bool",
              "name": "disallowFlagged",
              "type": "bool"
            }
          ],
          "internalType": "struct Token",
          "name": "tokenIn",
          "type": "tuple"
        },
        {
          "components": [
            {
              "internalType": "enum TokenStandard",
              "name": "standard",
              "type": "uint8"
            },
            {
              "internalType": "address",
              "name": "addr",
              "type": "address"
            },
            {
              "internalType": "bytes32",
              "name": "idsMerkleRoot",
              "type": "bytes32"
            },
            {
              "internalType": "uint256",
              "name": "id",
              "type": "uint256"
            },
            {
              "internalType": "bool",
              "name": "disallowFlagged",
              "type": "bool"
            }
          ],
          "internalType": "struct Token",
          "name": "tokenOut",
          "type": "tuple"
        },
        {
          "internalType": "uint256",
          "name": "tokenInAmount",
          "type": "uint256"
        },
        {
          "internalType": "uint24",
          "name": "feePercent",
          "type": "uint24"
        },
        {
          "internalType": "uint256",
          "name": "feeMinTokenOut",
          "type": "uint256"
        }
      ],
      "name": "marketSwapExactInput",
      "outputs": [
        {
          "internalType": "bytes",
          "name": "",
          "type": "bytes"
        }
      ],
      "stateMutability": "pure",
      "type": "function"
    },
    {
      "inputs": [
        {
          "internalType": "uint256",
          "name": "bitmapIndex",
          "type": "uint256"
        },
        {
          "internalType": "uint256",
          "name": "bit",
          "type": "uint256"
        }
      ],
      "name": "requireBitNotUsed",
      "outputs": [
        {
          "internalType": "bytes",
          "name": "",
          "type": "bytes"
        }
      ],
      "stateMutability": "pure",
      "type": "function"
    },
    {
      "inputs": [
        {
          "internalType": "uint256",
          "name": "bitmapIndex",
          "type": "uint256"
        },
        {
          "internalType": "uint256",
          "name": "bit",
          "type": "uint256"
        }
      ],
      "name": "requireBitUsed",
      "outputs": [
        {
          "internalType": "bytes",
          "name": "",
          "type": "bytes"
        }
      ],
      "stateMutability": "pure",
      "type": "function"
    },
    {
      "inputs": [
        {
          "internalType": "uint256",
          "name": "blockNumber",
          "type": "uint256"
        }
      ],
      "name": "requireBlockMined",
      "outputs": [
        {
          "internalType": "bytes",
          "name": "",
          "type": "bytes"
        }
      ],
      "stateMutability": "pure",
      "type": "function"
    },
    {
      "inputs": [
        {
          "internalType": "uint256",
          "name": "blockNumber",
          "type": "uint256"
        }
      ],
      "name": "requireBlockNotMined",
      "outputs": [
        {
          "internalType": "bytes",
          "name": "",
          "type": "bytes"
        }
      ],
      "stateMutability": "pure",
      "type": "function"
    },
    {
      "inputs": [
        {
          "internalType": "contract IUint256Oracle",
          "name": "uint256Oracle",
          "type": "address"
        },
        {
          "internalType": "bytes",
          "name": "params",
          "type": "bytes"
        },
        {
          "internalType": "uint256",
          "name": "lowerBound",
          "type": "uint256"
        }
      ],
      "name": "requireUint256LowerBound",
      "outputs": [
        {
          "internalType": "bytes",
          "name": "",
          "type": "bytes"
        }
      ],
      "stateMutability": "pure",
      "type": "function"
    },
    {
      "inputs": [
        {
          "internalType": "contract IUint256Oracle",
          "name": "uint256Oracle",
          "type": "address"
        },
        {
          "internalType": "bytes",
          "name": "params",
          "type": "bytes"
        },
        {
          "internalType": "uint256",
          "name": "upperBound",
          "type": "uint256"
        }
      ],
      "name": "requireUint256UpperBound",
      "outputs": [
        {
          "internalType": "bytes",
          "name": "",
          "type": "bytes"
        }
      ],
      "stateMutability": "pure",
      "type": "function"
    },
    {
      "inputs": [
        {
          "internalType": "uint256",
          "name": "bitmapIndex",
          "type": "uint256"
        },
        {
          "internalType": "uint256",
          "name": "bit",
          "type": "uint256"
        }
      ],
      "name": "useBit",
      "outputs": [
        {
          "internalType": "bytes",
          "name": "",
          "type": "bytes"
        }
      ],
      "stateMutability": "pure",
      "type": "function"
    }
  ],
  "bytecode": {
    "object": "0x608060405234801561001057600080fd5b50610c76806100206000396000f3fe608060405234801561001057600080fd5b50600436106100be5760003560e01c806347244b0d11610076578063a9aa5f7e1161005b578063a9aa5f7e1461015e578063bfadb4e614610171578063e640b88e1461018457600080fd5b806347244b0d14610138578063502929ff1461014b57600080fd5b8063181233ee116100a7578063181233ee146100ff5780632b2fc43a1461011257806337698a491461012557600080fd5b806302908ed3146100c35780631041d4ff146100ec575b600080fd5b6100d66100d13660046105c4565b610197565b6040516100e39190610623565b60405180910390f35b6100d66100fa366004610721565b61021b565b6100d661010d36600461077a565b6102a4565b6100d6610120366004610721565b610334565b6100d6610133366004610876565b610359565b6100d661014636600461077a565b6103fb565b6100d66101593660046105c4565b610428565b6100d661016c36600461077a565b61044e565b6100d661017f366004610960565b61047b565b6100d6610192366004610a1a565b610520565b6040805180820190915260648101829052606090806302908ed360e01b608482015b60408051601f19818403018152918152602080830180516001600160e01b03166001600160e01b0319909516949094179093529083526000928201929092529051610205929101610a77565b6040516020818303038152906040529050919050565b6040805180820190915260609080631041d4ff60e01b61024087878760648601610aab565b60408051601f19818403018152918152602080830180516001600160e01b03166001600160e01b031990951694909417909352908352600092820192909252905161028c929101610a77565b60405160208183030381529060405290509392505050565b6040805180820190915260609080630c0919f760e11b6102d1868660648501918252602082015260400190565b60408051601f19818403018152918152602080830180516001600160e01b03166001600160e01b031990951694909417909352908352600092820192909252905161031d929101610a77565b604051602081830303815290604052905092915050565b6040805180820190915260609080631597e21d60e11b61024087878760648601610aab565b6040805160008183019081526060808301909352819063085d1eb960e31b90610393908c908c908c908c908c908c908c9060848b01610b33565b60408051601f19818403018152918152602080830180516001600160e01b03166001600160e01b03199095169490941790935290835260019282019290925290516103df929101610a77565b6040516020818303038152906040529050979650505050505050565b60408051808201909152606090806347244b0d60e01b6102d1868660648501918252602082015260400190565b60408051808201909152606481018290526060908063502929ff60e01b608482016101b9565b60408051808201909152606090806354d52fbf60e11b6102d1868660648501918252602082015260400190565b6040805160008183019081526060808301909352819063093b344360e31b906104b7908d908d908d908d908d908d908d908d9060848c01610be3565b60408051601f19818403018152918152602080830180516001600160e01b03166001600160e01b0319909516949094179093529083526001928201929092529051610503929101610a77565b604051602081830303815290604052905098975050505050505050565b60408051808201825267ffffffffffffffff861660648201526fffffffffffffffffffffffffffffffff8581166084830152841660a482015261ffff831660c4808301919091528251808303909101815260e482018352602080820180516001600160e01b03166373205c4760e11b17905290825260008183015291516060926105ab929101610a77565b6040516020818303038152906040529050949350505050565b6000602082840312156105d657600080fd5b5035919050565b6000815180845260005b81811015610603576020818501810151868301820152016105e7565b506000602082860101526020601f19601f83011685010191505092915050565b60208152600061063660208301846105dd565b9392505050565b6001600160a01b038116811461065257600080fd5b50565b634e487b7160e01b600052604160045260246000fd5b6040516060810167ffffffffffffffff8111828210171561068e5761068e610655565b60405290565b600082601f8301126106a557600080fd5b813567ffffffffffffffff808211156106c0576106c0610655565b604051601f8301601f19908116603f011681019082821181831017156106e8576106e8610655565b8160405283815286602085880101111561070157600080fd5b836020870160208301376000602085830101528094505050505092915050565b60008060006060848603121561073657600080fd5b83356107418161063d565b9250602084013567ffffffffffffffff81111561075d57600080fd5b61076986828701610694565b925050604084013590509250925092565b6000806040838503121561078d57600080fd5b50508035926020909101359150565b803580151581146107ac57600080fd5b919050565b600060a082840312156107c357600080fd5b60405160a0810181811067ffffffffffffffff821117156107e6576107e6610655565b6040529050808235600481106107fb57600080fd5b8152602083013561080b8161063d565b8060208301525060408301356040820152606083013560608201526108326080840161079c565b60808201525092915050565b803567ffffffffffffffff811681146107ac57600080fd5b80356fffffffffffffffffffffffffffffffff811681146107ac57600080fd5b600080600080600080600087890361022081121561089357600080fd5b883561089e8161063d565b97506108ad8a60208b016107b1565b96506108bc8a60c08b016107b1565b955061016089013594506101808901356108d58161063d565b93506101a089013567ffffffffffffffff8111156108f257600080fd5b6108fe8b828c01610694565b93505060606101bf198201121561091457600080fd5b5061091d61066b565b61092a6101c08a0161083e565b81526109396101e08a01610856565b602082015261094b6102008a0161079c565b60408201528091505092959891949750929550565b600080600080600080600080610200898b03121561097d57600080fd5b88356109888161063d565b9750602089013567ffffffffffffffff8111156109a457600080fd5b6109b08b828c01610694565b97505060408901356109c18161063d565b95506109d08a60608b016107b1565b94506109e08a6101008b016107b1565b93506101a089013592506101c089013562ffffff81168114610a0157600080fd5b809250506101e089013590509295985092959890939650565b60008060008060808587031215610a3057600080fd5b610a398561083e565b9350610a4760208601610856565b9250610a5560408601610856565b9150606085013561ffff81168114610a6c57600080fd5b939692955090935050565b602081526000825160406020840152610a9360608401826105dd565b90506020840151151560408401528091505092915050565b6001600160a01b0384168152606060208201526000610acd60608301856105dd565b9050826040830152949350505050565b805160048110610afd57634e487b7160e01b600052602160045260246000fd5b82526020818101516001600160a01b03169083015260408082015190830152606080820151908301526080908101511515910152565b60006102406001600160a01b03808c168452610b52602085018c610add565b610b5f60c085018b610add565b8861016085015280881661018085015250806101a0840152610b83818401876105dd565b905067ffffffffffffffff8551166101c08401526fffffffffffffffffffffffffffffffff6020860151166101e084015260408501511515610200840152828103610220840152610bd481856105dd565b9b9a5050505050505050505050565b60006102206001600160a01b03808d168452816020850152610c078285018d6105dd565b908b1660408501529050610c1e606084018a610add565b610c2c610100840189610add565b866101a084015262ffffff86166101c0840152846101e0840152828103610200840152610c5981856105dd565b9c9b50505050505050505050505056fea164736f6c6343000811000a",
    "linkReferences": {}
  },
  "methodIdentifiers": {
    "blockInterval(uint64,uint128,uint128,uint16)": "e640b88e",
    "limitSwapExactInput(address,(uint8,address,bytes32,uint256,bool),(uint8,address,bytes32,uint256,bool),uint256,address,bytes,(uint64,uint128,bool))": "37698a49",
    "marketSwapExactInput(address,bytes,address,(uint8,address,bytes32,uint256,bool),(uint8,address,bytes32,uint256,bool),uint256,uint24,uint256)": "bfadb4e6",
    "requireBitNotUsed(uint256,uint256)": "181233ee",
    "requireBitUsed(uint256,uint256)": "47244b0d",
    "requireBlockMined(uint256)": "02908ed3",
    "requireBlockNotMined(uint256)": "502929ff",
    "requireUint256LowerBound(address,bytes,uint256)": "2b2fc43a",
    "requireUint256UpperBound(address,bytes,uint256)": "1041d4ff",
    "useBit(uint256,uint256)": "a9aa5f7e"
  },
  "id": 58
}