{
  "abi": [
    {
      "inputs": [
        {
          "internalType": "uint256",
          "name": "remainingInput",
          "type": "uint256"
        }
      ],
      "name": "MaxInputExceeded",
      "type": "error"
    },
    {
      "inputs": [],
      "name": "Q96",
      "outputs": [
        {
          "internalType": "uint256",
          "name": "",
          "type": "uint256"
        }
      ],
      "stateMutability": "view",
      "type": "function"
    },
    {
      "inputs": [
        {
          "internalType": "bytes",
          "name": "curvePriceData",
          "type": "bytes"
        }
      ],
      "name": "calcCurveParams",
      "outputs": [
        {
          "internalType": "bytes",
          "name": "curveParams",
          "type": "bytes"
        }
      ],
      "stateMutability": "pure",
      "type": "function"
    },
    {
      "inputs": [
        {
          "internalType": "int256",
          "name": "numerator",
          "type": "int256"
        },
        {
          "internalType": "int256",
          "name": "denominator",
          "type": "int256"
        }
      ],
      "name": "calcMultiplier",
      "outputs": [
        {
          "internalType": "uint256",
          "name": "multiplier",
          "type": "uint256"
        }
      ],
      "stateMutability": "pure",
      "type": "function"
    },
    {
      "inputs": [
        {
          "internalType": "uint256",
          "name": "input",
          "type": "uint256"
        },
        {
          "internalType": "bytes",
          "name": "curveParams",
          "type": "bytes"
        }
      ],
      "name": "calcOutput",
      "outputs": [
        {
          "internalType": "uint256",
          "name": "output",
          "type": "uint256"
        }
      ],
      "stateMutability": "pure",
      "type": "function"
    },
    {
      "inputs": [
        {
          "internalType": "uint256",
          "name": "totalInput",
          "type": "uint256"
        },
        {
          "internalType": "uint256",
          "name": "filledInput",
          "type": "uint256"
        },
        {
          "internalType": "uint256",
          "name": "input",
          "type": "uint256"
        },
        {
          "internalType": "bytes",
          "name": "curveParams",
          "type": "bytes"
        }
      ],
      "name": "getOutput",
      "outputs": [
        {
          "internalType": "uint256",
          "name": "output",
          "type": "uint256"
        }
      ],
      "stateMutability": "pure",
      "type": "function"
    },
    {
      "inputs": [
        {
          "internalType": "uint256",
          "name": "x",
          "type": "uint256"
        }
      ],
      "name": "magnitude",
      "outputs": [
        {
          "internalType": "uint256",
          "name": "",
          "type": "uint256"
        }
      ],
      "stateMutability": "pure",
      "type": "function"
    },
    {
      "inputs": [
        {
          "internalType": "uint8",
          "name": "a",
          "type": "uint8"
        },
        {
          "internalType": "uint8",
          "name": "b",
          "type": "uint8"
        }
      ],
      "name": "minUint8",
      "outputs": [
        {
          "internalType": "uint8",
          "name": "",
          "type": "uint8"
        }
      ],
      "stateMutability": "pure",
      "type": "function"
    },
    {
      "inputs": [
        {
          "internalType": "uint256",
          "name": "x",
          "type": "uint256"
        }
      ],
      "name": "pow10",
      "outputs": [
        {
          "internalType": "uint256",
          "name": "",
          "type": "uint256"
        }
      ],
      "stateMutability": "pure",
      "type": "function"
    }
  ],
  "bytecode": {
    "object": "0x608060405234801561001057600080fd5b50610aa8806100206000396000f3fe608060405234801561001057600080fd5b50600436106100885760003560e01c80632ba96f631161005b5780632ba96f63146100fe57806340792465146101115780635d76bcc614610125578063e4e826821461014557600080fd5b80630ab78a8d1461008d578063193f63c1146100b75780631b3249a2146100d85780632959a5b2146100eb575b600080fd5b6100a061009b3660046104a3565b610158565b60405160ff90911681526020015b60405180910390f35b6100ca6100c5366004610579565b610178565b6040519081526020016100ae565b6100ca6100e63660046105d3565b6101bf565b6100ca6100f93660046105ec565b61021b565b6100ca61010c3660046105d3565b61028c565b6100ca6c0100000000000000000000000081565b61013861013336600461060e565b6102ef565b6040516100ae919061064b565b6100ca610153366004610699565b6103c8565b60008160ff168360ff161061016d578161016f565b825b90505b92915050565b600061018585858561043a565b600061019185846103c8565b905060006101a86101a286886106f6565b856103c8565b90506101b48282610709565b979650505050505050565b60006001600a5b8315610214576101d7600285610732565b6001036101fc576101e88183610746565b91506101f5600185610709565b93506101c6565b6102068180610746565b9050600184901c93506101c6565b5092915050565b6001600061022b61010c85610476565b9050600061023b61010c85610476565b90506000610249828461075d565b905060128160000b121561028357600061027261026783601261075d565b61009b86604b61077e565b905061027f81600a6108c7565b9450505b50505092915050565b600080821161029a57600080fd5b6000604d5b8181111561021457600060016102b583856106f6565b6102c09060016106f6565b901c90506102cd816101bf565b85106102db578092506102e9565b6102e6600182610709565b91505b5061029f565b606060008060008480602001905181019061030a91906108d6565b91945092509050600061031d8284610904565b9050600061032c6002866109f2565b610337906003610a01565b610342866003610a01565b61034c9190610904565b9050600061035a838361021b565b90506000826103698386610a01565b6103739190610a31565b90506000816103828489610a01565b61038c9190610904565b60408051602081018590529081018290526060810185905290915060800160405160208183030381529060405298505050505050505050919050565b600080600080848060200190518101906103e291906108d6565b91945092509050600081836103f860028a6109f2565b6104029087610a01565b61040c9190610a5f565b6104169190610a87565b90506c010000000000000000000000006104308289610746565b61027f9190610a87565b60006104468385610709565b9050808211156104705760405163375d4aab60e11b81526004810182905260240160405180910390fd5b50505050565b6000808212156104895781600003610172565b5090565b803560ff8116811461049e57600080fd5b919050565b600080604083850312156104b657600080fd5b6104bf8361048d565b91506104cd6020840161048d565b90509250929050565b634e487b7160e01b600052604160045260246000fd5b600082601f8301126104fd57600080fd5b813567ffffffffffffffff80821115610518576105186104d6565b604051601f8301601f19908116603f01168101908282118183101715610540576105406104d6565b8160405283815286602085880101111561055957600080fd5b836020870160208301376000602085830101528094505050505092915050565b6000806000806080858703121561058f57600080fd5b843593506020850135925060408501359150606085013567ffffffffffffffff8111156105bb57600080fd5b6105c7878288016104ec565b91505092959194509250565b6000602082840312156105e557600080fd5b5035919050565b600080604083850312156105ff57600080fd5b50508035926020909101359150565b60006020828403121561062057600080fd5b813567ffffffffffffffff81111561063757600080fd5b610643848285016104ec565b949350505050565b600060208083528351808285015260005b818110156106785785810183015185820160400152820161065c565b506000604082860101526040601f19601f8301168501019250505092915050565b600080604083850312156106ac57600080fd5b82359150602083013567ffffffffffffffff8111156106ca57600080fd5b6106d6858286016104ec565b9150509250929050565b634e487b7160e01b600052601160045260246000fd5b80820180821115610172576101726106e0565b81810381811115610172576101726106e0565b634e487b7160e01b600052601260045260246000fd5b6000826107415761074161071c565b500690565b8082028115828204841417610172576101726106e0565b600082810b9082900b03607f198112607f82131715610172576101726106e0565b60ff8281168282160390811115610172576101726106e0565b600181815b808511156107d25781600019048211156107b8576107b86106e0565b808516156107c557918102915b93841c939080029061079c565b509250929050565b80825b60018086116107ec575061081e565b816001600160ff1b0304821115610805576108056106e0565b8086161561081257918102915b9490941c9380026107dd565b935093915050565b60008261083557506001610172565b8161084257506000610172565b816001811461085857600281146108625761087e565b6001915050610172565b60ff841115610873576108736106e0565b50506001821b610172565b5060208310610133831016604e8410600b84101617156108a1575081810a610172565b6108ab8383610797565b80600019048211156108bf576108bf6106e0565b029392505050565b600061016f60ff841683610826565b6000806000606084860312156108eb57600080fd5b8351925060208401519150604084015190509250925092565b8181036000831280158383131683831282161715610214576102146106e0565b6000828015610858576001810361093e5782915050610172565b508161094c57506000610172565b506001600082138082146109655780156109835761099c565b826001600160ff1b030483111561097e5761097e6106e0565b61099c565b826001600160ff1b030583121561099c5761099c6106e0565b50808316156109a85750805b6109b88360011c838402836107da565b806001600160ff1b030482116000831316156109d6576109d66106e0565b60008212600160ff1b829005831216156108bf576108bf6106e0565b600061016f60ff841683610924565b80820260008212600160ff1b84141615610a1d57610a1d6106e0565b8181058314821517610172576101726106e0565b600082610a4057610a4061071c565b600160ff1b821460001984141615610a5a57610a5a6106e0565b500590565b8082018281126000831280158216821582161715610a7f57610a7f6106e0565b505092915050565b600082610a9657610a9661071c565b50049056fea164736f6c6343000811000a",
    "linkReferences": {}
  },
  "methodIdentifiers": {
    "Q96()": "40792465",
    "calcCurveParams(bytes)": "5d76bcc6",
    "calcMultiplier(int256,int256)": "2959a5b2",
    "calcOutput(uint256,bytes)": "e4e82682",
    "getOutput(uint256,uint256,uint256,bytes)": "193f63c1",
    "magnitude(uint256)": "2ba96f63",
    "minUint8(uint8,uint8)": "0ab78a8d",
    "pow10(uint256)": "1b3249a2"
  },
  "id": 49
}