{
    "abi": [
        {
            "inputs": [],
            "name": "AtLeastOneIdRequired",
            "type": "error"
        },
        {
            "inputs": [],
            "name": "BitNotUsed",
            "type": "error"
        },
        {
            "inputs": [],
            "name": "BitUsed",
            "type": "error"
        },
        {
            "inputs": [],
            "name": "BitUsed",
            "type": "error"
        },
        {
            "inputs": [],
            "name": "BlockIntervalTooShort",
            "type": "error"
        },
        {
            "inputs": [],
            "name": "BlockMined",
            "type": "error"
        },
        {
            "inputs": [],
            "name": "BlockNotMined",
            "type": "error"
        },
        {
            "inputs": [],
            "name": "DuplicateIds",
            "type": "error"
        },
        {
            "inputs": [],
            "name": "IdMismatch",
            "type": "error"
        },
        {
            "inputs": [],
            "name": "IdsLengthZero",
            "type": "error"
        },
        {
            "inputs": [],
            "name": "InvalidBit",
            "type": "error"
        },
        {
            "inputs": [],
            "name": "InvalidMerkleProof",
            "type": "error"
        },
        {
            "inputs": [
                {
                    "internalType": "address",
                    "name": "solver",
                    "type": "address"
                }
            ],
            "name": "InvalidSolver",
            "type": "error"
        },
        {
            "inputs": [],
            "name": "MaxBlockIntervals",
            "type": "error"
        },
        {
            "inputs": [],
            "name": "NftIdAlreadyOwned",
            "type": "error"
        },
        {
            "inputs": [
                {
                    "internalType": "uint256",
                    "name": "amountReceived",
                    "type": "uint256"
                }
            ],
            "name": "NotEnoughTokenReceived",
            "type": "error"
        },
        {
            "inputs": [],
            "name": "OracleUint256ReadZero",
            "type": "error"
        },
        {
            "inputs": [
                {
                    "internalType": "uint256",
                    "name": "oraclePrice",
                    "type": "uint256"
                }
            ],
            "name": "Uint256LowerBoundNotMet",
            "type": "error"
        },
        {
            "inputs": [
                {
                    "internalType": "uint256",
                    "name": "oraclePrice",
                    "type": "uint256"
                }
            ],
            "name": "Uint256UpperBoundNotMet",
            "type": "error"
        },
        {
            "inputs": [],
            "name": "UnsupportedTokenStandard",
            "type": "error"
        },
        {
            "inputs": [
                {
                    "internalType": "uint64",
                    "name": "id",
                    "type": "uint64"
                },
                {
                    "internalType": "uint128",
                    "name": "initialStart",
                    "type": "uint128"
                },
                {
                    "internalType": "uint128",
                    "name": "intervalMinSize",
                    "type": "uint128"
                },
                {
                    "internalType": "uint16",
                    "name": "maxIntervals",
                    "type": "uint16"
                }
            ],
            "name": "blockInterval",
            "outputs": [],
            "stateMutability": "nonpayable",
            "type": "function"
        },
        {
            "inputs": [
                {
                    "internalType": "uint256",
                    "name": "amount",
                    "type": "uint256"
                },
                {
                    "internalType": "uint24",
                    "name": "feePercent",
                    "type": "uint24"
                },
                {
                    "internalType": "uint256",
                    "name": "feeMin",
                    "type": "uint256"
                }
            ],
            "name": "calcFee",
            "outputs": [
                {
                    "internalType": "uint256",
                    "name": "fee",
                    "type": "uint256"
                }
            ],
            "stateMutability": "pure",
            "type": "function"
        },
        {
            "inputs": [
                {
                    "internalType": "uint256",
                    "name": "priceX96",
                    "type": "uint256"
                },
                {
                    "internalType": "uint256",
                    "name": "amount0",
                    "type": "uint256"
                }
            ],
            "name": "calcSwapAmount",
            "outputs": [
                {
                    "internalType": "uint256",
                    "name": "amount1",
                    "type": "uint256"
                }
            ],
            "stateMutability": "pure",
            "type": "function"
        },
        {
            "inputs": [
                {
                    "internalType": "uint64",
                    "name": "id",
                    "type": "uint64"
                }
            ],
            "name": "getBlockIntervalState",
            "outputs": [
                {
                    "internalType": "uint128",
                    "name": "start",
                    "type": "uint128"
                },
                {
                    "internalType": "uint16",
                    "name": "counter",
                    "type": "uint16"
                }
            ],
            "stateMutability": "view",
            "type": "function"
        },
        {
            "inputs": [
                {
                    "internalType": "uint64",
                    "name": "fillStateId",
                    "type": "uint64"
                }
            ],
            "name": "getFillStateX96",
            "outputs": [
                {
                    "internalType": "int256",
                    "name": "fillState",
                    "type": "int256"
                }
            ],
            "stateMutability": "view",
            "type": "function"
        },
        {
            "inputs": [
                {
                    "components": [
                        {
                            "internalType": "uint64",
                            "name": "id",
                            "type": "uint64"
                        },
                        {
                            "internalType": "uint128",
                            "name": "startX96",
                            "type": "uint128"
                        },
                        {
                            "internalType": "bool",
                            "name": "sign",
                            "type": "bool"
                        }
                    ],
                    "internalType": "struct FillStateParams",
                    "name": "fillStateParams",
                    "type": "tuple"
                },
                {
                    "internalType": "int256",
                    "name": "fillStateX96",
                    "type": "int256"
                },
                {
                    "internalType": "uint256",
                    "name": "totalAmount",
                    "type": "uint256"
                }
            ],
            "name": "getFilledAmount",
            "outputs": [
                {
                    "internalType": "uint256",
                    "name": "filledAmount",
                    "type": "uint256"
                }
            ],
            "stateMutability": "pure",
            "type": "function"
        },
        {
            "inputs": [
                {
                    "components": [
                        {
                            "internalType": "uint64",
                            "name": "id",
                            "type": "uint64"
                        },
                        {
                            "internalType": "uint128",
                            "name": "startX96",
                            "type": "uint128"
                        },
                        {
                            "internalType": "bool",
                            "name": "sign",
                            "type": "bool"
                        }
                    ],
                    "internalType": "struct FillStateParams",
                    "name": "fillStateParams",
                    "type": "tuple"
                },
                {
                    "internalType": "int256",
                    "name": "fillStateX96",
                    "type": "int256"
                }
            ],
            "name": "getFilledPercentX96",
            "outputs": [
                {
                    "internalType": "uint256",
                    "name": "filledPercentX96",
                    "type": "uint256"
                }
            ],
            "stateMutability": "pure",
            "type": "function"
        },
        {
            "inputs": [
                {
                    "internalType": "contract IUint256Oracle",
                    "name": "priceOracle",
                    "type": "address"
                },
                {
                    "internalType": "bytes",
                    "name": "priceOracleParams",
                    "type": "bytes"
                },
                {
                    "internalType": "uint256",
                    "name": "token0Amount",
                    "type": "uint256"
                }
            ],
            "name": "getSwapAmount",
            "outputs": [
                {
                    "internalType": "uint256",
                    "name": "token1Amount",
                    "type": "uint256"
                }
            ],
            "stateMutability": "view",
            "type": "function"
        },
        {
            "inputs": [
                {
                    "components": [
                        {
                            "internalType": "uint64",
                            "name": "id",
                            "type": "uint64"
                        },
                        {
                            "internalType": "uint128",
                            "name": "startX96",
                            "type": "uint128"
                        },
                        {
                            "internalType": "bool",
                            "name": "sign",
                            "type": "bool"
                        }
                    ],
                    "internalType": "struct FillStateParams",
                    "name": "fillStateParams",
                    "type": "tuple"
                },
                {
                    "internalType": "int256",
                    "name": "fillStateX96",
                    "type": "int256"
                },
                {
                    "internalType": "uint256",
                    "name": "totalAmount",
                    "type": "uint256"
                }
            ],
            "name": "getUnfilledAmount",
            "outputs": [
                {
                    "internalType": "uint256",
                    "name": "unfilledAmount",
                    "type": "uint256"
                }
            ],
            "stateMutability": "pure",
            "type": "function"
        },
        {
            "inputs": [
                {
                    "internalType": "address",
                    "name": "owner",
                    "type": "address"
                },
                {
                    "components": [
                        {
                            "internalType": "enum TokenStandard",
                            "name": "standard",
                            "type": "uint8"
                        },
                        {
                            "internalType": "address",
                            "name": "addr",
                            "type": "address"
                        },
                        {
                            "internalType": "bytes32",
                            "name": "idsMerkleRoot",
                            "type": "bytes32"
                        },
                        {
                            "internalType": "uint256",
                            "name": "id",
                            "type": "uint256"
                        },
                        {
                            "internalType": "bool",
                            "name": "disallowFlagged",
                            "type": "bool"
                        }
                    ],
                    "internalType": "struct Token",
                    "name": "tokenIn",
                    "type": "tuple"
                },
                {
                    "components": [
                        {
                            "internalType": "enum TokenStandard",
                            "name": "standard",
                            "type": "uint8"
                        },
                        {
                            "internalType": "address",
                            "name": "addr",
                            "type": "address"
                        },
                        {
                            "internalType": "bytes32",
                            "name": "idsMerkleRoot",
                            "type": "bytes32"
                        },
                        {
                            "internalType": "uint256",
                            "name": "id",
                            "type": "uint256"
                        },
                        {
                            "internalType": "bool",
                            "name": "disallowFlagged",
                            "type": "bool"
                        }
                    ],
                    "internalType": "struct Token",
                    "name": "tokenOut",
                    "type": "tuple"
                },
                {
                    "internalType": "uint256",
                    "name": "tokenInAmount",
                    "type": "uint256"
                },
                {
                    "internalType": "contract IPriceCurve",
                    "name": "priceCurve",
                    "type": "address"
                },
                {
                    "internalType": "bytes",
                    "name": "priceCurveParams",
                    "type": "bytes"
                },
                {
                    "components": [
                        {
                            "internalType": "uint64",
                            "name": "id",
                            "type": "uint64"
                        },
                        {
                            "internalType": "uint128",
                            "name": "startX96",
                            "type": "uint128"
                        },
                        {
                            "internalType": "bool",
                            "name": "sign",
                            "type": "bool"
                        }
                    ],
                    "internalType": "struct FillStateParams",
                    "name": "fillStateParams",
                    "type": "tuple"
                },
                {
                    "components": [
                        {
                            "internalType": "address",
                            "name": "recipient",
                            "type": "address"
                        },
                        {
                            "internalType": "uint256",
                            "name": "amount",
                            "type": "uint256"
                        },
                        {
                            "components": [
                                {
                                    "internalType": "uint256[]",
                                    "name": "ids",
                                    "type": "uint256[]"
                                },
                                {
                                    "internalType": "bytes32[]",
                                    "name": "merkleProof_hashes",
                                    "type": "bytes32[]"
                                },
                                {
                                    "internalType": "bool[]",
                                    "name": "merkleProof_flags",
                                    "type": "bool[]"
                                },
                                {
                                    "internalType": "uint256[]",
                                    "name": "statusProof_lastTransferTimes",
                                    "type": "uint256[]"
                                },
                                {
                                    "internalType": "uint256[]",
                                    "name": "statusProof_timestamps",
                                    "type": "uint256[]"
                                },
                                {
                                    "internalType": "bytes[]",
                                    "name": "statusProof_signatures",
                                    "type": "bytes[]"
                                }
                            ],
                            "internalType": "struct IdsProof",
                            "name": "tokenInIdsProof",
                            "type": "tuple"
                        },
                        {
                            "components": [
                                {
                                    "internalType": "uint256[]",
                                    "name": "ids",
                                    "type": "uint256[]"
                                },
                                {
                                    "internalType": "bytes32[]",
                                    "name": "merkleProof_hashes",
                                    "type": "bytes32[]"
                                },
                                {
                                    "internalType": "bool[]",
                                    "name": "merkleProof_flags",
                                    "type": "bool[]"
                                },
                                {
                                    "internalType": "uint256[]",
                                    "name": "statusProof_lastTransferTimes",
                                    "type": "uint256[]"
                                },
                                {
                                    "internalType": "uint256[]",
                                    "name": "statusProof_timestamps",
                                    "type": "uint256[]"
                                },
                                {
                                    "internalType": "bytes[]",
                                    "name": "statusProof_signatures",
                                    "type": "bytes[]"
                                }
                            ],
                            "internalType": "struct IdsProof",
                            "name": "tokenOutIdsProof",
                            "type": "tuple"
                        },
                        {
                            "components": [
                                {
                                    "internalType": "address",
                                    "name": "targetContract",
                                    "type": "address"
                                },
                                {
                                    "internalType": "bytes",
                                    "name": "data",
                                    "type": "bytes"
                                }
                            ],
                            "internalType": "struct Call",
                            "name": "fillCall",
                            "type": "tuple"
                        }
                    ],
                    "internalType": "struct UnsignedLimitSwapData",
                    "name": "data",
                    "type": "tuple"
                }
            ],
            "name": "limitSwapExactInput",
            "outputs": [],
            "stateMutability": "nonpayable",
            "type": "function"
        },
        {
            "inputs": [],
            "name": "limitSwapExactInput_getInput",
            "outputs": [
                {
                    "internalType": "uint256",
                    "name": "input",
                    "type": "uint256"
                }
            ],
            "stateMutability": "pure",
            "type": "function"
        },
        {
            "inputs": [
                {
                    "internalType": "uint256",
                    "name": "input",
                    "type": "uint256"
                },
                {
                    "internalType": "uint256",
                    "name": "filledInput",
                    "type": "uint256"
                },
                {
                    "internalType": "uint256",
                    "name": "tokenInAmount",
                    "type": "uint256"
                },
                {
                    "internalType": "contract IPriceCurve",
                    "name": "priceCurve",
                    "type": "address"
                },
                {
                    "internalType": "bytes",
                    "name": "priceCurveParams",
                    "type": "bytes"
                }
            ],
            "name": "limitSwapExactInput_getOutput",
            "outputs": [
                {
                    "internalType": "uint256",
                    "name": "output",
                    "type": "uint256"
                }
            ],
            "stateMutability": "pure",
            "type": "function"
        },
        {
            "inputs": [
                {
                    "internalType": "address",
                    "name": "owner",
                    "type": "address"
                },
                {
                    "components": [
                        {
                            "internalType": "enum TokenStandard",
                            "name": "standard",
                            "type": "uint8"
                        },
                        {
                            "internalType": "address",
                            "name": "addr",
                            "type": "address"
                        },
                        {
                            "internalType": "bytes32",
                            "name": "idsMerkleRoot",
                            "type": "bytes32"
                        },
                        {
                            "internalType": "uint256",
                            "name": "id",
                            "type": "uint256"
                        },
                        {
                            "internalType": "bool",
                            "name": "disallowFlagged",
                            "type": "bool"
                        }
                    ],
                    "internalType": "struct Token",
                    "name": "tokenIn",
                    "type": "tuple"
                },
                {
                    "components": [
                        {
                            "internalType": "enum TokenStandard",
                            "name": "standard",
                            "type": "uint8"
                        },
                        {
                            "internalType": "address",
                            "name": "addr",
                            "type": "address"
                        },
                        {
                            "internalType": "bytes32",
                            "name": "idsMerkleRoot",
                            "type": "bytes32"
                        },
                        {
                            "internalType": "uint256",
                            "name": "id",
                            "type": "uint256"
                        },
                        {
                            "internalType": "bool",
                            "name": "disallowFlagged",
                            "type": "bool"
                        }
                    ],
                    "internalType": "struct Token",
                    "name": "tokenOut",
                    "type": "tuple"
                },
                {
                    "internalType": "uint256",
                    "name": "tokenOutAmount",
                    "type": "uint256"
                },
                {
                    "internalType": "contract IPriceCurve",
                    "name": "priceCurve",
                    "type": "address"
                },
                {
                    "internalType": "bytes",
                    "name": "priceCurveParams",
                    "type": "bytes"
                },
                {
                    "components": [
                        {
                            "internalType": "uint64",
                            "name": "id",
                            "type": "uint64"
                        },
                        {
                            "internalType": "uint128",
                            "name": "startX96",
                            "type": "uint128"
                        },
                        {
                            "internalType": "bool",
                            "name": "sign",
                            "type": "bool"
                        }
                    ],
                    "internalType": "struct FillStateParams",
                    "name": "fillStateParams",
                    "type": "tuple"
                },
                {
                    "components": [
                        {
                            "internalType": "address",
                            "name": "recipient",
                            "type": "address"
                        },
                        {
                            "internalType": "uint256",
                            "name": "amount",
                            "type": "uint256"
                        },
                        {
                            "components": [
                                {
                                    "internalType": "uint256[]",
                                    "name": "ids",
                                    "type": "uint256[]"
                                },
                                {
                                    "internalType": "bytes32[]",
                                    "name": "merkleProof_hashes",
                                    "type": "bytes32[]"
                                },
                                {
                                    "internalType": "bool[]",
                                    "name": "merkleProof_flags",
                                    "type": "bool[]"
                                },
                                {
                                    "internalType": "uint256[]",
                                    "name": "statusProof_lastTransferTimes",
                                    "type": "uint256[]"
                                },
                                {
                                    "internalType": "uint256[]",
                                    "name": "statusProof_timestamps",
                                    "type": "uint256[]"
                                },
                                {
                                    "internalType": "bytes[]",
                                    "name": "statusProof_signatures",
                                    "type": "bytes[]"
                                }
                            ],
                            "internalType": "struct IdsProof",
                            "name": "tokenInIdsProof",
                            "type": "tuple"
                        },
                        {
                            "components": [
                                {
                                    "internalType": "uint256[]",
                                    "name": "ids",
                                    "type": "uint256[]"
                                },
                                {
                                    "internalType": "bytes32[]",
                                    "name": "merkleProof_hashes",
                                    "type": "bytes32[]"
                                },
                                {
                                    "internalType": "bool[]",
                                    "name": "merkleProof_flags",
                                    "type": "bool[]"
                                },
                                {
                                    "internalType": "uint256[]",
                                    "name": "statusProof_lastTransferTimes",
                                    "type": "uint256[]"
                                },
                                {
                                    "internalType": "uint256[]",
                                    "name": "statusProof_timestamps",
                                    "type": "uint256[]"
                                },
                                {
                                    "internalType": "bytes[]",
                                    "name": "statusProof_signatures",
                                    "type": "bytes[]"
                                }
                            ],
                            "internalType": "struct IdsProof",
                            "name": "tokenOutIdsProof",
                            "type": "tuple"
                        },
                        {
                            "components": [
                                {
                                    "internalType": "address",
                                    "name": "targetContract",
                                    "type": "address"
                                },
                                {
                                    "internalType": "bytes",
                                    "name": "data",
                                    "type": "bytes"
                                }
                            ],
                            "internalType": "struct Call",
                            "name": "fillCall",
                            "type": "tuple"
                        }
                    ],
                    "internalType": "struct UnsignedLimitSwapData",
                    "name": "data",
                    "type": "tuple"
                }
            ],
            "name": "limitSwapExactOutput",
            "outputs": [],
            "stateMutability": "nonpayable",
            "type": "function"
        },
        {
            "inputs": [
                {
                    "internalType": "uint256",
                    "name": "output",
                    "type": "uint256"
                },
                {
                    "internalType": "uint256",
                    "name": "filledOutput",
                    "type": "uint256"
                },
                {
                    "internalType": "uint256",
                    "name": "tokenOutAmount",
                    "type": "uint256"
                },
                {
                    "internalType": "contract IPriceCurve",
                    "name": "priceCurve",
                    "type": "address"
                },
                {
                    "internalType": "bytes",
                    "name": "priceCurveParams",
                    "type": "bytes"
                }
            ],
            "name": "limitSwapExactOutput_getInput",
            "outputs": [
                {
                    "internalType": "uint256",
                    "name": "input",
                    "type": "uint256"
                }
            ],
            "stateMutability": "pure",
            "type": "function"
        },
        {
            "inputs": [],
            "name": "limitSwapExactOutput_getOutput",
            "outputs": [
                {
                    "internalType": "uint256",
                    "name": "output",
                    "type": "uint256"
                }
            ],
            "stateMutability": "pure",
            "type": "function"
        },
        {
            "inputs": [
                {
                    "internalType": "contract IUint256Oracle",
                    "name": "priceOracle",
                    "type": "address"
                },
                {
                    "internalType": "bytes",
                    "name": "priceOracleParams",
                    "type": "bytes"
                },
                {
                    "internalType": "address",
                    "name": "owner",
                    "type": "address"
                },
                {
                    "components": [
                        {
                            "internalType": "enum TokenStandard",
                            "name": "standard",
                            "type": "uint8"
                        },
                        {
                            "internalType": "address",
                            "name": "addr",
                            "type": "address"
                        },
                        {
                            "internalType": "bytes32",
                            "name": "idsMerkleRoot",
                            "type": "bytes32"
                        },
                        {
                            "internalType": "uint256",
                            "name": "id",
                            "type": "uint256"
                        },
                        {
                            "internalType": "bool",
                            "name": "disallowFlagged",
                            "type": "bool"
                        }
                    ],
                    "internalType": "struct Token",
                    "name": "tokenIn",
                    "type": "tuple"
                },
                {
                    "components": [
                        {
                            "internalType": "enum TokenStandard",
                            "name": "standard",
                            "type": "uint8"
                        },
                        {
                            "internalType": "address",
                            "name": "addr",
                            "type": "address"
                        },
                        {
                            "internalType": "bytes32",
                            "name": "idsMerkleRoot",
                            "type": "bytes32"
                        },
                        {
                            "internalType": "uint256",
                            "name": "id",
                            "type": "uint256"
                        },
                        {
                            "internalType": "bool",
                            "name": "disallowFlagged",
                            "type": "bool"
                        }
                    ],
                    "internalType": "struct Token",
                    "name": "tokenOut",
                    "type": "tuple"
                },
                {
                    "internalType": "uint256",
                    "name": "tokenInAmount",
                    "type": "uint256"
                },
                {
                    "internalType": "uint24",
                    "name": "feePercent",
                    "type": "uint24"
                },
                {
                    "internalType": "uint256",
                    "name": "feeMinTokenOut",
                    "type": "uint256"
                },
                {
                    "components": [
                        {
                            "internalType": "address",
                            "name": "recipient",
                            "type": "address"
                        },
                        {
                            "components": [
                                {
                                    "internalType": "uint256[]",
                                    "name": "ids",
                                    "type": "uint256[]"
                                },
                                {
                                    "internalType": "bytes32[]",
                                    "name": "merkleProof_hashes",
                                    "type": "bytes32[]"
                                },
                                {
                                    "internalType": "bool[]",
                                    "name": "merkleProof_flags",
                                    "type": "bool[]"
                                },
                                {
                                    "internalType": "uint256[]",
                                    "name": "statusProof_lastTransferTimes",
                                    "type": "uint256[]"
                                },
                                {
                                    "internalType": "uint256[]",
                                    "name": "statusProof_timestamps",
                                    "type": "uint256[]"
                                },
                                {
                                    "internalType": "bytes[]",
                                    "name": "statusProof_signatures",
                                    "type": "bytes[]"
                                }
                            ],
                            "internalType": "struct IdsProof",
                            "name": "tokenInIdsProof",
                            "type": "tuple"
                        },
                        {
                            "components": [
                                {
                                    "internalType": "uint256[]",
                                    "name": "ids",
                                    "type": "uint256[]"
                                },
                                {
                                    "internalType": "bytes32[]",
                                    "name": "merkleProof_hashes",
                                    "type": "bytes32[]"
                                },
                                {
                                    "internalType": "bool[]",
                                    "name": "merkleProof_flags",
                                    "type": "bool[]"
                                },
                                {
                                    "internalType": "uint256[]",
                                    "name": "statusProof_lastTransferTimes",
                                    "type": "uint256[]"
                                },
                                {
                                    "internalType": "uint256[]",
                                    "name": "statusProof_timestamps",
                                    "type": "uint256[]"
                                },
                                {
                                    "internalType": "bytes[]",
                                    "name": "statusProof_signatures",
                                    "type": "bytes[]"
                                }
                            ],
                            "internalType": "struct IdsProof",
                            "name": "tokenOutIdsProof",
                            "type": "tuple"
                        },
                        {
                            "components": [
                                {
                                    "internalType": "address",
                                    "name": "targetContract",
                                    "type": "address"
                                },
                                {
                                    "internalType": "bytes",
                                    "name": "data",
                                    "type": "bytes"
                                }
                            ],
                            "internalType": "struct Call",
                            "name": "fillCall",
                            "type": "tuple"
                        }
                    ],
                    "internalType": "struct UnsignedMarketSwapData",
                    "name": "data",
                    "type": "tuple"
                }
            ],
            "name": "marketSwapExactInput",
            "outputs": [],
            "stateMutability": "nonpayable",
            "type": "function"
        },
        {
            "inputs": [
                {
                    "internalType": "uint256",
                    "name": "input",
                    "type": "uint256"
                },
                {
                    "internalType": "uint256",
                    "name": "priceX96",
                    "type": "uint256"
                },
                {
                    "internalType": "uint24",
                    "name": "feePercent",
                    "type": "uint24"
                },
                {
                    "internalType": "uint256",
                    "name": "feeMin",
                    "type": "uint256"
                }
            ],
            "name": "marketSwapExactInput_getOutput",
            "outputs": [
                {
                    "internalType": "uint256",
                    "name": "output",
                    "type": "uint256"
                },
                {
                    "internalType": "uint256",
                    "name": "fee",
                    "type": "uint256"
                },
                {
                    "internalType": "uint256",
                    "name": "outputWithFee",
                    "type": "uint256"
                }
            ],
            "stateMutability": "pure",
            "type": "function"
        },
        {
            "inputs": [
                {
                    "internalType": "contract IUint256Oracle",
                    "name": "priceOracle",
                    "type": "address"
                },
                {
                    "internalType": "bytes",
                    "name": "priceOracleParams",
                    "type": "bytes"
                },
                {
                    "internalType": "address",
                    "name": "owner",
                    "type": "address"
                },
                {
                    "components": [
                        {
                            "internalType": "enum TokenStandard",
                            "name": "standard",
                            "type": "uint8"
                        },
                        {
                            "internalType": "address",
                            "name": "addr",
                            "type": "address"
                        },
                        {
                            "internalType": "bytes32",
                            "name": "idsMerkleRoot",
                            "type": "bytes32"
                        },
                        {
                            "internalType": "uint256",
                            "name": "id",
                            "type": "uint256"
                        },
                        {
                            "internalType": "bool",
                            "name": "disallowFlagged",
                            "type": "bool"
                        }
                    ],
                    "internalType": "struct Token",
                    "name": "tokenIn",
                    "type": "tuple"
                },
                {
                    "components": [
                        {
                            "internalType": "enum TokenStandard",
                            "name": "standard",
                            "type": "uint8"
                        },
                        {
                            "internalType": "address",
                            "name": "addr",
                            "type": "address"
                        },
                        {
                            "internalType": "bytes32",
                            "name": "idsMerkleRoot",
                            "type": "bytes32"
                        },
                        {
                            "internalType": "uint256",
                            "name": "id",
                            "type": "uint256"
                        },
                        {
                            "internalType": "bool",
                            "name": "disallowFlagged",
                            "type": "bool"
                        }
                    ],
                    "internalType": "struct Token",
                    "name": "tokenOut",
                    "type": "tuple"
                },
                {
                    "internalType": "uint256",
                    "name": "tokenOutAmount",
                    "type": "uint256"
                },
                {
                    "internalType": "uint24",
                    "name": "feePercent",
                    "type": "uint24"
                },
                {
                    "internalType": "uint256",
                    "name": "feeMinTokenIn",
                    "type": "uint256"
                },
                {
                    "components": [
                        {
                            "internalType": "address",
                            "name": "recipient",
                            "type": "address"
                        },
                        {
                            "components": [
                                {
                                    "internalType": "uint256[]",
                                    "name": "ids",
                                    "type": "uint256[]"
                                },
                                {
                                    "internalType": "bytes32[]",
                                    "name": "merkleProof_hashes",
                                    "type": "bytes32[]"
                                },
                                {
                                    "internalType": "bool[]",
                                    "name": "merkleProof_flags",
                                    "type": "bool[]"
                                },
                                {
                                    "internalType": "uint256[]",
                                    "name": "statusProof_lastTransferTimes",
                                    "type": "uint256[]"
                                },
                                {
                                    "internalType": "uint256[]",
                                    "name": "statusProof_timestamps",
                                    "type": "uint256[]"
                                },
                                {
                                    "internalType": "bytes[]",
                                    "name": "statusProof_signatures",
                                    "type": "bytes[]"
                                }
                            ],
                            "internalType": "struct IdsProof",
                            "name": "tokenInIdsProof",
                            "type": "tuple"
                        },
                        {
                            "components": [
                                {
                                    "internalType": "uint256[]",
                                    "name": "ids",
                                    "type": "uint256[]"
                                },
                                {
                                    "internalType": "bytes32[]",
                                    "name": "merkleProof_hashes",
                                    "type": "bytes32[]"
                                },
                                {
                                    "internalType": "bool[]",
                                    "name": "merkleProof_flags",
                                    "type": "bool[]"
                                },
                                {
                                    "internalType": "uint256[]",
                                    "name": "statusProof_lastTransferTimes",
                                    "type": "uint256[]"
                                },
                                {
                                    "internalType": "uint256[]",
                                    "name": "statusProof_timestamps",
                                    "type": "uint256[]"
                                },
                                {
                                    "internalType": "bytes[]",
                                    "name": "statusProof_signatures",
                                    "type": "bytes[]"
                                }
                            ],
                            "internalType": "struct IdsProof",
                            "name": "tokenOutIdsProof",
                            "type": "tuple"
                        },
                        {
                            "components": [
                                {
                                    "internalType": "address",
                                    "name": "targetContract",
                                    "type": "address"
                                },
                                {
                                    "internalType": "bytes",
                                    "name": "data",
                                    "type": "bytes"
                                }
                            ],
                            "internalType": "struct Call",
                            "name": "fillCall",
                            "type": "tuple"
                        }
                    ],
                    "internalType": "struct UnsignedMarketSwapData",
                    "name": "data",
                    "type": "tuple"
                }
            ],
            "name": "marketSwapExactOutput",
            "outputs": [],
            "stateMutability": "nonpayable",
            "type": "function"
        },
        {
            "inputs": [
                {
                    "internalType": "uint256",
                    "name": "output",
                    "type": "uint256"
                },
                {
                    "internalType": "uint256",
                    "name": "priceX96",
                    "type": "uint256"
                },
                {
                    "internalType": "uint24",
                    "name": "feePercent",
                    "type": "uint24"
                },
                {
                    "internalType": "uint256",
                    "name": "feeMin",
                    "type": "uint256"
                }
            ],
            "name": "marketSwapExactOutput_getInput",
            "outputs": [
                {
                    "internalType": "uint256",
                    "name": "input",
                    "type": "uint256"
                },
                {
                    "internalType": "uint256",
                    "name": "fee",
                    "type": "uint256"
                },
                {
                    "internalType": "uint256",
                    "name": "inputWithFee",
                    "type": "uint256"
                }
            ],
            "stateMutability": "pure",
            "type": "function"
        },
        {
            "inputs": [
                {
                    "components": [
                        {
                            "internalType": "address",
                            "name": "recipient",
                            "type": "address"
                        },
                        {
                            "components": [
                                {
                                    "internalType": "uint256[]",
                                    "name": "ids",
                                    "type": "uint256[]"
                                },
                                {
                                    "internalType": "bytes32[]",
                                    "name": "merkleProof_hashes",
                                    "type": "bytes32[]"
                                },
                                {
                                    "internalType": "bool[]",
                                    "name": "merkleProof_flags",
                                    "type": "bool[]"
                                },
                                {
                                    "internalType": "uint256[]",
                                    "name": "statusProof_lastTransferTimes",
                                    "type": "uint256[]"
                                },
                                {
                                    "internalType": "uint256[]",
                                    "name": "statusProof_timestamps",
                                    "type": "uint256[]"
                                },
                                {
                                    "internalType": "bytes[]",
                                    "name": "statusProof_signatures",
                                    "type": "bytes[]"
                                }
                            ],
                            "internalType": "struct IdsProof",
                            "name": "tokenInIdsProof",
                            "type": "tuple"
                        },
                        {
                            "components": [
                                {
                                    "internalType": "uint256[]",
                                    "name": "ids",
                                    "type": "uint256[]"
                                },
                                {
                                    "internalType": "bytes32[]",
                                    "name": "merkleProof_hashes",
                                    "type": "bytes32[]"
                                },
                                {
                                    "internalType": "bool[]",
                                    "name": "merkleProof_flags",
                                    "type": "bool[]"
                                },
                                {
                                    "internalType": "uint256[]",
                                    "name": "statusProof_lastTransferTimes",
                                    "type": "uint256[]"
                                },
                                {
                                    "internalType": "uint256[]",
                                    "name": "statusProof_timestamps",
                                    "type": "uint256[]"
                                },
                                {
                                    "internalType": "bytes[]",
                                    "name": "statusProof_signatures",
                                    "type": "bytes[]"
                                }
                            ],
                            "internalType": "struct IdsProof",
                            "name": "tokenOutIdsProof",
                            "type": "tuple"
                        },
                        {
                            "components": [
                                {
                                    "internalType": "address",
                                    "name": "targetContract",
                                    "type": "address"
                                },
                                {
                                    "internalType": "bytes",
                                    "name": "data",
                                    "type": "bytes"
                                }
                            ],
                            "internalType": "struct Call",
                            "name": "fillCall",
                            "type": "tuple"
                        },
                        {
                            "internalType": "bytes",
                            "name": "signature",
                            "type": "bytes"
                        }
                    ],
                    "internalType": "struct UnsignedSwapData",
                    "name": "data",
                    "type": "tuple"
                }
            ],
            "name": "recoverSwapDataSigner",
            "outputs": [
                {
                    "internalType": "address",
                    "name": "signer",
                    "type": "address"
                }
            ],
            "stateMutability": "pure",
            "type": "function"
        },
        {
            "inputs": [
                {
                    "internalType": "uint256",
                    "name": "bitmapIndex",
                    "type": "uint256"
                },
                {
                    "internalType": "uint256",
                    "name": "bit",
                    "type": "uint256"
                }
            ],
            "name": "requireBitNotUsed",
            "outputs": [],
            "stateMutability": "nonpayable",
            "type": "function"
        },
        {
            "inputs": [
                {
                    "internalType": "uint256",
                    "name": "bitmapIndex",
                    "type": "uint256"
                },
                {
                    "internalType": "uint256",
                    "name": "bit",
                    "type": "uint256"
                }
            ],
            "name": "requireBitUsed",
            "outputs": [],
            "stateMutability": "nonpayable",
            "type": "function"
        },
        {
            "inputs": [
                {
                    "internalType": "uint256",
                    "name": "blockNumber",
                    "type": "uint256"
                }
            ],
            "name": "requireBlockMined",
            "outputs": [],
            "stateMutability": "view",
            "type": "function"
        },
        {
            "inputs": [
                {
                    "internalType": "uint256",
                    "name": "blockNumber",
                    "type": "uint256"
                }
            ],
            "name": "requireBlockNotMined",
            "outputs": [],
            "stateMutability": "view",
            "type": "function"
        },
        {
            "inputs": [
                {
                    "internalType": "contract IUint256Oracle",
                    "name": "uint256Oracle",
                    "type": "address"
                },
                {
                    "internalType": "bytes",
                    "name": "params",
                    "type": "bytes"
                },
                {
                    "internalType": "uint256",
                    "name": "lowerBound",
                    "type": "uint256"
                }
            ],
            "name": "requireUint256LowerBound",
            "outputs": [],
            "stateMutability": "view",
            "type": "function"
        },
        {
            "inputs": [
                {
                    "internalType": "contract IUint256Oracle",
                    "name": "uint256Oracle",
                    "type": "address"
                },
                {
                    "internalType": "bytes",
                    "name": "params",
                    "type": "bytes"
                },
                {
                    "internalType": "uint256",
                    "name": "upperBound",
                    "type": "uint256"
                }
            ],
            "name": "requireUint256UpperBound",
            "outputs": [],
            "stateMutability": "nonpayable",
            "type": "function"
        },
        {
            "inputs": [
                {
                    "internalType": "address",
                    "name": "owner",
                    "type": "address"
                },
                {
                    "components": [
                        {
                            "internalType": "enum TokenStandard",
                            "name": "standard",
                            "type": "uint8"
                        },
                        {
                            "internalType": "address",
                            "name": "addr",
                            "type": "address"
                        },
                        {
                            "internalType": "bytes32",
                            "name": "idsMerkleRoot",
                            "type": "bytes32"
                        },
                        {
                            "internalType": "uint256",
                            "name": "id",
                            "type": "uint256"
                        },
                        {
                            "internalType": "bool",
                            "name": "disallowFlagged",
                            "type": "bool"
                        }
                    ],
                    "internalType": "struct Token",
                    "name": "tokenIn",
                    "type": "tuple"
                },
                {
                    "components": [
                        {
                            "internalType": "enum TokenStandard",
                            "name": "standard",
                            "type": "uint8"
                        },
                        {
                            "internalType": "address",
                            "name": "addr",
                            "type": "address"
                        },
                        {
                            "internalType": "bytes32",
                            "name": "idsMerkleRoot",
                            "type": "bytes32"
                        },
                        {
                            "internalType": "uint256",
                            "name": "id",
                            "type": "uint256"
                        },
                        {
                            "internalType": "bool",
                            "name": "disallowFlagged",
                            "type": "bool"
                        }
                    ],
                    "internalType": "struct Token",
                    "name": "tokenOut",
                    "type": "tuple"
                },
                {
                    "internalType": "contract ISwapAmount",
                    "name": "inputAmountContract",
                    "type": "address"
                },
                {
                    "internalType": "contract ISwapAmount",
                    "name": "outputAmountContract",
                    "type": "address"
                },
                {
                    "internalType": "bytes",
                    "name": "inputAmountParams",
                    "type": "bytes"
                },
                {
                    "internalType": "bytes",
                    "name": "outputAmountParams",
                    "type": "bytes"
                },
                {
                    "internalType": "contract ISolverValidator",
                    "name": "solverValidator",
                    "type": "address"
                },
                {
                    "components": [
                        {
                            "internalType": "address",
                            "name": "recipient",
                            "type": "address"
                        },
                        {
                            "components": [
                                {
                                    "internalType": "uint256[]",
                                    "name": "ids",
                                    "type": "uint256[]"
                                },
                                {
                                    "internalType": "bytes32[]",
                                    "name": "merkleProof_hashes",
                                    "type": "bytes32[]"
                                },
                                {
                                    "internalType": "bool[]",
                                    "name": "merkleProof_flags",
                                    "type": "bool[]"
                                },
                                {
                                    "internalType": "uint256[]",
                                    "name": "statusProof_lastTransferTimes",
                                    "type": "uint256[]"
                                },
                                {
                                    "internalType": "uint256[]",
                                    "name": "statusProof_timestamps",
                                    "type": "uint256[]"
                                },
                                {
                                    "internalType": "bytes[]",
                                    "name": "statusProof_signatures",
                                    "type": "bytes[]"
                                }
                            ],
                            "internalType": "struct IdsProof",
                            "name": "tokenInIdsProof",
                            "type": "tuple"
                        },
                        {
                            "components": [
                                {
                                    "internalType": "uint256[]",
                                    "name": "ids",
                                    "type": "uint256[]"
                                },
                                {
                                    "internalType": "bytes32[]",
                                    "name": "merkleProof_hashes",
                                    "type": "bytes32[]"
                                },
                                {
                                    "internalType": "bool[]",
                                    "name": "merkleProof_flags",
                                    "type": "bool[]"
                                },
                                {
                                    "internalType": "uint256[]",
                                    "name": "statusProof_lastTransferTimes",
                                    "type": "uint256[]"
                                },
                                {
                                    "internalType": "uint256[]",
                                    "name": "statusProof_timestamps",
                                    "type": "uint256[]"
                                },
                                {
                                    "internalType": "bytes[]",
                                    "name": "statusProof_signatures",
                                    "type": "bytes[]"
                                }
                            ],
                            "internalType": "struct IdsProof",
                            "name": "tokenOutIdsProof",
                            "type": "tuple"
                        },
                        {
                            "components": [
                                {
                                    "internalType": "address",
                                    "name": "targetContract",
                                    "type": "address"
                                },
                                {
                                    "internalType": "bytes",
                                    "name": "data",
                                    "type": "bytes"
                                }
                            ],
                            "internalType": "struct Call",
                            "name": "fillCall",
                            "type": "tuple"
                        },
                        {
                            "internalType": "bytes",
                            "name": "signature",
                            "type": "bytes"
                        }
                    ],
                    "internalType": "struct UnsignedSwapData",
                    "name": "data",
                    "type": "tuple"
                }
            ],
            "name": "swap01",
            "outputs": [],
            "stateMutability": "nonpayable",
            "type": "function"
        },
        {
            "inputs": [
                {
                    "components": [
                        {
                            "internalType": "enum TokenStandard",
                            "name": "standard",
                            "type": "uint8"
                        },
                        {
                            "internalType": "address",
                            "name": "addr",
                            "type": "address"
                        },
                        {
                            "internalType": "bytes32",
                            "name": "idsMerkleRoot",
                            "type": "bytes32"
                        },
                        {
                            "internalType": "uint256",
                            "name": "id",
                            "type": "uint256"
                        },
                        {
                            "internalType": "bool",
                            "name": "disallowFlagged",
                            "type": "bool"
                        }
                    ],
                    "internalType": "struct Token",
                    "name": "token",
                    "type": "tuple"
                },
                {
                    "internalType": "address",
                    "name": "owner",
                    "type": "address"
                },
                {
                    "internalType": "address",
                    "name": "recipient",
                    "type": "address"
                },
                {
                    "internalType": "uint256",
                    "name": "amount",
                    "type": "uint256"
                },
                {
                    "components": [
                        {
                            "internalType": "address",
                            "name": "recipient",
                            "type": "address"
                        },
                        {
                            "components": [
                                {
                                    "internalType": "uint256[]",
                                    "name": "ids",
                                    "type": "uint256[]"
                                },
                                {
                                    "internalType": "bytes32[]",
                                    "name": "merkleProof_hashes",
                                    "type": "bytes32[]"
                                },
                                {
                                    "internalType": "bool[]",
                                    "name": "merkleProof_flags",
                                    "type": "bool[]"
                                },
                                {
                                    "internalType": "uint256[]",
                                    "name": "statusProof_lastTransferTimes",
                                    "type": "uint256[]"
                                },
                                {
                                    "internalType": "uint256[]",
                                    "name": "statusProof_timestamps",
                                    "type": "uint256[]"
                                },
                                {
                                    "internalType": "bytes[]",
                                    "name": "statusProof_signatures",
                                    "type": "bytes[]"
                                }
                            ],
                            "internalType": "struct IdsProof",
                            "name": "idsProof",
                            "type": "tuple"
                        }
                    ],
                    "internalType": "struct UnsignedTransferData",
                    "name": "data",
                    "type": "tuple"
                }
            ],
            "name": "transfer",
            "outputs": [],
            "stateMutability": "nonpayable",
            "type": "function"
        },
        {
            "inputs": [
                {
                    "internalType": "address",
                    "name": "recipient",
                    "type": "address"
                },
                {
                    "components": [
                        {
                            "internalType": "uint256[]",
                            "name": "ids",
                            "type": "uint256[]"
                        },
                        {
                            "internalType": "bytes32[]",
                            "name": "merkleProof_hashes",
                            "type": "bytes32[]"
                        },
                        {
                            "internalType": "bool[]",
                            "name": "merkleProof_flags",
                            "type": "bool[]"
                        },
                        {
                            "internalType": "uint256[]",
                            "name": "statusProof_lastTransferTimes",
                            "type": "uint256[]"
                        },
                        {
                            "internalType": "uint256[]",
                            "name": "statusProof_timestamps",
                            "type": "uint256[]"
                        },
                        {
                            "internalType": "bytes[]",
                            "name": "statusProof_signatures",
                            "type": "bytes[]"
                        }
                    ],
                    "internalType": "struct IdsProof",
                    "name": "tokenInIdsProof",
                    "type": "tuple"
                },
                {
                    "components": [
                        {
                            "internalType": "uint256[]",
                            "name": "ids",
                            "type": "uint256[]"
                        },
                        {
                            "internalType": "bytes32[]",
                            "name": "merkleProof_hashes",
                            "type": "bytes32[]"
                        },
                        {
                            "internalType": "bool[]",
                            "name": "merkleProof_flags",
                            "type": "bool[]"
                        },
                        {
                            "internalType": "uint256[]",
                            "name": "statusProof_lastTransferTimes",
                            "type": "uint256[]"
                        },
                        {
                            "internalType": "uint256[]",
                            "name": "statusProof_timestamps",
                            "type": "uint256[]"
                        },
                        {
                            "internalType": "bytes[]",
                            "name": "statusProof_signatures",
                            "type": "bytes[]"
                        }
                    ],
                    "internalType": "struct IdsProof",
                    "name": "tokenOutIdsProof",
                    "type": "tuple"
                },
                {
                    "components": [
                        {
                            "internalType": "address",
                            "name": "targetContract",
                            "type": "address"
                        },
                        {
                            "internalType": "bytes",
                            "name": "data",
                            "type": "bytes"
                        }
                    ],
                    "internalType": "struct Call",
                    "name": "fillCall",
                    "type": "tuple"
                }
            ],
            "name": "unsignedSwapDataHash",
            "outputs": [
                {
                    "internalType": "bytes32",
                    "name": "dataHash",
                    "type": "bytes32"
                }
            ],
            "stateMutability": "pure",
            "type": "function"
        },
        {
            "inputs": [
                {
                    "internalType": "uint256",
                    "name": "bitmapIndex",
                    "type": "uint256"
                },
                {
                    "internalType": "uint256",
                    "name": "bit",
                    "type": "uint256"
                }
            ],
            "name": "useBit",
            "outputs": [],
            "stateMutability": "nonpayable",
            "type": "function"
        }
    ],
    "bytecode": {
        "object": "0x608060405234801561001057600080fd5b5061384d806100206000396000f3fe608060405234801561001057600080fd5b50600436106101da5760003560e01c80637e40bd9c11610104578063d290b422116100a2578063f452172311610071578063f4521723146104c1578063f551791e146104d4578063f99ef3da146104e7578063fae52854146104fa57600080fd5b8063d290b4221461049b578063df93d19414610375578063e640b88e146104ae578063f1350531146101f457600080fd5b80639dd9cc99116100de5780639dd9cc9914610434578063a9aa5f7e14610462578063b1afa99314610475578063b20cd7791461048857600080fd5b80637e40bd9c146103755780638c78357f14610388578063946368121461042157600080fd5b806347244b0d1161017c578063679560311161014b57806367956031146102d25780637060b6921461033c578063777c63e91461034f5780637b9e45071461036257600080fd5b806347244b0d1461028657806349d9a21814610299578063502929ff146102ac5780635dd8480a146102bf57600080fd5b8063181233ee116101b8578063181233ee146102225780632b2fc43a146102355780633d0755721461024857806342e8f5c81461027357600080fd5b806302908ed3146101df5780630b4b20d8146101f45780631041d4ff1461020f575b600080fd5b6101f26101ed366004612510565b61050d565b005b6101fc610531565b6040519081526020015b60405180910390f35b6101f261021d366004612664565b610573565b6101f26102303660046126bd565b61060d565b6101f2610243366004612664565b610647565b61025b610256366004612a98565b6106fc565b6040516001600160a01b039091168152602001610206565b6101f2610281366004612bdd565b610788565b6101f26102943660046126bd565b61084e565b6101f26102a7366004612e14565b610880565b6101f26102ba366004612510565b6108d3565b6101fc6102cd366004612eec565b6108f3565b6101fc6102e0366004612f21565b6040805167ffffffffffffffff8316602082015280820191909152600960608201526866696c6c537461746560b81b6080820152600090819060a00160408051601f198184030181529190528051602090910120549392505050565b6101f261034a366004612bdd565b610919565b6101fc61035d366004612664565b6109cc565b6101f2610370366004612f3c565b610a50565b6101fc610383366004613001565b610a8a565b6103ff610396366004612f21565b6040805167ffffffffffffffff8316602082015280820191909152600d60608201526c189b1bd8dad25b9d195c9d985b609a1b60808201526000908190819060a00160408051601f1981840301815291905280516020909101205494608086901c945092505050565b604080516001600160801b03909316835261ffff909116602083015201610206565b6101fc61042f3660046126bd565b610b18565b61044761044236600461306e565b610b33565b60408051938452602084019290925290820152606001610206565b6101f26104703660046126bd565b610b67565b61044761048336600461306e565b610b75565b6101f26104963660046130ab565b610b9d565b6101fc6104a936600461318f565b610c8b565b6101f26104bc3660046131c3565b610caa565b6101f26104cf366004612e14565b610e2f565b6101fc6104e2366004613220565b610e76565b6101fc6104f536600461318f565b610eaf565b6101fc6105083660046132bb565b610ecb565b4381111561052e5760405163281f6f0d60e01b815260040160405180910390fd5b50565b60405162461bcd60e51b815260206004820152600f60248201526e1393d5081253541311535153951151608a1b60448201526000906064015b60405180910390fd5b60405162c7c69360e01b81526000906001600160a01b0385169062c7c693906105a090869060040161332c565b602060405180830381865afa1580156105bd573d6000803e3d6000fd5b505050506040513d601f19601f820116820180604052508101906105e1919061333f565b90508181101561060757604051635e1ddbe760e01b81526004810182905260240161056a565b50505050565b600061061f61061b84610f2a565b5490565b90508181161561064257604051638c2e095160e01b815260040160405180910390fd5b505050565b60405162c7c69360e01b81526000906001600160a01b0385169062c7c6939061067490869060040161332c565b602060405180830381865afa158015610691573d6000803e3d6000fd5b505050506040513d601f19601f820116820180604052508101906106b5919061333f565b9050806000036106d857604051630466e35760e11b815260040160405180910390fd5b8181111561060757604051630e19671760e11b81526004810182905260240161056a565b60008061071b8360000151846020015185604001518660600151610e76565b9050610781610777826040517f19457468657265756d205369676e6564204d6573736167653a0a3332000000006020820152603c8101829052600090605c01604051602081830303815290604052805190602001209050919050565b8460800151610f5c565b9392505050565b81516040805167ffffffffffffffff909216602080840191909152828201829052600960608401526866696c6c537461746560b81b6080808501919091528251808503909101815260a090930190915281519101205460006107eb848389610eaf565b905060006108008460200151838a8a8a610a8a565b905061081c85856020015184610816919061336e565b8a610f80565b6108418a8a8d87600001518860200151868a604001518b606001518c60800151610fa3565b5050505050505050505050565b600061085c61061b84610f2a565b905081811660000361064257604051627d7d8160e91b815260040160405180910390fd5b600061088d8a8a876109cc565b905061089a8185856108f3565b6108a49082613381565b90506108c787878a85600001518986886020015189604001518a60600151610fa3565b50505050505050505050565b43811161052e5760405163c64743d560e01b815260040160405180910390fd5b60006109088462ffffff8516620f42406110f8565b905081811015610781575092915050565b81516040805167ffffffffffffffff909216602080840191909152828201829052600960608401526866696c6c537461746560b81b6080808501919091528251808503909101815260a0909301909152815191012054600061097c848389610eaf565b905060006109918460200151838a8a8a610a8a565b90506109a785856020015184610816919061336e565b6108418a8a8d87600001518589602001518a604001518b606001518c60800151610fa3565b600080846001600160a01b031662c7c693856040518263ffffffff1660e01b81526004016109fa919061332c565b602060405180830381865afa158015610a17573d6000803e3d6000fd5b505050506040513d601f19601f82011682018060405250810190610a3b919061333f565b9050610a478184610b18565b95945050505050565b60405162461bcd60e51b815260206004820152600f60248201526e1393d5081253541311535153951151608a1b604482015260640161056a565b6000838510610a9b57506000610a47565b60405163193f63c160e01b81526001600160a01b0384169063193f63c190610acd90879089908b908890600401613394565b602060405180830381865afa158015610aea573d6000803e3d6000fd5b505050506040513d601f19601f82011682018060405250810190610b0e919061333f565b9695505050505050565b6000600160601b610b2983856133b9565b61078191906133e6565b6000806000610b428688610b18565b9250610b4f8386866108f3565b9150610b5b8284613381565b90509450945094915050565b610b7182826111a7565b5050565b6000806000610b848688610b18565b9250610b918386866108f3565b9150610b5b828461336e565b6000610ba8826106fc565b60405163c03b319360e01b81526001600160a01b0380831660048301529192509084169063c03b3193906024016020604051808303816000875af1158015610bf4573d6000803e3d6000fd5b505050506040513d601f19601f82011682018060405250810190610c189190613408565b610c4057604051632490760760e11b81526001600160a01b038216600482015260240161056a565b6000610c4c8887611212565b90506000610c5a8887611212565b9050610c7d8b8b8e876000015186868a602001518b604001518c60600151610fa3565b505050505050505050505050565b6000610c98848484610eaf565b610ca29083613381565b949350505050565b6040805167ffffffffffffffff8616602080830191909152818301839052600d60608301526c189b1bd8dad25b9d195c9d985b609a1b60808084019190915283518084038201815260a09093019093528151910120549081901c6001600160801b038216600003610d19578491505b60008361ffff16118015610d3557508261ffff168161ffff1610155b15610d5357604051630cab5c2760e11b815260040160405180910390fd5b43610d5e8584613425565b6001600160801b0316816001600160801b03161015610d905760405163468e3dbd60e11b815260040160405180910390fd5b610e268782610da085600161344c565b6040805167ffffffffffffffff8516602082015280820191909152600d60608201526c189b1bd8dad25b9d195c9d985b609a1b608082015260009060a00160408051808303601f19018152919052805160209091012060809290921b71ffff00000000000000000000000000000000166001600160801b03939093169290921790555050565b50505050505050565b6000610e3c8a8a876109cc565b9050610e498185856108f3565b610e53908261336e565b90506108c787878a8560000151858a886020015189604001518a60600151610fa3565b600084848484604051602001610e8f94939291906135e9565b604051602081830303815290604052805190602001209050949350505050565b6000610ca282600160601b610ec48787610ecb565b91906110f8565b6000808360400151610edf57600019610ee2565b60015b905060008460400151610ef957600160601b610efc565b60005b9050808260000b8660200151600f0b86610f169190613655565b610f20919061367d565b610a479190613655565b6000610f56827f6c0dc1c455ee100500be45eb5af9d4c93f609d5877e81b7c1f2a01280732dbeb61336e565b92915050565b6000806000610f6b858561129c565b91509150610f78816112e1565b509392505050565b61064283610f9384600160601b856110f8565b610f9e90600161336e565b61142b565b610fad8984611518565b610fb78883611518565b610fd189602001518a6000015189898988600001516116ff565b6000806000610fee8a8c600001518d602001518860000151611aca565b50909350839250905060018b51600381111561100c5761100c6136ad565b14801561101857508015155b156110365760405163170fb50d60e01b815260040160405180910390fd5b505081516020830151604051630a8c7dad60e21b8152736fe756b9c61cf7e9f11d96740b096e51b64ebf1392632a31f6b492611074926004016136c3565b600060405180830381600087803b15801561108e57600080fd5b505af11580156110a2573d6000803e3d6000fd5b5050505060006110c0898b600001518c602001518760000151611aca565b50509050600082826110d29190613381565b905086811015610c7d57604051634c19cdaf60e11b81526004810182905260240161056a565b600080806000198587098587029250828110838203039150508060000361113257838281611128576111286133d0565b0492505050610781565b80841161113e57600080fd5b60008486880960026001871981018816978890046003810283188082028403028082028403028082028403028082028403028082028403029081029092039091026000889003889004909101858311909403939093029303949094049190911702949350505050565b6000198101811615811515166111d0576040516323a1c86b60e21b815260040160405180910390fd5b60006111db83610f2a565b905060006111e7825490565b90508281161561120a57604051638c2e095160e01b815260040160405180910390fd5b909117905550565b60008083905060008360405160240161122b919061332c565b60408051601f198184030181529190526020810180517bffffffffffffffffffffffffffffffffffffffffffffffffffffffff16634ce18d6b60e01b17815281519192506000918291855af43d6000803e80801561128d576000519450611292565b3d6000fd5b5050505092915050565b60008082516041036112d25760208301516040840151606085015160001a6112c687828585611ea1565b945094505050506112da565b506000905060025b9250929050565b60008160048111156112f5576112f56136ad565b036112fd5750565b6001816004811115611311576113116136ad565b0361135e5760405162461bcd60e51b815260206004820152601860248201527f45434453413a20696e76616c6964207369676e61747572650000000000000000604482015260640161056a565b6002816004811115611372576113726136ad565b036113bf5760405162461bcd60e51b815260206004820152601f60248201527f45434453413a20696e76616c6964207369676e6174757265206c656e67746800604482015260640161056a565b60038160048111156113d3576113d36136ad565b0361052e5760405162461bcd60e51b815260206004820152602260248201527f45434453413a20696e76616c6964207369676e6174757265202773272076616c604482015261756560f01b606482015260840161056a565b6000826040015161143e57600019611441565b60015b90506000836040015161145857600160601b61145b565b60005b90506000846040015161146f576001611473565b6000195b905061151185600001518260000b868589602001518860000b61149691906136e5565b600f0b6114a39190613655565b6114ad9190613705565b6114b7919061367d565b6040805167ffffffffffffffff8416602082015280820191909152600960608201526866696c6c537461746560b81b608082015260009060a001604051602081830303815290604052805190602001209050818155505050565b5050505050565b6000826060015111801561155857508051516001148015611556575060608201518151805160009061154c5761154c613725565b6020026020010151145b155b156115765760405163039d9f8d60e21b815260040160405180910390fd5b6040820151158015906115a257506115a08160000151826020015183604001518560400151611f65565b155b156115c05760405163582f497d60e11b815260040160405180910390fd5b6001825160038111156115d5576115d56136ad565b14806115f357506002825160038111156115f1576115f16136ad565b145b801561160157506040820151155b801561160f57506060820151155b801561161d57508051516001105b156116d45760005b81515160ff821610156116d257600061163f82600161373b565b90505b82515160ff821610156116bf578251805160ff831690811061166657611666613725565b602002602001015183600001518360ff168151811061168757611687613725565b6020026020010151036116ad57604051633bdb90b360e21b815260040160405180910390fd5b806116b781613754565b915050611642565b50806116ca81613754565b915050611625565b505b816080015115610b7157610b7182602001518260000151836060015184608001518560a00151611fb9565b6000856003811115611713576117136136ad565b03611799576040516323b872dd60e01b81526001600160a01b0385811660048301528481166024830152604482018490528716906323b872dd906064016020604051808303816000875af115801561176f573d6000803e3d6000fd5b505050506040513d601f19601f820116820180604052508101906117939190613408565b50611ac2565b60018560038111156117ad576117ad6136ad565b036118a65780516000036117d45760405163e67bd0ad60e01b815260040160405180910390fd5b60005b81518160ff16101561179357866001600160a01b03166323b872dd8686858560ff168151811061180957611809613725565b60209081029190910101516040517fffffffff0000000000000000000000000000000000000000000000000000000060e086901b1681526001600160a01b0393841660048201529290911660248301526044820152606401600060405180830381600087803b15801561187b57600080fd5b505af115801561188f573d6000803e3d6000fd5b50505050808061189e90613754565b9150506117d7565b60028560038111156118ba576118ba6136ad565b03611aa957805160010361199057856001600160a01b031663f242432a8585846000815181106118ec576118ec613725565b60209081029190910101516040517fffffffff0000000000000000000000000000000000000000000000000000000060e086901b1681526001600160a01b03938416600482015292909116602483015260448201526064810185905260a06084820152600060a482015260c401600060405180830381600087803b15801561197357600080fd5b505af1158015611987573d6000803e3d6000fd5b50505050611ac2565b600181511115611a90576000815167ffffffffffffffff8111156119b6576119b661253e565b6040519080825280602002602001820160405280156119df578160200160208202803683370190505b50905060005b82518160ff161015611a25576001828260ff1681518110611a0857611a08613725565b602090810291909101015280611a1d81613754565b9150506119e5565b50604051631759616b60e11b81526001600160a01b03881690632eb2c2d690611a58908890889087908790600401613773565b600060405180830381600087803b158015611a7257600080fd5b505af1158015611a86573d6000803e3d6000fd5b5050505050611ac2565b60405163e67bd0ad60e01b815260040160405180910390fd5b604051639a9d6f4f60e01b815260040160405180910390fd5b505050505050565b60008060606001866003811115611ae357611ae36136ad565b1480611b0057506002866003811115611afe57611afe6136ad565b145b15611de65783600081518110611b1857611b18613725565b6020026020010151600003611b405760405163fdaa574560e01b815260040160405180910390fd5b835167ffffffffffffffff811115611b5a57611b5a61253e565b604051908082528060200260200182016040528015611b83578160200160208202803683370190505b50905060005b84518160ff161015611de0576001876003811115611ba957611ba96136ad565b148015611c515750876001600160a01b0316866001600160a01b0316636352211e878460ff1681518110611bdf57611bdf613725565b60200260200101516040518263ffffffff1660e01b8152600401611c0591815260200190565b602060405180830381865afa158015611c22573d6000803e3d6000fd5b505050506040513d601f19601f82011682018060405250810190611c4691906137ce565b6001600160a01b0316145b15611c995782611c60816137eb565b9350508380611c6e906137eb565b9450506001828260ff1681518110611c8857611c88613725565b602002602001018181525050611dce565b6002876003811115611cad57611cad6136ad565b03611dce57856001600160a01b031662fdd58e89878460ff1681518110611cd657611cd6613725565b60200260200101516040518363ffffffff1660e01b8152600401611d0f9291906001600160a01b03929092168252602082015260400190565b602060405180830381865afa158015611d2c573d6000803e3d6000fd5b505050506040513d601f19601f82011682018060405250810190611d50919061333f565b828260ff1681518110611d6557611d65613725565b6020026020010181815250506000828260ff1681518110611d8857611d88613725565b60200260200101511115611dce5782611da0816137eb565b935050818160ff1681518110611db857611db8613725565b602002602001015184611dcb919061336e565b93505b80611dd881613754565b915050611b89565b50611e97565b6000866003811115611dfa57611dfa6136ad565b03611e70576040516370a0823160e01b81526001600160a01b0388811660048301528616906370a0823190602401602060405180830381865afa158015611e45573d6000803e3d6000fd5b505050506040513d601f19601f82011682018060405250810190611e69919061333f565b9250611e97565b6003866003811115611e8457611e846136ad565b03611aa957866001600160a01b03163192505b9450945094915050565b6000807f7fffffffffffffffffffffffffffffff5d576e7357a4501ddfe92f46681b20a0831115611ed85750600090506003611f5c565b6040805160008082526020820180845289905260ff881692820192909252606081018690526080810185905260019060a0016020604051602081039080840390855afa158015611f2c573d6000803e3d6000fd5b5050604051601f1901519150506001600160a01b038116611f5557600060019250925050611f5c565b9150600090505b94509492505050565b60008451600003611f7857506000610ca2565b8451600103611fad57611fa6848387600081518110611f9957611f99613725565b60200260200101516120c6565b9050610ca2565b611fa68484848861211c565b60005b84518160ff161015611ac257733403bbfefe9cc0ddaa801d4d89f74fb838148e2e6001600160a01b0316632eec64ef87878460ff168151811061200157612001613725565b60200260200101516000888660ff168151811061202057612020613725565b6020026020010151888760ff168151811061203d5761203d613725565b6020026020010151888860ff168151811061205a5761205a613725565b60200260200101516040518763ffffffff1660e01b815260040161208396959493929190613804565b60006040518083038186803b15801561209b57600080fd5b505afa1580156120af573d6000803e3d6000fd5b5050505080806120be90613754565b915050611fbc565b600080826040516020016120dc91815260200190565b60408051601f1981840301815282825280516020918201209083015201604051602081830303815290604052805190602001209050610a47858583612215565b600080825167ffffffffffffffff8111156121395761213961253e565b604051908082528060200260200182016040528015612162578160200160208202803683370190505b50905060005b83518160ff16101561220857838160ff168151811061218957612189613725565b60200260200101516040516020016121a391815260200190565b60408051601f198184030181528282528051602091820120908301520160405160208183030381529060405280519060200120828260ff16815181106121eb576121eb613725565b60209081029190910101528061220081613754565b915050612168565b50610b0e8686868461222b565b6000826122228584612243565b14949350505050565b600082612239868685612288565b1495945050505050565b600081815b8451811015610f78576122748286838151811061226757612267613725565b60200260200101516124e1565b915080612280816137eb565b915050612248565b805182518451600092919081906001906122a2908561336e565b6122ac9190613381565b146122f95760405162461bcd60e51b815260206004820152601f60248201527f4d65726b6c6550726f6f663a20696e76616c6964206d756c746970726f6f6600604482015260640161056a565b60008167ffffffffffffffff8111156123145761231461253e565b60405190808252806020026020018201604052801561233d578160200160208202803683370190505b5090506000806000805b8581101561247d576000878510612382578584612363816137eb565b95508151811061237557612375613725565b60200260200101516123a8565b898561238d816137eb565b96508151811061239f5761239f613725565b60200260200101515b905060008b83815181106123be576123be613725565b60200260200101516123f4578c846123d5816137eb565b9550815181106123e7576123e7613725565b602002602001015161243e565b888610612418578685612406816137eb565b9650815181106123e7576123e7613725565b8a86612423816137eb565b97508151811061243557612435613725565b60200260200101515b905061244a82826124e1565b87848151811061245c5761245c613725565b60200260200101818152505050508080612475906137eb565b915050612347565b5084156124b55783612490600187613381565b815181106124a0576124a0613725565b60200260200101519650505050505050610781565b85156124ce57876000815181106124a0576124a0613725565b896000815181106124a0576124a0613725565b60008183106124fd576000828152602084905260409020610781565b6000838152602083905260409020610781565b60006020828403121561252257600080fd5b5035919050565b6001600160a01b038116811461052e57600080fd5b634e487b7160e01b600052604160045260246000fd5b60405160c0810167ffffffffffffffff811182821017156125775761257761253e565b60405290565b6040805190810167ffffffffffffffff811182821017156125775761257761253e565b60405160a0810167ffffffffffffffff811182821017156125775761257761253e565b604051601f8201601f1916810167ffffffffffffffff811182821017156125ec576125ec61253e565b604052919050565b600082601f83011261260557600080fd5b813567ffffffffffffffff81111561261f5761261f61253e565b612632601f8201601f19166020016125c3565b81815284602083860101111561264757600080fd5b816020850160208301376000918101602001919091529392505050565b60008060006060848603121561267957600080fd5b833561268481612529565b9250602084013567ffffffffffffffff8111156126a057600080fd5b6126ac868287016125f4565b925050604084013590509250925092565b600080604083850312156126d057600080fd5b50508035926020909101359150565b80356126ea81612529565b919050565b600067ffffffffffffffff8211156127095761270961253e565b5060051b60200190565b600082601f83011261272457600080fd5b81356020612739612734836126ef565b6125c3565b82815260059290921b8401810191818101908684111561275857600080fd5b8286015b84811015612773578035835291830191830161275c565b509695505050505050565b801515811461052e57600080fd5b600082601f83011261279d57600080fd5b813560206127ad612734836126ef565b82815260059290921b840181019181810190868411156127cc57600080fd5b8286015b848110156127735780356127e38161277e565b83529183019183016127d0565b600082601f83011261280157600080fd5b81356020612811612734836126ef565b82815260059290921b8401810191818101908684111561283057600080fd5b8286015b8481101561277357803567ffffffffffffffff8111156128545760008081fd5b6128628986838b01016125f4565b845250918301918301612834565b600060c0828403121561288257600080fd5b61288a612554565b9050813567ffffffffffffffff808211156128a457600080fd5b6128b085838601612713565b835260208401359150808211156128c657600080fd5b6128d285838601612713565b602084015260408401359150808211156128eb57600080fd5b6128f78583860161278c565b6040840152606084013591508082111561291057600080fd5b61291c85838601612713565b6060840152608084013591508082111561293557600080fd5b61294185838601612713565b608084015260a084013591508082111561295a57600080fd5b50612967848285016127f0565b60a08301525092915050565b60006040828403121561298557600080fd5b61298d61257d565b9050813561299a81612529565b8152602082013567ffffffffffffffff8111156129b657600080fd5b6129c2848285016125f4565b60208301525092915050565b600060a082840312156129e057600080fd5b6129e86125a0565b90506129f3826126df565b8152602082013567ffffffffffffffff80821115612a1057600080fd5b612a1c85838601612870565b60208401526040840135915080821115612a3557600080fd5b612a4185838601612870565b60408401526060840135915080821115612a5a57600080fd5b612a6685838601612973565b60608401526080840135915080821115612a7f57600080fd5b50612a8c848285016125f4565b60808301525092915050565b600060208284031215612aaa57600080fd5b813567ffffffffffffffff811115612ac157600080fd5b610ca2848285016129ce565b600060a08284031215612adf57600080fd5b612ae76125a0565b9050813560048110612af857600080fd5b81526020820135612b0881612529565b8060208301525060408201356040820152606082013560608201526080820135612b318161277e565b608082015292915050565b803567ffffffffffffffff811681146126ea57600080fd5b80356001600160801b03811681146126ea57600080fd5b600060608284031215612b7d57600080fd5b6040516060810181811067ffffffffffffffff82111715612ba057612ba061253e565b604052905080612baf83612b3c565b8152612bbd60208401612b54565b60208201526040830135612bd08161277e565b6040919091015292915050565b600080600080600080600080610240898b031215612bfa57600080fd5b8835612c0581612529565b9750612c148a60208b01612acd565b9650612c238a60c08b01612acd565b95506101608901359450610180890135612c3c81612529565b93506101a089013567ffffffffffffffff80821115612c5a57600080fd5b612c668c838d016125f4565b9450612c768c6101c08d01612b6b565b93506102208b0135915080821115612c8d57600080fd5b908a019060a0828d031215612ca157600080fd5b612ca96125a0565b612cb2836126df565b815260208301356020820152604083013582811115612cd057600080fd5b612cdc8e828601612870565b604083015250606083013582811115612cf457600080fd5b612d008e828601612870565b606083015250608083013582811115612d1857600080fd5b612d248e828601612973565b6080830152508093505050509295985092959890939650565b803562ffffff811681146126ea57600080fd5b600060808284031215612d6257600080fd5b6040516080810167ffffffffffffffff8282108183111715612d8657612d8661253e565b8160405282935084359150612d9a82612529565b90825260208401359080821115612db057600080fd5b612dbc86838701612870565b60208401526040850135915080821115612dd557600080fd5b612de186838701612870565b60408401526060850135915080821115612dfa57600080fd5b50612e0785828601612973565b6060830152505092915050565b60008060008060008060008060006102208a8c031215612e3357600080fd5b8935612e3e81612529565b985060208a013567ffffffffffffffff80821115612e5b57600080fd5b612e678d838e016125f4565b995060408c01359150612e7982612529565b819850612e898d60608e01612acd565b9750612e998d6101008e01612acd565b96506101a08c01359550612eb06101c08d01612d3d565b94506101e08c013593506102008c0135915080821115612ecf57600080fd5b50612edc8c828d01612d50565b9150509295985092959850929598565b600080600060608486031215612f0157600080fd5b83359250612f1160208501612d3d565b9150604084013590509250925092565b600060208284031215612f3357600080fd5b61078182612b3c565b60008060008060006101208688031215612f5557600080fd5b612f5f8787612acd565b945060a0860135612f6f81612529565b935060c0860135612f7f81612529565b925060e0860135915061010086013567ffffffffffffffff80821115612fa457600080fd5b908701906040828a031215612fb857600080fd5b612fc061257d565b8235612fcb81612529565b8152602083013582811115612fdf57600080fd5b612feb8b828601612870565b6020830152508093505050509295509295909350565b600080600080600060a0868803121561301957600080fd5b853594506020860135935060408601359250606086013561303981612529565b9150608086013567ffffffffffffffff81111561305557600080fd5b613061888289016125f4565b9150509295509295909350565b6000806000806080858703121561308457600080fd5b843593506020850135925061309b60408601612d3d565b9396929550929360600135925050565b60008060008060008060008060006102208a8c0312156130ca57600080fd5b6130d38a6126df565b98506130e28b60208c01612acd565b97506130f18b60c08c01612acd565b96506131006101608b016126df565b955061310f6101808b016126df565b94506101a08a013567ffffffffffffffff8082111561312d57600080fd5b6131398d838e016125f4565b95506101c08c013591508082111561315057600080fd5b61315c8d838e016125f4565b945061316b6101e08d016126df565b93506102008c013591508082111561318257600080fd5b50612edc8c828d016129ce565b600080600060a084860312156131a457600080fd5b6131ae8585612b6b565b95606085013595506080909401359392505050565b600080600080608085870312156131d957600080fd5b6131e285612b3c565b93506131f060208601612b54565b92506131fe60408601612b54565b9150606085013561ffff8116811461321557600080fd5b939692955090935050565b6000806000806080858703121561323657600080fd5b843561324181612529565b9350602085013567ffffffffffffffff8082111561325e57600080fd5b61326a88838901612870565b9450604087013591508082111561328057600080fd5b61328c88838901612870565b935060608701359150808211156132a257600080fd5b506132af87828801612973565b91505092959194509250565b600080608083850312156132ce57600080fd5b6132d88484612b6b565b946060939093013593505050565b6000815180845260005b8181101561330c576020818501810151868301820152016132f0565b506000602082860101526020601f19601f83011685010191505092915050565b60208152600061078160208301846132e6565b60006020828403121561335157600080fd5b5051919050565b634e487b7160e01b600052601160045260246000fd5b80820180821115610f5657610f56613358565b81810381811115610f5657610f56613358565b848152836020820152826040820152608060608201526000610b0e60808301846132e6565b8082028115828204841417610f5657610f56613358565b634e487b7160e01b600052601260045260246000fd5b60008261340357634e487b7160e01b600052601260045260246000fd5b500490565b60006020828403121561341a57600080fd5b81516107818161277e565b6001600160801b0381811683821601908082111561344557613445613358565b5092915050565b61ffff81811683821601908082111561344557613445613358565b600081518084526020808501945080840160005b838110156134975781518752958201959082019060010161347b565b509495945050505050565b600081518084526020808501945080840160005b838110156134975781511515875295820195908201906001016134b6565b600081518084526020808501808196508360051b8101915082860160005b8581101561351c57828403895261350a8483516132e6565b988501989350908401906001016134f2565b5091979650505050505050565b6000815160c0845261353e60c0850182613467565b60208481015186830387830152805180845290820193509091600091908301905b8083101561357f578451825293830193600192909201919083019061355f565b5060408601519350868103604088015261359981856134a2565b9350505050606083015184820360608601526135b58282613467565b915050608083015184820360808601526135cf8282613467565b91505060a083015184820360a0860152610a4782826134d4565b60006001600160a01b0380871683526080602084015261360c6080840187613529565b838103604085015261361e8187613529565b90508381036060850152818551168152602085015191506040602082015261364960408201836132e6565b98975050505050505050565b808201828112600083128015821682158216171561367557613675613358565b505092915050565b80820260008212600160ff1b8414161561369957613699613358565b8181058314821517610f5657610f56613358565b634e487b7160e01b600052602160045260246000fd5b6001600160a01b0383168152604060208201526000610ca260408301846132e6565b600082600f0b82600f0b0280600f0b915080821461344557613445613358565b818103600083128015838313168383128216171561344557613445613358565b634e487b7160e01b600052603260045260246000fd5b60ff8181168382160190811115610f5657610f56613358565b600060ff821660ff810361376a5761376a613358565b60010192915050565b60006001600160a01b03808716835280861660208401525060a0604083015261379f60a0830185613467565b82810360608401526137b18185613467565b838103608090940193909352505060008152602001949350505050565b6000602082840312156137e057600080fd5b815161078181612529565b6000600182016137fd576137fd613358565b5060010190565b6001600160a01b0387168152856020820152841515604082015283606082015282608082015260c060a0820152600061364960c08301846132e656fea164736f6c6343000811000a",
        "linkReferences": {}
    },
    "methodIdentifiers": {
        "blockInterval(uint64,uint128,uint128,uint16)": "e640b88e",
        "calcFee(uint256,uint24,uint256)": "5dd8480a",
        "calcSwapAmount(uint256,uint256)": "94636812",
        "getBlockIntervalState(uint64)": "8c78357f",
        "getFillStateX96(uint64)": "67956031",
        "getFilledAmount((uint64,uint128,bool),int256,uint256)": "f99ef3da",
        "getFilledPercentX96((uint64,uint128,bool),int256)": "fae52854",
        "getSwapAmount(address,bytes,uint256)": "777c63e9",
        "getUnfilledAmount((uint64,uint128,bool),int256,uint256)": "d290b422",
        "limitSwapExactInput(address,(uint8,address,bytes32,uint256,bool),(uint8,address,bytes32,uint256,bool),uint256,address,bytes,(uint64,uint128,bool),(address,uint256,(uint256[],bytes32[],bool[],uint256[],uint256[],bytes[]),(uint256[],bytes32[],bool[],uint256[],uint256[],bytes[]),(address,bytes)))": "42e8f5c8",
        "limitSwapExactInput_getInput()": "0b4b20d8",
        "limitSwapExactInput_getOutput(uint256,uint256,uint256,address,bytes)": "df93d194",
        "limitSwapExactOutput(address,(uint8,address,bytes32,uint256,bool),(uint8,address,bytes32,uint256,bool),uint256,address,bytes,(uint64,uint128,bool),(address,uint256,(uint256[],bytes32[],bool[],uint256[],uint256[],bytes[]),(uint256[],bytes32[],bool[],uint256[],uint256[],bytes[]),(address,bytes)))": "7060b692",
        "limitSwapExactOutput_getInput(uint256,uint256,uint256,address,bytes)": "7e40bd9c",
        "limitSwapExactOutput_getOutput()": "f1350531",
        "marketSwapExactInput(address,bytes,address,(uint8,address,bytes32,uint256,bool),(uint8,address,bytes32,uint256,bool),uint256,uint24,uint256,(address,(uint256[],bytes32[],bool[],uint256[],uint256[],bytes[]),(uint256[],bytes32[],bool[],uint256[],uint256[],bytes[]),(address,bytes)))": "49d9a218",
        "marketSwapExactInput_getOutput(uint256,uint256,uint24,uint256)": "9dd9cc99",
        "marketSwapExactOutput(address,bytes,address,(uint8,address,bytes32,uint256,bool),(uint8,address,bytes32,uint256,bool),uint256,uint24,uint256,(address,(uint256[],bytes32[],bool[],uint256[],uint256[],bytes[]),(uint256[],bytes32[],bool[],uint256[],uint256[],bytes[]),(address,bytes)))": "f4521723",
        "marketSwapExactOutput_getInput(uint256,uint256,uint24,uint256)": "b1afa993",
        "recoverSwapDataSigner((address,(uint256[],bytes32[],bool[],uint256[],uint256[],bytes[]),(uint256[],bytes32[],bool[],uint256[],uint256[],bytes[]),(address,bytes),bytes))": "3d075572",
        "requireBitNotUsed(uint256,uint256)": "181233ee",
        "requireBitUsed(uint256,uint256)": "47244b0d",
        "requireBlockMined(uint256)": "02908ed3",
        "requireBlockNotMined(uint256)": "502929ff",
        "requireUint256LowerBound(address,bytes,uint256)": "2b2fc43a",
        "requireUint256UpperBound(address,bytes,uint256)": "1041d4ff",
        "swap01(address,(uint8,address,bytes32,uint256,bool),(uint8,address,bytes32,uint256,bool),address,address,bytes,bytes,address,(address,(uint256[],bytes32[],bool[],uint256[],uint256[],bytes[]),(uint256[],bytes32[],bool[],uint256[],uint256[],bytes[]),(address,bytes),bytes))": "b20cd779",
        "transfer((uint8,address,bytes32,uint256,bool),address,address,uint256,(address,(uint256[],bytes32[],bool[],uint256[],uint256[],bytes[])))": "7b9e4507",
        "unsignedSwapDataHash(address,(uint256[],bytes32[],bool[],uint256[],uint256[],bytes[]),(uint256[],bytes32[],bool[],uint256[],uint256[],bytes[]),(address,bytes))": "f551791e",
        "useBit(uint256,uint256)": "a9aa5f7e"
    },
    "id": 66
}