{
  "abi": [
    {
      "inputs": [
        {
          "internalType": "uint64",
          "name": "id",
          "type": "uint64"
        },
        {
          "internalType": "uint128",
          "name": "initialStart",
          "type": "uint128"
        },
        {
          "internalType": "uint128",
          "name": "intervalMinSize",
          "type": "uint128"
        },
        {
          "internalType": "uint16",
          "name": "maxIntervals",
          "type": "uint16"
        }
      ],
      "name": "blockInterval",
      "outputs": [
        {
          "internalType": "bytes",
          "name": "",
          "type": "bytes"
        }
      ],
      "stateMutability": "pure",
      "type": "function"
    },
    {
      "inputs": [
        {
          "internalType": "address",
          "name": "owner",
          "type": "address"
        },
        {
          "components": [
            {
              "internalType": "enum TokenStandard",
              "name": "standard",
              "type": "uint8"
            },
            {
              "internalType": "address",
              "name": "addr",
              "type": "address"
            },
            {
              "internalType": "bytes32",
              "name": "idsMerkleRoot",
              "type": "bytes32"
            },
            {
              "internalType": "uint256",
              "name": "id",
              "type": "uint256"
            },
            {
              "internalType": "bool",
              "name": "disallowFlagged",
              "type": "bool"
            }
          ],
          "internalType": "struct Token",
          "name": "tokenIn",
          "type": "tuple"
        },
        {
          "components": [
            {
              "internalType": "enum TokenStandard",
              "name": "standard",
              "type": "uint8"
            },
            {
              "internalType": "address",
              "name": "addr",
              "type": "address"
            },
            {
              "internalType": "bytes32",
              "name": "idsMerkleRoot",
              "type": "bytes32"
            },
            {
              "internalType": "uint256",
              "name": "id",
              "type": "uint256"
            },
            {
              "internalType": "bool",
              "name": "disallowFlagged",
              "type": "bool"
            }
          ],
          "internalType": "struct Token",
          "name": "tokenOut",
          "type": "tuple"
        },
        {
          "internalType": "uint256",
          "name": "tokenInAmount",
          "type": "uint256"
        },
        {
          "internalType": "contract IPriceCurve",
          "name": "priceCurve",
          "type": "address"
        },
        {
          "internalType": "bytes",
          "name": "priceCurveParams",
          "type": "bytes"
        },
        {
          "components": [
            {
              "internalType": "uint64",
              "name": "id",
              "type": "uint64"
            },
            {
              "internalType": "uint128",
              "name": "startX96",
              "type": "uint128"
            },
            {
              "internalType": "bool",
              "name": "sign",
              "type": "bool"
            }
          ],
          "internalType": "struct FillStateParams",
          "name": "fillStateParams",
          "type": "tuple"
        }
      ],
      "name": "limitSwapExactInput",
      "outputs": [
        {
          "internalType": "bytes",
          "name": "",
          "type": "bytes"
        }
      ],
      "stateMutability": "pure",
      "type": "function"
    },
    {
      "inputs": [
        {
          "internalType": "contract IUint256Oracle",
          "name": "priceOracle",
          "type": "address"
        },
        {
          "internalType": "bytes",
          "name": "priceOracleParams",
          "type": "bytes"
        },
        {
          "internalType": "address",
          "name": "owner",
          "type": "address"
        },
        {
          "components": [
            {
              "internalType": "enum TokenStandard",
              "name": "standard",
              "type": "uint8"
            },
            {
              "internalType": "address",
              "name": "addr",
              "type": "address"
            },
            {
              "internalType": "bytes32",
              "name": "idsMerkleRoot",
              "type": "bytes32"
            },
            {
              "internalType": "uint256",
              "name": "id",
              "type": "uint256"
            },
            {
              "internalType": "bool",
              "name": "disallowFlagged",
              "type": "bool"
            }
          ],
          "internalType": "struct Token",
          "name": "tokenIn",
          "type": "tuple"
        },
        {
          "components": [
            {
              "internalType": "enum TokenStandard",
              "name": "standard",
              "type": "uint8"
            },
            {
              "internalType": "address",
              "name": "addr",
              "type": "address"
            },
            {
              "internalType": "bytes32",
              "name": "idsMerkleRoot",
              "type": "bytes32"
            },
            {
              "internalType": "uint256",
              "name": "id",
              "type": "uint256"
            },
            {
              "internalType": "bool",
              "name": "disallowFlagged",
              "type": "bool"
            }
          ],
          "internalType": "struct Token",
          "name": "tokenOut",
          "type": "tuple"
        },
        {
          "internalType": "uint256",
          "name": "tokenInAmount",
          "type": "uint256"
        },
        {
          "internalType": "uint24",
          "name": "feePercent",
          "type": "uint24"
        },
        {
          "internalType": "uint256",
          "name": "feeMinTokenOut",
          "type": "uint256"
        }
      ],
      "name": "marketSwapExactInput",
      "outputs": [
        {
          "internalType": "bytes",
          "name": "",
          "type": "bytes"
        }
      ],
      "stateMutability": "pure",
      "type": "function"
    },
    {
      "inputs": [
        {
          "internalType": "uint256",
          "name": "bitmapIndex",
          "type": "uint256"
        },
        {
          "internalType": "uint256",
          "name": "bit",
          "type": "uint256"
        }
      ],
      "name": "requireBitNotUsed",
      "outputs": [
        {
          "internalType": "bytes",
          "name": "",
          "type": "bytes"
        }
      ],
      "stateMutability": "pure",
      "type": "function"
    },
    {
      "inputs": [
        {
          "internalType": "uint256",
          "name": "bitmapIndex",
          "type": "uint256"
        },
        {
          "internalType": "uint256",
          "name": "bit",
          "type": "uint256"
        }
      ],
      "name": "requireBitUsed",
      "outputs": [
        {
          "internalType": "bytes",
          "name": "",
          "type": "bytes"
        }
      ],
      "stateMutability": "pure",
      "type": "function"
    },
    {
      "inputs": [
        {
          "internalType": "uint256",
          "name": "blockNumber",
          "type": "uint256"
        }
      ],
      "name": "requireBlockMined",
      "outputs": [
        {
          "internalType": "bytes",
          "name": "",
          "type": "bytes"
        }
      ],
      "stateMutability": "pure",
      "type": "function"
    },
    {
      "inputs": [
        {
          "internalType": "uint256",
          "name": "blockNumber",
          "type": "uint256"
        }
      ],
      "name": "requireBlockNotMined",
      "outputs": [
        {
          "internalType": "bytes",
          "name": "",
          "type": "bytes"
        }
      ],
      "stateMutability": "pure",
      "type": "function"
    },
    {
      "inputs": [
        {
          "internalType": "contract IUint256Oracle",
          "name": "uint256Oracle",
          "type": "address"
        },
        {
          "internalType": "bytes",
          "name": "params",
          "type": "bytes"
        },
        {
          "internalType": "uint256",
          "name": "lowerBound",
          "type": "uint256"
        }
      ],
      "name": "requireUint256LowerBound",
      "outputs": [
        {
          "internalType": "bytes",
          "name": "",
          "type": "bytes"
        }
      ],
      "stateMutability": "pure",
      "type": "function"
    },
    {
      "inputs": [
        {
          "internalType": "contract IUint256Oracle",
          "name": "uint256Oracle",
          "type": "address"
        },
        {
          "internalType": "bytes",
          "name": "params",
          "type": "bytes"
        },
        {
          "internalType": "uint256",
          "name": "upperBound",
          "type": "uint256"
        }
      ],
      "name": "requireUint256UpperBound",
      "outputs": [
        {
          "internalType": "bytes",
          "name": "",
          "type": "bytes"
        }
      ],
      "stateMutability": "pure",
      "type": "function"
    },
    {
      "inputs": [
        {
          "internalType": "address",
          "name": "owner",
          "type": "address"
        },
        {
          "components": [
            {
              "internalType": "enum TokenStandard",
              "name": "standard",
              "type": "uint8"
            },
            {
              "internalType": "address",
              "name": "addr",
              "type": "address"
            },
            {
              "internalType": "bytes32",
              "name": "idsMerkleRoot",
              "type": "bytes32"
            },
            {
              "internalType": "uint256",
              "name": "id",
              "type": "uint256"
            },
            {
              "internalType": "bool",
              "name": "disallowFlagged",
              "type": "bool"
            }
          ],
          "internalType": "struct Token",
          "name": "tokenIn",
          "type": "tuple"
        },
        {
          "components": [
            {
              "internalType": "enum TokenStandard",
              "name": "standard",
              "type": "uint8"
            },
            {
              "internalType": "address",
              "name": "addr",
              "type": "address"
            },
            {
              "internalType": "bytes32",
              "name": "idsMerkleRoot",
              "type": "bytes32"
            },
            {
              "internalType": "uint256",
              "name": "id",
              "type": "uint256"
            },
            {
              "internalType": "bool",
              "name": "disallowFlagged",
              "type": "bool"
            }
          ],
          "internalType": "struct Token",
          "name": "tokenOut",
          "type": "tuple"
        },
        {
          "internalType": "contract ISwapAmount",
          "name": "inputAmountContract",
          "type": "address"
        },
        {
          "internalType": "contract ISwapAmount",
          "name": "outputAmountContract",
          "type": "address"
        },
        {
          "internalType": "bytes",
          "name": "inputAmountParams",
          "type": "bytes"
        },
        {
          "internalType": "bytes",
          "name": "outputAmountParams",
          "type": "bytes"
        },
        {
          "internalType": "contract ISolverValidator",
          "name": "solverValidator",
          "type": "address"
        }
      ],
      "name": "swap01",
      "outputs": [
        {
          "internalType": "bytes",
          "name": "",
          "type": "bytes"
        }
      ],
      "stateMutability": "pure",
      "type": "function"
    },
    {
      "inputs": [
        {
          "internalType": "uint256",
          "name": "bitmapIndex",
          "type": "uint256"
        },
        {
          "internalType": "uint256",
          "name": "bit",
          "type": "uint256"
        }
      ],
      "name": "useBit",
      "outputs": [
        {
          "internalType": "bytes",
          "name": "",
          "type": "bytes"
        }
      ],
      "stateMutability": "pure",
      "type": "function"
    }
  ],
  "bytecode": {
    "object": "0x608060405234801561001057600080fd5b50610e2d806100206000396000f3fe608060405234801561001057600080fd5b50600436106100c95760003560e01c806347244b0d11610081578063bfadb4e61161005b578063bfadb4e61461017c578063e39f09971461018f578063e640b88e146101a257600080fd5b806347244b0d14610143578063502929ff14610156578063a9aa5f7e1461016957600080fd5b8063181233ee116100b2578063181233ee1461010a5780632b2fc43a1461011d57806337698a491461013057600080fd5b806302908ed3146100ce5780631041d4ff146100f7575b600080fd5b6100e16100dc36600461061e565b6101b5565b6040516100ee919061067d565b60405180910390f35b6100e161010536600461077b565b610239565b6100e16101183660046107d4565b6102c2565b6100e161012b36600461077b565b610352565b6100e161013e3660046108d0565b610377565b6100e16101513660046107d4565b610419565b6100e161016436600461061e565b610446565b6100e16101773660046107d4565b61046c565b6100e161018a3660046109ba565b610499565b6100e161019d366004610a74565b61053e565b6100e16101b0366004610b4d565b61057a565b6040805180820190915260648101829052606090806302908ed360e01b608482015b60408051601f19818403018152918152602080830180516001600160e01b03166001600160e01b0319909516949094179093529083526000928201929092529051610223929101610baa565b6040516020818303038152906040529050919050565b6040805180820190915260609080631041d4ff60e01b61025e87878760648601610bde565b60408051601f19818403018152918152602080830180516001600160e01b03166001600160e01b03199095169490941790935290835260009282019290925290516102aa929101610baa565b60405160208183030381529060405290509392505050565b6040805180820190915260609080630c0919f760e11b6102ef868660648501918252602082015260400190565b60408051601f19818403018152918152602080830180516001600160e01b03166001600160e01b031990951694909417909352908352600092820192909252905161033b929101610baa565b604051602081830303815290604052905092915050565b6040805180820190915260609080631597e21d60e11b61025e87878760648601610bde565b6040805160008183019081526060808301909352819063085d1eb960e31b906103b1908c908c908c908c908c908c908c9060848b01610c66565b60408051601f19818403018152918152602080830180516001600160e01b03166001600160e01b03199095169490941790935290835260019282019290925290516103fd929101610baa565b6040516020818303038152906040529050979650505050505050565b60408051808201909152606090806347244b0d60e01b6102ef868660648501918252602082015260400190565b60408051808201909152606481018290526060908063502929ff60e01b608482016101d7565b60408051808201909152606090806354d52fbf60e11b6102ef868660648501918252602082015260400190565b6040805160008183019081526060808301909352819063093b344360e31b906104d5908d908d908d908d908d908d908d908d9060848c01610d16565b60408051601f19818403018152918152602080830180516001600160e01b03166001600160e01b0319909516949094179093529083526001928201929092529051610521929101610baa565b604051602081830303815290604052905098975050505050505050565b6040805160008183019081526060808301909352819063b20cd77960e01b906104d5908d908d908d908d908d908d908d908d9060848c01610d9c565b60408051808201825267ffffffffffffffff861660648201526fffffffffffffffffffffffffffffffff8581166084830152841660a482015261ffff831660c4808301919091528251808303909101815260e482018352602080820180516001600160e01b03166373205c4760e11b1790529082526000818301529151606092610605929101610baa565b6040516020818303038152906040529050949350505050565b60006020828403121561063057600080fd5b5035919050565b6000815180845260005b8181101561065d57602081850181015186830182015201610641565b506000602082860101526020601f19601f83011685010191505092915050565b6020815260006106906020830184610637565b9392505050565b6001600160a01b03811681146106ac57600080fd5b50565b634e487b7160e01b600052604160045260246000fd5b6040516060810167ffffffffffffffff811182821017156106e8576106e86106af565b60405290565b600082601f8301126106ff57600080fd5b813567ffffffffffffffff8082111561071a5761071a6106af565b604051601f8301601f19908116603f01168101908282118183101715610742576107426106af565b8160405283815286602085880101111561075b57600080fd5b836020870160208301376000602085830101528094505050505092915050565b60008060006060848603121561079057600080fd5b833561079b81610697565b9250602084013567ffffffffffffffff8111156107b757600080fd5b6107c3868287016106ee565b925050604084013590509250925092565b600080604083850312156107e757600080fd5b50508035926020909101359150565b8035801515811461080657600080fd5b919050565b600060a0828403121561081d57600080fd5b60405160a0810181811067ffffffffffffffff82111715610840576108406106af565b60405290508082356004811061085557600080fd5b8152602083013561086581610697565b80602083015250604083013560408201526060830135606082015261088c608084016107f6565b60808201525092915050565b803567ffffffffffffffff8116811461080657600080fd5b80356fffffffffffffffffffffffffffffffff8116811461080657600080fd5b60008060008060008060008789036102208112156108ed57600080fd5b88356108f881610697565b97506109078a60208b0161080b565b96506109168a60c08b0161080b565b9550610160890135945061018089013561092f81610697565b93506101a089013567ffffffffffffffff81111561094c57600080fd5b6109588b828c016106ee565b93505060606101bf198201121561096e57600080fd5b506109776106c5565b6109846101c08a01610898565b81526109936101e08a016108b0565b60208201526109a56102008a016107f6565b60408201528091505092959891949750929550565b600080600080600080600080610200898b0312156109d757600080fd5b88356109e281610697565b9750602089013567ffffffffffffffff8111156109fe57600080fd5b610a0a8b828c016106ee565b9750506040890135610a1b81610697565b9550610a2a8a60608b0161080b565b9450610a3a8a6101008b0161080b565b93506101a089013592506101c089013562ffffff81168114610a5b57600080fd5b809250506101e089013590509295985092959890939650565b600080600080600080600080610200898b031215610a9157600080fd5b8835610a9c81610697565b9750610aab8a60208b0161080b565b9650610aba8a60c08b0161080b565b9550610160890135610acb81610697565b9450610180890135610adc81610697565b93506101a089013567ffffffffffffffff80821115610afa57600080fd5b610b068c838d016106ee565b94506101c08b0135915080821115610b1d57600080fd5b50610b2a8b828c016106ee565b9250506101e0890135610b3c81610697565b809150509295985092959890939650565b60008060008060808587031215610b6357600080fd5b610b6c85610898565b9350610b7a602086016108b0565b9250610b88604086016108b0565b9150606085013561ffff81168114610b9f57600080fd5b939692955090935050565b602081526000825160406020840152610bc66060840182610637565b90506020840151151560408401528091505092915050565b6001600160a01b0384168152606060208201526000610c006060830185610637565b9050826040830152949350505050565b805160048110610c3057634e487b7160e01b600052602160045260246000fd5b82526020818101516001600160a01b03169083015260408082015190830152606080820151908301526080908101511515910152565b60006102406001600160a01b03808c168452610c85602085018c610c10565b610c9260c085018b610c10565b8861016085015280881661018085015250806101a0840152610cb681840187610637565b905067ffffffffffffffff8551166101c08401526fffffffffffffffffffffffffffffffff6020860151166101e084015260408501511515610200840152828103610220840152610d078185610637565b9b9a5050505050505050505050565b60006102206001600160a01b03808d168452816020850152610d3a8285018d610637565b908b1660408501529050610d51606084018a610c10565b610d5f610100840189610c10565b866101a084015262ffffff86166101c0840152846101e0840152828103610200840152610d8c8185610637565b9c9b505050505050505050505050565b60006102206001600160a01b03808d168452610dbb602085018d610c10565b610dc860c085018c610c10565b808a16610160850152808916610180850152816101a0850152610ded82850189610637565b91508382036101c0850152610e028288610637565b9086166101e08501528381036102008501529050610d8c818561063756fea164736f6c6343000811000a",
    "linkReferences": {}
  },
  "methodIdentifiers": {
    "blockInterval(uint64,uint128,uint128,uint16)": "e640b88e",
    "limitSwapExactInput(address,(uint8,address,bytes32,uint256,bool),(uint8,address,bytes32,uint256,bool),uint256,address,bytes,(uint64,uint128,bool))": "37698a49",
    "marketSwapExactInput(address,bytes,address,(uint8,address,bytes32,uint256,bool),(uint8,address,bytes32,uint256,bool),uint256,uint24,uint256)": "bfadb4e6",
    "requireBitNotUsed(uint256,uint256)": "181233ee",
    "requireBitUsed(uint256,uint256)": "47244b0d",
    "requireBlockMined(uint256)": "02908ed3",
    "requireBlockNotMined(uint256)": "502929ff",
    "requireUint256LowerBound(address,bytes,uint256)": "2b2fc43a",
    "requireUint256UpperBound(address,bytes,uint256)": "1041d4ff",
    "swap01(address,(uint8,address,bytes32,uint256,bool),(uint8,address,bytes32,uint256,bool),address,address,bytes,bytes,address)": "e39f0997",
    "useBit(uint256,uint256)": "a9aa5f7e"
  },
  "id": 44
}