{
  "abi": [
    {
      "inputs": [
        {
          "internalType": "uint8",
          "name": "intentIndex",
          "type": "uint8"
        },
        {
          "internalType": "bytes",
          "name": "unsignedCall1",
          "type": "bytes"
        },
        {
          "internalType": "bytes",
          "name": "unsignedCall2",
          "type": "bytes"
        },
        {
          "internalType": "bytes",
          "name": "unsignedCall3",
          "type": "bytes"
        },
        {
          "internalType": "bytes",
          "name": "unsignedCall4",
          "type": "bytes"
        },
        {
          "internalType": "bytes",
          "name": "unsignedCall5",
          "type": "bytes"
        },
        {
          "internalType": "bytes",
          "name": "unsignedCall6",
          "type": "bytes"
        },
        {
          "internalType": "bytes",
          "name": "unsignedCall7",
          "type": "bytes"
        }
      ],
      "name": "unsignedData",
      "outputs": [
        {
          "internalType": "bytes",
          "name": "",
          "type": "bytes"
        }
      ],
      "stateMutability": "pure",
      "type": "function"
    },
    {
      "inputs": [
        {
          "internalType": "uint8",
          "name": "intentIndex",
          "type": "uint8"
        },
        {
          "internalType": "bytes",
          "name": "unsignedCall1",
          "type": "bytes"
        },
        {
          "internalType": "bytes",
          "name": "unsignedCall2",
          "type": "bytes"
        },
        {
          "internalType": "bytes",
          "name": "unsignedCall3",
          "type": "bytes"
        },
        {
          "internalType": "bytes",
          "name": "unsignedCall4",
          "type": "bytes"
        },
        {
          "internalType": "bytes",
          "name": "unsignedCall5",
          "type": "bytes"
        },
        {
          "internalType": "bytes",
          "name": "unsignedCall6",
          "type": "bytes"
        }
      ],
      "name": "unsignedData",
      "outputs": [
        {
          "internalType": "bytes",
          "name": "",
          "type": "bytes"
        }
      ],
      "stateMutability": "pure",
      "type": "function"
    },
    {
      "inputs": [
        {
          "internalType": "uint8",
          "name": "intentIndex",
          "type": "uint8"
        },
        {
          "internalType": "bytes",
          "name": "unsignedCall1",
          "type": "bytes"
        },
        {
          "internalType": "bytes",
          "name": "unsignedCall2",
          "type": "bytes"
        },
        {
          "internalType": "bytes",
          "name": "unsignedCall3",
          "type": "bytes"
        },
        {
          "internalType": "bytes",
          "name": "unsignedCall4",
          "type": "bytes"
        },
        {
          "internalType": "bytes",
          "name": "unsignedCall5",
          "type": "bytes"
        },
        {
          "internalType": "bytes",
          "name": "unsignedCall6",
          "type": "bytes"
        },
        {
          "internalType": "bytes",
          "name": "unsignedCall7",
          "type": "bytes"
        },
        {
          "internalType": "bytes",
          "name": "unsignedCall8",
          "type": "bytes"
        }
      ],
      "name": "unsignedData",
      "outputs": [
        {
          "internalType": "bytes",
          "name": "",
          "type": "bytes"
        }
      ],
      "stateMutability": "pure",
      "type": "function"
    },
    {
      "inputs": [
        {
          "internalType": "uint8",
          "name": "intentIndex",
          "type": "uint8"
        },
        {
          "internalType": "bytes",
          "name": "unsignedCall1",
          "type": "bytes"
        },
        {
          "internalType": "bytes",
          "name": "unsignedCall2",
          "type": "bytes"
        },
        {
          "internalType": "bytes",
          "name": "unsignedCall3",
          "type": "bytes"
        },
        {
          "internalType": "bytes",
          "name": "unsignedCall4",
          "type": "bytes"
        },
        {
          "internalType": "bytes",
          "name": "unsignedCall5",
          "type": "bytes"
        }
      ],
      "name": "unsignedData",
      "outputs": [
        {
          "internalType": "bytes",
          "name": "",
          "type": "bytes"
        }
      ],
      "stateMutability": "pure",
      "type": "function"
    },
    {
      "inputs": [
        {
          "internalType": "uint8",
          "name": "intentIndex",
          "type": "uint8"
        },
        {
          "internalType": "bytes",
          "name": "unsignedCall1",
          "type": "bytes"
        },
        {
          "internalType": "bytes",
          "name": "unsignedCall2",
          "type": "bytes"
        },
        {
          "internalType": "bytes",
          "name": "unsignedCall3",
          "type": "bytes"
        },
        {
          "internalType": "bytes",
          "name": "unsignedCall4",
          "type": "bytes"
        }
      ],
      "name": "unsignedData",
      "outputs": [
        {
          "internalType": "bytes",
          "name": "",
          "type": "bytes"
        }
      ],
      "stateMutability": "pure",
      "type": "function"
    },
    {
      "inputs": [
        {
          "internalType": "uint8",
          "name": "intentIndex",
          "type": "uint8"
        },
        {
          "internalType": "bytes",
          "name": "unsignedCall1",
          "type": "bytes"
        }
      ],
      "name": "unsignedData",
      "outputs": [
        {
          "internalType": "bytes",
          "name": "",
          "type": "bytes"
        }
      ],
      "stateMutability": "pure",
      "type": "function"
    },
    {
      "inputs": [
        {
          "internalType": "uint8",
          "name": "intentIndex",
          "type": "uint8"
        },
        {
          "internalType": "bytes",
          "name": "unsignedCall1",
          "type": "bytes"
        },
        {
          "internalType": "bytes",
          "name": "unsignedCall2",
          "type": "bytes"
        }
      ],
      "name": "unsignedData",
      "outputs": [
        {
          "internalType": "bytes",
          "name": "",
          "type": "bytes"
        }
      ],
      "stateMutability": "pure",
      "type": "function"
    },
    {
      "inputs": [
        {
          "internalType": "uint8",
          "name": "intentIndex",
          "type": "uint8"
        },
        {
          "internalType": "bytes",
          "name": "unsignedCall1",
          "type": "bytes"
        },
        {
          "internalType": "bytes",
          "name": "unsignedCall2",
          "type": "bytes"
        },
        {
          "internalType": "bytes",
          "name": "unsignedCall3",
          "type": "bytes"
        }
      ],
      "name": "unsignedData",
      "outputs": [
        {
          "internalType": "bytes",
          "name": "",
          "type": "bytes"
        }
      ],
      "stateMutability": "pure",
      "type": "function"
    },
    {
      "inputs": [
        {
          "internalType": "uint8",
          "name": "intentIndex",
          "type": "uint8"
        },
        {
          "internalType": "bytes",
          "name": "unsignedCall1",
          "type": "bytes"
        },
        {
          "internalType": "bytes",
          "name": "unsignedCall2",
          "type": "bytes"
        },
        {
          "internalType": "bytes",
          "name": "unsignedCall3",
          "type": "bytes"
        },
        {
          "internalType": "bytes",
          "name": "unsignedCall4",
          "type": "bytes"
        },
        {
          "internalType": "bytes",
          "name": "unsignedCall5",
          "type": "bytes"
        },
        {
          "internalType": "bytes",
          "name": "unsignedCall6",
          "type": "bytes"
        },
        {
          "internalType": "bytes",
          "name": "unsignedCall7",
          "type": "bytes"
        },
        {
          "internalType": "bytes",
          "name": "unsignedCall8",
          "type": "bytes"
        },
        {
          "internalType": "bytes",
          "name": "unsignedCall9",
          "type": "bytes"
        }
      ],
      "name": "unsignedData",
      "outputs": [
        {
          "internalType": "bytes",
          "name": "",
          "type": "bytes"
        }
      ],
      "stateMutability": "pure",
      "type": "function"
    },
    {
      "inputs": [
        {
          "internalType": "uint8",
          "name": "intentIndex",
          "type": "uint8"
        },
        {
          "internalType": "bytes",
          "name": "unsignedCall1",
          "type": "bytes"
        },
        {
          "internalType": "bytes",
          "name": "unsignedCall2",
          "type": "bytes"
        },
        {
          "internalType": "bytes",
          "name": "unsignedCall3",
          "type": "bytes"
        },
        {
          "internalType": "bytes",
          "name": "unsignedCall4",
          "type": "bytes"
        },
        {
          "internalType": "bytes",
          "name": "unsignedCall5",
          "type": "bytes"
        },
        {
          "internalType": "bytes",
          "name": "unsignedCall6",
          "type": "bytes"
        },
        {
          "internalType": "bytes",
          "name": "unsignedCall7",
          "type": "bytes"
        },
        {
          "internalType": "bytes",
          "name": "unsignedCall8",
          "type": "bytes"
        },
        {
          "internalType": "bytes",
          "name": "unsignedCall9",
          "type": "bytes"
        },
        {
          "internalType": "bytes",
          "name": "unsignedCall10",
          "type": "bytes"
        }
      ],
      "name": "unsignedData",
      "outputs": [
        {
          "internalType": "bytes",
          "name": "",
          "type": "bytes"
        }
      ],
      "stateMutability": "pure",
      "type": "function"
    },
    {
      "inputs": [
        {
          "internalType": "address",
          "name": "recipient",
          "type": "address"
        },
        {
          "internalType": "uint256",
          "name": "amount",
          "type": "uint256"
        },
        {
          "components": [
            {
              "internalType": "uint256[]",
              "name": "ids",
              "type": "uint256[]"
            },
            {
              "internalType": "bytes32[]",
              "name": "merkleProof_hashes",
              "type": "bytes32[]"
            },
            {
              "internalType": "bool[]",
              "name": "merkleProof_flags",
              "type": "bool[]"
            },
            {
              "internalType": "uint256[]",
              "name": "statusProof_lastTransferTimes",
              "type": "uint256[]"
            },
            {
              "internalType": "uint256[]",
              "name": "statusProof_timestamps",
              "type": "uint256[]"
            },
            {
              "internalType": "bytes[]",
              "name": "statusProof_signatures",
              "type": "bytes[]"
            }
          ],
          "internalType": "struct IdsProof",
          "name": "tokenInIdsProof",
          "type": "tuple"
        },
        {
          "components": [
            {
              "internalType": "uint256[]",
              "name": "ids",
              "type": "uint256[]"
            },
            {
              "internalType": "bytes32[]",
              "name": "merkleProof_hashes",
              "type": "bytes32[]"
            },
            {
              "internalType": "bool[]",
              "name": "merkleProof_flags",
              "type": "bool[]"
            },
            {
              "internalType": "uint256[]",
              "name": "statusProof_lastTransferTimes",
              "type": "uint256[]"
            },
            {
              "internalType": "uint256[]",
              "name": "statusProof_timestamps",
              "type": "uint256[]"
            },
            {
              "internalType": "bytes[]",
              "name": "statusProof_signatures",
              "type": "bytes[]"
            }
          ],
          "internalType": "struct IdsProof",
          "name": "tokenOutIdsProof",
          "type": "tuple"
        },
        {
          "components": [
            {
              "internalType": "address",
              "name": "targetContract",
              "type": "address"
            },
            {
              "internalType": "bytes",
              "name": "data",
              "type": "bytes"
            }
          ],
          "internalType": "struct Call",
          "name": "fillCall",
          "type": "tuple"
        }
      ],
      "name": "unsignedLimitSwapData",
      "outputs": [
        {
          "internalType": "bytes",
          "name": "",
          "type": "bytes"
        }
      ],
      "stateMutability": "pure",
      "type": "function"
    },
    {
      "inputs": [
        {
          "internalType": "address",
          "name": "recipient",
          "type": "address"
        },
        {
          "components": [
            {
              "internalType": "uint256[]",
              "name": "ids",
              "type": "uint256[]"
            },
            {
              "internalType": "bytes32[]",
              "name": "merkleProof_hashes",
              "type": "bytes32[]"
            },
            {
              "internalType": "bool[]",
              "name": "merkleProof_flags",
              "type": "bool[]"
            },
            {
              "internalType": "uint256[]",
              "name": "statusProof_lastTransferTimes",
              "type": "uint256[]"
            },
            {
              "internalType": "uint256[]",
              "name": "statusProof_timestamps",
              "type": "uint256[]"
            },
            {
              "internalType": "bytes[]",
              "name": "statusProof_signatures",
              "type": "bytes[]"
            }
          ],
          "internalType": "struct IdsProof",
          "name": "tokenInIdsProof",
          "type": "tuple"
        },
        {
          "components": [
            {
              "internalType": "uint256[]",
              "name": "ids",
              "type": "uint256[]"
            },
            {
              "internalType": "bytes32[]",
              "name": "merkleProof_hashes",
              "type": "bytes32[]"
            },
            {
              "internalType": "bool[]",
              "name": "merkleProof_flags",
              "type": "bool[]"
            },
            {
              "internalType": "uint256[]",
              "name": "statusProof_lastTransferTimes",
              "type": "uint256[]"
            },
            {
              "internalType": "uint256[]",
              "name": "statusProof_timestamps",
              "type": "uint256[]"
            },
            {
              "internalType": "bytes[]",
              "name": "statusProof_signatures",
              "type": "bytes[]"
            }
          ],
          "internalType": "struct IdsProof",
          "name": "tokenOutIdsProof",
          "type": "tuple"
        },
        {
          "components": [
            {
              "internalType": "address",
              "name": "targetContract",
              "type": "address"
            },
            {
              "internalType": "bytes",
              "name": "data",
              "type": "bytes"
            }
          ],
          "internalType": "struct Call",
          "name": "fillCall",
          "type": "tuple"
        }
      ],
      "name": "unsignedMarketSwapData",
      "outputs": [
        {
          "internalType": "bytes",
          "name": "",
          "type": "bytes"
        }
      ],
      "stateMutability": "pure",
      "type": "function"
    },
    {
      "inputs": [
        {
          "internalType": "address",
          "name": "recipient",
          "type": "address"
        },
        {
          "components": [
            {
              "internalType": "uint256[]",
              "name": "ids",
              "type": "uint256[]"
            },
            {
              "internalType": "bytes32[]",
              "name": "merkleProof_hashes",
              "type": "bytes32[]"
            },
            {
              "internalType": "bool[]",
              "name": "merkleProof_flags",
              "type": "bool[]"
            },
            {
              "internalType": "uint256[]",
              "name": "statusProof_lastTransferTimes",
              "type": "uint256[]"
            },
            {
              "internalType": "uint256[]",
              "name": "statusProof_timestamps",
              "type": "uint256[]"
            },
            {
              "internalType": "bytes[]",
              "name": "statusProof_signatures",
              "type": "bytes[]"
            }
          ],
          "internalType": "struct IdsProof",
          "name": "tokenInIdsProof",
          "type": "tuple"
        },
        {
          "components": [
            {
              "internalType": "uint256[]",
              "name": "ids",
              "type": "uint256[]"
            },
            {
              "internalType": "bytes32[]",
              "name": "merkleProof_hashes",
              "type": "bytes32[]"
            },
            {
              "internalType": "bool[]",
              "name": "merkleProof_flags",
              "type": "bool[]"
            },
            {
              "internalType": "uint256[]",
              "name": "statusProof_lastTransferTimes",
              "type": "uint256[]"
            },
            {
              "internalType": "uint256[]",
              "name": "statusProof_timestamps",
              "type": "uint256[]"
            },
            {
              "internalType": "bytes[]",
              "name": "statusProof_signatures",
              "type": "bytes[]"
            }
          ],
          "internalType": "struct IdsProof",
          "name": "tokenOutIdsProof",
          "type": "tuple"
        },
        {
          "components": [
            {
              "internalType": "address",
              "name": "targetContract",
              "type": "address"
            },
            {
              "internalType": "bytes",
              "name": "data",
              "type": "bytes"
            }
          ],
          "internalType": "struct Call",
          "name": "fillCall",
          "type": "tuple"
        },
        {
          "internalType": "bytes",
          "name": "signature",
          "type": "bytes"
        }
      ],
      "name": "unsignedSwapData",
      "outputs": [
        {
          "internalType": "bytes",
          "name": "",
          "type": "bytes"
        }
      ],
      "stateMutability": "pure",
      "type": "function"
    },
    {
      "inputs": [
        {
          "internalType": "address",
          "name": "recipient",
          "type": "address"
        },
        {
          "components": [
            {
              "internalType": "uint256[]",
              "name": "ids",
              "type": "uint256[]"
            },
            {
              "internalType": "bytes32[]",
              "name": "merkleProof_hashes",
              "type": "bytes32[]"
            },
            {
              "internalType": "bool[]",
              "name": "merkleProof_flags",
              "type": "bool[]"
            },
            {
              "internalType": "uint256[]",
              "name": "statusProof_lastTransferTimes",
              "type": "uint256[]"
            },
            {
              "internalType": "uint256[]",
              "name": "statusProof_timestamps",
              "type": "uint256[]"
            },
            {
              "internalType": "bytes[]",
              "name": "statusProof_signatures",
              "type": "bytes[]"
            }
          ],
          "internalType": "struct IdsProof",
          "name": "tokenInIdsProof",
          "type": "tuple"
        },
        {
          "components": [
            {
              "internalType": "uint256[]",
              "name": "ids",
              "type": "uint256[]"
            },
            {
              "internalType": "bytes32[]",
              "name": "merkleProof_hashes",
              "type": "bytes32[]"
            },
            {
              "internalType": "bool[]",
              "name": "merkleProof_flags",
              "type": "bool[]"
            },
            {
              "internalType": "uint256[]",
              "name": "statusProof_lastTransferTimes",
              "type": "uint256[]"
            },
            {
              "internalType": "uint256[]",
              "name": "statusProof_timestamps",
              "type": "uint256[]"
            },
            {
              "internalType": "bytes[]",
              "name": "statusProof_signatures",
              "type": "bytes[]"
            }
          ],
          "internalType": "struct IdsProof",
          "name": "tokenOutIdsProof",
          "type": "tuple"
        },
        {
          "components": [
            {
              "internalType": "address",
              "name": "targetContract",
              "type": "address"
            },
            {
              "internalType": "bytes",
              "name": "data",
              "type": "bytes"
            }
          ],
          "internalType": "struct Call",
          "name": "fillCall",
          "type": "tuple"
        }
      ],
      "name": "unsignedSwapDataHash",
      "outputs": [
        {
          "internalType": "bytes32",
          "name": "dataHash",
          "type": "bytes32"
        }
      ],
      "stateMutability": "pure",
      "type": "function"
    }
  ],
  "bytecode": {
    "object": "0x608060405234801561001057600080fd5b5061200e806100206000396000f3fe608060405234801561001057600080fd5b50600436106100ea5760003560e01c80639ea252ea1161008c578063c352225011610066578063c3522250146101c3578063eb8b8cd9146101d6578063f551791e146101e9578063f75dbfe71461020a57600080fd5b80639ea252ea1461018a578063bb5de5151461019d578063bf78373d146101b057600080fd5b8063281bffdd116100c8578063281bffdd1461013e57806341462725146101515780635c1c43e0146101645780638c98998a1461017757600080fd5b806304fa493e146100ef57806313650d1214610118578063231317451461012b575b600080fd5b6101026100fd366004610e51565b61021d565b60405161010f9190610fc3565b60405180910390f35b610102610126366004610fdd565b61035b565b6101026101393660046110e4565b610478565b61010261014c366004611235565b6105d6565b61010261015f366004611316565b6106d3565b6101026101723660046113d4565b6107b0565b61010261018536600461172b565b61082c565b6101026101983660046117c4565b61085e565b6101026101ab366004611838565b6108f9565b6101026101be3660046118c5565b6109b6565b6101026101d136600461195b565b6109eb565b6101026101e4366004611ad2565b610b69565b6101fc6101f736600461172b565b610d07565b60405190815260200161010f565b610102610218366004611c7d565b610d40565b604080516007808252610100820190925260609160009190816020015b606081526020019060019003908161023a579050509050888160008151811061026557610265611d0b565b6020026020010181905250878160018151811061028457610284611d0b565b602002602001018190525086816002815181106102a3576102a3611d0b565b602002602001018190525085816003815181106102c2576102c2611d0b565b602002602001018190525084816004815181106102e1576102e1611d0b565b6020026020010181905250838160058151811061030057610300611d0b565b6020026020010181905250828160068151811061031f5761031f611d0b565b6020026020010181905250898160405160200161033d929190611d76565b60405160208183030381529060405291505098975050505050505050565b60408051600680825260e0820190925260609160009190816020015b606081526020019060019003908161037757905050905087816000815181106103a2576103a2611d0b565b602002602001018190525086816001815181106103c1576103c1611d0b565b602002602001018190525085816002815181106103e0576103e0611d0b565b602002602001018190525084816003815181106103ff576103ff611d0b565b6020026020010181905250838160048151811061041e5761041e611d0b565b6020026020010181905250828160058151811061043d5761043d611d0b565b6020026020010181905250888160405160200161045b929190611d76565b604051602081830303815290604052915050979650505050505050565b604080516008808252610120820190925260609160009190816020015b606081526020019060019003908161049557905050905089816000815181106104c0576104c0611d0b565b602002602001018190525088816001815181106104df576104df611d0b565b602002602001018190525087816002815181106104fe576104fe611d0b565b6020026020010181905250868160038151811061051d5761051d611d0b565b6020026020010181905250858160048151811061053c5761053c611d0b565b6020026020010181905250848160058151811061055b5761055b611d0b565b6020026020010181905250838160068151811061057a5761057a611d0b565b6020026020010181905250828160078151811061059957610599611d0b565b60200260200101819052508a816040516020016105b7929190611d76565b6040516020818303038152906040529150509998505050505050505050565b60408051600580825260c0820190925260609160009190816020015b60608152602001906001900390816105f2579050509050868160008151811061061d5761061d611d0b565b6020026020010181905250858160018151811061063c5761063c611d0b565b6020026020010181905250848160028151811061065b5761065b611d0b565b6020026020010181905250838160038151811061067a5761067a611d0b565b6020026020010181905250828160048151811061069957610699611d0b565b602002602001018190525087816040516020016106b7929190611d76565b6040516020818303038152906040529150509695505050505050565b60408051600480825260a0820190925260609160009190816020015b60608152602001906001900390816106ef579050509050858160008151811061071a5761071a611d0b565b6020026020010181905250848160018151811061073957610739611d0b565b6020026020010181905250838160028151811061075857610758611d0b565b6020026020010181905250828160038151811061077757610777611d0b565b60200260200101819052508681604051602001610795929190611d76565b60405160208183030381529060405291505095945050505050565b60408051600180825281830190925260609160009190816020015b60608152602001906001900390816107cb57905050905082816000815181106107f6576107f6611d0b565b60200260200101819052508381604051602001610814929190611d76565b60405160208183030381529060405291505092915050565b6060848484846040516020016108459493929190611ef8565b6040516020818303038152906040529050949350505050565b604080516002808252606082810190935260009190816020015b606081526020019060019003908161087857905050905083816000815181106108a3576108a3611d0b565b602002602001018190525082816001815181106108c2576108c2611d0b565b602002602001018190525084816040516020016108e0929190611d76565b6040516020818303038152906040529150509392505050565b6040805160038082526080820190925260609160009190816020015b6060815260200190600190039081610915579050509050848160008151811061094057610940611d0b565b6020026020010181905250838160018151811061095f5761095f611d0b565b6020026020010181905250828160028151811061097e5761097e611d0b565b6020026020010181905250858160405160200161099c929190611d76565b604051602081830303815290604052915050949350505050565b606085858585856040516020016109d1959493929190611f4b565b604051602081830303815290604052905095945050505050565b604080516009808252610140820190925260609160009190816020015b6060815260200190600190039081610a085790505090508a81600081518110610a3357610a33611d0b565b60200260200101819052508981600181518110610a5257610a52611d0b565b60200260200101819052508881600281518110610a7157610a71611d0b565b60200260200101819052508781600381518110610a9057610a90611d0b565b60200260200101819052508681600481518110610aaf57610aaf611d0b565b60200260200101819052508581600581518110610ace57610ace611d0b565b60200260200101819052508481600681518110610aed57610aed611d0b565b60200260200101819052508381600781518110610b0c57610b0c611d0b565b60200260200101819052508281600881518110610b2b57610b2b611d0b565b60200260200101819052508b81604051602001610b49929190611d76565b6040516020818303038152906040529150509a9950505050505050505050565b60408051600a808252610160820190925260609160009190816020015b6060815260200190600190039081610b865790505090508b81600081518110610bb157610bb1611d0b565b60200260200101819052508a81600181518110610bd057610bd0611d0b565b60200260200101819052508981600281518110610bef57610bef611d0b565b60200260200101819052508881600381518110610c0e57610c0e611d0b565b60200260200101819052508781600481518110610c2d57610c2d611d0b565b60200260200101819052508681600581518110610c4c57610c4c611d0b565b60200260200101819052508581600681518110610c6b57610c6b611d0b565b60200260200101819052508481600781518110610c8a57610c8a611d0b565b60200260200101819052508381600881518110610ca957610ca9611d0b565b60200260200101819052508281600981518110610cc857610cc8611d0b565b60200260200101819052508c81604051602001610ce6929190611d76565b6040516020818303038152906040529150509b9a5050505050505050505050565b600084848484604051602001610d209493929190611ef8565b604051602081830303815290604052805190602001209050949350505050565b606085858585856040516020016109d1959493929190611fa5565b803560ff81168114610d6c57600080fd5b919050565b634e487b7160e01b600052604160045260246000fd5b60405160c0810167ffffffffffffffff81118282101715610daa57610daa610d71565b60405290565b604051601f8201601f1916810167ffffffffffffffff81118282101715610dd957610dd9610d71565b604052919050565b600082601f830112610df257600080fd5b813567ffffffffffffffff811115610e0c57610e0c610d71565b610e1f601f8201601f1916602001610db0565b818152846020838601011115610e3457600080fd5b816020850160208301376000918101602001919091529392505050565b600080600080600080600080610100898b031215610e6e57600080fd5b610e7789610d5b565b9750602089013567ffffffffffffffff80821115610e9457600080fd5b610ea08c838d01610de1565b985060408b0135915080821115610eb657600080fd5b610ec28c838d01610de1565b975060608b0135915080821115610ed857600080fd5b610ee48c838d01610de1565b965060808b0135915080821115610efa57600080fd5b610f068c838d01610de1565b955060a08b0135915080821115610f1c57600080fd5b610f288c838d01610de1565b945060c08b0135915080821115610f3e57600080fd5b610f4a8c838d01610de1565b935060e08b0135915080821115610f6057600080fd5b50610f6d8b828c01610de1565b9150509295985092959890939650565b6000815180845260005b81811015610fa357602081850181015186830182015201610f87565b506000602082860101526020601f19601f83011685010191505092915050565b602081526000610fd66020830184610f7d565b9392505050565b600080600080600080600060e0888a031215610ff857600080fd5b61100188610d5b565b9650602088013567ffffffffffffffff8082111561101e57600080fd5b61102a8b838c01610de1565b975060408a013591508082111561104057600080fd5b61104c8b838c01610de1565b965060608a013591508082111561106257600080fd5b61106e8b838c01610de1565b955060808a013591508082111561108457600080fd5b6110908b838c01610de1565b945060a08a01359150808211156110a657600080fd5b6110b28b838c01610de1565b935060c08a01359150808211156110c857600080fd5b506110d58a828b01610de1565b91505092959891949750929550565b60008060008060008060008060006101208a8c03121561110357600080fd5b61110c8a610d5b565b985060208a013567ffffffffffffffff8082111561112957600080fd5b6111358d838e01610de1565b995060408c013591508082111561114b57600080fd5b6111578d838e01610de1565b985060608c013591508082111561116d57600080fd5b6111798d838e01610de1565b975060808c013591508082111561118f57600080fd5b61119b8d838e01610de1565b965060a08c01359150808211156111b157600080fd5b6111bd8d838e01610de1565b955060c08c01359150808211156111d357600080fd5b6111df8d838e01610de1565b945060e08c01359150808211156111f557600080fd5b6112018d838e01610de1565b93506101008c013591508082111561121857600080fd5b506112258c828d01610de1565b9150509295985092959850929598565b60008060008060008060c0878903121561124e57600080fd5b61125787610d5b565b9550602087013567ffffffffffffffff8082111561127457600080fd5b6112808a838b01610de1565b9650604089013591508082111561129657600080fd5b6112a28a838b01610de1565b955060608901359150808211156112b857600080fd5b6112c48a838b01610de1565b945060808901359150808211156112da57600080fd5b6112e68a838b01610de1565b935060a08901359150808211156112fc57600080fd5b5061130989828a01610de1565b9150509295509295509295565b600080600080600060a0868803121561132e57600080fd5b61133786610d5b565b9450602086013567ffffffffffffffff8082111561135457600080fd5b61136089838a01610de1565b9550604088013591508082111561137657600080fd5b61138289838a01610de1565b9450606088013591508082111561139857600080fd5b6113a489838a01610de1565b935060808801359150808211156113ba57600080fd5b506113c788828901610de1565b9150509295509295909350565b600080604083850312156113e757600080fd5b6113f083610d5b565b9150602083013567ffffffffffffffff81111561140c57600080fd5b61141885828601610de1565b9150509250929050565b80356001600160a01b0381168114610d6c57600080fd5b600067ffffffffffffffff82111561145357611453610d71565b5060051b60200190565b600082601f83011261146e57600080fd5b8135602061148361147e83611439565b610db0565b82815260059290921b840181019181810190868411156114a257600080fd5b8286015b848110156114bd57803583529183019183016114a6565b509695505050505050565b600082601f8301126114d957600080fd5b813560206114e961147e83611439565b82815260059290921b8401810191818101908684111561150857600080fd5b8286015b848110156114bd57803580151581146115255760008081fd5b835291830191830161150c565b600082601f83011261154357600080fd5b8135602061155361147e83611439565b82815260059290921b8401810191818101908684111561157257600080fd5b8286015b848110156114bd57803567ffffffffffffffff8111156115965760008081fd5b6115a48986838b0101610de1565b845250918301918301611576565b600060c082840312156115c457600080fd5b6115cc610d87565b9050813567ffffffffffffffff808211156115e657600080fd5b6115f28583860161145d565b8352602084013591508082111561160857600080fd5b6116148583860161145d565b6020840152604084013591508082111561162d57600080fd5b611639858386016114c8565b6040840152606084013591508082111561165257600080fd5b61165e8583860161145d565b6060840152608084013591508082111561167757600080fd5b6116838583860161145d565b608084015260a084013591508082111561169c57600080fd5b506116a984828501611532565b60a08301525092915050565b6000604082840312156116c757600080fd5b6040516040810167ffffffffffffffff82821081831117156116eb576116eb610d71565b816040528293506116fb85611422565b8352602085013591508082111561171157600080fd5b5061171e85828601610de1565b6020830152505092915050565b6000806000806080858703121561174157600080fd5b61174a85611422565b9350602085013567ffffffffffffffff8082111561176757600080fd5b611773888389016115b2565b9450604087013591508082111561178957600080fd5b611795888389016115b2565b935060608701359150808211156117ab57600080fd5b506117b8878288016116b5565b91505092959194509250565b6000806000606084860312156117d957600080fd5b6117e284610d5b565b9250602084013567ffffffffffffffff808211156117ff57600080fd5b61180b87838801610de1565b9350604086013591508082111561182157600080fd5b5061182e86828701610de1565b9150509250925092565b6000806000806080858703121561184e57600080fd5b61185785610d5b565b9350602085013567ffffffffffffffff8082111561187457600080fd5b61188088838901610de1565b9450604087013591508082111561189657600080fd5b6118a288838901610de1565b935060608701359150808211156118b857600080fd5b506117b887828801610de1565b600080600080600060a086880312156118dd57600080fd5b6118e686611422565b945060208601359350604086013567ffffffffffffffff8082111561190a57600080fd5b61191689838a016115b2565b9450606088013591508082111561192c57600080fd5b61193889838a016115b2565b9350608088013591508082111561194e57600080fd5b506113c7888289016116b5565b6000806000806000806000806000806101408b8d03121561197b57600080fd5b6119848b610d5b565b995060208b013567ffffffffffffffff808211156119a157600080fd5b6119ad8e838f01610de1565b9a5060408d01359150808211156119c357600080fd5b6119cf8e838f01610de1565b995060608d01359150808211156119e557600080fd5b6119f18e838f01610de1565b985060808d0135915080821115611a0757600080fd5b611a138e838f01610de1565b975060a08d0135915080821115611a2957600080fd5b611a358e838f01610de1565b965060c08d0135915080821115611a4b57600080fd5b611a578e838f01610de1565b955060e08d0135915080821115611a6d57600080fd5b611a798e838f01610de1565b94506101008d0135915080821115611a9057600080fd5b611a9c8e838f01610de1565b93506101208d0135915080821115611ab357600080fd5b50611ac08d828e01610de1565b9150509295989b9194979a5092959850565b60008060008060008060008060008060006101608c8e031215611af457600080fd5b611afd8c610d5b565b9a5067ffffffffffffffff8060208e01351115611b1957600080fd5b611b298e60208f01358f01610de1565b9a508060408e01351115611b3c57600080fd5b611b4c8e60408f01358f01610de1565b99508060608e01351115611b5f57600080fd5b611b6f8e60608f01358f01610de1565b98508060808e01351115611b8257600080fd5b611b928e60808f01358f01610de1565b97508060a08e01351115611ba557600080fd5b611bb58e60a08f01358f01610de1565b96508060c08e01351115611bc857600080fd5b611bd88e60c08f01358f01610de1565b95508060e08e01351115611beb57600080fd5b611bfb8e60e08f01358f01610de1565b9450806101008e01351115611c0f57600080fd5b611c208e6101008f01358f01610de1565b9350806101208e01351115611c3457600080fd5b611c458e6101208f01358f01610de1565b9250806101408e01351115611c5957600080fd5b50611c6b8d6101408e01358e01610de1565b90509295989b509295989b9093969950565b600080600080600060a08688031215611c9557600080fd5b611c9e86611422565b9450602086013567ffffffffffffffff80821115611cbb57600080fd5b611cc789838a016115b2565b95506040880135915080821115611cdd57600080fd5b611ce989838a016115b2565b94506060880135915080821115611cff57600080fd5b6113a489838a016116b5565b634e487b7160e01b600052603260045260246000fd5b600081518084526020808501808196508360051b8101915082860160005b85811015611d69578284038952611d57848351610f7d565b98850198935090840190600101611d3f565b5091979650505050505050565b60ff83168152604060208201526000611d926040830184611d21565b949350505050565b600081518084526020808501945080840160005b83811015611dca57815187529582019590820190600101611dae565b509495945050505050565b600081518084526020808501945080840160005b83811015611dca578151151587529582019590820190600101611de9565b6000815160c08452611e1c60c0850182611d9a565b60208481015186830387830152805180845290820193509091600091908301905b80831015611e5d5784518252938301936001929092019190830190611e3d565b50604086015193508681036040880152611e778185611dd5565b935050505060608301518482036060860152611e938282611d9a565b91505060808301518482036080860152611ead8282611d9a565b91505060a083015184820360a0860152611ec78282611d21565b95945050505050565b6001600160a01b0381511682526000602082015160406020850152611d926040850182610f7d565b6001600160a01b0385168152608060208201526000611f1a6080830186611e07565b8281036040840152611f2c8186611e07565b90508281036060840152611f408185611ed0565b979650505050505050565b6001600160a01b038616815284602082015260a060408201526000611f7360a0830186611e07565b8281036060840152611f858186611e07565b90508281036080840152611f998185611ed0565b98975050505050505050565b6001600160a01b038616815260a060208201526000611fc760a0830187611e07565b8281036040840152611fd98187611e07565b90508281036060840152611fed8186611ed0565b90508281036080840152611f998185610f7d56fea164736f6c6343000811000a",
    "linkReferences": {}
  },
  "methodIdentifiers": {
    "unsignedData(uint8,bytes)": "5c1c43e0",
    "unsignedData(uint8,bytes,bytes)": "9ea252ea",
    "unsignedData(uint8,bytes,bytes,bytes)": "bb5de515",
    "unsignedData(uint8,bytes,bytes,bytes,bytes)": "41462725",
    "unsignedData(uint8,bytes,bytes,bytes,bytes,bytes)": "281bffdd",
    "unsignedData(uint8,bytes,bytes,bytes,bytes,bytes,bytes)": "13650d12",
    "unsignedData(uint8,bytes,bytes,bytes,bytes,bytes,bytes,bytes)": "04fa493e",
    "unsignedData(uint8,bytes,bytes,bytes,bytes,bytes,bytes,bytes,bytes)": "23131745",
    "unsignedData(uint8,bytes,bytes,bytes,bytes,bytes,bytes,bytes,bytes,bytes)": "c3522250",
    "unsignedData(uint8,bytes,bytes,bytes,bytes,bytes,bytes,bytes,bytes,bytes,bytes)": "eb8b8cd9",
    "unsignedLimitSwapData(address,uint256,(uint256[],bytes32[],bool[],uint256[],uint256[],bytes[]),(uint256[],bytes32[],bool[],uint256[],uint256[],bytes[]),(address,bytes))": "bf78373d",
    "unsignedMarketSwapData(address,(uint256[],bytes32[],bool[],uint256[],uint256[],bytes[]),(uint256[],bytes32[],bool[],uint256[],uint256[],bytes[]),(address,bytes))": "8c98998a",
    "unsignedSwapData(address,(uint256[],bytes32[],bool[],uint256[],uint256[],bytes[]),(uint256[],bytes32[],bool[],uint256[],uint256[],bytes[]),(address,bytes),bytes)": "f75dbfe7",
    "unsignedSwapDataHash(address,(uint256[],bytes32[],bool[],uint256[],uint256[],bytes[]),(uint256[],bytes32[],bool[],uint256[],uint256[],bytes[]),(address,bytes))": "f551791e"
  },
  "id": 45
}