{
  "abi": [
    {
      "inputs": [
        {
          "internalType": "uint8",
          "name": "orderIndex",
          "type": "uint8"
        },
        {
          "internalType": "bytes",
          "name": "unsignedCall1",
          "type": "bytes"
        },
        {
          "internalType": "bytes",
          "name": "unsignedCall2",
          "type": "bytes"
        },
        {
          "internalType": "bytes",
          "name": "unsignedCall3",
          "type": "bytes"
        },
        {
          "internalType": "bytes",
          "name": "unsignedCall4",
          "type": "bytes"
        },
        {
          "internalType": "bytes",
          "name": "unsignedCall5",
          "type": "bytes"
        },
        {
          "internalType": "bytes",
          "name": "unsignedCall6",
          "type": "bytes"
        },
        {
          "internalType": "bytes",
          "name": "unsignedCall7",
          "type": "bytes"
        }
      ],
      "name": "unsignedData",
      "outputs": [
        {
          "internalType": "bytes",
          "name": "",
          "type": "bytes"
        }
      ],
      "stateMutability": "pure",
      "type": "function"
    },
    {
      "inputs": [
        {
          "internalType": "uint8",
          "name": "orderIndex",
          "type": "uint8"
        },
        {
          "internalType": "bytes",
          "name": "unsignedCall1",
          "type": "bytes"
        },
        {
          "internalType": "bytes",
          "name": "unsignedCall2",
          "type": "bytes"
        },
        {
          "internalType": "bytes",
          "name": "unsignedCall3",
          "type": "bytes"
        },
        {
          "internalType": "bytes",
          "name": "unsignedCall4",
          "type": "bytes"
        },
        {
          "internalType": "bytes",
          "name": "unsignedCall5",
          "type": "bytes"
        },
        {
          "internalType": "bytes",
          "name": "unsignedCall6",
          "type": "bytes"
        }
      ],
      "name": "unsignedData",
      "outputs": [
        {
          "internalType": "bytes",
          "name": "",
          "type": "bytes"
        }
      ],
      "stateMutability": "pure",
      "type": "function"
    },
    {
      "inputs": [
        {
          "internalType": "uint8",
          "name": "orderIndex",
          "type": "uint8"
        },
        {
          "internalType": "bytes",
          "name": "unsignedCall1",
          "type": "bytes"
        },
        {
          "internalType": "bytes",
          "name": "unsignedCall2",
          "type": "bytes"
        },
        {
          "internalType": "bytes",
          "name": "unsignedCall3",
          "type": "bytes"
        },
        {
          "internalType": "bytes",
          "name": "unsignedCall4",
          "type": "bytes"
        },
        {
          "internalType": "bytes",
          "name": "unsignedCall5",
          "type": "bytes"
        },
        {
          "internalType": "bytes",
          "name": "unsignedCall6",
          "type": "bytes"
        },
        {
          "internalType": "bytes",
          "name": "unsignedCall7",
          "type": "bytes"
        },
        {
          "internalType": "bytes",
          "name": "unsignedCall8",
          "type": "bytes"
        }
      ],
      "name": "unsignedData",
      "outputs": [
        {
          "internalType": "bytes",
          "name": "",
          "type": "bytes"
        }
      ],
      "stateMutability": "pure",
      "type": "function"
    },
    {
      "inputs": [
        {
          "internalType": "uint8",
          "name": "orderIndex",
          "type": "uint8"
        },
        {
          "internalType": "bytes",
          "name": "unsignedCall1",
          "type": "bytes"
        },
        {
          "internalType": "bytes",
          "name": "unsignedCall2",
          "type": "bytes"
        },
        {
          "internalType": "bytes",
          "name": "unsignedCall3",
          "type": "bytes"
        },
        {
          "internalType": "bytes",
          "name": "unsignedCall4",
          "type": "bytes"
        },
        {
          "internalType": "bytes",
          "name": "unsignedCall5",
          "type": "bytes"
        }
      ],
      "name": "unsignedData",
      "outputs": [
        {
          "internalType": "bytes",
          "name": "",
          "type": "bytes"
        }
      ],
      "stateMutability": "pure",
      "type": "function"
    },
    {
      "inputs": [
        {
          "internalType": "uint8",
          "name": "orderIndex",
          "type": "uint8"
        },
        {
          "internalType": "bytes",
          "name": "unsignedCall1",
          "type": "bytes"
        },
        {
          "internalType": "bytes",
          "name": "unsignedCall2",
          "type": "bytes"
        },
        {
          "internalType": "bytes",
          "name": "unsignedCall3",
          "type": "bytes"
        },
        {
          "internalType": "bytes",
          "name": "unsignedCall4",
          "type": "bytes"
        }
      ],
      "name": "unsignedData",
      "outputs": [
        {
          "internalType": "bytes",
          "name": "",
          "type": "bytes"
        }
      ],
      "stateMutability": "pure",
      "type": "function"
    },
    {
      "inputs": [
        {
          "internalType": "uint8",
          "name": "orderIndex",
          "type": "uint8"
        },
        {
          "internalType": "bytes",
          "name": "unsignedCall1",
          "type": "bytes"
        }
      ],
      "name": "unsignedData",
      "outputs": [
        {
          "internalType": "bytes",
          "name": "",
          "type": "bytes"
        }
      ],
      "stateMutability": "pure",
      "type": "function"
    },
    {
      "inputs": [
        {
          "internalType": "uint8",
          "name": "orderIndex",
          "type": "uint8"
        },
        {
          "internalType": "bytes",
          "name": "unsignedCall1",
          "type": "bytes"
        },
        {
          "internalType": "bytes",
          "name": "unsignedCall2",
          "type": "bytes"
        }
      ],
      "name": "unsignedData",
      "outputs": [
        {
          "internalType": "bytes",
          "name": "",
          "type": "bytes"
        }
      ],
      "stateMutability": "pure",
      "type": "function"
    },
    {
      "inputs": [
        {
          "internalType": "uint8",
          "name": "orderIndex",
          "type": "uint8"
        },
        {
          "internalType": "bytes",
          "name": "unsignedCall1",
          "type": "bytes"
        },
        {
          "internalType": "bytes",
          "name": "unsignedCall2",
          "type": "bytes"
        },
        {
          "internalType": "bytes",
          "name": "unsignedCall3",
          "type": "bytes"
        }
      ],
      "name": "unsignedData",
      "outputs": [
        {
          "internalType": "bytes",
          "name": "",
          "type": "bytes"
        }
      ],
      "stateMutability": "pure",
      "type": "function"
    },
    {
      "inputs": [
        {
          "internalType": "uint8",
          "name": "orderIndex",
          "type": "uint8"
        },
        {
          "internalType": "bytes",
          "name": "unsignedCall1",
          "type": "bytes"
        },
        {
          "internalType": "bytes",
          "name": "unsignedCall2",
          "type": "bytes"
        },
        {
          "internalType": "bytes",
          "name": "unsignedCall3",
          "type": "bytes"
        },
        {
          "internalType": "bytes",
          "name": "unsignedCall4",
          "type": "bytes"
        },
        {
          "internalType": "bytes",
          "name": "unsignedCall5",
          "type": "bytes"
        },
        {
          "internalType": "bytes",
          "name": "unsignedCall6",
          "type": "bytes"
        },
        {
          "internalType": "bytes",
          "name": "unsignedCall7",
          "type": "bytes"
        },
        {
          "internalType": "bytes",
          "name": "unsignedCall8",
          "type": "bytes"
        },
        {
          "internalType": "bytes",
          "name": "unsignedCall9",
          "type": "bytes"
        }
      ],
      "name": "unsignedData",
      "outputs": [
        {
          "internalType": "bytes",
          "name": "",
          "type": "bytes"
        }
      ],
      "stateMutability": "pure",
      "type": "function"
    },
    {
      "inputs": [
        {
          "internalType": "uint8",
          "name": "orderIndex",
          "type": "uint8"
        },
        {
          "internalType": "bytes",
          "name": "unsignedCall1",
          "type": "bytes"
        },
        {
          "internalType": "bytes",
          "name": "unsignedCall2",
          "type": "bytes"
        },
        {
          "internalType": "bytes",
          "name": "unsignedCall3",
          "type": "bytes"
        },
        {
          "internalType": "bytes",
          "name": "unsignedCall4",
          "type": "bytes"
        },
        {
          "internalType": "bytes",
          "name": "unsignedCall5",
          "type": "bytes"
        },
        {
          "internalType": "bytes",
          "name": "unsignedCall6",
          "type": "bytes"
        },
        {
          "internalType": "bytes",
          "name": "unsignedCall7",
          "type": "bytes"
        },
        {
          "internalType": "bytes",
          "name": "unsignedCall8",
          "type": "bytes"
        },
        {
          "internalType": "bytes",
          "name": "unsignedCall9",
          "type": "bytes"
        },
        {
          "internalType": "bytes",
          "name": "unsignedCall10",
          "type": "bytes"
        }
      ],
      "name": "unsignedData",
      "outputs": [
        {
          "internalType": "bytes",
          "name": "",
          "type": "bytes"
        }
      ],
      "stateMutability": "pure",
      "type": "function"
    },
    {
      "inputs": [
        {
          "internalType": "address",
          "name": "recipient",
          "type": "address"
        },
        {
          "internalType": "uint256",
          "name": "amount",
          "type": "uint256"
        },
        {
          "components": [
            {
              "internalType": "uint256[]",
              "name": "ids",
              "type": "uint256[]"
            },
            {
              "internalType": "bytes32[]",
              "name": "merkleProof_hashes",
              "type": "bytes32[]"
            },
            {
              "internalType": "bool[]",
              "name": "merkleProof_flags",
              "type": "bool[]"
            },
            {
              "internalType": "uint256[]",
              "name": "statusProof_lastTransferTimes",
              "type": "uint256[]"
            },
            {
              "internalType": "uint256[]",
              "name": "statusProof_timestamps",
              "type": "uint256[]"
            },
            {
              "internalType": "bytes[]",
              "name": "statusProof_signatures",
              "type": "bytes[]"
            }
          ],
          "internalType": "struct IdsProof",
          "name": "tokenInIdsProof",
          "type": "tuple"
        },
        {
          "components": [
            {
              "internalType": "uint256[]",
              "name": "ids",
              "type": "uint256[]"
            },
            {
              "internalType": "bytes32[]",
              "name": "merkleProof_hashes",
              "type": "bytes32[]"
            },
            {
              "internalType": "bool[]",
              "name": "merkleProof_flags",
              "type": "bool[]"
            },
            {
              "internalType": "uint256[]",
              "name": "statusProof_lastTransferTimes",
              "type": "uint256[]"
            },
            {
              "internalType": "uint256[]",
              "name": "statusProof_timestamps",
              "type": "uint256[]"
            },
            {
              "internalType": "bytes[]",
              "name": "statusProof_signatures",
              "type": "bytes[]"
            }
          ],
          "internalType": "struct IdsProof",
          "name": "tokenOutIdsProof",
          "type": "tuple"
        },
        {
          "components": [
            {
              "internalType": "address",
              "name": "targetContract",
              "type": "address"
            },
            {
              "internalType": "bytes",
              "name": "data",
              "type": "bytes"
            }
          ],
          "internalType": "struct Call",
          "name": "fillCall",
          "type": "tuple"
        }
      ],
      "name": "unsignedLimitSwapData",
      "outputs": [
        {
          "internalType": "bytes",
          "name": "",
          "type": "bytes"
        }
      ],
      "stateMutability": "pure",
      "type": "function"
    },
    {
      "inputs": [
        {
          "internalType": "address",
          "name": "recipient",
          "type": "address"
        },
        {
          "components": [
            {
              "internalType": "uint256[]",
              "name": "ids",
              "type": "uint256[]"
            },
            {
              "internalType": "bytes32[]",
              "name": "merkleProof_hashes",
              "type": "bytes32[]"
            },
            {
              "internalType": "bool[]",
              "name": "merkleProof_flags",
              "type": "bool[]"
            },
            {
              "internalType": "uint256[]",
              "name": "statusProof_lastTransferTimes",
              "type": "uint256[]"
            },
            {
              "internalType": "uint256[]",
              "name": "statusProof_timestamps",
              "type": "uint256[]"
            },
            {
              "internalType": "bytes[]",
              "name": "statusProof_signatures",
              "type": "bytes[]"
            }
          ],
          "internalType": "struct IdsProof",
          "name": "tokenInIdsProof",
          "type": "tuple"
        },
        {
          "components": [
            {
              "internalType": "uint256[]",
              "name": "ids",
              "type": "uint256[]"
            },
            {
              "internalType": "bytes32[]",
              "name": "merkleProof_hashes",
              "type": "bytes32[]"
            },
            {
              "internalType": "bool[]",
              "name": "merkleProof_flags",
              "type": "bool[]"
            },
            {
              "internalType": "uint256[]",
              "name": "statusProof_lastTransferTimes",
              "type": "uint256[]"
            },
            {
              "internalType": "uint256[]",
              "name": "statusProof_timestamps",
              "type": "uint256[]"
            },
            {
              "internalType": "bytes[]",
              "name": "statusProof_signatures",
              "type": "bytes[]"
            }
          ],
          "internalType": "struct IdsProof",
          "name": "tokenOutIdsProof",
          "type": "tuple"
        },
        {
          "components": [
            {
              "internalType": "address",
              "name": "targetContract",
              "type": "address"
            },
            {
              "internalType": "bytes",
              "name": "data",
              "type": "bytes"
            }
          ],
          "internalType": "struct Call",
          "name": "fillCall",
          "type": "tuple"
        }
      ],
      "name": "unsignedMarketSwapData",
      "outputs": [
        {
          "internalType": "bytes",
          "name": "",
          "type": "bytes"
        }
      ],
      "stateMutability": "pure",
      "type": "function"
    }
  ],
  "bytecode": {
    "object": "0x608060405234801561001057600080fd5b50611e86806100206000396000f3fe608060405234801561001057600080fd5b50600436106100d45760003560e01c80638c98998a11610081578063bf78373d1161005b578063bf78373d1461019a578063c3522250146101ad578063eb8b8cd9146101c057600080fd5b80638c98998a146101615780639ea252ea14610174578063bb5de5151461018757600080fd5b8063281bffdd116100b2578063281bffdd14610128578063414627251461013b5780635c1c43e01461014e57600080fd5b806304fa493e146100d957806313650d12146101025780632313174514610115575b600080fd5b6100ec6100e7366004610db3565b6101d3565b6040516100f99190610f25565b60405180910390f35b6100ec610110366004610f3f565b610311565b6100ec610123366004611046565b61042e565b6100ec610136366004611197565b61058c565b6100ec610149366004611278565b610689565b6100ec61015c366004611336565b610766565b6100ec61016f36600461168d565b6107e2565b6100ec610182366004611726565b610814565b6100ec61019536600461179a565b6108af565b6100ec6101a8366004611827565b61096c565b6100ec6101bb3660046118bd565b6109a1565b6100ec6101ce366004611a34565b610b1f565b604080516007808252610100820190925260609160009190816020015b60608152602001906001900390816101f0579050509050888160008151811061021b5761021b611bdf565b6020026020010181905250878160018151811061023a5761023a611bdf565b6020026020010181905250868160028151811061025957610259611bdf565b6020026020010181905250858160038151811061027857610278611bdf565b6020026020010181905250848160048151811061029757610297611bdf565b602002602001018190525083816005815181106102b6576102b6611bdf565b602002602001018190525082816006815181106102d5576102d5611bdf565b602002602001018190525089816040516020016102f3929190611c4a565b60405160208183030381529060405291505098975050505050505050565b60408051600680825260e0820190925260609160009190816020015b606081526020019060019003908161032d579050509050878160008151811061035857610358611bdf565b6020026020010181905250868160018151811061037757610377611bdf565b6020026020010181905250858160028151811061039657610396611bdf565b602002602001018190525084816003815181106103b5576103b5611bdf565b602002602001018190525083816004815181106103d4576103d4611bdf565b602002602001018190525082816005815181106103f3576103f3611bdf565b60200260200101819052508881604051602001610411929190611c4a565b604051602081830303815290604052915050979650505050505050565b604080516008808252610120820190925260609160009190816020015b606081526020019060019003908161044b579050509050898160008151811061047657610476611bdf565b6020026020010181905250888160018151811061049557610495611bdf565b602002602001018190525087816002815181106104b4576104b4611bdf565b602002602001018190525086816003815181106104d3576104d3611bdf565b602002602001018190525085816004815181106104f2576104f2611bdf565b6020026020010181905250848160058151811061051157610511611bdf565b6020026020010181905250838160068151811061053057610530611bdf565b6020026020010181905250828160078151811061054f5761054f611bdf565b60200260200101819052508a8160405160200161056d929190611c4a565b6040516020818303038152906040529150509998505050505050505050565b60408051600580825260c0820190925260609160009190816020015b60608152602001906001900390816105a857905050905086816000815181106105d3576105d3611bdf565b602002602001018190525085816001815181106105f2576105f2611bdf565b6020026020010181905250848160028151811061061157610611611bdf565b6020026020010181905250838160038151811061063057610630611bdf565b6020026020010181905250828160048151811061064f5761064f611bdf565b6020026020010181905250878160405160200161066d929190611c4a565b6040516020818303038152906040529150509695505050505050565b60408051600480825260a0820190925260609160009190816020015b60608152602001906001900390816106a557905050905085816000815181106106d0576106d0611bdf565b602002602001018190525084816001815181106106ef576106ef611bdf565b6020026020010181905250838160028151811061070e5761070e611bdf565b6020026020010181905250828160038151811061072d5761072d611bdf565b6020026020010181905250868160405160200161074b929190611c4a565b60405160208183030381529060405291505095945050505050565b60408051600180825281830190925260609160009190816020015b606081526020019060019003908161078157905050905082816000815181106107ac576107ac611bdf565b602002602001018190525083816040516020016107ca929190611c4a565b60405160208183030381529060405291505092915050565b6060848484846040516020016107fb9493929190611dcc565b6040516020818303038152906040529050949350505050565b604080516002808252606082810190935260009190816020015b606081526020019060019003908161082e579050509050838160008151811061085957610859611bdf565b6020026020010181905250828160018151811061087857610878611bdf565b60200260200101819052508481604051602001610896929190611c4a565b6040516020818303038152906040529150509392505050565b6040805160038082526080820190925260609160009190816020015b60608152602001906001900390816108cb57905050905084816000815181106108f6576108f6611bdf565b6020026020010181905250838160018151811061091557610915611bdf565b6020026020010181905250828160028151811061093457610934611bdf565b60200260200101819052508581604051602001610952929190611c4a565b604051602081830303815290604052915050949350505050565b60608585858585604051602001610987959493929190611e1f565b604051602081830303815290604052905095945050505050565b604080516009808252610140820190925260609160009190816020015b60608152602001906001900390816109be5790505090508a816000815181106109e9576109e9611bdf565b60200260200101819052508981600181518110610a0857610a08611bdf565b60200260200101819052508881600281518110610a2757610a27611bdf565b60200260200101819052508781600381518110610a4657610a46611bdf565b60200260200101819052508681600481518110610a6557610a65611bdf565b60200260200101819052508581600581518110610a8457610a84611bdf565b60200260200101819052508481600681518110610aa357610aa3611bdf565b60200260200101819052508381600781518110610ac257610ac2611bdf565b60200260200101819052508281600881518110610ae157610ae1611bdf565b60200260200101819052508b81604051602001610aff929190611c4a565b6040516020818303038152906040529150509a9950505050505050505050565b60408051600a808252610160820190925260609160009190816020015b6060815260200190600190039081610b3c5790505090508b81600081518110610b6757610b67611bdf565b60200260200101819052508a81600181518110610b8657610b86611bdf565b60200260200101819052508981600281518110610ba557610ba5611bdf565b60200260200101819052508881600381518110610bc457610bc4611bdf565b60200260200101819052508781600481518110610be357610be3611bdf565b60200260200101819052508681600581518110610c0257610c02611bdf565b60200260200101819052508581600681518110610c2157610c21611bdf565b60200260200101819052508481600781518110610c4057610c40611bdf565b60200260200101819052508381600881518110610c5f57610c5f611bdf565b60200260200101819052508281600981518110610c7e57610c7e611bdf565b60200260200101819052508c81604051602001610c9c929190611c4a565b6040516020818303038152906040529150509b9a5050505050505050505050565b803560ff81168114610cce57600080fd5b919050565b634e487b7160e01b600052604160045260246000fd5b60405160c0810167ffffffffffffffff81118282101715610d0c57610d0c610cd3565b60405290565b604051601f8201601f1916810167ffffffffffffffff81118282101715610d3b57610d3b610cd3565b604052919050565b600082601f830112610d5457600080fd5b813567ffffffffffffffff811115610d6e57610d6e610cd3565b610d81601f8201601f1916602001610d12565b818152846020838601011115610d9657600080fd5b816020850160208301376000918101602001919091529392505050565b600080600080600080600080610100898b031215610dd057600080fd5b610dd989610cbd565b9750602089013567ffffffffffffffff80821115610df657600080fd5b610e028c838d01610d43565b985060408b0135915080821115610e1857600080fd5b610e248c838d01610d43565b975060608b0135915080821115610e3a57600080fd5b610e468c838d01610d43565b965060808b0135915080821115610e5c57600080fd5b610e688c838d01610d43565b955060a08b0135915080821115610e7e57600080fd5b610e8a8c838d01610d43565b945060c08b0135915080821115610ea057600080fd5b610eac8c838d01610d43565b935060e08b0135915080821115610ec257600080fd5b50610ecf8b828c01610d43565b9150509295985092959890939650565b6000815180845260005b81811015610f0557602081850181015186830182015201610ee9565b506000602082860101526020601f19601f83011685010191505092915050565b602081526000610f386020830184610edf565b9392505050565b600080600080600080600060e0888a031215610f5a57600080fd5b610f6388610cbd565b9650602088013567ffffffffffffffff80821115610f8057600080fd5b610f8c8b838c01610d43565b975060408a0135915080821115610fa257600080fd5b610fae8b838c01610d43565b965060608a0135915080821115610fc457600080fd5b610fd08b838c01610d43565b955060808a0135915080821115610fe657600080fd5b610ff28b838c01610d43565b945060a08a013591508082111561100857600080fd5b6110148b838c01610d43565b935060c08a013591508082111561102a57600080fd5b506110378a828b01610d43565b91505092959891949750929550565b60008060008060008060008060006101208a8c03121561106557600080fd5b61106e8a610cbd565b985060208a013567ffffffffffffffff8082111561108b57600080fd5b6110978d838e01610d43565b995060408c01359150808211156110ad57600080fd5b6110b98d838e01610d43565b985060608c01359150808211156110cf57600080fd5b6110db8d838e01610d43565b975060808c01359150808211156110f157600080fd5b6110fd8d838e01610d43565b965060a08c013591508082111561111357600080fd5b61111f8d838e01610d43565b955060c08c013591508082111561113557600080fd5b6111418d838e01610d43565b945060e08c013591508082111561115757600080fd5b6111638d838e01610d43565b93506101008c013591508082111561117a57600080fd5b506111878c828d01610d43565b9150509295985092959850929598565b60008060008060008060c087890312156111b057600080fd5b6111b987610cbd565b9550602087013567ffffffffffffffff808211156111d657600080fd5b6111e28a838b01610d43565b965060408901359150808211156111f857600080fd5b6112048a838b01610d43565b9550606089013591508082111561121a57600080fd5b6112268a838b01610d43565b9450608089013591508082111561123c57600080fd5b6112488a838b01610d43565b935060a089013591508082111561125e57600080fd5b5061126b89828a01610d43565b9150509295509295509295565b600080600080600060a0868803121561129057600080fd5b61129986610cbd565b9450602086013567ffffffffffffffff808211156112b657600080fd5b6112c289838a01610d43565b955060408801359150808211156112d857600080fd5b6112e489838a01610d43565b945060608801359150808211156112fa57600080fd5b61130689838a01610d43565b9350608088013591508082111561131c57600080fd5b5061132988828901610d43565b9150509295509295909350565b6000806040838503121561134957600080fd5b61135283610cbd565b9150602083013567ffffffffffffffff81111561136e57600080fd5b61137a85828601610d43565b9150509250929050565b80356001600160a01b0381168114610cce57600080fd5b600067ffffffffffffffff8211156113b5576113b5610cd3565b5060051b60200190565b600082601f8301126113d057600080fd5b813560206113e56113e08361139b565b610d12565b82815260059290921b8401810191818101908684111561140457600080fd5b8286015b8481101561141f5780358352918301918301611408565b509695505050505050565b600082601f83011261143b57600080fd5b8135602061144b6113e08361139b565b82815260059290921b8401810191818101908684111561146a57600080fd5b8286015b8481101561141f57803580151581146114875760008081fd5b835291830191830161146e565b600082601f8301126114a557600080fd5b813560206114b56113e08361139b565b82815260059290921b840181019181810190868411156114d457600080fd5b8286015b8481101561141f57803567ffffffffffffffff8111156114f85760008081fd5b6115068986838b0101610d43565b8452509183019183016114d8565b600060c0828403121561152657600080fd5b61152e610ce9565b9050813567ffffffffffffffff8082111561154857600080fd5b611554858386016113bf565b8352602084013591508082111561156a57600080fd5b611576858386016113bf565b6020840152604084013591508082111561158f57600080fd5b61159b8583860161142a565b604084015260608401359150808211156115b457600080fd5b6115c0858386016113bf565b606084015260808401359150808211156115d957600080fd5b6115e5858386016113bf565b608084015260a08401359150808211156115fe57600080fd5b5061160b84828501611494565b60a08301525092915050565b60006040828403121561162957600080fd5b6040516040810167ffffffffffffffff828210818311171561164d5761164d610cd3565b8160405282935061165d85611384565b8352602085013591508082111561167357600080fd5b5061168085828601610d43565b6020830152505092915050565b600080600080608085870312156116a357600080fd5b6116ac85611384565b9350602085013567ffffffffffffffff808211156116c957600080fd5b6116d588838901611514565b945060408701359150808211156116eb57600080fd5b6116f788838901611514565b9350606087013591508082111561170d57600080fd5b5061171a87828801611617565b91505092959194509250565b60008060006060848603121561173b57600080fd5b61174484610cbd565b9250602084013567ffffffffffffffff8082111561176157600080fd5b61176d87838801610d43565b9350604086013591508082111561178357600080fd5b5061179086828701610d43565b9150509250925092565b600080600080608085870312156117b057600080fd5b6117b985610cbd565b9350602085013567ffffffffffffffff808211156117d657600080fd5b6117e288838901610d43565b945060408701359150808211156117f857600080fd5b61180488838901610d43565b9350606087013591508082111561181a57600080fd5b5061171a87828801610d43565b600080600080600060a0868803121561183f57600080fd5b61184886611384565b945060208601359350604086013567ffffffffffffffff8082111561186c57600080fd5b61187889838a01611514565b9450606088013591508082111561188e57600080fd5b61189a89838a01611514565b935060808801359150808211156118b057600080fd5b5061132988828901611617565b6000806000806000806000806000806101408b8d0312156118dd57600080fd5b6118e68b610cbd565b995060208b013567ffffffffffffffff8082111561190357600080fd5b61190f8e838f01610d43565b9a5060408d013591508082111561192557600080fd5b6119318e838f01610d43565b995060608d013591508082111561194757600080fd5b6119538e838f01610d43565b985060808d013591508082111561196957600080fd5b6119758e838f01610d43565b975060a08d013591508082111561198b57600080fd5b6119978e838f01610d43565b965060c08d01359150808211156119ad57600080fd5b6119b98e838f01610d43565b955060e08d01359150808211156119cf57600080fd5b6119db8e838f01610d43565b94506101008d01359150808211156119f257600080fd5b6119fe8e838f01610d43565b93506101208d0135915080821115611a1557600080fd5b50611a228d828e01610d43565b9150509295989b9194979a5092959850565b60008060008060008060008060008060006101608c8e031215611a5657600080fd5b611a5f8c610cbd565b9a5067ffffffffffffffff8060208e01351115611a7b57600080fd5b611a8b8e60208f01358f01610d43565b9a508060408e01351115611a9e57600080fd5b611aae8e60408f01358f01610d43565b99508060608e01351115611ac157600080fd5b611ad18e60608f01358f01610d43565b98508060808e01351115611ae457600080fd5b611af48e60808f01358f01610d43565b97508060a08e01351115611b0757600080fd5b611b178e60a08f01358f01610d43565b96508060c08e01351115611b2a57600080fd5b611b3a8e60c08f01358f01610d43565b95508060e08e01351115611b4d57600080fd5b611b5d8e60e08f01358f01610d43565b9450806101008e01351115611b7157600080fd5b611b828e6101008f01358f01610d43565b9350806101208e01351115611b9657600080fd5b611ba78e6101208f01358f01610d43565b9250806101408e01351115611bbb57600080fd5b50611bcd8d6101408e01358e01610d43565b90509295989b509295989b9093969950565b634e487b7160e01b600052603260045260246000fd5b600081518084526020808501808196508360051b8101915082860160005b85811015611c3d578284038952611c2b848351610edf565b98850198935090840190600101611c13565b5091979650505050505050565b60ff83168152604060208201526000611c666040830184611bf5565b949350505050565b600081518084526020808501945080840160005b83811015611c9e57815187529582019590820190600101611c82565b509495945050505050565b600081518084526020808501945080840160005b83811015611c9e578151151587529582019590820190600101611cbd565b6000815160c08452611cf060c0850182611c6e565b60208481015186830387830152805180845290820193509091600091908301905b80831015611d315784518252938301936001929092019190830190611d11565b50604086015193508681036040880152611d4b8185611ca9565b935050505060608301518482036060860152611d678282611c6e565b91505060808301518482036080860152611d818282611c6e565b91505060a083015184820360a0860152611d9b8282611bf5565b95945050505050565b6001600160a01b0381511682526000602082015160406020850152611c666040850182610edf565b6001600160a01b0385168152608060208201526000611dee6080830186611cdb565b8281036040840152611e008186611cdb565b90508281036060840152611e148185611da4565b979650505050505050565b6001600160a01b038616815284602082015260a060408201526000611e4760a0830186611cdb565b8281036060840152611e598186611cdb565b90508281036080840152611e6d8185611da4565b9897505050505050505056fea164736f6c6343000811000a",
    "linkReferences": {}
  },
  "methodIdentifiers": {
    "unsignedData(uint8,bytes)": "5c1c43e0",
    "unsignedData(uint8,bytes,bytes)": "9ea252ea",
    "unsignedData(uint8,bytes,bytes,bytes)": "bb5de515",
    "unsignedData(uint8,bytes,bytes,bytes,bytes)": "41462725",
    "unsignedData(uint8,bytes,bytes,bytes,bytes,bytes)": "281bffdd",
    "unsignedData(uint8,bytes,bytes,bytes,bytes,bytes,bytes)": "13650d12",
    "unsignedData(uint8,bytes,bytes,bytes,bytes,bytes,bytes,bytes)": "04fa493e",
    "unsignedData(uint8,bytes,bytes,bytes,bytes,bytes,bytes,bytes,bytes)": "23131745",
    "unsignedData(uint8,bytes,bytes,bytes,bytes,bytes,bytes,bytes,bytes,bytes)": "c3522250",
    "unsignedData(uint8,bytes,bytes,bytes,bytes,bytes,bytes,bytes,bytes,bytes,bytes)": "eb8b8cd9",
    "unsignedLimitSwapData(address,uint256,(uint256[],bytes32[],bool[],uint256[],uint256[],bytes[]),(uint256[],bytes32[],bool[],uint256[],uint256[],bytes[]),(address,bytes))": "bf78373d",
    "unsignedMarketSwapData(address,(uint256[],bytes32[],bool[],uint256[],uint256[],bytes[]),(uint256[],bytes32[],bool[],uint256[],uint256[],bytes[]),(address,bytes))": "8c98998a"
  },
  "id": 54
}