{
  "abi": [
    {
      "inputs": [
        {
          "internalType": "uint8",
          "name": "intentIndex",
          "type": "uint8"
        },
        {
          "internalType": "bytes",
          "name": "unsignedCall1",
          "type": "bytes"
        },
        {
          "internalType": "bytes",
          "name": "unsignedCall2",
          "type": "bytes"
        },
        {
          "internalType": "bytes",
          "name": "unsignedCall3",
          "type": "bytes"
        },
        {
          "internalType": "bytes",
          "name": "unsignedCall4",
          "type": "bytes"
        },
        {
          "internalType": "bytes",
          "name": "unsignedCall5",
          "type": "bytes"
        },
        {
          "internalType": "bytes",
          "name": "unsignedCall6",
          "type": "bytes"
        },
        {
          "internalType": "bytes",
          "name": "unsignedCall7",
          "type": "bytes"
        }
      ],
      "name": "unsignedData",
      "outputs": [
        {
          "internalType": "bytes",
          "name": "",
          "type": "bytes"
        }
      ],
      "stateMutability": "pure",
      "type": "function"
    },
    {
      "inputs": [
        {
          "internalType": "uint8",
          "name": "intentIndex",
          "type": "uint8"
        },
        {
          "internalType": "bytes",
          "name": "unsignedCall1",
          "type": "bytes"
        },
        {
          "internalType": "bytes",
          "name": "unsignedCall2",
          "type": "bytes"
        },
        {
          "internalType": "bytes",
          "name": "unsignedCall3",
          "type": "bytes"
        },
        {
          "internalType": "bytes",
          "name": "unsignedCall4",
          "type": "bytes"
        },
        {
          "internalType": "bytes",
          "name": "unsignedCall5",
          "type": "bytes"
        },
        {
          "internalType": "bytes",
          "name": "unsignedCall6",
          "type": "bytes"
        }
      ],
      "name": "unsignedData",
      "outputs": [
        {
          "internalType": "bytes",
          "name": "",
          "type": "bytes"
        }
      ],
      "stateMutability": "pure",
      "type": "function"
    },
    {
      "inputs": [
        {
          "internalType": "uint8",
          "name": "intentIndex",
          "type": "uint8"
        },
        {
          "internalType": "bytes",
          "name": "unsignedCall1",
          "type": "bytes"
        },
        {
          "internalType": "bytes",
          "name": "unsignedCall2",
          "type": "bytes"
        },
        {
          "internalType": "bytes",
          "name": "unsignedCall3",
          "type": "bytes"
        },
        {
          "internalType": "bytes",
          "name": "unsignedCall4",
          "type": "bytes"
        },
        {
          "internalType": "bytes",
          "name": "unsignedCall5",
          "type": "bytes"
        },
        {
          "internalType": "bytes",
          "name": "unsignedCall6",
          "type": "bytes"
        },
        {
          "internalType": "bytes",
          "name": "unsignedCall7",
          "type": "bytes"
        },
        {
          "internalType": "bytes",
          "name": "unsignedCall8",
          "type": "bytes"
        }
      ],
      "name": "unsignedData",
      "outputs": [
        {
          "internalType": "bytes",
          "name": "",
          "type": "bytes"
        }
      ],
      "stateMutability": "pure",
      "type": "function"
    },
    {
      "inputs": [
        {
          "internalType": "uint8",
          "name": "intentIndex",
          "type": "uint8"
        },
        {
          "internalType": "bytes",
          "name": "unsignedCall1",
          "type": "bytes"
        },
        {
          "internalType": "bytes",
          "name": "unsignedCall2",
          "type": "bytes"
        },
        {
          "internalType": "bytes",
          "name": "unsignedCall3",
          "type": "bytes"
        },
        {
          "internalType": "bytes",
          "name": "unsignedCall4",
          "type": "bytes"
        },
        {
          "internalType": "bytes",
          "name": "unsignedCall5",
          "type": "bytes"
        }
      ],
      "name": "unsignedData",
      "outputs": [
        {
          "internalType": "bytes",
          "name": "",
          "type": "bytes"
        }
      ],
      "stateMutability": "pure",
      "type": "function"
    },
    {
      "inputs": [
        {
          "internalType": "uint8",
          "name": "intentIndex",
          "type": "uint8"
        },
        {
          "internalType": "bytes",
          "name": "unsignedCall1",
          "type": "bytes"
        },
        {
          "internalType": "bytes",
          "name": "unsignedCall2",
          "type": "bytes"
        },
        {
          "internalType": "bytes",
          "name": "unsignedCall3",
          "type": "bytes"
        },
        {
          "internalType": "bytes",
          "name": "unsignedCall4",
          "type": "bytes"
        }
      ],
      "name": "unsignedData",
      "outputs": [
        {
          "internalType": "bytes",
          "name": "",
          "type": "bytes"
        }
      ],
      "stateMutability": "pure",
      "type": "function"
    },
    {
      "inputs": [
        {
          "internalType": "uint8",
          "name": "intentIndex",
          "type": "uint8"
        },
        {
          "internalType": "bytes",
          "name": "unsignedCall1",
          "type": "bytes"
        }
      ],
      "name": "unsignedData",
      "outputs": [
        {
          "internalType": "bytes",
          "name": "",
          "type": "bytes"
        }
      ],
      "stateMutability": "pure",
      "type": "function"
    },
    {
      "inputs": [
        {
          "internalType": "uint8",
          "name": "intentIndex",
          "type": "uint8"
        },
        {
          "internalType": "bytes",
          "name": "unsignedCall1",
          "type": "bytes"
        },
        {
          "internalType": "bytes",
          "name": "unsignedCall2",
          "type": "bytes"
        }
      ],
      "name": "unsignedData",
      "outputs": [
        {
          "internalType": "bytes",
          "name": "",
          "type": "bytes"
        }
      ],
      "stateMutability": "pure",
      "type": "function"
    },
    {
      "inputs": [
        {
          "internalType": "uint8",
          "name": "intentIndex",
          "type": "uint8"
        },
        {
          "internalType": "bytes",
          "name": "unsignedCall1",
          "type": "bytes"
        },
        {
          "internalType": "bytes",
          "name": "unsignedCall2",
          "type": "bytes"
        },
        {
          "internalType": "bytes",
          "name": "unsignedCall3",
          "type": "bytes"
        }
      ],
      "name": "unsignedData",
      "outputs": [
        {
          "internalType": "bytes",
          "name": "",
          "type": "bytes"
        }
      ],
      "stateMutability": "pure",
      "type": "function"
    },
    {
      "inputs": [
        {
          "internalType": "uint8",
          "name": "intentIndex",
          "type": "uint8"
        },
        {
          "internalType": "bytes",
          "name": "unsignedCall1",
          "type": "bytes"
        },
        {
          "internalType": "bytes",
          "name": "unsignedCall2",
          "type": "bytes"
        },
        {
          "internalType": "bytes",
          "name": "unsignedCall3",
          "type": "bytes"
        },
        {
          "internalType": "bytes",
          "name": "unsignedCall4",
          "type": "bytes"
        },
        {
          "internalType": "bytes",
          "name": "unsignedCall5",
          "type": "bytes"
        },
        {
          "internalType": "bytes",
          "name": "unsignedCall6",
          "type": "bytes"
        },
        {
          "internalType": "bytes",
          "name": "unsignedCall7",
          "type": "bytes"
        },
        {
          "internalType": "bytes",
          "name": "unsignedCall8",
          "type": "bytes"
        },
        {
          "internalType": "bytes",
          "name": "unsignedCall9",
          "type": "bytes"
        }
      ],
      "name": "unsignedData",
      "outputs": [
        {
          "internalType": "bytes",
          "name": "",
          "type": "bytes"
        }
      ],
      "stateMutability": "pure",
      "type": "function"
    },
    {
      "inputs": [
        {
          "internalType": "uint8",
          "name": "intentIndex",
          "type": "uint8"
        },
        {
          "internalType": "bytes",
          "name": "unsignedCall1",
          "type": "bytes"
        },
        {
          "internalType": "bytes",
          "name": "unsignedCall2",
          "type": "bytes"
        },
        {
          "internalType": "bytes",
          "name": "unsignedCall3",
          "type": "bytes"
        },
        {
          "internalType": "bytes",
          "name": "unsignedCall4",
          "type": "bytes"
        },
        {
          "internalType": "bytes",
          "name": "unsignedCall5",
          "type": "bytes"
        },
        {
          "internalType": "bytes",
          "name": "unsignedCall6",
          "type": "bytes"
        },
        {
          "internalType": "bytes",
          "name": "unsignedCall7",
          "type": "bytes"
        },
        {
          "internalType": "bytes",
          "name": "unsignedCall8",
          "type": "bytes"
        },
        {
          "internalType": "bytes",
          "name": "unsignedCall9",
          "type": "bytes"
        },
        {
          "internalType": "bytes",
          "name": "unsignedCall10",
          "type": "bytes"
        }
      ],
      "name": "unsignedData",
      "outputs": [
        {
          "internalType": "bytes",
          "name": "",
          "type": "bytes"
        }
      ],
      "stateMutability": "pure",
      "type": "function"
    },
    {
      "inputs": [
        {
          "internalType": "address",
          "name": "recipient",
          "type": "address"
        },
        {
          "internalType": "uint256",
          "name": "amount",
          "type": "uint256"
        },
        {
          "components": [
            {
              "internalType": "uint256[]",
              "name": "ids",
              "type": "uint256[]"
            },
            {
              "internalType": "bytes32[]",
              "name": "merkleProof_hashes",
              "type": "bytes32[]"
            },
            {
              "internalType": "bool[]",
              "name": "merkleProof_flags",
              "type": "bool[]"
            },
            {
              "internalType": "uint256[]",
              "name": "statusProof_lastTransferTimes",
              "type": "uint256[]"
            },
            {
              "internalType": "uint256[]",
              "name": "statusProof_timestamps",
              "type": "uint256[]"
            },
            {
              "internalType": "bytes[]",
              "name": "statusProof_signatures",
              "type": "bytes[]"
            }
          ],
          "internalType": "struct IdsProof",
          "name": "tokenInIdsProof",
          "type": "tuple"
        },
        {
          "components": [
            {
              "internalType": "uint256[]",
              "name": "ids",
              "type": "uint256[]"
            },
            {
              "internalType": "bytes32[]",
              "name": "merkleProof_hashes",
              "type": "bytes32[]"
            },
            {
              "internalType": "bool[]",
              "name": "merkleProof_flags",
              "type": "bool[]"
            },
            {
              "internalType": "uint256[]",
              "name": "statusProof_lastTransferTimes",
              "type": "uint256[]"
            },
            {
              "internalType": "uint256[]",
              "name": "statusProof_timestamps",
              "type": "uint256[]"
            },
            {
              "internalType": "bytes[]",
              "name": "statusProof_signatures",
              "type": "bytes[]"
            }
          ],
          "internalType": "struct IdsProof",
          "name": "tokenOutIdsProof",
          "type": "tuple"
        },
        {
          "components": [
            {
              "internalType": "address",
              "name": "targetContract",
              "type": "address"
            },
            {
              "internalType": "bytes",
              "name": "data",
              "type": "bytes"
            }
          ],
          "internalType": "struct Call",
          "name": "fillCall",
          "type": "tuple"
        }
      ],
      "name": "unsignedLimitSwapData",
      "outputs": [
        {
          "internalType": "bytes",
          "name": "",
          "type": "bytes"
        }
      ],
      "stateMutability": "pure",
      "type": "function"
    },
    {
      "inputs": [
        {
          "internalType": "address",
          "name": "recipient",
          "type": "address"
        },
        {
          "components": [
            {
              "internalType": "uint256[]",
              "name": "ids",
              "type": "uint256[]"
            },
            {
              "internalType": "bytes32[]",
              "name": "merkleProof_hashes",
              "type": "bytes32[]"
            },
            {
              "internalType": "bool[]",
              "name": "merkleProof_flags",
              "type": "bool[]"
            },
            {
              "internalType": "uint256[]",
              "name": "statusProof_lastTransferTimes",
              "type": "uint256[]"
            },
            {
              "internalType": "uint256[]",
              "name": "statusProof_timestamps",
              "type": "uint256[]"
            },
            {
              "internalType": "bytes[]",
              "name": "statusProof_signatures",
              "type": "bytes[]"
            }
          ],
          "internalType": "struct IdsProof",
          "name": "tokenInIdsProof",
          "type": "tuple"
        },
        {
          "components": [
            {
              "internalType": "uint256[]",
              "name": "ids",
              "type": "uint256[]"
            },
            {
              "internalType": "bytes32[]",
              "name": "merkleProof_hashes",
              "type": "bytes32[]"
            },
            {
              "internalType": "bool[]",
              "name": "merkleProof_flags",
              "type": "bool[]"
            },
            {
              "internalType": "uint256[]",
              "name": "statusProof_lastTransferTimes",
              "type": "uint256[]"
            },
            {
              "internalType": "uint256[]",
              "name": "statusProof_timestamps",
              "type": "uint256[]"
            },
            {
              "internalType": "bytes[]",
              "name": "statusProof_signatures",
              "type": "bytes[]"
            }
          ],
          "internalType": "struct IdsProof",
          "name": "tokenOutIdsProof",
          "type": "tuple"
        },
        {
          "components": [
            {
              "internalType": "address",
              "name": "targetContract",
              "type": "address"
            },
            {
              "internalType": "bytes",
              "name": "data",
              "type": "bytes"
            }
          ],
          "internalType": "struct Call",
          "name": "fillCall",
          "type": "tuple"
        }
      ],
      "name": "unsignedMarketSwapData",
      "outputs": [
        {
          "internalType": "bytes",
          "name": "",
          "type": "bytes"
        }
      ],
      "stateMutability": "pure",
      "type": "function"
    },
    {
      "inputs": [
        {
          "internalType": "address",
          "name": "recipient",
          "type": "address"
        },
        {
          "components": [
            {
              "internalType": "uint256[]",
              "name": "ids",
              "type": "uint256[]"
            },
            {
              "internalType": "bytes32[]",
              "name": "merkleProof_hashes",
              "type": "bytes32[]"
            },
            {
              "internalType": "bool[]",
              "name": "merkleProof_flags",
              "type": "bool[]"
            },
            {
              "internalType": "uint256[]",
              "name": "statusProof_lastTransferTimes",
              "type": "uint256[]"
            },
            {
              "internalType": "uint256[]",
              "name": "statusProof_timestamps",
              "type": "uint256[]"
            },
            {
              "internalType": "bytes[]",
              "name": "statusProof_signatures",
              "type": "bytes[]"
            }
          ],
          "internalType": "struct IdsProof",
          "name": "tokenInIdsProof",
          "type": "tuple"
        },
        {
          "components": [
            {
              "internalType": "uint256[]",
              "name": "ids",
              "type": "uint256[]"
            },
            {
              "internalType": "bytes32[]",
              "name": "merkleProof_hashes",
              "type": "bytes32[]"
            },
            {
              "internalType": "bool[]",
              "name": "merkleProof_flags",
              "type": "bool[]"
            },
            {
              "internalType": "uint256[]",
              "name": "statusProof_lastTransferTimes",
              "type": "uint256[]"
            },
            {
              "internalType": "uint256[]",
              "name": "statusProof_timestamps",
              "type": "uint256[]"
            },
            {
              "internalType": "bytes[]",
              "name": "statusProof_signatures",
              "type": "bytes[]"
            }
          ],
          "internalType": "struct IdsProof",
          "name": "tokenOutIdsProof",
          "type": "tuple"
        },
        {
          "components": [
            {
              "internalType": "address",
              "name": "targetContract",
              "type": "address"
            },
            {
              "internalType": "bytes",
              "name": "data",
              "type": "bytes"
            }
          ],
          "internalType": "struct Call",
          "name": "fillCall",
          "type": "tuple"
        },
        {
          "internalType": "bytes",
          "name": "signature",
          "type": "bytes"
        }
      ],
      "name": "unsignedSwapData",
      "outputs": [
        {
          "internalType": "bytes",
          "name": "",
          "type": "bytes"
        }
      ],
      "stateMutability": "pure",
      "type": "function"
    }
  ],
  "bytecode": {
    "object": "0x608060405234801561001057600080fd5b50611fa9806100206000396000f3fe608060405234801561001057600080fd5b50600436106100df5760003560e01c80638c98998a1161008c578063bf78373d11610066578063bf78373d146101a5578063c3522250146101b8578063eb8b8cd9146101cb578063f75dbfe7146101de57600080fd5b80638c98998a1461016c5780639ea252ea1461017f578063bb5de5151461019257600080fd5b8063281bffdd116100bd578063281bffdd1461013357806341462725146101465780635c1c43e01461015957600080fd5b806304fa493e146100e457806313650d121461010d5780632313174514610120575b600080fd5b6100f76100f2366004610dec565b6101f1565b6040516101049190610f5e565b60405180910390f35b6100f761011b366004610f78565b61032f565b6100f761012e36600461107f565b61044c565b6100f76101413660046111d0565b6105aa565b6100f76101543660046112b1565b6106a7565b6100f761016736600461136f565b610784565b6100f761017a3660046116c6565b610800565b6100f761018d36600461175f565b610832565b6100f76101a03660046117d3565b6108cd565b6100f76101b3366004611860565b61098a565b6100f76101c63660046118f6565b6109bf565b6100f76101d9366004611a6d565b610b3d565b6100f76101ec366004611c18565b610cdb565b604080516007808252610100820190925260609160009190816020015b606081526020019060019003908161020e579050509050888160008151811061023957610239611ca6565b6020026020010181905250878160018151811061025857610258611ca6565b6020026020010181905250868160028151811061027757610277611ca6565b6020026020010181905250858160038151811061029657610296611ca6565b602002602001018190525084816004815181106102b5576102b5611ca6565b602002602001018190525083816005815181106102d4576102d4611ca6565b602002602001018190525082816006815181106102f3576102f3611ca6565b60200260200101819052508981604051602001610311929190611d11565b60405160208183030381529060405291505098975050505050505050565b60408051600680825260e0820190925260609160009190816020015b606081526020019060019003908161034b579050509050878160008151811061037657610376611ca6565b6020026020010181905250868160018151811061039557610395611ca6565b602002602001018190525085816002815181106103b4576103b4611ca6565b602002602001018190525084816003815181106103d3576103d3611ca6565b602002602001018190525083816004815181106103f2576103f2611ca6565b6020026020010181905250828160058151811061041157610411611ca6565b6020026020010181905250888160405160200161042f929190611d11565b604051602081830303815290604052915050979650505050505050565b604080516008808252610120820190925260609160009190816020015b6060815260200190600190039081610469579050509050898160008151811061049457610494611ca6565b602002602001018190525088816001815181106104b3576104b3611ca6565b602002602001018190525087816002815181106104d2576104d2611ca6565b602002602001018190525086816003815181106104f1576104f1611ca6565b6020026020010181905250858160048151811061051057610510611ca6565b6020026020010181905250848160058151811061052f5761052f611ca6565b6020026020010181905250838160068151811061054e5761054e611ca6565b6020026020010181905250828160078151811061056d5761056d611ca6565b60200260200101819052508a8160405160200161058b929190611d11565b6040516020818303038152906040529150509998505050505050505050565b60408051600580825260c0820190925260609160009190816020015b60608152602001906001900390816105c657905050905086816000815181106105f1576105f1611ca6565b6020026020010181905250858160018151811061061057610610611ca6565b6020026020010181905250848160028151811061062f5761062f611ca6565b6020026020010181905250838160038151811061064e5761064e611ca6565b6020026020010181905250828160048151811061066d5761066d611ca6565b6020026020010181905250878160405160200161068b929190611d11565b6040516020818303038152906040529150509695505050505050565b60408051600480825260a0820190925260609160009190816020015b60608152602001906001900390816106c357905050905085816000815181106106ee576106ee611ca6565b6020026020010181905250848160018151811061070d5761070d611ca6565b6020026020010181905250838160028151811061072c5761072c611ca6565b6020026020010181905250828160038151811061074b5761074b611ca6565b60200260200101819052508681604051602001610769929190611d11565b60405160208183030381529060405291505095945050505050565b60408051600180825281830190925260609160009190816020015b606081526020019060019003908161079f57905050905082816000815181106107ca576107ca611ca6565b602002602001018190525083816040516020016107e8929190611d11565b60405160208183030381529060405291505092915050565b6060848484846040516020016108199493929190611e93565b6040516020818303038152906040529050949350505050565b604080516002808252606082810190935260009190816020015b606081526020019060019003908161084c579050509050838160008151811061087757610877611ca6565b6020026020010181905250828160018151811061089657610896611ca6565b602002602001018190525084816040516020016108b4929190611d11565b6040516020818303038152906040529150509392505050565b6040805160038082526080820190925260609160009190816020015b60608152602001906001900390816108e9579050509050848160008151811061091457610914611ca6565b6020026020010181905250838160018151811061093357610933611ca6565b6020026020010181905250828160028151811061095257610952611ca6565b60200260200101819052508581604051602001610970929190611d11565b604051602081830303815290604052915050949350505050565b606085858585856040516020016109a5959493929190611ee6565b604051602081830303815290604052905095945050505050565b604080516009808252610140820190925260609160009190816020015b60608152602001906001900390816109dc5790505090508a81600081518110610a0757610a07611ca6565b60200260200101819052508981600181518110610a2657610a26611ca6565b60200260200101819052508881600281518110610a4557610a45611ca6565b60200260200101819052508781600381518110610a6457610a64611ca6565b60200260200101819052508681600481518110610a8357610a83611ca6565b60200260200101819052508581600581518110610aa257610aa2611ca6565b60200260200101819052508481600681518110610ac157610ac1611ca6565b60200260200101819052508381600781518110610ae057610ae0611ca6565b60200260200101819052508281600881518110610aff57610aff611ca6565b60200260200101819052508b81604051602001610b1d929190611d11565b6040516020818303038152906040529150509a9950505050505050505050565b60408051600a808252610160820190925260609160009190816020015b6060815260200190600190039081610b5a5790505090508b81600081518110610b8557610b85611ca6565b60200260200101819052508a81600181518110610ba457610ba4611ca6565b60200260200101819052508981600281518110610bc357610bc3611ca6565b60200260200101819052508881600381518110610be257610be2611ca6565b60200260200101819052508781600481518110610c0157610c01611ca6565b60200260200101819052508681600581518110610c2057610c20611ca6565b60200260200101819052508581600681518110610c3f57610c3f611ca6565b60200260200101819052508481600781518110610c5e57610c5e611ca6565b60200260200101819052508381600881518110610c7d57610c7d611ca6565b60200260200101819052508281600981518110610c9c57610c9c611ca6565b60200260200101819052508c81604051602001610cba929190611d11565b6040516020818303038152906040529150509b9a5050505050505050505050565b606085858585856040516020016109a5959493929190611f40565b803560ff81168114610d0757600080fd5b919050565b634e487b7160e01b600052604160045260246000fd5b60405160c0810167ffffffffffffffff81118282101715610d4557610d45610d0c565b60405290565b604051601f8201601f1916810167ffffffffffffffff81118282101715610d7457610d74610d0c565b604052919050565b600082601f830112610d8d57600080fd5b813567ffffffffffffffff811115610da757610da7610d0c565b610dba601f8201601f1916602001610d4b565b818152846020838601011115610dcf57600080fd5b816020850160208301376000918101602001919091529392505050565b600080600080600080600080610100898b031215610e0957600080fd5b610e1289610cf6565b9750602089013567ffffffffffffffff80821115610e2f57600080fd5b610e3b8c838d01610d7c565b985060408b0135915080821115610e5157600080fd5b610e5d8c838d01610d7c565b975060608b0135915080821115610e7357600080fd5b610e7f8c838d01610d7c565b965060808b0135915080821115610e9557600080fd5b610ea18c838d01610d7c565b955060a08b0135915080821115610eb757600080fd5b610ec38c838d01610d7c565b945060c08b0135915080821115610ed957600080fd5b610ee58c838d01610d7c565b935060e08b0135915080821115610efb57600080fd5b50610f088b828c01610d7c565b9150509295985092959890939650565b6000815180845260005b81811015610f3e57602081850181015186830182015201610f22565b506000602082860101526020601f19601f83011685010191505092915050565b602081526000610f716020830184610f18565b9392505050565b600080600080600080600060e0888a031215610f9357600080fd5b610f9c88610cf6565b9650602088013567ffffffffffffffff80821115610fb957600080fd5b610fc58b838c01610d7c565b975060408a0135915080821115610fdb57600080fd5b610fe78b838c01610d7c565b965060608a0135915080821115610ffd57600080fd5b6110098b838c01610d7c565b955060808a013591508082111561101f57600080fd5b61102b8b838c01610d7c565b945060a08a013591508082111561104157600080fd5b61104d8b838c01610d7c565b935060c08a013591508082111561106357600080fd5b506110708a828b01610d7c565b91505092959891949750929550565b60008060008060008060008060006101208a8c03121561109e57600080fd5b6110a78a610cf6565b985060208a013567ffffffffffffffff808211156110c457600080fd5b6110d08d838e01610d7c565b995060408c01359150808211156110e657600080fd5b6110f28d838e01610d7c565b985060608c013591508082111561110857600080fd5b6111148d838e01610d7c565b975060808c013591508082111561112a57600080fd5b6111368d838e01610d7c565b965060a08c013591508082111561114c57600080fd5b6111588d838e01610d7c565b955060c08c013591508082111561116e57600080fd5b61117a8d838e01610d7c565b945060e08c013591508082111561119057600080fd5b61119c8d838e01610d7c565b93506101008c01359150808211156111b357600080fd5b506111c08c828d01610d7c565b9150509295985092959850929598565b60008060008060008060c087890312156111e957600080fd5b6111f287610cf6565b9550602087013567ffffffffffffffff8082111561120f57600080fd5b61121b8a838b01610d7c565b9650604089013591508082111561123157600080fd5b61123d8a838b01610d7c565b9550606089013591508082111561125357600080fd5b61125f8a838b01610d7c565b9450608089013591508082111561127557600080fd5b6112818a838b01610d7c565b935060a089013591508082111561129757600080fd5b506112a489828a01610d7c565b9150509295509295509295565b600080600080600060a086880312156112c957600080fd5b6112d286610cf6565b9450602086013567ffffffffffffffff808211156112ef57600080fd5b6112fb89838a01610d7c565b9550604088013591508082111561131157600080fd5b61131d89838a01610d7c565b9450606088013591508082111561133357600080fd5b61133f89838a01610d7c565b9350608088013591508082111561135557600080fd5b5061136288828901610d7c565b9150509295509295909350565b6000806040838503121561138257600080fd5b61138b83610cf6565b9150602083013567ffffffffffffffff8111156113a757600080fd5b6113b385828601610d7c565b9150509250929050565b80356001600160a01b0381168114610d0757600080fd5b600067ffffffffffffffff8211156113ee576113ee610d0c565b5060051b60200190565b600082601f83011261140957600080fd5b8135602061141e611419836113d4565b610d4b565b82815260059290921b8401810191818101908684111561143d57600080fd5b8286015b848110156114585780358352918301918301611441565b509695505050505050565b600082601f83011261147457600080fd5b81356020611484611419836113d4565b82815260059290921b840181019181810190868411156114a357600080fd5b8286015b8481101561145857803580151581146114c05760008081fd5b83529183019183016114a7565b600082601f8301126114de57600080fd5b813560206114ee611419836113d4565b82815260059290921b8401810191818101908684111561150d57600080fd5b8286015b8481101561145857803567ffffffffffffffff8111156115315760008081fd5b61153f8986838b0101610d7c565b845250918301918301611511565b600060c0828403121561155f57600080fd5b611567610d22565b9050813567ffffffffffffffff8082111561158157600080fd5b61158d858386016113f8565b835260208401359150808211156115a357600080fd5b6115af858386016113f8565b602084015260408401359150808211156115c857600080fd5b6115d485838601611463565b604084015260608401359150808211156115ed57600080fd5b6115f9858386016113f8565b6060840152608084013591508082111561161257600080fd5b61161e858386016113f8565b608084015260a084013591508082111561163757600080fd5b50611644848285016114cd565b60a08301525092915050565b60006040828403121561166257600080fd5b6040516040810167ffffffffffffffff828210818311171561168657611686610d0c565b81604052829350611696856113bd565b835260208501359150808211156116ac57600080fd5b506116b985828601610d7c565b6020830152505092915050565b600080600080608085870312156116dc57600080fd5b6116e5856113bd565b9350602085013567ffffffffffffffff8082111561170257600080fd5b61170e8883890161154d565b9450604087013591508082111561172457600080fd5b6117308883890161154d565b9350606087013591508082111561174657600080fd5b5061175387828801611650565b91505092959194509250565b60008060006060848603121561177457600080fd5b61177d84610cf6565b9250602084013567ffffffffffffffff8082111561179a57600080fd5b6117a687838801610d7c565b935060408601359150808211156117bc57600080fd5b506117c986828701610d7c565b9150509250925092565b600080600080608085870312156117e957600080fd5b6117f285610cf6565b9350602085013567ffffffffffffffff8082111561180f57600080fd5b61181b88838901610d7c565b9450604087013591508082111561183157600080fd5b61183d88838901610d7c565b9350606087013591508082111561185357600080fd5b5061175387828801610d7c565b600080600080600060a0868803121561187857600080fd5b611881866113bd565b945060208601359350604086013567ffffffffffffffff808211156118a557600080fd5b6118b189838a0161154d565b945060608801359150808211156118c757600080fd5b6118d389838a0161154d565b935060808801359150808211156118e957600080fd5b5061136288828901611650565b6000806000806000806000806000806101408b8d03121561191657600080fd5b61191f8b610cf6565b995060208b013567ffffffffffffffff8082111561193c57600080fd5b6119488e838f01610d7c565b9a5060408d013591508082111561195e57600080fd5b61196a8e838f01610d7c565b995060608d013591508082111561198057600080fd5b61198c8e838f01610d7c565b985060808d01359150808211156119a257600080fd5b6119ae8e838f01610d7c565b975060a08d01359150808211156119c457600080fd5b6119d08e838f01610d7c565b965060c08d01359150808211156119e657600080fd5b6119f28e838f01610d7c565b955060e08d0135915080821115611a0857600080fd5b611a148e838f01610d7c565b94506101008d0135915080821115611a2b57600080fd5b611a378e838f01610d7c565b93506101208d0135915080821115611a4e57600080fd5b50611a5b8d828e01610d7c565b9150509295989b9194979a5092959850565b60008060008060008060008060008060006101608c8e031215611a8f57600080fd5b611a988c610cf6565b9a5067ffffffffffffffff8060208e01351115611ab457600080fd5b611ac48e60208f01358f01610d7c565b9a508060408e01351115611ad757600080fd5b611ae78e60408f01358f01610d7c565b99508060608e01351115611afa57600080fd5b611b0a8e60608f01358f01610d7c565b98508060808e01351115611b1d57600080fd5b611b2d8e60808f01358f01610d7c565b97508060a08e01351115611b4057600080fd5b611b508e60a08f01358f01610d7c565b96508060c08e01351115611b6357600080fd5b611b738e60c08f01358f01610d7c565b95508060e08e01351115611b8657600080fd5b611b968e60e08f01358f01610d7c565b9450806101008e01351115611baa57600080fd5b611bbb8e6101008f01358f01610d7c565b9350806101208e01351115611bcf57600080fd5b611be08e6101208f01358f01610d7c565b9250806101408e01351115611bf457600080fd5b50611c068d6101408e01358e01610d7c565b90509295989b509295989b9093969950565b600080600080600060a08688031215611c3057600080fd5b611c39866113bd565b9450602086013567ffffffffffffffff80821115611c5657600080fd5b611c6289838a0161154d565b95506040880135915080821115611c7857600080fd5b611c8489838a0161154d565b94506060880135915080821115611c9a57600080fd5b61133f89838a01611650565b634e487b7160e01b600052603260045260246000fd5b600081518084526020808501808196508360051b8101915082860160005b85811015611d04578284038952611cf2848351610f18565b98850198935090840190600101611cda565b5091979650505050505050565b60ff83168152604060208201526000611d2d6040830184611cbc565b949350505050565b600081518084526020808501945080840160005b83811015611d6557815187529582019590820190600101611d49565b509495945050505050565b600081518084526020808501945080840160005b83811015611d65578151151587529582019590820190600101611d84565b6000815160c08452611db760c0850182611d35565b60208481015186830387830152805180845290820193509091600091908301905b80831015611df85784518252938301936001929092019190830190611dd8565b50604086015193508681036040880152611e128185611d70565b935050505060608301518482036060860152611e2e8282611d35565b91505060808301518482036080860152611e488282611d35565b91505060a083015184820360a0860152611e628282611cbc565b95945050505050565b6001600160a01b0381511682526000602082015160406020850152611d2d6040850182610f18565b6001600160a01b0385168152608060208201526000611eb56080830186611da2565b8281036040840152611ec78186611da2565b90508281036060840152611edb8185611e6b565b979650505050505050565b6001600160a01b038616815284602082015260a060408201526000611f0e60a0830186611da2565b8281036060840152611f208186611da2565b90508281036080840152611f348185611e6b565b98975050505050505050565b6001600160a01b038616815260a060208201526000611f6260a0830187611da2565b8281036040840152611f748187611da2565b90508281036060840152611f888186611e6b565b90508281036080840152611f348185610f1856fea164736f6c6343000811000a",
    "linkReferences": {}
  },
  "methodIdentifiers": {
    "unsignedData(uint8,bytes)": "5c1c43e0",
    "unsignedData(uint8,bytes,bytes)": "9ea252ea",
    "unsignedData(uint8,bytes,bytes,bytes)": "bb5de515",
    "unsignedData(uint8,bytes,bytes,bytes,bytes)": "41462725",
    "unsignedData(uint8,bytes,bytes,bytes,bytes,bytes)": "281bffdd",
    "unsignedData(uint8,bytes,bytes,bytes,bytes,bytes,bytes)": "13650d12",
    "unsignedData(uint8,bytes,bytes,bytes,bytes,bytes,bytes,bytes)": "04fa493e",
    "unsignedData(uint8,bytes,bytes,bytes,bytes,bytes,bytes,bytes,bytes)": "23131745",
    "unsignedData(uint8,bytes,bytes,bytes,bytes,bytes,bytes,bytes,bytes,bytes)": "c3522250",
    "unsignedData(uint8,bytes,bytes,bytes,bytes,bytes,bytes,bytes,bytes,bytes,bytes)": "eb8b8cd9",
    "unsignedLimitSwapData(address,uint256,(uint256[],bytes32[],bool[],uint256[],uint256[],bytes[]),(uint256[],bytes32[],bool[],uint256[],uint256[],bytes[]),(address,bytes))": "bf78373d",
    "unsignedMarketSwapData(address,(uint256[],bytes32[],bool[],uint256[],uint256[],bytes[]),(uint256[],bytes32[],bool[],uint256[],uint256[],bytes[]),(address,bytes))": "8c98998a",
    "unsignedSwapData(address,(uint256[],bytes32[],bool[],uint256[],uint256[],bytes[]),(uint256[],bytes32[],bool[],uint256[],uint256[],bytes[]),(address,bytes),bytes)": "f75dbfe7"
  },
  "id": 45
}